:100000000C94F3000C9410010C9410010C9410014A
:100010000C9410010C9410010C9410010C9410011C
:100020000C9410010C9410010C9410010C9410010C
:100030000C9410010C9410010C9410010C941001FC
:100040000C9410010C9410010C9410010C941001EC
:100050000C9410010C9410010C9410010C941001DC
:100060000C9410010C942C030C9410010C941001AE
:100070000C9410010C9410010C9410010C941001BC
:100080000C9410010C9410010C9410010C941001AC
:100090000C945C030C9410010C9410010C9410014E
:1000A0000C9410010C9410010C9410010C9410018C
:1000B0000C9410010C9410010C9410010C9410017C
:1000C0000C9410010C9410010C9410010C948C03EE
:1000D0000C9410010C9410010C94BC030C941001AE
:1000E0000C9410016E616E00696E660000407A101B
:1000F000F35A00A0724E18090010A5D4E80000E8D9
:100100007648170000E40B54020000CA9A3B000036
:1001100000E1F505000080969800000040420F00C5
:100120000000A08601000000102700000000E80386
:10013000000000006400000000000A000000000051
:100140000100000000002C76D888DC674F0823DF10
:10015000C1DFAE59E1B1B796E5E3E453C63AE651E3
:10016000997696E8E6C28426EB898C9B62ED407C0A
:100170006FFCEFBC9C9F40F2BAA56FA5F490055AA6
:100180002AF75C936B6CF9676DC11BFCE0E40D47CB
:10019000FEF520E6B500D0ED902E030094357705EE
:1001A0000080841E080000204E0A000000C80C33A6
:1001B0003333330F986E12831141EF8D2114893B35
:1001C000E65516CFFEE6DB18D1844B381BF77C1DB5
:1001D000901DA4BBE424203284725E228100C9F108
:1001E00024ECA1E53D2711241FBECFEFD1E2DEBFF5
:1001F000CDBF15E0A0E0B2E0E4ECF0E402C0059071
:100200000D92A633B107D9F717E0A6E3B5E001C018
:100210001D92A43BB107E1F70E9412010C946020EB
:100220000C9400004F925F926F927F928F929F92F8
:10023000AF92BF92CF92DF92EF92FF920F931F93F4
:10024000DF93CF93CDB7DEB7E2970FB6F894DEBF5A
:100250000FBECDBF0E94A7020E944D020E94560A07
:1002600080E00E945B0278946E010894C11CD11C4E
:10027000D601E0E0F2E088E001900D928150E1F7D4
:10028000C6010E94ED04D601E8E0F2E080E30190AF
:100290000D928150E1F7C6010E941A05D601E8E3EC
:1002A000F2E08FE001900D928150E1F7C6010E94CB
:1002B000ED0420E030E040E951E0CA010197F1F798
:1002C0002F5F3F4F83E128383807B9F739E5832E90
:1002D00032E0932E2BE7422E22E0522E96E9A92EF1
:1002E00092E0B92E80EA682E82E0782ED601E7E40B
:1002F000F2E08BE001900D928150E1F7C6010E947F
:10030000ED04D601E2E5F2E087E001900D92815024
:10031000E1F7C6010E94ED04809136059091370502
:10032000019709F44EC00E94701000D000D000D098
:10033000EDB7FEB73196ADB7BEB71296DC92CE924E
:100340001197B382A282958384830E94A71F2DB741
:100350003EB72A5F3F4F0FB6F8943EBF0FBE2DBF8A
:10036000C6010E94ED04D601E4E7F2E087E00190C7
:100370000D928150E1F7C6010E94ED040E94CC105D
:1003800000D000D000D0EDB7FEB73196ADB7BEB704
:100390001296DC92CE921197738262829583848347
:1003A0000E94A71F2DB73EB72A5F3F4F0FB6F894A4
:1003B0003EBF0FBE2DBFC6010E94ED040E94CD06B8
:1003C00095CF0E9470107C01E0918B05F0918C0517
:1003D00009958C010E94080DADB7BEB71A970FB6EC
:1003E000F894BEBF0FBEADBFEDB7FEB73196129603
:1003F000DC92CE92119793828282F582E4821783F7
:100400000683918780870E94A71F2DB73EB7265F7E
:100410003F4F0FB6F8943EBF0FBE2DBFC6010E94DE
:10042000ED04D601E4E7F2E087E001900D928150FF
:10043000E1F7C6010E94ED040E94CC107C01E0911E
:100440000F06F091100609958C010E94BC0EADB705
:10045000BEB71A970FB6F894BEBF0FBEADBFEDB7CB
:10046000FEB731961296DC92CE9211975382428259
:10047000F582E48217830683918780870E94A71FF5
:100480002DB73EB7265F3F4F0FB6F8943EBF0FBE65
:100490002DBFC6010E94ED0491CFDF93CF93CDB75E
:1004A000DEB7AAE7B0E0EAE7F0E0808180688C93ED
:1004B000CF91DF910895DF93CF930F92CDB7DEB741
:1004C000898389818093AA020F90CF91DF9108954B
:1004D000DF93CF9300D00F92CDB7DEB78B83ECE7DD
:1004E000F0E08B81982F97708091AA02892B8083EE
:1004F000ABE7B0E0EBE7F0E08081877F8C93AAE781
:10050000B0E0EAE7F0E0808180648C93EAE7F0E015
:100510008081882F90E0807490700097B9F7E8E7A9
:10052000F0E080818A83E9E7F0E080818983898136
:10053000882F90E0382F22278A81882F90E0822B05
:10054000932B0F900F900F90CF91DF910895DF9331
:10055000CF930F92CDB7DEB710928D0580918D05A8
:100560008093CE058091CE0580935506109211069A
:100570008091110680938A0580918A0580935306A5
:100580008EE895E060E070E040E450E00E94691F72
:100590008AE495E060E070E040E450E00E94691F6A
:1005A0008FEC95E060E070E040E450E00E94691F4D
:1005B00082E196E060E070E040E450E00E94691F54
:1005C000E4ECF0E08FE590E091838083ECECF0E0E8
:1005D00087E090E091838083E4EDF0E087E090E0B5
:1005E00091838083E4E3F1E08FE590E09183808361
:1005F000E1ECF0E088E98083E9ECF0E088E98083D1
:10060000E1EDF0E088E98083E1E3F1E088E98083CF
:10061000E2ECF0E086E08083EAECF0E086E08083C4
:10062000E2EDF0E086E08083E2E3F1E086E08083C3
:10063000E6ECF0E080818983EEECF0E08081898354
:10064000E6EDF0E080818983E6E3F1E08081898353
:100650000F90CF91DF9108951F920F920FB60F92D6
:1006600011242F938F939F93EF93FF93DF93CF9357
:10067000CDB7DEB780915306882F90E0E6ECF0E02E
:100680002081FC01E257FA4F2083809153068F5F4F
:100690008093530680915306803411F410925306D0
:1006A000CF91DF91FF91EF919F918F912F910F90BB
:1006B0000FBE0F901F9018951F920F920FB60F92BA
:1006C00011242F938F939F93EF93FF93DF93CF93F7
:1006D000CDB7DEB780918A05882F90E0EEECF0E090
:1006E0002081FC01E65BFA4F208380918A058F5FB1
:1006F00080938A0580918A05803411F410928A05CE
:10070000CF91DF91FF91EF919F918F912F910F905A
:100710000FBE0F901F9018951F920F920FB60F9259
:1007200011242F938F939F93EF93FF93DF93CF9396
:10073000CDB7DEB780911106882F90E0E6EDF0E0AE
:100740002081FC01E153FA4F2083809111068F5FD5
:100750008093110680911106803411F410921106D5
:10076000CF91DF91FF91EF919F918F912F910F90FA
:100770000FBE0F901F9018951F920F920FB60F92F9
:1007800011242F938F939F93EF93FF93DF93CF9336
:10079000CDB7DEB780915206882F90E0E6E3F1E016
:1007A0002081FC01EE5EF94F2083809152068F5F1D
:1007B0008093520680915206803411F410925206B2
:1007C000CF91DF91FF91EF919F918F912F910F909A
:1007D0000FBE0F901F901895DF93CF930F92CDB758
:1007E000DEB780915506882F90E0FC01E257FA4F62
:1007F00080818983809155068F5F80935506809113
:100800005506803411F41092550689810F90CF91CE
:10081000DF910895DF93CF930F92CDB7DEB780912C
:10082000CE05882F90E0FC01E65BFA4F808189833A
:100830008091CE058F5F8093CE058091CE05803468
:1008400011F41092CE0589810F90CF91DF91089518
:10085000DF93CF930F92CDB7DEB780918D05882FB0
:1008600090E0FC01E153FA4F8081898380918D05EE
:100870008F5F80938D0580918D05803411F41092E7
:100880008D0589810F90CF91DF910895DF93CF93EC
:100890000F92CDB7DEB780915406882F90E0FC010F
:1008A000EE5EF94F80818983809154068F5F80933B
:1008B000540680915406803411F4109254068981B4
:1008C0000F90CF91DF910895DF93CF930F92CDB723
:1008D000DEB78983E0ECF0E08081882F90E08072C1
:1008E00090700097B9F3E6ECF0E0898180830F9077
:1008F000CF91DF910895DF93CF930F92CDB7DEB7FD
:100900008983E8ECF0E08081882F90E0807290701D
:100910000097B9F3EEECF0E0898180830F90CF91DE
:10092000DF910895DF93CF930F92CDB7DEB7898320
:10093000E0EDF0E08081882F90E080729070009769
:10094000B9F3E6EDF0E0898180830F90CF91DF91DC
:100950000895DF93CF930F92CDB7DEB78983E0E39D
:10096000F1E08081882F90E0807290700097B9F359
:10097000E6E3F1E0898180830F90CF91DF910895C4
:10098000DF93CF9300D000D0CDB7DEB79C838B83AD
:100990001A82198211C02B813C8189819A81F901C7
:1009A000E80FF91F8081282F89819A8101969A8307
:1009B0008983822F0E9464042B813C8189819A81E2
:1009C000F901E80FF91F8081882329F70F900F9014
:1009D0000F900F90CF91DF910895DF93CF9300D0C8
:1009E00000D0CDB7DEB79C838B831A82198211C0E9
:1009F0002B813C8189819A81F901E80FF91F80815F
:100A0000282F89819A8101969A838983822F0E9457
:100A10007B042B813C8189819A81F901E80FF91FC0
:100A20008081882329F70F900F900F900F90CF911E
:100A3000DF910895DF93CF9300D000D0CDB7DEB71C
:100A40009C838B831A82198211C02B813C818981FE
:100A50009A81F901E80FF91F8081282F89819A81F5
:100A600001969A838983822F0E9492042B813C8174
:100A700089819A81F901E80FF91F8081882329F77C
:100A80000F900F900F900F90CF91DF910895DF930B
:100A9000CF9300D000D0CDB7DEB79C838B831A8272
:100AA000198211C02B813C8189819A81F901E80F5B
:100AB000F91F8081282F89819A8101969A838983E1
:100AC000822F0E94A9042B813C8189819A81F9019E
:100AD000E80FF91F8081882329F70F900F900F905E
:100AE0000F90CF91DF910895DF93CF9300D000D086
:100AF0000F92CDB7DEB79B838A837D836C83198287
:100B00000FC08981282F30E08A819B81FC01E20F90
:100B1000F31F908189818F5F8983892F0E946404EC
:100B20008981282F30E08C819D812817390748F36F
:100B30000F900F900F900F900F90CF91DF9108952D
:100B4000DF93CF9300D000D000D0CDB7DEB79C8329
:100B50008B837E836D831A82198210C02B813C8126
:100B600089819A81F901E80FF91F208189819A8191
:100B700001969A838983822F0E947B0429813A817E
:100B80008D819E812817390748F326960FB6F89471
:100B9000DEBF0FBECDBFCF91DF910895DF93CF931E
:100BA00000D000D000D0CDB7DEB79C838B837E838E
:100BB0006D831A82198210C02B813C8189819A81B0
:100BC000F901E80FF91F208189819A8101969A83A2
:100BD0008983822F0E94920429813A818D819E818E
:100BE0002817390748F326960FB6F894DEBF0FBED4
:100BF000CDBFCF91DF910895DF93CF9300D000D088
:100C000000D0CDB7DEB79C838B837E836D831A8241
:100C1000198210C02B813C8189819A81F901E80FEA
:100C2000F91F208189819A8101969A838983822F75
:100C30000E94A90429813A818D819E812817390754
:100C400048F326960FB6F894DEBF0FBECDBFCF9106
:100C5000DF910895DF93CF93CDB7DEB72E970FB610
:100C6000F894DEBF0FBECDBF8B836C834D832E8384
:100C70001A8219828B818A336CF48B81992787FDC4
:100C80009095C0979C01322F22273295307F3E8766
:100C90002D870CC08B81992787FD9095C7979C0164
:100CA000322F22273295307F3E872D872D853E8536
:100CB00089819A81822B932B9A8389838C818A33B1
:100CC00054F48C81992787FD9095C097382F22275F
:100CD0003C872B8709C08C81992787FD9095C79702
:100CE000382F22273C872B872B853C8589819A8149
:100CF000822B932B9A8389838D818A337CF48D8117
:100D0000992787FD9095C0979C0122953295307F59
:100D10003227207F32273A8729870EC08D81992775
:100D200087FD9095C7979C0122953295307F322799
:100D3000207F32273A87298729853A8589819A81B8
:100D4000822B932B9A8389838E818A3354F48E81EC
:100D5000992787FD90959C012053304038872F8339
:100D600009C08E81992787FD90959C0127533040BB
:100D700038872F832F81388589819A81822B932B05
:100D80009A83898389819A812E960FB6F894DEBF63
:100D90000FBECDBFCF91DF9108952F923F924F921A
:100DA0005F926F927F928F929F92AF92BF92CF92FB
:100DB000DF92EF92FF920F931F93DF93CF93CDB704
:100DC000DEB7C451D1400FB6F894DEBF0FBECDBF21
:100DD00010C00E942804898320913805822F90E05A
:100DE000FC01EA5AF94F89818083822F8F5F8093BB
:100DF000380590918D0580911106981751F79091C3
:100E0000380580913905292F281B822F882F90E0E3
:100E10009C838B838B819C81833091050CF42CC344
:100E200080913905882F90E0FC01EA5AF94F8081C2
:100E3000833C31F0809139058F5F809339051CC365
:100E4000809139058F5F882F90E0FC01EA5AF94FB5
:100E500080818A8318861F820EC08F819885FC014D
:100E6000E555FD4F90818A81981771F08F819885A3
:100E7000019698878F832091C3023091C4028F819D
:100E80009885821793074CF32091C3023091C402D6
:100E90008F8198858217930729F4809139058E5F99
:100EA000809339058F819885FC01E954FD4F80813D
:100EB000882F90E09E838D838B819C8102979C83F9
:100EC0008B8318861F8223C09F8180913905890FEB
:100ED0008E5F882F90E0FC01EA5AF94F80818A8367
:100EE0008A818D3529F48F8198859E838D831DC0DD
:100EF0002F813885CE01875F9E4FFC01E20FF31FE3
:100F00008A8180838F819885019698878F832F812E
:100F100038858B819C81281739073CF42F813885CF
:100F20008D819E81821793077CF62F8138858B8176
:100F30009C812817390709F49FC22F8138858D813C
:100F40009E818217930744F49F8180913905890F10
:100F50008E5F8093390590C2809139058F5F882F0D
:100F600090E0FC01EA5AF94F80818A839D8180914B
:100F70003905890F8D5F809339058A818A3579F526
:100F800018861F8224C02F813885CE01875F9E4F2F
:100F9000FC01E20FF31F8081803529F40E94080DC7
:100FA0000E9428110FC02F813885CE01875F9E4F88
:100FB000FC01E20FF31F8081843521F40E94BC0EF6
:100FC0000E945A118F819885019698878F832F816F
:100FD00038858D819E8128173907ACF24DC28A81F0
:100FE000823579F518861F8224C02F813885CE017D
:100FF000875F9E4FFC01E20FF31F8081803529F44B
:1010000082E090E00E943C0B0FC02F813885CE011A
:10101000875F9E4FFC01E20FF31F8081843521F42E
:1010200082E090E00E94CC0B8F8198850196988792
:101030008F832F8138858D819E8128173907ACF2E7
:101040001BC28A81813479F518861F8224C02F81C2
:101050003885CE01875F9E4FFC01E20FF31F808130
:10106000803529F481E090E00E943C0B0FC02F8175
:101070003885CE01875F9E4FFC01E20FF31F808110
:10108000843521F481E090E00E94CC0B8F8198851B
:10109000019698878F832F8138858D819E812817AF
:1010A0003907ACF2E9C18A81843559F518861F8267
:1010B00020C02F813885CE01875F9E4FFC01E20F53
:1010C000F31F8081803519F40E94B20B0DC02F816F
:1010D0003885CE01875F9E4FFC01E20FF31F8081B0
:1010E000843511F40E94440C8F819885019698876D
:1010F0008F832F8138858D819E8128173907CCF207
:10110000BBC18A81803509F06AC060915607709131
:101110005707A091B207B091B307C0908C07D09049
:101120008D0720915C0730915D0740915E075091DB
:101130005F07A0908A07B0908B0780908E079090F1
:101140008F076090900770909107409062075090D1
:101150006307E0905807F090590700915A071091E3
:101160005B0720908607309087078DB79EB74C9716
:101170000FB6F8949EBF0FBE8DBFEDB7FEB7319688
:10118000CE0109969183808385EC92E093838283DC
:1011900075836483B783A683D186C086228733870D
:1011A00044875587B786A686918A808A738A628A21
:1011B000558A448AE68AF78A008F118F338E228EF1
:1011C0000E94A71F8DB79EB74C960FB6F8949EBF8E
:1011D0000FBE8DBFCE0109960E941A054DC18A81AE
:1011E000873491F5E0918B05F0918C0509958C0180
:1011F000E0910F06F091100609959C018DB79EB7FE
:1012000008970FB6F8949EBF0FBE8DBFEDB7FEB71F
:101210003196CE0109969183808387EB93E0938387
:10122000828315830483378326830E94A71F8DB78B
:101230009EB708960FB6F8949EBF0FBE8DBFCE0125
:1012400009960E941A0518C18A81813561F50E94AC
:10125000080D8C010E94BC0E9C018DB79EB70897AB
:101260000FB6F8949EBF0FBE8DBFEDB7FEB7319697
:10127000CE0109969183808386EE93E093838283E7
:1012800015830483378326830E94A71F8DB79EB7DB
:1012900008960FB6F8949EBF0FBE8DBFCE0109967B
:1012A0000E941A05E9C08A81833599F58D819E8156
:1012B0008830910509F0E0C0FE01E75FFE4F8081B4
:1012C000FE01E75FFE4F3181FE01E75FFE4F928135
:1012D000FE01E75FFE4F2381632F492F0E942A06FC
:1012E0000E94A20CFE01E75FFE4F8481FE01E75FD2
:1012F000FE4F3581FE01E75FFE4F9681FE01E75FFD
:10130000FE4F2781632F492F0E942A060E94C00C9E
:10131000B3C08A81863529F484E090E00E945E0C97
:10132000ABC08A81843429F483E090E00E945E0C93
:10133000A3C08A81803709F071C08D819E81893078
:10134000910509F099C0FE01E75FFE4F808180356D
:1013500079F5FE01E75FFE4F8181FE01E75FFE4FF9
:101360003281FE01E75FFE4F9381FE01E75FFE4F92
:101370002481632F492F0E942A068C01FE01E75F1A
:10138000FE4F8581FE01E75FFE4F3681FE01E75F7C
:10139000FE4F9781FE01E75FFE4F2085632F492FA7
:1013A0000E942A069C01C801B9010E948C1164C0E8
:1013B000FE01E75FFE4F8081843509F05DC0FE01CC
:1013C000E75FFE4F8181FE01E75FFE4F3281FE0144
:1013D000E75FFE4F9381FE01E75FFE4F2481632F9D
:1013E000492F0E942A068C01FE01E75FFE4F85818E
:1013F000FE01E75FFE4F3681FE01E75FFE4F9781FA
:10140000FE01E75FFE4F2085632F492F0E942A06C9
:101410009C01C801B9010E9413122EC08A81843632
:1014200059F58091360590913705CD5EDE4F1982D2
:101430001882C351D140009741F481E090E0CD5E25
:10144000DE4F99838883C351D140CD5EDE4F8881C2
:101450009981C351D1409093370580933605CE01D1
:1014600009962DE134E0B90145E050E00E94601F8B
:10147000CE0109960E94ED04CC5EDE4F0FB6F894C3
:10148000DEBF0FBECDBFCF91DF911F910F91FF90B7
:10149000EF90DF90CF90BF90AF909F908F907F9014
:1014A0006F905F904F903F902F900895DF93CF9370
:1014B00000D0CDB7DEB71A82198255C089819A81D2
:1014C0002091220430912304880F991FFC01EC59CC
:1014D000F84F3183208389819A81209128043091AB
:1014E0002904880F991FFC01EE56F84F31832083A1
:1014F00080912204909123049C0140E050E080916F
:101500003E0590913F05A0914005B0914105820FA5
:10151000931FA41FB51F80933E0590933F05A09392
:101520004005B093410580912804909129049C01C5
:1015300040E050E08091440590914505A09146051A
:10154000B0914705820F931FA41FB51F80934405D8
:1015500090934505A0934605B093470589819A81EC
:1015600001969A83898389819A81803191050CF44F
:10157000A5CF8EED9CE090938C0580938B0589EE32
:101580009CE09093100680930F0680E090E00E940C
:101590002F200E945E0C82E090E00E942920DC0156
:1015A000CB0180935C0790935D07A0935E07B09397
:1015B0005F0788E090E00E942F2090938B07809334
:1015C0008A0786E090E00E942F2090938D078093F9
:1015D0008C078EE090E00E942F20909385078093E7
:1015E00084078AE090E00E942F2090935707809311
:1015F00056078CE090E00E942F209093B3078093D1
:10160000B20780E190E00E942920DC01CB018093A9
:10161000580790935907A0935A07B0935B0786E148
:1016200090E00E942F20909387078093860784E1A3
:1016300090E00E942F2090936307809362078CE1D3
:1016400090E00E942F20909389078093880788E17B
:1016500090E00E942F2090938F0780938E078AE15D
:1016600090E00E942F2090939107809390070F9015
:101670000F90CF91DF910895DF93CF9300D0CDB736
:10168000DEB79A8389832091840730918507898109
:101690009A812817390709F460C089819A818230BC
:1016A0009105F9F4209156073091570780918C07E6
:1016B00090918D0796958795A901481B590BCA01F2
:1016C000909357078093560784EB90E09093B3076D
:1016D0008093B20782E090E090938507809384071F
:1016E00020C089819A8181309105B9F580918C075C
:1016F00090918D079C013695279580915607909182
:101700005707820F931F90935707809356071092A5
:10171000B3071092B20781E090E090938507809321
:1017200084078091B2079091B3079C018CE090E010
:10173000B9010E943D2020915607309157078AE059
:1017400090E0B9010E943D202091840730918507E7
:101750008EE090E0B9010E943D200F900F90CF9154
:10176000DF910895DF93CF9300D0CDB7DEB780919E
:101770008407909185071A821982009721F481E0ED
:1017800090E09A83898389819A810E943C0B0F9013
:101790000F90CF91DF910895DF93CF9300D0CDB715
:1017A000DEB79A83898320918807309189078981E0
:1017B0009A812817390709F462C089819A81823099
:1017C0009105F9F420918E0730918F07809162077F
:1017D0009091630796958795A901481B590BCA01FB
:1017E00090938F0780938E0784EB90E090939107FE
:1017F0008093900782E090E0909389078093880718
:1018000022C089819A8181309105C9F58091620752
:10181000909163079C013695279580918E07909152
:101820008F07820F931F90938F0780938E0788E610
:1018300091E0909391078093900781E090E09093DE
:1018400089078093880780919007909191079C0168
:101850008AE190E0B9010E943D2020918E073091ED
:101860008F0788E190E0B9010E943D202091880710
:10187000309189078CE190E0B9010E943D200F90E2
:101880000F90CF91DF910895DF93CF9300D0CDB724
:10189000DEB780918807909189071A821982009794
:1018A00021F481E090E09A83898389819A810E9462
:1018B000CC0B0F900F90CF91DF910895DF93CF93D2
:1018C00000D0CDB7DEB79A83898389819A8184302D
:1018D000910599F489819A819093610780936007BB
:1018E00084EF9CE090938C0580938B058EEF9CE0B9
:1018F0009093100680930F0617C089819A818330D8
:10190000910591F489819A81909361078093600792
:101910008EED9CE090938C0580938B0589EE9CE086
:101920009093100680930F06209160073091610715
:1019300080E090E0B9010E943D200F900F90CF9180
:10194000DF910895DF93CF9300D0CDB7DEB79A83B0
:10195000898381E090E090933B0580933A058981EB
:101960009A81929582958F7089279F70892790938D
:101970002304809322040F900F90CF91DF9108955C
:10198000DF93CF9300D0CDB7DEB79A83898381E010
:1019900090E090933D0580933C0589819A819295D2
:1019A00082958F7089279F7089279093290480934F
:1019B00028040F900F90CF91DF910895DF93CF937C
:1019C000CDB7DEB78091220490912304CF91DF91AF
:1019D0000895DF93CF93CDB7DEB78091280490911F
:1019E0002904CF91DF910895DF93CF93CDB7DEB770
:1019F00080E00E946802CF91DF910895DF93CF933A
:101A0000CDB7DEB783E00E946802CF91DF910895E1
:101A1000EF92FF920F931F93DF93CF93CDB7DEB773
:101A2000AE970FB6F894DEBF0FBECDBF80913A05DA
:101A300090913B05009799F480913E0590913F0568
:101A4000A0914005B0914105689413F8B695A7950B
:101A5000979587951694D1F79EA78DA77EC1109272
:101A60003B0510923A0520913E0530913F0540918B
:101A70004005509141058091420590914305880FA2
:101A8000991FFC01EC59F84F80819181CC01A0E0B5
:101A9000B0E079018A01E81AF90A0A0B1B0BD80198
:101AA000C70180933E0590933F05A0934005B093F6
:101AB00041050091420510914305E0918B05F0919D
:101AC0008C0509959C01C801880F991FFC01EC59F0
:101AD000F84F318320838091420590914305880F10
:101AE000991FFC01EC59F84F808191819C0140E0E5
:101AF00050E080913E0590913F05A0914005B09146
:101B00004105820F931FA41FB51F80933E0590933C
:101B10003F05A0934005B093410580914205909107
:101B2000430501968F709070909343058093420512
:101B300080913E0590913F05A0914005B0914105EF
:101B4000689413F8B695A795979587951694D1F74D
:101B50009E838D8384E697E09E01235F3F4FB9010A
:101B600040E150E00E94CD12CE010D960C9664E04B
:101B700070E00E945A139C878B87CE010D960C96BD
:101B800064E070E00E94A9139A87898718861F82F3
:101B9000E0918B05F0918C0509959C018D819E81CA
:101BA0008901081B190BC801CC01A0E0B0E0BC0101
:101BB000CD010E942A187B018C0180918C079091A5
:101BC0008D07CC01A0E0B0E0BC01CD010E942A1835
:101BD000DC01CB01BC01CD012DEC3CEC4CE45FE31E
:101BE0000E94A215DC01CB019C01AD01C801B70127
:101BF0000E94481718160CF055C0E0918B05F09123
:101C00008C0509959A83898310923E0510923F05B1
:101C100010924005109241051C821B822BC08B81C3
:101C20009C8129813A81880F991FFC01EC59F84F5A
:101C30003183208389819A819C01442737FD409517
:101C4000542F80913E0590913F05A0914005B091A1
:101C50004105820F931FA41FB51F80933E059093EB
:101C60003F05A0934005B09341058B819C8101966F
:101C70009C838B838B819C818031910584F2809140
:101C80003E0590913F05A0914005B09141056894B3
:101C900013F8B695A795979587951694D1F79EA7B3
:101CA0008DA75BC0209124043091250489859A85F5
:101CB0002817390758F489859A85909325048093CD
:101CC000240481E090E098878F8313C0209126043C
:101CD000309127048B859C858217930750F48B8560
:101CE0009C85909327048093260481E090E0988758
:101CF0008F838F819885009729F44D815E815EA73F
:101D00004DA72BC020918C0730918D0780918A07B9
:101D100090918B07280F391F8091240490912504FE
:101D20002817390758F02091260430912704809114
:101D30008A0790918B072817390758F48091260459
:101D4000909127042091240430912504B9010E9428
:101D50008C118D819E819EA78DA78DA59EA5AE9687
:101D60000FB6F894DEBF0FBECDBFCF91DF911F91AC
:101D70000F91FF90EF900895EF92FF920F931F93B2
:101D8000DF93CF93CDB7DEB7AE970FB6F894DEBF33
:101D90000FBECDBF80913C0590913D05009799F411
:101DA0008091440590914505A0914605B091470565
:101DB000689413F8B695A795979587951694D1F7DB
:101DC0009EA78DA77EC110923D0510923C052091E3
:101DD0004405309145054091460550914705809155
:101DE000480590914905880F991FFC01EE56F84F60
:101DF00080819181CC01A0E0B0E079018A01E81AEC
:101E0000F90A0A0B1B0BD801C70180934405909374
:101E10004505A0934605B0934705009148051091EC
:101E20004905E0910F06F091100609959C01C80143
:101E3000880F991FFC01EE56F84F31832083809163
:101E4000480590914905880F991FFC01EE56F84FFF
:101E5000808191819C0140E050E080914405909107
:101E60004505A0914605B0914705820F931FA41F19
:101E7000B51F8093440590934505A0934605B09304
:101E80004705809148059091490501968F709070A3
:101E900090934905809348058091440590914505AC
:101EA000A0914605B0914705689413F8B695A7959B
:101EB000979587951694D1F798878F8382E997E055
:101EC0009E01235F3F4FB90140E150E00E94CD12D7
:101ED000CE010D960C9664E070E00E945A139C8728
:101EE0008B87CE010D960C9664E070E00E94A913DA
:101EF0009A8789871E821D82E0910F06F091100655
:101F000009959C018F8198858901081B190BC801CF
:101F1000CC01A0E0B0E0BC01CD010E942A187B01F9
:101F20008C018091620790916307CC01A0E0B0E042
:101F3000BC01CD010E942A18DC01CB01BC01CD01FE
:101F40002DEC3CEC4CE45FE30E94A215DC01CB01DC
:101F50009C01AD01C801B7010E94481718160CF08A
:101F600055C0E0910F06F091100609959A83898378
:101F700010924405109245051092460510924705AF
:101F80001C821B822BC08B819C8129813A81880F06
:101F9000991FFC01EE56F84F3183208389819A8185
:101FA0009C01442737FD4095542F80914405909122
:101FB0004505A0914605B0914705820F931FA41FC8
:101FC000B51F8093440590934505A0934605B093B3
:101FD00047058B819C8101969C838B838B819C819F
:101FE0008031910584F28091440590914505A0913E
:101FF0004605B0914705689413F8B695A79597954F
:1020000087951694D1F79EA78DA75BC020912A04CF
:1020100030912B0489859A852817390758F48985CA
:102020009A8590932B0480932A0481E090E09E830C
:102030008D8313C020912C0430912D048B859C85B9
:102040008217930750F48B859C8590932D04809381
:102050002C0481E090E09E838D838D819E8100978A
:1020600029F44F8158855EA74DA72BC020916207A8
:10207000309163078091860790918707280F391F59
:1020800080912A0490912B042817390758F0209149
:102090002C0430912D048091860790918707281792
:1020A000390758F480912C0490912D0420912A0432
:1020B00030912B04B9010E9413128F8198859EA73D
:1020C0008DA78DA59EA5AE960FB6F894DEBF0FBE68
:1020D000CDBFCF91DF911F910F91FF90EF900895A9
:1020E000EF92FF920F931F93DF93CF93CDB7DEB79D
:1020F0000E94080D9C018091560790915707281B5C
:10210000390B80918C0790918D07820F931FAC0142
:1021100080918C0790918D079C01CA01B9010E94A2
:102120001F1EAA2797FDA095BA2FBC01CD010E94C2
:102130007817DC01CB0120915C0730915D0740915D
:102140005E0750915F07BC01CD010E94A215DC0122
:10215000CB017C018D018091B2079091B307AA2732
:1021600097FDA095BA2FBC01CD010E9478179B0165
:10217000AC01C801B7010E944415DC01CB01BC01D0
:10218000CD010E94D617DC01CB01CF91DF911F91C9
:102190000F91FF90EF900895EF92FF920F931F938E
:1021A000DF93CF93CDB7DEB70E94BC0E9C01809128
:1021B0008E0790918F07281B390B809162079091B1
:1021C0006307820F931FAC018091620790916307B0
:1021D0009C01CA01B9010E941F1EAA2797FDA09564
:1021E000BA2FBC01CD010E947817DC01CB012091F0
:1021F00058073091590740915A0750915B07BC012D
:10220000CD010E94A215DC01CB017C018D018091E2
:10221000900790919107AA2797FDA095BA2FBC012E
:10222000CD010E9478179B01AC01C801B7010E9443
:102230007515DC01CB01BC01CD010E94D617DC0174
:10224000CB01CF91DF911F910F91FF90EF900895F7
:10225000DF93CF9300D0CDB7DEB79A838983809187
:102260008407909185078230910581F480918C07D5
:1022700090918D079C013695279589819A81820FCF
:10228000931F909357078093560706C089819A81C0
:102290009093570780935607209156073091570720
:1022A0008AE090E0B9010E943D200F900F90CF91FD
:1022B000DF910895DF93CF9300D0CDB7DEB79A8337
:1022C000898380918807909189078230910581F4F4
:1022D00080916207909163079C01369527958981CB
:1022E0009A81820F931F90938F0780938E0706C069
:1022F00089819A8190938F0780938E0720918E0712
:1023000030918F0788E190E0B9010E943D200F9045
:102310000F90CF91DF910895DF93CF9300D000D03D
:10232000CDB7DEB79A8389837C836B832091560770
:102330003091570780918A0790918B07281B390BA2
:1023400089819A81820F931F909357078093560734
:1023500089819A8190938B0780938A072B813C8196
:1023600089819A81A901481B590BCA0190938D0755
:1023700080938C0780918C0790918D07CC01A0E011
:10238000B0E0BC01CD010E942A189B01AC0160E0C5
:1023900070E084EB93E40E949C16DC01CB018093F7
:1023A0005C0790935D07A0935E07B0935F07209151
:1023B0005607309157078AE090E0B9010E943D200E
:1023C00020918A0730918B0788E090E0B9010E9444
:1023D0003D2020918C0730918D0786E090E0B90177
:1023E0000E943D2020915C0730915D0740915E077F
:1023F00050915F0782E090E0BA01A9010E94352068
:1024000089819A8190932704809326048B819C81F3
:1024100090932504809324040F900F900F900F90B9
:10242000CF91DF910895DF93CF9300D000D0CDB747
:10243000DEB79A8389837C836B8320918E073091EA
:102440008F078091860790918707A901481B590B38
:10245000CA0190938F0780938E072B813C818981DD
:102460009A81A901481B590BCA01CC01A0E0B0E038
:10247000BC01CD010E942A18DC01CB01BC01CD01B9
:1024800020E030E044EB53E40E94A215DC01CB01D4
:10249000BC01CD0120E030E047E853E40E949C16E7
:1024A000DC01CB01BC01CD010E94D617DC01CB01C0
:1024B000909363078093620789819A81909387073D
:1024C0008093860720918E0730918F078091860731
:1024D00090918707820F931F90938F0780938E07A9
:1024E0002B813C8189819A81A901481B590BCA0122
:1024F000CC01A0E0B0E0BC01CD010E942A189B01F4
:10250000AC0160E070E087E893EC0E949C16DC016F
:10251000CB018093580790935907A0935A07B09323
:102520005B0720918E0730918F0788E190E0B90119
:102530000E943D20209162073091630784E190E082
:10254000B9010E943D20209186073091870786E1DE
:1025500090E0B9010E943D20209158073091590721
:1025600040915A0750915B0780E190E0BA01A901C0
:102570000E94352089819A8190932D0480932C04A8
:102580008B819C8190932B0480932A040F900F9051
:102590000F900F90CF91DF910895DF93CF93CDB738
:1025A000DEB72C970FB6F894DEBF0FBECDBF98876D
:1025B0008F837A8769875C874B871E821D8269C0FB
:1025C0008D819E819C01220F331F8F819885FC0194
:1025D000E20FF31F808191819A8389838D819E818F
:1025E0009C838B8325C08B819C819C01220F331F90
:1025F00089859A85DC01A20FB31F2B813C8181E084
:1026000090E0821B930B880F991F22273327281BEA
:10261000390B89859A85FC01E20FF31F8081918136
:1026200011969C938E938B819C8101979C838B83C5
:102630008B819C8118161906CCF42B813C8181E09A
:1026400090E0821B930B880F991F22273327281BAA
:10265000390B89859A85FC01E20FF31F20813181B6
:1026600089819A818217930708F4BDCF8B819C8161
:102670009C01220F331F89859A85FC01E20FF31F0D
:1026800089819A81918380838D819E8101969E8329
:102690008D832D813E818B859C852817390708F411
:1026A0008FCF2C960FB6F894DEBF0FBECDBFCF9163
:1026B000DF910895DF93CF93CDB7DEB728970FB69C
:1026C000F894DEBF0FBECDBF9E838D8378876F8366
:1026D000ED81FE81808191819A83898381E090E000
:1026E0009C838B8324C08B819C819C01220F331F90
:1026F0008D819E81FC01E20FF31F20813181898150
:102700009A812817390770F48B819C819C01220FD4
:10271000331F8D819E81FC01E20FF31F8081918127
:102720009A8389838B819C8101969C838B832B81E7
:102730003C818F81988528173907A8F289819A8171
:1027400028960FB6F894DEBF0FBECDBFCF91DF91B4
:102750000895DF93CF93CDB7DEB728970FB6F894DF
:10276000DEBF0FBECDBF9E838D8378876F83ED81E3
:10277000FE81808191819A83898381E090E09C83AE
:102780008B8324C08B819C819C01220F331F8D8100
:102790009E81FC01E20FF31F2081318189819A81A2
:1027A0008217930770F48B819C819C01220F331F49
:1027B0008D819E81FC01E20FF31F808191819A83BC
:1027C00089838B819C8101969C838B832B813C81A7
:1027D0008F81988528173907A8F289819A812896D0
:1027E0000FB6F894DEBF0FBECDBFCF91DF91089535
:1027F000A0E0B0E0EEEFF3E10C94321EDC012B011F
:10280000FA019C91923008F439C1EB018881823041
:1028100008F433C1943069F4843009F02FC1119663
:102820009C9111978981981709F428C1AEE2B4E010
:1028300025C1843009F421C18230A9F4923009F015
:102840001DC19A01AD0188E0EA010990AE01E901DC
:1028500009929E018150C1F7E201898111969C91F4
:102860008923818308C1923009F407C112962D9003
:102870003C901397EB018A819B811496AD90BD909B
:10288000CD90DC901797EC80FD800E811F81910127
:10289000281B390BB90137FF04C066277727621B55
:1028A000730B603271050CF061C0121613066CF5E3
:1028B00037014801062E04C0969487947794679454
:1028C0000A94D2F721E030E040E050E004C0220F4B
:1028D000331F441F551F6A95D2F7215030404040A6
:1028E00050402E213F214023512321153105410520
:1028F000510521F021E030E040E050E079018A010B
:10290000E628F728082919293CC0232BD1F1260EE7
:10291000371E35014601062E04C09694879477949D
:1029200067940A94D2F721E030E040E050E004C020
:10293000220F331F441F551F6A95D2F72150304094
:10294000404050402A213B214C215D212115310579
:102950004105510521F021E030E040E050E059010F
:102960006A01A628B728C828D9280BC08215930564
:102970002CF01C01AA24BB24650103C0EE24FF2413
:10298000870111969C91D20111968C91981709F4A8
:1029900045C0992339F0A80197012A193B094C0930
:1029A0005D0906C0A60195012E193F09400B510B88
:1029B00057FD08C0118233822282248335834683E7
:1029C00057831DC081E08183338222828827992723
:1029D000DC01821B930BA40BB50B84839583A68328
:1029E000B7830DC0220F331F441F551F2483358327
:1029F00046835783828193810197938382832481C5
:102A0000358146815781DA01C9010197A109B109D0
:102A10008F5F9F4FAF4FBF4328F30BC0918333822B
:102A20002282EA0CFB1C0C1D1D1DE482F58206832C
:102A3000178383E08083248135814681578157FF46
:102A40001AC0C901AA2797FDA095BA2F817090706E
:102A5000A070B0705695479537952795822B932B8C
:102A6000A42BB52B84839583A683B783828193811E
:102A7000019693838283DF0101C0D201CD01CDB7DE
:102A8000DEB7E2E10C944E1EA0E2B0E0EAE4F5E12C
:102A90000C943E1E69837A838B839C832D833E83B3
:102AA0004F835887E9E0EE2EF12CEC0EFD1ECE018F
:102AB0000196B7010E94C7198E010F5E1F4FCE010C
:102AC0000596B8010E94C7198A8991E089278A8BE7
:102AD000C701B801AE01475E5F4F0E94F8130E9424
:102AE000F218A096E6E00C945A1EA0E2B0E0EBE7E4
:102AF000F5E10C943E1E69837A838B839C832D833E
:102B00003E834F835887F9E0EF2EF12CEC0EFD1E2B
:102B1000CE010196B7010E94C7198E010F5E1F4FAB
:102B2000CE010596B8010E94C719C701B801AE01D0
:102B3000475E5F4F0E94F8130E94F218A096E6E0ED
:102B40000C945A1EA0E2B0E0E8EAF5E10C94321EC3
:102B500069837A838B839C832D833E834F8358873D
:102B6000CE010196BE01675F7F4F0E94C719CE015B
:102B70000596BE016F5E7F4F0E94C71999859230FE
:102B800088F089898230C8F0943019F4823051F489
:102B900004C0843029F4923081F48EE294E0C6C0FF
:102BA000923049F420E09A858A89981321E02A8797
:102BB000CE010996BBC0823049F420E09A858A890B
:102BC000981321E02A8BCE014196B0C02D843E841B
:102BD0004F8458886D887E888F88988CEE24FF24D7
:102BE0008701AA24BB24650140E050E060E070E06A
:102BF000E0E0F0E0C10181709070892BE9F0E60C13
:102C0000F71C081D191D9A01AB012A0D3B1D4C1D17
:102C10005D1D80E090E0A0E0B0E0E614F704080558
:102C2000190520F481E090E0A0E0B0E0BA01A9012C
:102C3000480F591F6A1F7B1FAA0CBB1CCC1CDD1C34
:102C400097FE08C081E090E0A0E0B0E0A82AB92A91
:102C5000CA2ADB2A3196E032F10549F0660C771C6E
:102C6000881C991C5694479437942794C3CFFA85AF
:102C7000EA892B893C898B859C85280F391F2E5F1B
:102C80003F4F17C0CA0181709070892B61F0169573
:102C90000795F794E79480E090E0A0E0B0E8E82A98
:102CA000F92A0A2B1B2B76956795579547952F5F29
:102CB0003F4F77FDE7CF0CC0440F551F661F771FAE
:102CC00017FD4160EE0CFF1C001F111F215030400A
:102CD000403090E0590790E0690790E4790760F38D
:102CE0002B8F3C8FDB01CA018F779070A070B07082
:102CF00080349105A105B10561F447FD0AC0E114D6
:102D0000F1040105110529F0405C5F4F6F4F7F4FC3
:102D100040781A8EFE1711F081E08A8F4D8F5E8FFA
:102D20006F8F78A383E0898FCE0149960E94F218B5
:102D3000A096E2E10C944E1EA8E1B0E0E2EAF6E1D2
:102D40000C943A1E69837A838B839C832D833E8304
:102D50004F835887B9E0EB2EF12CEC0EFD1ECE010F
:102D60000196B7010E94C7198E010F5E1F4FCE0159
:102D70000596B8010E94C7192985223008F47EC043
:102D80003989323010F4B8017CC08A859A89892744
:102D90008A87243011F0223031F4231709F06EC0F5
:102DA0006EE274E06EC0343039F41D861E861F86D4
:102DB000188A1C861B8604C0323021F484E089877F
:102DC000B7015FC02B853C858B899C89281B390BFB
:102DD0003C872B87ED84FE840F851889AD88BE88DB
:102DE000CF88D88CEA14FB040C051D0540F4EE0CCA
:102DF000FF1C001F111F215030403C872B8720E013
:102E000030E040E050E080E090E0A0E0B0E460E03E
:102E100070E0EA14FB040C051D0540F0282B392B4B
:102E20004A2B5B2BEA18FB080C091D09B695A795E0
:102E300097958795EE0CFF1C001F111F6F5F7F4F4A
:102E40006F31710531F7DA01C9018F779070A07089
:102E5000B07080349105A105B10561F427FD0AC069
:102E6000E114F1040105110529F0205C3F4F4F4F9B
:102E70005F4F20782D873E874F87588BBE01675F55
:102E80007F4FCB010E94F2186896EAE00C94561E20
:102E9000A8E1B0E0EEE4F7E10C943E1E69837A838A
:102EA0008B839C832D833E834F83588789E0E82E54
:102EB000F12CEC0EFD1ECE010196B7010E94C71940
:102EC0008E010F5E1F4FCE010596B8010E94C719F3
:102ED0008985823040F08989823028F0C701B801A5
:102EE0000E943F1A01C08FEF6896E6E00C945A1ECC
:102EF000A8E0B0E0EEE7F7E10C943B1E9B01AC01CB
:102F000083E08983DA01C9018827B7FD8395992772
:102F1000AA27BB27B82E211531054105510519F403
:102F200082E089833AC08823A9F0203080E0380706
:102F300080E0480780E8580729F460E070E080E00E
:102F40009FEC30C0EE24FF248701E21AF30A040B41
:102F5000150B02C079018A018EE1C82ED12CDC82CA
:102F6000CB82ED82FE820F831887C801B7010E94D1
:102F7000A31801971816190684F4082E04C0EE0C45
:102F8000FF1C001F111F0A94D2F7ED82FE820F83EF
:102F90001887C81AD90ADC82CB82BA82CE01019680
:102FA0000E94F2182896E9E00C94571EACE0B0E0BD
:102FB000ECEDF7E10C94421E69837A838B839C834A
:102FC000CE010196BE016B5F7F4F0E94C7198D81B4
:102FD000823061F1823050F1843021F48E81882377
:102FE00051F12EC02F81388537FD20C06E812F31E1
:102FF00031051CF06623F9F023C08EE190E0821BBE
:10300000930B29853A854B855C8504C05695479579
:10301000379527958A95D2F76623B1F0509540955C
:10302000309521953F4F4F4F5F4F0EC020E030E06D
:1030300040E050E009C02FEF3FEF4FEF5FE704C0E3
:1030400020E030E040E050E8B901CA012C96E2E00F
:103050000C945E1EA8E0B0E0E0E3F8E10C943A1EA8
:103060007B018C01611571058105910519F482E0E0
:10307000898360C083E089838EE1C82ED12CDC82F5
:10308000CB82ED82FE820F831887C801B7010E94B0
:10309000A318FC013197F7FF3BC0222733272E1BD3
:1030A0003F0B57016801022E04C0D694C794B79411
:1030B000A7940A94D2F740E050E060E070E081E02D
:1030C00090E0A0E0B0E004C0880F991FAA1FBB1FCA
:1030D0002A95D2F70197A109B1098E219F21A0233A
:1030E000B1230097A105B10521F041E050E060E077
:1030F00070E04A295B296C297D294D835E836F83AB
:1031000078878EE190E08E1B9F0B9C838B8312C08F
:10311000309781F00E2E04C0EE0CFF1C001F111F13
:103120000A94D2F7ED82FE820F831887CE1ADF0A47
:10313000DC82CB821A82CE0101960E94F218289678
:10314000EAE00C94561EEF92FF920F931F937B01BF
:103150008C0180E0E81680E0F80681E0080780E056
:10316000180788F48FEFE816F1040105110531F016
:1031700028F088E090E0A0E0B0E017C080E090E0A8
:10318000A0E0B0E012C080E0E81680E0F80680E041
:10319000080781E0180728F088E190E0A0E0B0E09F
:1031A00004C080E190E0A0E0B0E020E230E040E048
:1031B00050E0281B390B4A0B5B0B04C01695079592
:1031C000F794E7948A95D2F7F701EA5CFB4F808188
:1031D000281B310941095109C9011F910F91FF9025
:1031E000EF900895DF92EF92FF920F931F93FC01EF
:1031F000E480F58006811781D1808081823048F497
:1032000080E090E0A0E1B0E0E82AF92A0A2B1B2B2D
:10321000A5C0843009F49FC0823021F4EE24FF243D
:10322000870105C0E114F1040105110519F4E0E07E
:10323000F0E096C0628173819FEF623879070CF0ED
:103240005BC022E83FEF261B370B2A3131052CF0FB
:1032500020E030E040E050E02AC0B801A701022E93
:1032600004C076956795579547950A94D2F781E003
:1032700090E0A0E0B0E004C0880F991FAA1FBB1F18
:103280002A95D2F70197A109B1098E219F21A02388
:10329000B1230097A105B10521F081E090E0A0E005
:1032A000B0E09A01AB01282B392B4A2B5B2BDA01BA
:1032B000C9018F779070A070B07080349105A1051E
:1032C000B10539F427FF09C0205C3F4F4F4F5F4FD6
:1032D00004C0215C3F4F4F4F5F4FE0E0F0E02030F3
:1032E000A0E03A07A0E04A07A0E45A0710F0E1E0A6
:1032F000F0E079018A0127C06038710564F5FB01AF
:10330000E158FF4FD801C7018F779070A070B0705F
:1033100080349105A105B10539F4E7FE0DC080E4C4
:1033200090E0A0E0B0E004C08FE390E0A0E0B0E067
:10333000E80EF91E0A1F1B1F17FF05C016950795FB
:10334000F794E794319687E016950795F794E794FC
:103350008A95D1F705C0EE24FF248701EFEFF0E056
:103360006E2F679566276795902F9F77D794DD24FA
:10337000D7948E2F8695492F462B582F5D29B7015C
:10338000CA011F910F91FF90EF90DF900895FC010B
:10339000DB01408151812281622F6F7770E0221F13
:1033A0002227221F9381892F880F822B282F30E01C
:1033B000991F9927991F11969C93119721153105F3
:1033C000A9F5411551056105710511F482E037C079
:1033D00082E89FEF13969C938E9312979A01AB010C
:1033E00067E0220F331F441F551F6A95D1F783E012
:1033F0008C930DC0220F331F441F551F12968D91C1
:103400009C911397019713969C938E93129720305B
:1034100080E0380780E0480780E4580758F31496A6
:103420002D933D934D935C93179708952F3F31054E
:1034300079F4411551056105710519F484E08C9307
:10344000089564FF03C081E08C9312C01C9210C0E9
:103450002F57304013963C932E93129783E08C9312
:1034600087E0440F551F661F771F8A95D1F7706458
:1034700014964D935D936D937C93179708951F93C6
:10348000DC01FB019C91923008F447C080818230BE
:1034900008F443C0943051F411961C91843099F58E
:1034A0008181682F70E0611B71093FC0843021F079
:1034B000923031F48230B9F18181882389F12DC0B5
:1034C00011961C9111978230F1F081811817D9F46F
:1034D00012962D913C9113978281938182179307C5
:1034E00094F028173907BCF014968D919D910D909A
:1034F000BC91A02D24813581468157812817390739
:103500004A075B0718F4112341F00AC0821793079A
:10351000A407B50740F4112319F061E070E005C07D
:103520006FEF7FEF02C060E070E0CB011F91089564
:10353000A1E1B0E0EEE9FAE10C94321E3C017F8794
:103540006E876A01FC0117821682838181FD03C0A8
:103550006FEF7FEF6FC39E012F5F3F4F398B288B3B
:10356000F3012381EE85FF8523FD859123FF819162
:10357000FF87EE87882309F45AC3853251F4EE851C
:10358000FF8523FD859123FF8191FF87EE8785329B
:1035900029F490E0B3010E947B1FE2CF982F10E046
:1035A000882499241032B0F49B3269F09C3228F4BC
:1035B000903251F0933271F40BC09D3239F0903358
:1035C00049F4116028C01260146025C0186023C03F
:1035D000106121C017FD2AC0892F80538A3078F4EA
:1035E00016FF06C0FAE09F9E902C1124980E13C07F
:1035F0003AE0839E802C1124880E10620CC09E320B
:1036000021F416FD14C3106406C09C3611F4106832
:1036100002C0983659F4EE85FF8523FD959123FF6E
:103620009191FF87EE87992309F0BCCF892F8554AC
:10363000833020F4812F8061905E07C0892F8556EA
:10364000833008F09FC1812F8F7E86FD02C076E017
:10365000972E6FE3F62EF822953619F4F0E4FF2A40
:1036600007C0963619F420E8F22A02C091109A9405
:10367000F7FE0AC03BE3391518F45CE3B52E02C02F
:10368000B92CB39427E009C047E0491520F4BB24C6
:1036900047E0942EF7CF292DBB24C60104969D87C1
:1036A0008C87F6016081718182819381AE014F5FC9
:1036B0005F4F0B2D0E947D1E6C010981202E33244B
:1036C00000FF04C003FD02C01DE209C0F1FE02C0FC
:1036D0001BE205C0F2FC02C010E001C010E2C10113
:1036E0008C709070892BB9F1112311F483E001C023
:1036F00084E0881510F088240AC0881AF3FC07C0FB
:1037000080E290E0B3010E947B1F8A94C9F71123E5
:1037100029F0812F90E0B3010E947B1F23FE03C09C
:1037200004EE10E00EC008EE10E00BC0E114F1044E
:1037300009F0805290E0B3010E947B1F0F5F1F4F82
:1037400005C0EF2CFF24F0E1EF22FF24F801849163
:10375000882361F714C1F7FE12C0BC0C24FE04C01C
:103760008A81813309F4BA941B141CF0BB24B394EE
:103770002DC0F8E0FB1550F538E0B32E27C0F6FC5D
:1037800025C0892D90E08C159D054CF02CEFC216BC
:103790002FEFD20624F030E8F32A01C09A94992042
:1037A00049F0E2E0F0E0EC0FFD1FE90DF11D808132
:1037B0008033A1F3F7FE0AC0B92CB394892D90E0B1
:1037C000C816D90614F0992401C09C18F7FC03C050
:1037D00025E030E009C01C141D041CF021E030E09D
:1037E00003C096012F5F3F4F112311F02F5F3F4F12
:1037F000992029F0892D90E00196280F391F882DF6
:1038000090E02817390714F0882401C0821A4F2C41
:103810005524C20189709070892B39F008C080E26C
:1038200090E0B3010E947B1F8A948820C1F7112386
:1038300029F0812F90E0B3010E947B1F43FE07C057
:1038400008C080E390E0B3010E947B1F8A94882027
:10385000C1F7F7FE46C08601D7FE02C000E010E0C7
:1038600076010894E11CF11CE01AF10A41E050E0F5
:103870004C0F5D1FE40EF51E26014B185108892DD3
:1038800090E0AA24BB24A81AB90A5FEF0F3F1507DE
:1038900029F48EE290E0B3010E947B1FC016D1068E
:1038A00034F0401651061CF4F701808101C080E31A
:1038B000015010400894E11CF11C0A151B052CF066
:1038C00090E0B3010E947B1FE0CF0C151D0539F479
:1038D0009A81963318F4953311F424FE81E390E035
:1038E0004BC08A81813309F00F7E90E0B3010E94C2
:1038F0007B1F9920A1F08EE290E0B3010E947B1F14
:1039000012E0E1E0F0E0EC0FFD1FE10FF11D1F5FA1
:10391000808190E0B3010E947B1F9A9491F744FC50
:1039200003C085E690E002C085E490E0B3010E9408
:103930007B1FD7FC05C0C114D10441F404FF06C0AD
:10394000D094C194D108D3948DE201C08BE290E071
:10395000B3010E947B1F80E305C08F5F26EF3FEF1E
:10396000C20ED31E3AE0C316D104BCF790E0B301F7
:103970000E947B1FC601C096B3010E947B1FCC84AE
:10398000DD8452C1933631F0933799F0933509F0C5
:1039900059C023C0F601808189835E010894A11C6F
:1039A000B11C22E030E0C20ED31E21E0E22EF12C49
:1039B00012C0F601A080B18016FD03C06FEF7FEF4B
:1039C00002C0692D70E022E030E0C20ED31EC501B6
:1039D0000E94701F7C011F7713C0F601A080B18088
:1039E00016FD03C06FEF7FEF02C0692D70E022E08B
:1039F00030E0C20ED31EC5010E94551F7C01106825
:103A000013FF07C01BC080E290E0B3010E947B1F40
:103A10008A94882D90E0E816F906A8F30FC0F50106
:103A200017FD859117FF81915F0190E0B3010E941E
:103A30007B1F81108A940894E108F108E114F104D5
:103A400071F7F2C0943611F0993689F517FF08C066
:103A5000F601208131814281538184E090E00AC0E7
:103A6000F601808191819C01442737FD4095542FB8
:103A700082E090E0C80ED91E9FE6F92EF12257FF92
:103A800009C050954095309521953F4F4F4F5F4F5E
:103A900090E8F92ACA01B901AE014F5F5F4F2AE0F1
:103AA00030E00E94CB1FE82EE889EE1A41C095371E
:103AB00021F41F7E2AE030E01CC0197F9F3661F0A0
:103AC000903720F4983509F0B2C00FC0903739F024
:103AD000983709F0ACC004C028E030E00AC010619B
:103AE00014FD146020E130E004C014FD166020E1F4
:103AF00032E017FF08C0F6016081718182819381F5
:103B000044E050E008C0F60180819181BC0180E072
:103B100090E042E050E0C40ED51EAE014F5F5F4F13
:103B20000E94CB1FE82E5889E51A8FE7F82EF12264
:103B3000F6FE0BC08EEFF822E91438F4F4FE07C04D
:103B4000F2FC05C09FEEF92202C01E2D01C0192D06
:103B5000F4FE0DC0FE01EE0DF11D8081803319F4DD
:103B6000E9EEFE2208C01F5FF2FE05C003C08F2DE4
:103B7000867809F01F5F0F2DF3FC14C0F0FE0FC014
:103B8000181510F09E2C0BC09E2C980C911A182D15
:103B900006C080E290E0B3010E947B1F1F5F1815F2
:103BA000C0F304C0181510F4811A01C0882404FF62
:103BB0000FC080E390E0B3010E947B1F02FF1DC095
:103BC00001FD03C088E790E00EC088E590E00BC0DF
:103BD000802F867891F001FF02C08BE201C080E265
:103BE000F7FC8DE290E0B3010E947B1F06C080E3EA
:103BF00090E0B3010E947B1F9A94E914C0F3EA9409
:103C0000E1E0F0E0EC0FFD1FEE0DF11D808190E092
:103C1000B3010E947B1FEE2091F706C080E290E086
:103C2000B3010E947B1F8A948820C1F799CCF301CD
:103C300066817781CB016196E2E10C944E1E97FB81
:103C4000092E07260AD077FD04D043D006D00020E5
:103C50001AF4709561957F4F0895F6F790958195C8
:103C60009F4F08952F923F924F925F926F927F9253
:103C70008F929F92AF92BF92CF92DF92EF92FF927C
:103C80000F931F93CF93DF93CDB7DEB7CA1BDB0B28
:103C90000FB6F894DEBF0FBECDBF09942A883988CD
:103CA00048885F846E847D848C849B84AA84B984D4
:103CB000C884DF80EE80FD800C811B81AA81B981E0
:103CC000CE0FD11D0FB6F894DEBF0FBECDBFED01F4
:103CD0000895AA1BBB1B51E107C0AA1FBB1FA61753
:103CE000B70710F0A61BB70B881F991F5A95A9F7A5
:103CF00080959095BC01CD010895283008F027E00B
:103D00003327DA01990F311D87FD91600096610517
:103D1000710539F432602E5F3D9330E32A95E1F767
:103D200008959F3F30F080387105610509F03C5FD0
:103D30003C5F3D93913008F08068911DDF93CF93F5
:103D40001F930F93FF92EF92192F987F9695E92F6B
:103D500096959695E90FFF27EA5BFE4F9927332743
:103D6000EE24FF24A701E70105900894079428F4A6
:103D7000360FE71EF81E491F511D660F771F881F5B
:103D8000991F0694A1F70590079428F4E70EF81EF2
:103D9000491F561FC11D770F881F991F661F069464
:103DA000A1F70590079428F4F80E491F561FC71F66
:103DB000D11D880F991F661F771F0694A1F70590E4
:103DC000079420F4490F561FC71FD81F990F661F6D
:103DD000771F881F0694A9F784911095177041F0FA
:103DE000D695C79557954795F794E7941A95C1F7D7
:103DF000ECEEF0E0689415901591359165919591F0
:103E000005907FE27395E118F10A430B560BC90B3D
:103E1000D009C0F7E10CF11E431F561FC91FD01D6A
:103E20007EF4703311F48A95E6CFE894015030F0B7
:103E3000080F0AF40027021708F4202F2395022FF9
:103E40007A3328F079E37D932A95E9F710C07D93C2
:103E50002A9589F60694979567953795179517943F
:103E6000E118F10A430B560BC90BD00998F02395C2
:103E70007E9173957A3308F070E37C932013B8F742
:103E80007E9170617D9330F0839571E37D9370E353
:103E90002A95E1F71124EF90FF900F911F91CF9198
:103EA000DF91992787FD90950895FC010590615059
:103EB00070400110D8F7809590958E0F9F1F089540
:103EC000FB01DC0102C001900D9241505040D8F737
:103ED0000895DC0101C06D9341505040E0F7089512
:103EE000FC016150704001900110D8F780959095C9
:103EF0008E0F9F1F08950F931F93CF93DF938C0115
:103F0000EB018B8181FF1BC082FF0DC02E813F81A1
:103F10008C819D812817390764F4E881F981019328
:103F2000F983E88306C0E885F985802F0995892BF8
:103F300031F48E819F8101969F838E8302C00FEFA3
:103F40001FEFC801DF91CF911F910F910895AEE04F
:103F5000B0E0EDEAFFE10C94401E0D891E8986E079
:103F60008C831A8309838FEF9FE79E838D839E0145
:103F7000275E3F4FCE0101966F89788DA9010E947F
:103F8000981A2F813885020F131FF80110822E9680
:103F9000E4E00C945C1EFA01AA27283051F120318C
:103FA00081F1E8946F936E7F6E5F7F4F8F4F9F4FCD
:103FB000AF4FB1E03ED0B4E03CD0670F781F891F0F
:103FC0009A1FA11D680F791F8A1F911DA11D6A0FDD
:103FD000711D811D911DA11D20D009F468943F9190
:103FE0002AE0269F11243019305D3193DEF6CF018F
:103FF0000895462F4770405D4193B3E00FD0C9F755
:10400000F6CF462F4F70405D4A3318F0495D31FDC1
:104010004052419302D0A9F7EACFB4E0A695979514
:10402000879577956795BA95C9F7009761057105EA
:1040300008959B01AC010A2E069457954795379534
:104040002795BA95C9F7620F731F841F951FA01D8E
:104050000895A6E1B0E044E050E00C944420A8E1CB
:10406000B0E042E050E00C944420242F0E94532002
:10407000252F0E9453200C943D200E945220272F70
:104080000C945320DC01CB01FC01F999FECF06C052
:10409000F2BDE1BDF89A319600B40D924150504006
:1040A000B8F70895262FF999FECF1FBA92BD81BDAA
:1040B00020BD0FB6F894FA9AF99A0FBE01960895AA
:0440C000F894FFCFA2
:1040C4001B5B333231307C0042554420746F2042F4
:1040D4004F422D3420416E676C65204F7665726CBB
:1040E4006179206170706C69636174696F6E0A0D27
:1040F40072656164790A0D001B5B31346D1B5B369C
:10410400366D1B5B324A001B5B31346D1B5B3636EC
:104114006D001B5B303B3048002050414E3A253443
:1041240064205241573A2535642053414D503A2575
:10413400356420001B5B313B30480020544C543A1A
:10414400253464205241573A2535642053414D505B
:104154003A25356420002050414E3A25346420002D
:1041640020544C543A2534642000405A524154504F
:1041740047515356447064020202020000000800D2
:104184000009000C000A0D50414E205820534849A4
:1041940046543A2020253575202050414E20592080
:1041A40053484946543A2020252D336420646567DA
:1041B400090909090909200A0D50414E2052414EAE
:1041C40047453A20202020253575202050414E2097
:1041D400534C4F50453A20202020256620090909D8
:1041E400090909200A0D50414E204D494E494D55AB
:1041F4004D3A2020253575200909090909200A0DA1
:104204000A0D54494C5420582053484946543A20E6
:10421400253575202054494C54205920534849468B
:10422400543A20252D336420646567090909090976
:1042340009200A0D54494C542052414E47453A2016
:104244002020253575202054494C5420534C4F5080
:10425400453A20202025662020090909090909205A
:104264000A0D54494C54204D494E494D554D3A2060
:10427400253575200A0D000A0D43555252454E54FA
:10428400205241572050414E3A2025357520204375
:10429400555252454E54205241572054494C543A99
:1042A4002025750A0D000A0D43555252454E5420DF
:1042B40053414D504C45442050414E3A20253575CC
:1042C400202043555252454E542053414D504C45A5
:1042D400442054494C543A2025750A0D001B5B3286
:1042E4004A00E803E803E803E803E803E8030000FE
:1042F40000000000000000010202030303030404A1
:10430400040404040404050505050505050505055F
:10431400050505050505060606060606060606063F
:104324000606060606060606060606060606060629
:10433400060606060606070707070707070707070F
:1043440007070707070707070707070707070707F9
:1043540007070707070707070707070707070707E9
:1043640007070707070707070707070707070707D9
:1043740007070707070708080808080808080808BF
:1043840008080808080808080808080808080808A9
:104394000808080808080808080808080808080899
:1043A4000808080808080808080808080808080889
:1043B4000808080808080808080808080808080879
:1043C4000808080808080808080808080808080869
:1043D4000808080808080808080808080808080859
:1043E4000808080808080808080808080808080849
:0643F40008080808080893
:00000001FF
