:100000000C9472000C948F000C948F000C948F0051
:100010000C948F000C948F000C948F000C948F0024
:100020000C948F000C948F000C948F000C948F0014
:100030000C948F000C948F000C948F000C948F0004
:100040000C948F000C948F000C948F000C948F00F4
:100050000C948F000C948F000C948F000C948F00E4
:100060000C948F000C941C020C948F000C948F0045
:100070000C948F000C948F000C948F000C948F00C4
:100080000C948F000C948F000C948F000C948F00B4
:100090000C944C020C948F000C948F000C948F00E5
:1000A0000C948F000C948F000C948F000C948F0094
:1000B0000C948F000C948F000C948F000C948F0084
:1000C0000C948F000C948F000C948F000C947C0285
:1000D0000C948F000C948F000C94AC020C948F0045
:1000E0000C948F0011241FBECFEFD1E2DEBFCDBF35
:1000F00014E0A0E0B2E0E4E7F7E202C005900D9260
:10010000A239B107D9F717E0A2E9B4E001C01D9206
:10011000A43AB107E1F70E9491000C94B8130C9433
:100120000000AF92BF92CF92DF92EF92FF920F93B7
:100130001F93DF93CF93CDB7DEB7E2970FB6F89456
:10014000DEBF0FBECDBF0E9497010E943D010E94FD
:100150007F0780E00E944B0178947E010894E11CA7
:10016000F11CD701E0E0F2E088E001900D928150AF
:10017000E1F7C7010E94DD03D701E8E0F2E080E388
:1001800001900D928150E1F7C7010E940A04D70146
:10019000E8E3F2E085E001900D928150E1F7C701BC
:1001A0000E94DD0394E4C92E92E0D92E8AE5A82EA0
:1001B00082E0B82E00E911E0D701EDE3F2E087E03C
:1001C00001900D928150E1F7C7010E94DD030E946A
:1001D0001E0900D000D000D0EDB7FEB73196ADB704
:1001E000BEB71296FC92EE921197D382C28295838B
:1001F00084830E94F3108DB79EB706960FB6F894CD
:100200009EBF0FBE8DBFC7010E94DD03D701E3E58E
:10021000F2E087E001900D928150E1F7C7010E9462
:10022000DD030E94650900D000D000D0EDB7FEB715
:100230003196ADB7BEB71296FC92EE921197B3828B
:10024000A282958384830E94F3108DB79EB7069691
:100250000FB6F8949EBF0FBE8DBFC7010E94DD038D
:100260000E941A0520E030E0C8010197F1F72F5FE6
:100270003F4F2A3F3105C1F79FCFDF93CF93CDB7D3
:10028000DEB7AAE7B0E0EAE7F0E0808180688C930F
:10029000CF91DF910895DF93CF930F92CDB7DEB763
:1002A00089838981809369020F90CF91DF910895AE
:1002B000DF93CF9300D00F92CDB7DEB78B83ECE7FF
:1002C000F0E08B81982F977080916902892B808351
:1002D000ABE7B0E0EBE7F0E08081877F8C93AAE7A3
:1002E000B0E0EAE7F0E0808180648C93EAE7F0E038
:1002F0008081882F90E0807490700097B9F7E8E7CC
:10030000F0E080818A83E9E7F0E080818983898158
:10031000882F90E0382F22278A81882F90E0822B27
:10032000932B0F900F900F90CF91DF910895DF9353
:10033000CF930F92CDB7DEB71092DD048091DD042C
:1003400080931E0580911E058093A30510925F0582
:1003500080915F058093DC048091DC048093A1058B
:100360008EED94E060E070E040E450E00E94EC101C
:100370008CE994E060E070E040E450E00E94EC1012
:100380008FE195E060E070E040E450E00E94EC1006
:1003900080E695E060E070E040E450E00E94EC1000
:1003A000E4ECF0E08FE590E091838083ECECF0E00A
:1003B00087E090E091838083E4EDF0E087E090E0D7
:1003C00091838083E4E3F1E08FE590E09183808383
:1003D000E1ECF0E088E98083E9ECF0E088E98083F3
:1003E000E1EDF0E088E98083E1E3F1E088E98083F2
:1003F000E2ECF0E086E08083EAECF0E086E08083E7
:10040000E2EDF0E086E08083E2E3F1E086E08083E5
:10041000E6ECF0E080818983EEECF0E08081898376
:10042000E6EDF0E080818983E6E3F1E08081898375
:100430000F90CF91DF9108951F920F920FB60F92F8
:1004400011242F938F939F93EF93FF93DF93CF9379
:10045000CDB7DEB78091A105882F90E0E6ECF0E003
:100460002081FC01E252FB4F20838091A1058F5F28
:100470008093A1058091A105803411F41092A1050B
:10048000CF91DF91FF91EF919F918F912F910F90DD
:100490000FBE0F901F9018951F920F920FB60F92DC
:1004A00011242F938F939F93EF93FF93DF93CF9319
:1004B000CDB7DEB78091DC04882F90E0EEECF0E061
:1004C0002081FC01E456FB4F20838091DC048F5F88
:1004D0008093DC048091DC04803411F41092DC04FD
:1004E000CF91DF91FF91EF919F918F912F910F907D
:1004F0000FBE0F901F9018951F920F920FB60F927C
:1005000011242F938F939F93EF93FF93DF93CF93B8
:10051000CDB7DEB780915F05882F90E0E6EDF0E083
:100520002081FC01E15EFA4F208380915F058F5F9F
:1005300080935F0580915F05803411F410925F0510
:10054000CF91DF91FF91EF919F918F912F910F901C
:100550000FBE0F901F9018951F920F920FB60F921B
:1005600011242F938F939F93EF93FF93DF93CF9358
:10057000CDB7DEB78091A005882F90E0E6E3F1E0EB
:100580002081FC01E05AFA4F20838091A0058F5F03
:100590008093A0058091A005803411F41092A005ED
:1005A000CF91DF91FF91EF919F918F912F910F90BC
:1005B0000FBE0F901F901895DF93CF930F92CDB77A
:1005C000DEB78091A305882F90E0FC01E252FB4F3B
:1005D000808189838091A3058F5F8093A30580919B
:1005E000A305803411F41092A30589810F90CF9157
:1005F000DF910895DF93CF930F92CDB7DEB780914F
:100600001E05882F90E0FC01E456FB4F8081898312
:1006100080911E058F5F80931E0580911E0580349A
:1006200011F410921E0589810F90CF91DF910895EA
:10063000DF93CF930F92CDB7DEB78091DD04882F83
:1006400090E0FC01E15EFA4F808189838091DD04B6
:100650008F5F8093DD048091DD04803411F410926B
:10066000DD0489810F90CF91DF910895DF93CF93BF
:100670000F92CDB7DEB78091A205882F90E0FC01E4
:10068000E05AFA4F808189838091A2058F5F809321
:10069000A2058091A205803411F41092A2058981EF
:1006A0000F90CF91DF910895DF93CF930F92CDB745
:1006B000DEB78983E0ECF0E08081882F90E08072E3
:1006C00090700097B9F3E6ECF0E0898180830F9099
:1006D000CF91DF910895DF93CF930F92CDB7DEB71F
:1006E0008983E8ECF0E08081882F90E08072907040
:1006F0000097B9F3EEECF0E0898180830F90CF9101
:10070000DF910895DF93CF930F92CDB7DEB7898342
:10071000E0EDF0E08081882F90E08072907000978B
:10072000B9F3E6EDF0E0898180830F90CF91DF91FE
:100730000895DF93CF930F92CDB7DEB78983E0E3BF
:10074000F1E08081882F90E0807290700097B9F37B
:10075000E6E3F1E0898180830F90CF91DF910895E6
:10076000DF93CF9300D000D0CDB7DEB79C838B83CF
:100770001A82198211C02B813C8189819A81F901E9
:10078000E80FF91F8081282F89819A8101969A8329
:100790008983822F0E9454032B813C8189819A8115
:1007A000F901E80FF91F8081882329F70F900F9036
:1007B0000F900F90CF91DF910895DF93CF9300D0EA
:1007C00000D0CDB7DEB79C838B831A82198211C00B
:1007D0002B813C8189819A81F901E80FF91F808181
:1007E000282F89819A8101969A838983822F0E947A
:1007F0006B032B813C8189819A81F901E80FF91FF4
:100800008081882329F70F900F900F900F90CF9140
:10081000DF910895DF93CF9300D000D0CDB7DEB73E
:100820009C838B831A82198211C02B813C81898120
:100830009A81F901E80FF91F8081282F89819A8117
:1008400001969A838983822F0E9482032B813C81A7
:1008500089819A81F901E80FF91F8081882329F79E
:100860000F900F900F900F90CF91DF910895DF932D
:10087000CF9300D000D0CDB7DEB79C838B831A8294
:10088000198211C02B813C8189819A81F901E80F7D
:10089000F91F8081282F89819A8101969A83898303
:1008A000822F0E9499032B813C8189819A81F901D1
:1008B000E80FF91F8081882329F70F900F900F9080
:1008C0000F90CF91DF910895DF93CF9300D000D0A8
:1008D0000F92CDB7DEB79B838A837D836C831982A9
:1008E0000FC08981282F30E08A819B81FC01E20FB3
:1008F000F31F908189818F5F8983892F0E94540320
:100900008981282F30E08C819D812817390748F391
:100910000F900F900F900F900F90CF91DF9108954F
:10092000DF93CF9300D000D000D0CDB7DEB79C834B
:100930008B837E836D831A82198210C02B813C8148
:1009400089819A81F901E80FF91F208189819A81B3
:1009500001969A838983822F0E946B0329813A81B1
:100960008D819E812817390748F326960FB6F89493
:10097000DEBF0FBECDBFCF91DF910895DF93CF9340
:1009800000D000D000D0CDB7DEB79C838B837E83B0
:100990006D831A82198210C02B813C8189819A81D2
:1009A000F901E80FF91F208189819A8101969A83C4
:1009B0008983822F0E94820329813A818D819E81C1
:1009C0002817390748F326960FB6F894DEBF0FBEF6
:1009D000CDBFCF91DF910895DF93CF9300D000D0AA
:1009E00000D0CDB7DEB79C838B837E836D831A8264
:1009F000198210C02B813C8189819A81F901E80F0D
:100A0000F91F208189819A8101969A838983822F97
:100A10000E94990329813A818D819E812817390787
:100A200048F326960FB6F894DEBF0FBECDBFCF9128
:100A3000DF9108956F927F928F929F92AF92BF92B3
:100A4000CF92DF92EF92FF920F931F93DF93CF939A
:100A5000CDB7DEB7C650D2400FB6F894DEBF0FBE9A
:100A6000CDBF1B821A8210C00E9418038983209177
:100A70009204822F90E0FC01EC55FA4F898180832B
:100A8000822F8F5F809392049091DD0480915F05A7
:100A9000981751F780919204282F30E080919304A9
:100AA000882F90E00296821793070CF012C21E82E4
:100AB0001D821FC080919304282F30E08D819E817C
:100AC000820F931FFC01EC55FA4F20818D819E818E
:100AD000FC01E659FD4F8081281731F08091930485
:100AE0008E5F80939304F5C18D819E8101969E83D4
:100AF0008D838D819E8182309105E4F280919304F3
:100B0000882F90E00296FC01EC55FA4F80818C838F
:100B10001E821D820EC08D819E81FC01E359FD4F16
:100B200090818C81981771F08D819E8101969E83B2
:100B30008D8320917402309175028D819E81821780
:100B400093074CF320917402309175028D819E8140
:100B50008217930729F4809193048D5F8093930407
:100B600081E090E09E838D8338C080919304882F2C
:100B700090E09C012E5F3F4F8D819E81820F931FDD
:100B8000FC01EC55FA4F80818C838C81803531F4E7
:100B90008A819B8181609B838A831AC08C81843582
:100BA00031F48A819B8182609B838A8311C08C810E
:100BB000853531F48A819B8184609B838A8308C058
:100BC0008C818C3429F48A819B8188609B838A8301
:100BD0008D819E8101969E838D838D819E8184303F
:100BE00091051CF280919304882F90E00296FC01FD
:100BF000EC55FA4F80818C838C818A3529F5809160
:100C000093048F5F809393048A819B81817090709D
:100C1000882349F0809193048F5F809393040E940E
:100C2000D50A0E94AC098A819B81827090700097DE
:100C300009F44FC1809193048F5F809393040E94C5
:100C40007B0B0E94D70945C18C81833471F580915B
:100C500093048F5F809393048A819B81817090704D
:100C6000882339F0809193048F5F809393040E94CE
:100C7000020A8A819B8184709070009739F080917C
:100C800093048F5F809393040E94C70A8A819B819B
:100C900088709070009709F41CC1809193048F5F55
:100CA000809393040E946D0A14C18C81823529F5CA
:100CB000809193048F5F809393048A819B818170DC
:100CC0009070882349F0809193048F5F8093930400
:100CD00081E090E00E9438088A819B818270907048
:100CE000009709F4F6C0809193048F5F809393047A
:100CF00081E090E00E94AB08ECC08C81813429F542
:100D0000809193048F5F809393048A819B8181708B
:100D10009070882349F0809193048F5F80939304AF
:100D200080E090E00E9438088A819B8182709070F8
:100D3000009709F4CEC0809193048F5F8093930451
:100D400080E090E00E94AB08C4C08C81843509F536
:100D5000809193048F5F809393048A819B8181703B
:100D60009070882339F0809193048F5F809393046F
:100D70000E9491088A819B8182709070009709F48B
:100D8000A8C0809193048F5F809393040E9404090C
:100D9000A0C08C81803509F063C0809193048F5F7F
:100DA000809393046091780370917903A0917A0302
:100DB000B0917B03C0907603D090770320917203AB
:100DC000309173034091740350917503A090840394
:100DD000B090850380908603909087036090820393
:100DE00070908303E0907E03F0907F030091800376
:100DF000109181038DB79EB748970FB6F8949EBFA8
:100E00000FBE8DBFEDB7FEB73196CE010796918329
:100E1000808386E792E09383828375836483B783BC
:100E2000A683D186C0862287338744875587B786B5
:100E3000A686918A808A738A628AE48AF58A068BFA
:100E4000178B0E94F3108DB79EB748960FB6F89493
:100E50009EBF0FBE8DBFCE0107960E940A0439C007
:100E60008C81813589F5809193048F5F8093930401
:100E70000E94D50A8C010E947B0B9C018DB79EB706
:100E800008970FB6F8949EBF0FBE8DBFEDB7FEB7A3
:100E90003196CE0107969183808383E493E0938318
:100EA000828315830483378326830E94F3108DB7D2
:100EB0009EB708960FB6F8949EBF0FBE8DBFCE01A9
:100EC00007960E940A0405C0809193048F5F809367
:100ED0009304CA5FDD4F0FB6F894DEBF0FBECDBFDF
:100EE000CF91DF911F910F91FF90EF90DF90CF9006
:100EF000BF90AF909F908F907F906F900895DF93F9
:100F0000CF9300D00F92CDB7DEB70F900F900F9018
:100F1000CF91DF910895DF93CF9300D0CDB7DEB7A7
:100F200080E094E09A83898389819A8161E00E94BC
:100F3000F41289819A8102969A83898389819A81A0
:100F400020917203309173034091740350917503A3
:100F5000BA01A9010E94061389819A8104969A8395
:100F6000898389819A812091780330917903B9012D
:100F70000E94121389819A8102969A8389838981BA
:100F80009A812091760330917703B9010E94121360
:100F900089819A8102969A83898349815A818091B5
:100FA0007A0390917B039C01CA01B9010E9412133C
:100FB00089819A8102969A83898389819A81209175
:100FC0007C0330917D03B9010E94121389819A81BB
:100FD00002969A83898389819A8120917E03309138
:100FE0007F034091800350918103BA01A9010E94BF
:100FF000061389819A8104969A83898389819A81CB
:101000002091840330918503B9010E9412138981D4
:101010009A8102969A83898389819A812091820399
:1010200030918303B9010E94121389819A8102963B
:101030009A83898349815A8180918603909187039D
:101040009C01CA01B9010E94121389819A810296FA
:101050009A83898389819A812091880330918903B9
:10106000B9010E9412130F900F90CF91DF91089554
:10107000DF93CF9300D0CDB7DEB79A8389832091D9
:101080007C0330917D0389819A812817390709F4FF
:1010900043C089819A8181309105F9F420917803C8
:1010A0003091790380917603909177039695879597
:1010B000A901481B590BCA019093790380937803C7
:1010C00084EB90E090937B0380937A0381E090E03F
:1010D00090937D0380937C031DC089819A81009742
:1010E000C9F480917603909177039C0136952795FA
:1010F0008091780390917903820F931F90937903E5
:101100008093780310927B0310927A0310927D03F0
:1011100010927C030E948B070F900F90CF91DF916C
:101120000895DF93CF9300D0CDB7DEB780917C03D5
:1011300090917D031A821982009721F481E090E05A
:101140009A83898389819A810E9438080F900F9031
:10115000CF91DF910895DF93CF9300D0CDB7DEB765
:101160009A838983209188033091890389819A81A8
:101170002817390709F443C089819A818130910584
:10118000F9F420918403309185038091820390913A
:10119000830396958795A901481B590BCA01909323
:1011A00085038093840384EB90E09093870380937E
:1011B000860381E090E090938903809388031DC0AB
:1011C00089819A810097C9F4809182039091830369
:1011D0009C01369527958091840390918503820F19
:1011E000931F90938503809384031092870310923A
:1011F000860310928903109288030E948B070F9038
:101200000F90CF91DF910895DF93CF9300D0CDB7AA
:10121000DEB780918803909189031A821982009722
:1012200021F481E090E09A83898389819A810E94E8
:10123000AB080F900F90CF91DF910895DF93CF937C
:10124000CDB7DEB70E94D50A9C01809178039091BA
:101250007903281B390B8091760390917703A901BC
:10126000480F591F80917603909177039C01CA0122
:10127000B9010E948E10AA2797FDA095BA2FBC0134
:10128000CD010E94C70DDC01CB012091720330918A
:1012900073034091740350917503BC01CD010E940A
:1012A000210CDC01CB01BC01CD010E94250EDC012B
:1012B000CB019C0180917A0390917B03A901481B8B
:1012C000590BCA01CF91DF910895DF93CF93CDB72A
:1012D000DEB70E947B0B9C01809184039091850373
:1012E000281B390B8091820390918303A901480F39
:1012F000591F80918203909183039C01CA01B90117
:101300000E948E10AA2797FDA095BA2FBC01CD018F
:101310000E94C70DDC01CB0120917E0330917F0339
:101320004091800350918103BC01CD010E94210CAA
:10133000DC01CB01BC01CD010E94250EDC01CB01FB
:101340009C018091860390918703A901481B590B4A
:10135000CA01CF91DF910895DF93CF9300D0CDB72D
:10136000DEB79A83898380917C0390917D038130DD
:10137000910581F480917603909177039C013695D5
:10138000279589819A81820F931F90937903809387
:10139000780306C089819A819093790380937803BA
:1013A0000E948B070F900F90CF91DF910895DF93EC
:1013B000CF9300D0CDB7DEB79A838983809188031D
:1013C000909189038130910581F4809182039091FD
:1013D00083039C013695279589819A81820F931FFB
:1013E000909385038093840306C089819A819093AA
:1013F0008503809384030E948B070F900F90CF91F9
:10140000DF910895DF93CF9300D000D000D0CDB707
:10141000DEB780E00E9458019E838D838D819E817E
:101420009C838B831CC080E00E9458019A8389832F
:1014300029813A818B819C818217930728F48981C5
:101440009A819C838B830BC029813A818D819E81F7
:101450002817390720F489819A819E838D838B8197
:101460009C812D813E81821B930B22E0883E920756
:10147000D0F22B813C818D819E81A901481B590BA3
:10148000CA019093770380937603809176039091BD
:101490007703CC01A0E0B0E0BC01CD010E94790E41
:1014A0009B01AC0160E070E084EB93E40E941B0DB3
:1014B000DC01CB018093720390937303A0937403B8
:1014C000B09375030E948B0726960FB6F894DEBF83
:1014D0000FBECDBFCF91DF910895DF93CF9300D0A2
:1014E00000D0CDB7DEB783E00E9458019C838B8388
:1014F00020918403309185038B819C81821B930B07
:101500009A83898389819A81CC01A0E0B0E0BC01F3
:10151000CD010E94790EDC01CB01BC01CD0120E0A0
:1015200030E040E45FE30E941B0DDC01CB01BC0115
:10153000CD010E94250EDC01CB01909383038093A3
:1015400082038091820390918303CC01A0E0B0E0FC
:10155000BC01CD010E94790E9B01AC0160E070E0FE
:1015600084EB93E40E941B0DDC01CB0180937E038E
:1015700090937F03A0938003B09381030E948B0715
:101580000F900F900F900F90CF91DF910895DF9300
:10159000CF93CDB7DEB783E00E94580190938503C7
:1015A00080938403CF91DF9108950F931F93DF936E
:1015B000CF93CDB7DEB720919404309195048091FC
:1015C000960490919704880F991FFC01EC55F94FF0
:1015D00080819181A901481B590BCA019093950400
:1015E00080939404009196041091970480E00E94E7
:1015F00058019C01C801880F991FFC01EC55F94F57
:10160000318320838091960490919704880F991FCD
:10161000FC01EC55F94F2081318180919404909127
:101620009504820F931F9093950480939404809166
:1016300096049091970401968F73907090939704FD
:10164000809396042091940430919504809196049F
:1016500090919704880F991FFC01EC55F94F8081F8
:101660009181A901481B590BCA019093950480935D
:101670009404009196041091970480E00E94580110
:101680009C01C801880F991FFC01EC55F94F31836B
:1016900020838091960490919704880F991FFC01F4
:1016A000EC55F94F208131818091940490919504FB
:1016B000820F931F909395048093940480919604D5
:1016C0009091970401968F739070909397048093F4
:1016D000960480919404909195040024880F991F9A
:1016E000001C880F991F001C892F902DCF91DF912E
:1016F0001F910F9108950F931F93DF93CF93CDB751
:10170000DEB7209198043091990480919A049091C9
:101710009B04880F991FFC01EC5DF84F808191813B
:10172000A901481B590BCA0190939904809398040E
:1017300000919A0410919B0483E00E9458019C013F
:10174000C801880F991FFC01EC5DF84F318320839D
:1017500080919A0490919B04880F991FFC01EC5D85
:10176000F84F208131818091980490919904820FE3
:10177000931F909399048093980480919A04909178
:101780009B0401968F73907090939B0480939A04AE
:10179000209198043091990480919A0490919B042F
:1017A000880F991FFC01EC5DF84F80819181A901A0
:1017B000481B590BCA019093990480939804009197
:1017C0009A0410919B0483E00E9458019C01C80177
:1017D000880F991FFC01EC5DF84F318320838091C5
:1017E0009A0490919B04880F991FFC01EC5DF84FBF
:1017F000208131818091980490919904820F931FE8
:10180000909399048093980480919A0490919B04FA
:1018100001968F73907090939B0480939A048091AB
:101820009804909199040024880F991F001C880F38
:10183000991F001C892F902DCF91DF911F910F913F
:101840000895A0E2B0E0E7E2FCE00C94B5106983F3
:101850007A838B839C832D833E834F835887CE016D
:101860000196BE01675F7F4F0E941610CE0105965C
:10187000BE016F5E7F4F0E9416109985923088F0EE
:1018800089898230C8F0943019F4823051F404C050
:10189000843029F4923081F48AE893E0C6C0923013
:1018A00049F420E09A858A89981321E02A87CE019D
:1018B0000996BBC0823049F420E09A858A89981342
:1018C00021E02A8BCE014196B0C02D843E844F8406
:1018D00058886D887E888F88988CEE24FF24870135
:1018E000AA24BB24650140E050E060E070E0E0E045
:1018F000F0E0C10181709070892BE9F0E60CF71CD3
:10190000081D191D9A01AB012A0D3B1D4C1D5D1DC3
:1019100080E090E0A0E0B0E0E614F70408051905C7
:1019200020F481E090E0A0E0B0E0BA01A901480F06
:10193000591F6A1F7B1FAA0CBB1CCC1CDD1C97FE09
:1019400008C081E090E0A0E0B0E0A82AB92ACA2A45
:10195000DB2A3196E032F10549F0660C771C881CD1
:10196000991C5694479437942794C3CFFA85EA89F3
:101970002B893C898B859C85280F391F2E5F3F4F13
:1019800017C0CA0181709070892B61F01695079578
:10199000F794E79480E090E0A0E0B0E8E82AF92A24
:1019A0000A2B1B2B76956795579547952F5F3F4FD1
:1019B00077FDE7CF0CC0440F551F661F771F17FD3B
:1019C0004160EE0CFF1C001F111F215030404030C1
:1019D00090E0590790E0690790E4790760F32B8F56
:1019E0003C8FDB01CA018F779070A070B07080349B
:1019F0009105A105B10561F447FD0AC0E114F104A8
:101A00000105110529F0405C5F4F6F4F7F4F407813
:101A10001A8EFE1711F081E08A8F4D8F5E8F6F8FC7
:101A200078A383E0898FCE0149960E94410FA0964A
:101A3000E2E10C94D110A8E1B0E0E1E2FDE00C9409
:101A4000BD1069837A838B839C832D833E834F8370
:101A50005887B9E0EB2EF12CEC0EFD1ECE0101965D
:101A6000B7010E9416108E010F5E1F4FCE01059622
:101A7000B8010E9416102985223008F47EC03989E9
:101A8000323010F4B8017CC08A859A8989278A8708
:101A9000243011F0223031F4231709F06EC06AE8C7
:101AA00073E06EC0343039F41D861E861F86188A96
:101AB0001C861B8604C0323021F484E08987B7017C
:101AC0005FC02B853C858B899C89281B390B3C8703
:101AD0002B87ED84FE840F851889AD88BE88CF885A
:101AE000D88CEA14FB040C051D0540F4EE0CFF1C19
:101AF000001F111F215030403C872B8720E030E031
:101B000040E050E080E090E0A0E0B0E460E070E011
:101B1000EA14FB040C051D0540F0282B392B4A2B39
:101B20005B2BEA18FB080C091D09B695A79597953C
:101B30008795EE0CFF1C001F111F6F5F7F4F6F31E9
:101B4000710531F7DA01C9018F779070A070B0701C
:101B500080349105A105B10561F427FD0AC0E114A7
:101B6000F1040105110529F0205C3F4F4F4F5F4FF5
:101B700020782D873E874F87588BBE01675F7F4F48
:101B8000CB010E94410F6896EAE00C94D910A8E0BE
:101B9000B0E0EDECFDE00C94BE109B01AC0183E0E5
:101BA0008983DA01C9018827B7FD83959927AA2778
:101BB000BB27B82E211531054105510519F482E0E6
:101BC00089833AC08823A9F0203080E0380780E07C
:101BD000480780E8580729F460E070E080E09FEC57
:101BE00030C0EE24FF248701E21AF30A040B150B20
:101BF00002C079018A018EE1C82ED12CDC82CB8211
:101C0000ED82FE820F831887C801B7010E94F20E91
:101C100001971816190684F4082E04C0EE0CFF1C58
:101C2000001F111F0A94D2F7ED82FE820F831887DE
:101C3000C81AD90ADC82CB82BA82CE0101960E94F0
:101C4000410F2896E9E00C94DA10ACE0B0E0EBE24A
:101C5000FEE00C94C51069837A838B839C83CE014C
:101C60000196BE016B5F7F4F0E9416108D818230FE
:101C700061F1823050F1843021F48E81882351F15A
:101C80002EC02F81388537FD20C06E812F31310560
:101C90001CF06623F9F023C08EE190E0821B930BC9
:101CA00029853A854B855C8504C0569547953795BF
:101CB00027958A95D2F76623B1F0509540953095D7
:101CC00021953F4F4F4F5F4F0EC020E030E040E086
:101CD00050E009C02FEF3FEF4FEF5FE704C020E077
:101CE00030E040E050E8B901CA012C96E2E00C94E3
:101CF000E110A8E0B0E0EFE7FEE00C94BD107B013E
:101D00008C01611571058105910519F482E08983C3
:101D100060C083E089838EE1C82ED12CDC82CB8227
:101D2000ED82FE820F831887C801B7010E94F20E70
:101D3000FC013197F7FF3BC0222733272E1B3F0BB7
:101D400057016801022E04C0D694C794B794A79493
:101D50000A94D2F740E050E060E070E081E090E06B
:101D6000A0E0B0E004C0880F991FAA1FBB1F2A95EE
:101D7000D2F70197A109B1098E219F21A023B12398
:101D80000097A105B10521F041E050E060E070E06E
:101D90004A295B296C297D294D835E836F8378876F
:101DA0008EE190E08E1B9F0B9C838B8312C030973B
:101DB00081F00E2E04C0EE0CFF1C001F111F0A94B0
:101DC000D2F7ED82FE820F831887CE1ADF0ADC82FB
:101DD000CB821A82CE0101960E94410F2896EAE03A
:101DE0000C94D910EF92FF920F931F937B018C01FB
:101DF00080E0E81680E0F80681E0080780E0180738
:101E000088F48FEFE816F1040105110531F028F090
:101E100088E090E0A0E0B0E017C080E090E0A0E0B3
:101E2000B0E012C080E0E81680E0F80680E0080725
:101E300081E0180728F088E190E0A0E0B0E004C05D
:101E400080E190E0A0E0B0E020E230E040E050E04F
:101E5000281B390B4A0B5B0B04C016950795F794AA
:101E6000E7948A95D2F7F701EE56FC4F8081281B44
:101E7000310941095109C9011F910F91FF90EF905C
:101E80000895DF92EF92FF920F931F93FC01E4807D
:101E9000F58006811781D1808081823048F480E00E
:101EA00090E0A0E1B0E0E82AF92A0A2B1B2BA5C09C
:101EB000843009F49FC0823021F4EE24FF2487018E
:101EC00005C0E114F1040105110519F4E0E0F0E0AA
:101ED00096C0628173819FEF623879070CF05BC016
:101EE00022E83FEF261B370B2A3131052CF020E08A
:101EF00030E040E050E02AC0B801A701022E04C043
:101F000076956795579547950A94D2F781E090E0CA
:101F1000A0E0B0E004C0880F991FAA1FBB1F2A953C
:101F2000D2F70197A109B1098E219F21A023B123E6
:101F30000097A105B10521F081E090E0A0E0B0E0BC
:101F40009A01AB01282B392B4A2B5B2BDA01C901F3
:101F50008F779070A070B07080349105A105B105A5
:101F600039F427FF09C0205C3F4F4F4F5F4F04C03B
:101F7000215C3F4F4F4F5F4FE0E0F0E02030A0E0AA
:101F80003A07A0E04A07A0E45A0710F0E1E0F0E0C9
:101F900079018A0127C06038710564F5FB01E158B9
:101FA000FF4FD801C7018F779070A070B070803458
:101FB0009105A105B10539F4E7FE0DC080E490E07C
:101FC000A0E0B0E004C08FE390E0A0E0B0E0E80E55
:101FD000F91E0A1F1B1F17FF05C016950795F794DA
:101FE000E794319687E016950795F794E7948A95DC
:101FF000D1F705C0EE24FF248701EFEFF0E06E2F4C
:10200000679566276795902F9F77D794DD24D7949F
:102010008E2F8695492F462B582F5D29B701CA016F
:102020001F910F91FF90EF90DF900895FC01DB016D
:10203000408151812281622F6F7770E0221F222719
:10204000221F9381892F880F822B282F30E0991F20
:102050009927991F11969C93119721153105A9F580
:10206000411551056105710511F482E037C082E820
:102070009FEF13969C938E9312979A01AB0167E0A2
:10208000220F331F441F551F6A95D1F783E08C93AD
:102090000DC0220F331F441F551F12968D919C9126
:1020A0001397019713969C938E931297203080E09C
:1020B000380780E0480780E4580758F314962D93BA
:1020C0003D934D935C93179708952F3F310579F415
:1020D000411551056105710519F484E08C9308954B
:1020E00064FF03C081E08C9312C01C9210C02F5774
:1020F000304013963C932E93129783E08C9387E0A5
:10210000440F551F661F771F8A95D1F77064149688
:102110004D935D936D937C931797089597FB092ECC
:1021200007260AD077FD04D00CD006D000201AF480
:10213000709561957F4F0895F6F7909581959F4F23
:102140000895AA1BBB1B51E107C0AA1FBB1FA617FE
:10215000B70710F0A61BB70B881F991F5A95A9F750
:1021600080959095BC01CD0108952F923F924F929A
:102170005F926F927F928F929F92AF92BF92CF9217
:10218000DF92EF92FF920F931F93CF93DF93CDB720
:10219000DEB7CA1BDB0B0FB6F894DEBF0FBECDBF98
:1021A00009942A88398848885F846E847D848C8469
:1021B0009B84AA84B984C884DF80EE80FD800C8172
:1021C0001B81AA81B981CE0FD11D0FB6F894DEBF55
:1021D0000FBECDBFED010895DC0101C06D934150EC
:1021E0005040E0F70895AEE0B0E0E9EFF0E10C9484
:1021F000C3100D891E8986E08C831A8309838FEFB3
:102200009FE79E838D839E01275E3F4FCE010196FF
:102210006F89788DA9010E9417112F813885020FCF
:10222000131FF80110822E96E4E00C94DF10ABE04F
:10223000B0E0EDE1F1E10C94B5103C012B015A0145
:10224000FC0117821682838181FD03C06FEF7FEF4F
:10225000C6C19AE0892E1E010894211C311CF3018D
:102260002381F20123FD859123FF81912F01882392
:1022700009F4B2C1853239F423FD859123FF8191A0
:102280002F01853229F490E0B3010E942E13E7CF8D
:10229000982FFF24EE249924FFE1FF15D0F09B3204
:1022A00069F09C3228F4903259F0933291F40EC0C8
:1022B0009D3249F0903369F441E024C052E0F52AA0
:1022C00084E0F82A28C098E0F92A25C0E0E1FE2A37
:1022D00022C0F7FC29C0892F80538A3070F4F6FEA3
:1022E00005C0989C902C1124980E15C0E89CE02CF9
:1022F0001124E80EF0E2FF2A0EC09E3229F4F6FC0B
:102300006BC140E4F42A07C09C3619F450E8F52A62
:1023100002C0983649F4F20123FD959123FF919173
:102320002F01992309F0B8CF892F8554833018F0F5
:102330008052833038F444E050E0A40EB51E5FE3D1
:1023400059830FC0933631F0933779F0933509F004
:1023500056C020C0F5018081898342E050E0A40E80
:10236000B51E610101E010E012C0F501C080D1800E
:10237000F6FC03C06FEF7FEF02C0692D70E042E012
:1023800050E0A40EB51EC6010E9423138C015FE726
:10239000F52214C0F501C080D180F6FC03C06FEFB8
:1023A0007FEF02C0692D70E042E050E0A40EB51E40
:1023B000C6010E9418138C0150E8F52AF3FE07C0ED
:1023C0001AC080E290E0B3010E942E13EA948E2D91
:1023D00090E008171907A8F30EC0F601F7FC8591E5
:1023E000F7FE81916F0190E0B3010E942E13E1107E
:1023F000EA94015010400115110579F7EAC09436AE
:1024000011F0993669F5F7FE08C0F5012081318198
:102410004281538184E090E00AC0F501808191817E
:102420009C01442737FD4095542F82E090E0A80E90
:10243000B91E9FE6F92257FF09C050954095309587
:1024400021953F4F4F4F5F4FE0E8FE2ACA01B90187
:10245000A1012AE030E00E945A13D82ED21840C0C1
:10246000953729F41F2D1F7E2AE030E01DC01F2D57
:10247000197F9F3661F0903720F4983509F0ACC091
:102480000FC0903739F0983709F0A6C004C028E093
:1024900030E00AC0106114FD146020E130E004C097
:1024A00014FD166020E132E017FF08C0F5016081DD
:1024B00071818281938144E050E008C0F501808100
:1024C0009181BC0180E090E042E050E0A40EB51E96
:1024D000A1010E945A13D82ED2188FE7F82EF122AC
:1024E000F6FE0BC05EEFF522D91438F4F4FE07C0F7
:1024F000F2FC05C08FEEF82202C01D2D01C0192D7F
:10250000F4FE0DC0FE01ED0DF11D8081803319F444
:1025100099EEF92208C01F5FF2FE05C003C08F2D9F
:10252000867809F01F5F0F2DF3FC14C0F0FE0FC07A
:102530001E1510F09D2C0BC09D2C9E0C911A1E2D6B
:1025400006C080E290E0B3010E942E131F5F1E15AB
:10255000C0F304C01E1510F4E11A01C0EE2404FFFC
:102560000FC080E390E0B3010E942E1302FF1DC054
:1025700001FD03C088E790E00EC088E590E00BC045
:10258000802F867891F001FF02C08BE201C080E2CB
:10259000F7FC8DE290E0B3010E942E1306C080E3A9
:1025A00090E0B3010E942E139A94D914C0F3DA94E8
:1025B000F101ED0DF11D808190E0B3010E942E1319
:1025C000DD20A9F706C080E290E0B3010E942E133F
:1025D000EA94EE20C1F743CEF30166817781CB0107
:1025E0002B96E2E10C94D110262FF999FECF92BDE3
:1025F00081BDF89A019700B4021639F01FBA20BDC8
:102600000FB6F894FA9AF99A0FBE08950396272FF9
:102610000E94F5120E94F412252F0E94F512242F19
:102620000C94F5120196272F0E94F5120C94F412C7
:10263000FC010590615070400110D8F7809590958D
:102640008E0F9F1F0895FC01615070400190011092
:10265000D8F7809590958E0F9F1F08950F931F9325
:10266000CF93DF938C01EB018B8181FF1BC082FF35
:102670000DC02E813F818C819D812817390764F41C
:10268000E881F9810193F983E88306C0E885F9853B
:10269000802F0995892B31F48E819F8101969F832C
:1026A0008E8302C00FEF1FEFC801DF91CF911F9102
:1026B0000F910895FA01AA27283051F1203181F1B4
:1026C000E8946F936E7F6E5F7F4F8F4F9F4FAF4F3A
:1026D000B1E03ED0B4E03CD0670F781F891F9A1F4D
:1026E000A11D680F791F8A1F911DA11D6A0F711D01
:1026F000811D911DA11D20D009F468943F912AE00D
:10270000269F11243019305D3193DEF6CF010895F4
:10271000462F4770405D4193B3E00FD0C9F7F6CF25
:10272000462F4F70405D4A3318F0495D31FD4052ED
:10273000419302D0A9F7EACFB4E0A6959795879583
:1027400077956795BA95C9F7009761057105089562
:102750009B01AC010A2E069457954795379527950E
:10276000BA95C9F7620F731F841F951FA01D0895A6
:04277000F894FFCF0B
:102774001B5B333231307C0042554420746F20425D
:102784004F422D3420416E676C65204F7665726C24
:102794006179206170706C69636174696F6E0A0D90
:1027A40072656164790A0D001B5B347A001B5B302F
:1027B4003B30480050414E3A2020252D34642020DF
:1027C4002020001B5B313B30480054494C543A20D4
:1027D400252D34642020202000401B5B005A4352E6
:1027E4004154505107000A0D50414E20582053487F
:1027F4004946543A2020253464202050414E205923
:102804002053484946543A2020252D3364206465DA
:102814006709090909092020202020202020200AF6
:102824000D50414E2052414E47453A20202020254C
:102834003464202050414E20534C4F50453A2020C0
:102844002020256620090909090920202020200AC2
:102854000D0A0D54494C5420582053484946543AC3
:1028640020253464202054494C542059205348498D
:1028740046543A20252D3364206465670909090903
:10288400092020202020202020200A0D54494C54C7
:102894002052414E47453A202020253464202054BC
:1028A400494C5420534C4F50453A20202025662053
:1028B4000A0D000A0D43555252454E5420524157B9
:1028C4002050414E3A20253464202043555252452D
:1028D4004E54205241572054494C543A2025640AFE
:1028E4000D00110EE13E33036600B4000100110E29
:1028F400E13E6502CD00B4000100000000000000CC
:10290400000000010202030303030404040404049A
:102914000404050505050505050505050505050565
:102924000505060606060606060606060606060645
:102934000606060606060606060606060606060633
:102944000606070707070707070707070707070715
:102954000707070707070707070707070707070703
:1029640007070707070707070707070707070707F3
:1029740007070707070707070707070707070707E3
:1029840007070808080808080808080808080808C5
:1029940008080808080808080808080808080808B3
:1029A40008080808080808080808080808080808A3
:1029B4000808080808080808080808080808080893
:1029C4000808080808080808080808080808080883
:1029D4000808080808080808080808080808080873
:1029E4000808080808080808080808080808080863
:1029F4000808080808080808080808080808080853
:022A04000808C0
:00000001FF
