:100000000C94F3000C9410010C9410010C9410014A
:100010000C9410010C9410010C9410010C9410011C
:100020000C9410010C9410010C9410010C9410010C
:100030000C9410010C9410010C9410010C941001FC
:100040000C9410010C9410010C9410010C941001EC
:100050000C9410010C9410010C9410010C941001DC
:100060000C9410010C942C030C9410010C941001AE
:100070000C9410010C9410010C9410010C941001BC
:100080000C9410010C9410010C9410010C941001AC
:100090000C945C030C9410010C9410010C9410014E
:1000A0000C9410010C9410010C9410010C9410018C
:1000B0000C9410010C9410010C9410010C9410017C
:1000C0000C9410010C9410010C9410010C948C03EE
:1000D0000C9410010C9410010C94BC030C941001AE
:1000E0000C9410016E616E00696E660000407A101B
:1000F000F35A00A0724E18090010A5D4E80000E8D9
:100100007648170000E40B54020000CA9A3B000036
:1001100000E1F505000080969800000040420F00C5
:100120000000A08601000000102700000000E80386
:10013000000000006400000000000A000000000051
:100140000100000000002C76D888DC674F0823DF10
:10015000C1DFAE59E1B1B796E5E3E453C63AE651E3
:10016000997696E8E6C28426EB898C9B62ED407C0A
:100170006FFCEFBC9C9F40F2BAA56FA5F490055AA6
:100180002AF75C936B6CF9676DC11BFCE0E40D47CB
:10019000FEF520E6B500D0ED902E030094357705EE
:1001A0000080841E080000204E0A000000C80C33A6
:1001B0003333330F986E12831141EF8D2114893B35
:1001C000E65516CFFEE6DB18D1844B381BF77C1DB5
:1001D000901DA4BBE424203284725E228100C9F108
:1001E00024ECA1E53D2711241FBECFEFD1E2DEBFF5
:1001F000CDBF15E0A0E0B2E0E2EAF8E302C005906E
:100200000D92A233B107D9F717E0A2E3B5E001C020
:100210001D92A03FB107E1F70E9412010C944F1C00
:100220000C9400004F925F926F927F928F929F92F8
:10023000AF92BF92CF92DF92EF92FF920F931F93F4
:10024000DF93CF93CDB7DEB7E2970FB6F894DEBF5A
:100250000FBECDBF0E94A7020E944D020E94490A14
:1002600080E00E945B0278946E010894C11CD11C4E
:10027000D601E0E0F2E088E001900D928150E1F7D4
:10028000C6010E94ED04D601E8E0F2E080E30190AF
:100290000D928150E1F7C6010E941A05D601E8E3EC
:1002A000F2E08FE001900D928150E1F7C6010E94CB
:1002B000ED0420E030E040E951E0CA010197F1F798
:1002C0002F5F3F4F83E128383807B9F739E5832E90
:1002D00032E0932E2BE7422E22E0522E96E9A92EF1
:1002E00092E0B92E80EA682E82E0782ED601E7E40B
:1002F000F2E08BE001900D928150E1F7C6010E947F
:10030000ED04D601E2E5F2E087E001900D92815024
:10031000E1F7C6010E94ED0480913205909133050A
:10032000892B09F46EC00E942D0F7C01E091870596
:10033000F091880509958C010E94F90CADB7BEB704
:100340001A970FB6F894BEBF0FBEADBFEDB7FEB79C
:1003500031961296DC92CE92119793828282F58228
:10036000E48217830683918780870E94961B2DB7AE
:100370003EB7265F3F4F0FB6F8943EBF0FBE2DBF6E
:10038000C6010E94ED04D601E4E7F2E087E00190A7
:100390000D928150E1F7C6010E94ED040E94700F9A
:1003A0007C01E0910B06F0910C0609958C010E94EE
:1003B000130EADB7BEB71A970FB6F894BEBF0FBEF7
:1003C000ADBFEDB7FEB731961296DC92CE92119783
:1003D00053824282F582E482178306839187808765
:1003E0000E94961B2DB73EB7265F3F4F0FB6F8947D
:1003F0003EBF0FBE2DBFC6010E94ED040E94CD0678
:1004000075CF0E942D0F00D000D000D0EDB7FEB701
:100410003196ADB7BEB71296DC92CE921197B382E9
:10042000A282958384830E94961B2DB73EB72A5FD4
:100430003F4F0FB6F8943EBF0FBE2DBFC6010E94BE
:10044000ED04D601E4E7F2E087E001900D928150DF
:10045000E1F7C6010E94ED040E94700F00D000D0A9
:1004600000D0EDB7FEB73196ADB7BEB71296DC92AD
:10047000CE92119773826282958384830E94961B29
:100480002DB73EB72A5F3F4F0FB6F8943EBF0FBE61
:100490002DBFC6010E94ED04B1CFDF93CF93CDB73E
:1004A000DEB7AAE7B0E0EAE7F0E0808180688C93ED
:1004B000CF91DF910895DF93CF930F92CDB7DEB741
:1004C000898389818093AA020F90CF91DF9108954B
:1004D000DF93CF9300D00F92CDB7DEB78B83ECE7DD
:1004E000F0E08B81982F97708091AA02892B8083EE
:1004F000ABE7B0E0EBE7F0E08081877F8C93AAE781
:10050000B0E0EAE7F0E0808180648C93EAE7F0E015
:100510008081882F90E0807490700097B9F7E8E7A9
:10052000F0E080818A83E9E7F0E080818983898136
:10053000882F90E0382F22278A81882F90E0822B05
:10054000932B0F900F900F90CF91DF910895DF9331
:10055000CF930F92CDB7DEB71092890580918905B0
:100560008093CA058091CA058093510610920D06AA
:1005700080910D06809386058091860580934F06B5
:100580008AE895E060E070E040E450E00E94581B8B
:1005900086E495E060E070E040E450E00E94581B83
:1005A0008BEC95E060E070E040E450E00E94581B66
:1005B0008EE096E060E070E040E450E00E94581B5E
:1005C000E4ECF0E08FE590E091838083ECECF0E0E8
:1005D00087E090E091838083E4EDF0E087E090E0B5
:1005E00091838083E4E3F1E08FE590E09183808361
:1005F000E1ECF0E088E98083E9ECF0E088E98083D1
:10060000E1EDF0E088E98083E1E3F1E088E98083CF
:10061000E2ECF0E086E08083EAECF0E086E08083C4
:10062000E2EDF0E086E08083E2E3F1E086E08083C3
:10063000E6ECF0E080818983EEECF0E08081898354
:10064000E6EDF0E080818983E6E3F1E08081898353
:100650000F90CF91DF9108951F920F920FB60F92D6
:1006600011242F938F939F93EF93FF93DF93CF9357
:10067000CDB7DEB780914F06882F90E0E6ECF0E032
:100680002081FC01E657FA4F208380914F068F5F4F
:1006900080934F0680914F06803411F410924F06DC
:1006A000CF91DF91FF91EF919F918F912F910F90BB
:1006B0000FBE0F901F9018951F920F920FB60F92BA
:1006C00011242F938F939F93EF93FF93DF93CF93F7
:1006D000CDB7DEB780918605882F90E0EEECF0E094
:1006E0002081FC01EA5BFA4F2083809186058F5FB1
:1006F0008093860580918605803411F410928605DA
:10070000CF91DF91FF91EF919F918F912F910F905A
:100710000FBE0F901F9018951F920F920FB60F9259
:1007200011242F938F939F93EF93FF93DF93CF9396
:10073000CDB7DEB780910D06882F90E0E6EDF0E0B2
:100740002081FC01E553FA4F208380910D068F5FD5
:1007500080930D0680910D06803411F410920D06E1
:10076000CF91DF91FF91EF919F918F912F910F90FA
:100770000FBE0F901F9018951F920F920FB60F92F9
:1007800011242F938F939F93EF93FF93DF93CF9336
:10079000CDB7DEB780914E06882F90E0E6E3F1E01A
:1007A0002081FC01E25FF94F208380914E068F5F2C
:1007B00080934E0680914E06803411F410924E06BE
:1007C000CF91DF91FF91EF919F918F912F910F909A
:1007D0000FBE0F901F901895DF93CF930F92CDB758
:1007E000DEB780915106882F90E0FC01E657FA4F62
:1007F00080818983809151068F5F8093510680911B
:100800005106803411F41092510689810F90CF91D6
:10081000DF910895DF93CF930F92CDB7DEB780912C
:10082000CA05882F90E0FC01EA5BFA4F808189833A
:100830008091CA058F5F8093CA058091CA05803474
:1008400011F41092CA0589810F90CF91DF9108951C
:10085000DF93CF930F92CDB7DEB780918905882FB4
:1008600090E0FC01E553FA4F8081898380918905EE
:100870008F5F8093890580918905803411F41092EF
:10088000890589810F90CF91DF910895DF93CF93F0
:100890000F92CDB7DEB780915006882F90E0FC0113
:1008A000E25FF94F80818983809150068F5F80934A
:1008B000500680915006803411F4109250068981C0
:1008C0000F90CF91DF910895DF93CF930F92CDB723
:1008D000DEB78983E0ECF0E08081882F90E08072C1
:1008E00090700097B9F3E6ECF0E0898180830F9077
:1008F000CF91DF910895DF93CF930F92CDB7DEB7FD
:100900008983E8ECF0E08081882F90E0807290701D
:100910000097B9F3EEECF0E0898180830F90CF91DE
:10092000DF910895DF93CF930F92CDB7DEB7898320
:10093000E0EDF0E08081882F90E080729070009769
:10094000B9F3E6EDF0E0898180830F90CF91DF91DC
:100950000895DF93CF930F92CDB7DEB78983E0E39D
:10096000F1E08081882F90E0807290700097B9F359
:10097000E6E3F1E0898180830F90CF91DF910895C4
:10098000DF93CF9300D000D0CDB7DEB79C838B83AD
:100990001A82198211C02B813C8189819A81F901C7
:1009A000E80FF91F8081282F89819A8101969A8307
:1009B0008983822F0E9464042B813C8189819A81E2
:1009C000F901E80FF91F8081882329F70F900F9014
:1009D0000F900F90CF91DF910895DF93CF9300D0C8
:1009E00000D0CDB7DEB79C838B831A82198211C0E9
:1009F0002B813C8189819A81F901E80FF91F80815F
:100A0000282F89819A8101969A838983822F0E9457
:100A10007B042B813C8189819A81F901E80FF91FC0
:100A20008081882329F70F900F900F900F90CF911E
:100A3000DF910895DF93CF9300D000D0CDB7DEB71C
:100A40009C838B831A82198211C02B813C818981FE
:100A50009A81F901E80FF91F8081282F89819A81F5
:100A600001969A838983822F0E9492042B813C8174
:100A700089819A81F901E80FF91F8081882329F77C
:100A80000F900F900F900F90CF91DF910895DF930B
:100A9000CF9300D000D0CDB7DEB79C838B831A8272
:100AA000198211C02B813C8189819A81F901E80F5B
:100AB000F91F8081282F89819A8101969A838983E1
:100AC000822F0E94A9042B813C8189819A81F9019E
:100AD000E80FF91F8081882329F70F900F900F905E
:100AE0000F90CF91DF910895DF93CF9300D000D086
:100AF0000F92CDB7DEB79B838A837D836C83198287
:100B00000FC08981282F30E08A819B81FC01E20F90
:100B1000F31F908189818F5F8983892F0E946404EC
:100B20008981282F30E08C819D812817390748F36F
:100B30000F900F900F900F900F90CF91DF9108952D
:100B4000DF93CF9300D000D000D0CDB7DEB79C8329
:100B50008B837E836D831A82198210C02B813C8126
:100B600089819A81F901E80FF91F208189819A8191
:100B700001969A838983822F0E947B0429813A817E
:100B80008D819E812817390748F326960FB6F89471
:100B9000DEBF0FBECDBFCF91DF910895DF93CF931E
:100BA00000D000D000D0CDB7DEB79C838B837E838E
:100BB0006D831A82198210C02B813C8189819A81B0
:100BC000F901E80FF91F208189819A8101969A83A2
:100BD0008983822F0E94920429813A818D819E818E
:100BE0002817390748F326960FB6F894DEBF0FBED4
:100BF000CDBFCF91DF910895DF93CF9300D000D088
:100C000000D0CDB7DEB79C838B837E836D831A8241
:100C1000198210C02B813C8189819A81F901E80FEA
:100C2000F91F208189819A8101969A838983822F75
:100C30000E94A90429813A818D819E812817390754
:100C400048F326960FB6F894DEBF0FBECDBFCF9106
:100C5000DF910895DF93CF93CDB7DEB72E970FB610
:100C6000F894DEBF0FBECDBF8B836C834D832E8384
:100C70001A8219828B818A336CF48B81992787FDC4
:100C80009095C0979C01322F22273295307F3E8766
:100C90002D870CC08B81992787FD9095C7979C0164
:100CA000322F22273295307F3E872D872D853E8536
:100CB00089819A81822B932B9A8389838C818A33B1
:100CC00054F48C81992787FD9095C097382F22275F
:100CD0003C872B8709C08C81992787FD9095C79702
:100CE000382F22273C872B872B853C8589819A8149
:100CF000822B932B9A8389838D818A337CF48D8117
:100D0000992787FD9095C0979C0122953295307F59
:100D10003227207F32273A8729870EC08D81992775
:100D200087FD9095C7979C0122953295307F322799
:100D3000207F32273A87298729853A8589819A81B8
:100D4000822B932B9A8389838E818A3354F48E81EC
:100D5000992787FD90959C012053304038872F8339
:100D600009C08E81992787FD90959C0127533040BB
:100D700038872F832F81388589819A81822B932B05
:100D80009A83898389819A812E960FB6F894DEBF63
:100D90000FBECDBFCF91DF9108952F923F924F921A
:100DA0005F926F927F928F929F92AF92BF92CF92FB
:100DB000DF92EF92FF920F931F93DF93CF93CDB704
:100DC000DEB7C451D1400FB6F894DEBF0FBECDBF21
:100DD00010C00E942804898320913405822F90E05E
:100DE000FC01EE5AF94F89818083822F8F5F8093B7
:100DF00034059091890580910D06981751F79091CF
:100E0000340580913505292F281B822F882F90E0EB
:100E10009C838B838B819C81833091050CF41FC351
:100E200080913505882F90E0FC01EE5AF94F8081C2
:100E3000833C31F0809135058F5F809335050FC37A
:100E4000809135058F5F882F90E0FC01EE5AF94FB5
:100E500080818A8318861F820EC08F819885FC014D
:100E6000E555FD4F90818A81981771F08F819885A3
:100E7000019698878F832091C3023091C4028F819D
:100E80009885821793074CF32091C3023091C402D6
:100E90008F8198858217930729F4809135058E5F9D
:100EA000809335058F819885FC01E954FD4F808141
:100EB000882F90E09E838D838B819C8102979C83F9
:100EC0008B8318861F8223C09F8180913505890FEF
:100ED0008E5F882F90E0FC01EE5AF94F80818A8363
:100EE0008A818D3529F48F8198859E838D831DC0DD
:100EF0002F813885CE01875F9E4FFC01E20FF31FE3
:100F00008A8180838F819885019698878F832F812E
:100F100038858B819C81281739073CF42F813885CF
:100F20008D819E81821793077CF62F8138858B8176
:100F30009C812817390709F492C22F8138858D8149
:100F40009E818217930744F49F8180913505890F14
:100F50008E5F8093350583C2809135058F5F882F22
:100F600090E0FC01EE5AF94F80818A839D81809147
:100F70003505890F8D5F809335058A818A3579F52E
:100F800018861F8224C02F813885CE01875F9E4F2F
:100F9000FC01E20FF31F8081803529F40E94F90CD7
:100FA0000E94B30F0FC02F813885CE01875F9E4FFF
:100FB000FC01E20FF31F8081843521F40E94130E9F
:100FC0000E94E50F8F819885019698878F832F81E6
:100FD00038858D819E8128173907ACF240C28A81FD
:100FE000823579F518861F8224C02F813885CE017D
:100FF000875F9E4FFC01E20FF31F8081803529F44B
:1010000082E090E00E942F0B0FC02F813885CE0127
:10101000875F9E4FFC01E20FF31F8081843521F42E
:1010200082E090E00E94BF0B8F819885019698879F
:101030008F832F8138858D819E8128173907ACF2E7
:101040000EC28A81813479F518861F8224C02F81CF
:101050003885CE01875F9E4FFC01E20FF31F808130
:10106000803529F481E090E00E942F0B0FC02F8182
:101070003885CE01875F9E4FFC01E20FF31F808110
:10108000843521F481E090E00E94BF0B8F81988528
:10109000019698878F832F8138858D819E812817AF
:1010A0003907ACF2DCC18A81843559F518861F8274
:1010B00020C02F813885CE01875F9E4FFC01E20F53
:1010C000F31F8081803519F40E94A50B0DC02F817C
:1010D0003885CE01875F9E4FFC01E20FF31F8081B0
:1010E000843511F40E94350C8F819885019698877C
:1010F0008F832F8138858D819E8128173907CCF207
:10110000AEC18A81803509F06AC060915207709142
:101110005307A091EE07B091EF07C090A807D090B9
:10112000A907209158073091590740915A075091CB
:101130005B07A090A607B090A7078090AA079090A1
:10114000AB076090AC077090AD0740905E07509081
:101150005F07E0905407F0905507009156071091F3
:1011600057072090A2073090A3078DB79EB74C97E2
:101170000FB6F8949EBF0FBE8DBFEDB7FEB7319688
:10118000CE0109969183808385EC92E093838283DC
:1011900075836483B783A683D186C086228733870D
:1011A00044875587B786A686918A808A738A628A21
:1011B000558A448AE68AF78A008F118F338E228EF1
:1011C0000E94961B8DB79EB74C960FB6F8949EBFA3
:1011D0000FBE8DBFCE0109960E941A0540C18A81BB
:1011E000873491F5E0918705F091880509958C0188
:1011F000E0910B06F0910C0609959C018DB79EB706
:1012000008970FB6F8949EBF0FBE8DBFEDB7FEB71F
:101210003196CE0109969183808387EB93E0938387
:10122000828315830483378326830E94961B8DB7A0
:101230009EB708960FB6F8949EBF0FBE8DBFCE0125
:1012400009960E941A050BC18A81813561F50E94B9
:10125000F90C8C010E94130E9C018DB79EB7089764
:101260000FB6F8949EBF0FBE8DBFEDB7FEB7319697
:10127000CE0109969183808386EE93E093838283E7
:1012800015830483378326830E94961B8DB79EB7F0
:1012900008960FB6F8949EBF0FBE8DBFCE0109967B
:1012A0000E941A05DCC08A81833599F58D819E8163
:1012B0008830910509F0D3C0FE01E75FFE4F8081C1
:1012C000FE01E75FFE4F3181FE01E75FFE4F928135
:1012D000FE01E75FFE4F2381632F492F0E942A06FC
:1012E0000E94930CFE01E75FFE4F8481FE01E75FE1
:1012F000FE4F3581FE01E75FFE4F9681FE01E75FFD
:10130000FE4F2781632F492F0E942A060E94B10CAD
:10131000A6C08A81863529F484E090E00E944F0CB3
:101320009EC08A81843429F483E090E00E944F0CAF
:1013300096C08A81803709F071C08D819E81893085
:10134000910509F08CC0FE01E75FFE4F808180357A
:1013500079F5FE01E75FFE4F8181FE01E75FFE4FF9
:101360003281FE01E75FFE4F9381FE01E75FFE4F92
:101370002481632F492F0E942A068C01FE01E75F1A
:10138000FE4F8581FE01E75FFE4F3681FE01E75F7C
:10139000FE4F9781FE01E75FFE4F2085632F492FA7
:1013A0000E942A069C01C801B9010E94171057C06B
:1013B000FE01E75FFE4F8081843509F050C0FE01D9
:1013C000E75FFE4F8181FE01E75FFE4F3281FE0144
:1013D000E75FFE4F9381FE01E75FFE4F2481632F9D
:1013E000492F0E942A068C01FE01E75FFE4F85818E
:1013F000FE01E75FFE4F3681FE01E75FFE4F9781FA
:10140000FE01E75FFE4F2085632F492F0E942A06C9
:101410009C01C801B9010E949E1021C08A818436B6
:10142000F1F48091320590913305CD5EDE4F198243
:101430001882C351D140009741F481E090E0CD5E25
:10144000DE4F99838883C351D140CD5EDE4F8881C2
:101450009981C351D1409093330580933205CC5E7E
:10146000DE4F0FB6F894DEBF0FBECDBFCF91DF9138
:101470001F910F91FF90EF90DF90CF90BF90AF90B2
:101480009F908F907F906F905F904F903F902F90A4
:101490000895DF93CF9300D0CDB7DEB71A821982BB
:1014A00055C089819A8120911D0430911E04880FB6
:1014B000991FFC01E05AF84F3183208389819A817A
:1014C0002091230430912404880F991FFC01E255D8
:1014D000F84F3183208380911D0490911E049C015C
:1014E00040E050E080913A0590913B05A0913C0589
:1014F000B0913D05820F931FA41FB51F80933A053D
:1015000090933B05A0933C05B0933D058091230447
:10151000909124049C0140E050E08091400590911E
:101520004105A0914205B0914305820F931FA41F6E
:10153000B51F8093400590934105A0934205B09359
:10154000430589819A8101969A83898389819A8149
:10155000803291050CF4A5CF8FEC9CE09093880528
:10156000809387058AED9CE090930C0680930B0690
:1015700080E090E00E941E1C0E944F0C82E090E0F0
:101580000E94181CDC01CB018093580790935907E7
:10159000A0935A07B0935B0788E090E00E941E1C5E
:1015A0009093A7078093A60786E090E00E941E1CF8
:1015B0009093A9078093A8078EE090E00E941E1CDC
:1015C0009093A1078093A0078AE090E00E941E1CE0
:1015D00090935307809352078CE090E00E941E1C6A
:1015E0009093EF078093EE0780E190E00E94181C33
:1015F000DC01CB018093540790935507A0935607C5
:10160000B093570786E190E00E941E1C9093A307B9
:101610008093A20784E190E00E941E1C90935F07D4
:1016200080935E078CE190E00E941E1C9093A507BA
:101630008093A40788E190E00E941E1C9093AB0762
:101640008093AA078AE190E00E941E1C9093AD0748
:101650008093AC070F900F90CF91DF910895DF93A7
:10166000CF9300D0CDB7DEB79A8389832091A007AE
:101670003091A10789819A812817390709F460C040
:1016800089819A8182309105F9F420915207309135
:1016900053078091A8079091A90796958795A9016E
:1016A000481B590BCA01909353078093520784EB50
:1016B00090E09093EF078093EE0782E090E09093A4
:1016C000A1078093A00720C089819A81813091056C
:1016D000B9F58091A8079091A9079C0136952795A7
:1016E0008091520790915307820F931F9093530755
:1016F000809352071092EF071092EE0781E090E07E
:101700009093A1078093A0078091EE079091EF0737
:101710009C018CE090E0B9010E942C1C20915207A2
:10172000309153078AE090E0B9010E942C1C20916F
:10173000A0073091A1078EE090E0B9010E942C1C17
:101740000F900F90CF91DF910895DF93CF9300D04A
:10175000CDB7DEB78091A0079091A1071A821982B8
:10176000009721F481E090E09A83898389819A81AE
:101770000E942F0B0F900F90CF91DF910895DF9370
:10178000CF9300D0CDB7DEB79A8389832091A40789
:101790003091A50789819A812817390709F460C01B
:1017A00089819A8182309105F9F42091AA073091BC
:1017B000AB0780915E0790915F0796958795A90189
:1017C000481B590BCA019093AB078093AA0784EB7F
:1017D00090E09093AD078093AC0782E090E0909307
:1017E000A5078093A40720C089819A818130910543
:1017F000B9F580915E0790915F079C01369527951A
:101800008091AA079091AB07820F931F9093AB072B
:101810008093AA071092AD071092AC0781E090E088
:101820009093A5078093A4078091AC079091AD0792
:101830009C018AE190E0B9010E942C1C2091AA072A
:101840003091AB0788E190E0B9010E942C1C2091F7
:10185000A4073091A5078CE190E0B9010E942C1CEF
:101860000F900F90CF91DF910895DF93CF9300D029
:10187000CDB7DEB78091A4079091A5071A8219828F
:10188000009721F481E090E09A83898389819A818D
:101890000E94BF0B0F900F90CF91DF910895DF93BF
:1018A000CF9300D0CDB7DEB79A83898389819A819F
:1018B0008430910599F489819A8190935D07809392
:1018C0005C0785EE9CE090938805809387058FEEFA
:1018D0009CE090930C0680930B0617C089819A8137
:1018E0008330910591F489819A8190935D0780936B
:1018F0005C078FEC9CE090938805809387058AEDC8
:101900009CE090930C0680930B0620915C0730912D
:101910005D0780E090E0B9010E942C1C0F900F90B1
:10192000CF91DF910895DF93CF9300D0CDB7DEB78D
:101930009A83898381E090E0909337058093360500
:1019400089819A81929582958F7089279F708927C6
:1019500090931E0480931D040F900F90CF91DF9100
:101960000895DF93CF9300D0CDB7DEB79A838983F4
:1019700081E090E0909339058093380589819A81C0
:10198000929582958F7089279F7089279093240460
:10199000809323040F900F90CF91DF910895DF93F0
:1019A000CF93CDB7DEB780911D0490911E04CF91E7
:1019B000DF910895DF93CF93CDB7DEB780912304F5
:1019C00090912404CF91DF910895DF93CF93CDB709
:1019D000DEB780E00E946802CF91DF910895DF9327
:1019E000CF93CDB7DEB783E00E946802CF91DF913D
:1019F0000895EF92FF920F931F93DF93CF93CDB78C
:101A0000DEB7C854D0400FB6F894DEBF0FBECDBFCE
:101A100080913605909137050097A9F480913A0599
:101A200090913B05A0913C05B0913D05689414F858
:101A3000B695A795979587951694D1F729969FAF58
:101A40008EAF2997DEC0109237051092360520918F
:101A50003A0530913B0540913C0550913D05809100
:101A60003E0590913F05880F991FFC01E05AF84F01
:101A700080819181CC01A0E0B0E079018A01E81A6F
:101A8000F90A0A0B1B0BD801C70180933A05909302
:101A90003B05A0933C05B0933D0500913E05109198
:101AA0003F05E0918705F091880509959C01C801E3
:101AB000880F991FFC01E05AF84F318320838091F1
:101AC0003E0590913F05880F991FFC01E05AF84FA1
:101AD000808191819C0140E050E080913A05909195
:101AE0003B05A0913C05B0913D05820F931FA41FBB
:101AF000B51F80933A0590933B05A0933C05B093A6
:101B00003D0580913E0590913F0501968F71907043
:101B100090933F0580933E0580E697E09E012B5F02
:101B20003F4FB90140E250E00E946911CE01059695
:101B3000489668E070E00E94F6119C838B83CE018A
:101B40000596489668E070E00E9445129A83898362
:101B500020911F043091200489819A812817390728
:101B600030F489819A819093200480931F042091FE
:101B70002104309122048B819C818217930730F4D9
:101B80008B819C8190932204809321042091A8074B
:101B90003091A9078091A6079091A707280F391FB8
:101BA00080911F04909120042817390758F0209144
:101BB0002104309122048091A6079091A70728174D
:101BC000390758F4809121049091220420911F0438
:101BD00030912004B9010E94171080913A0590912C
:101BE0003B05A0913C05B0913D05689414F8B6956D
:101BF000A795979587951694D1F729969FAF8EAFA5
:101C0000299729968EAD9FAD2997C85BDF4F0FB6F8
:101C1000F894DEBF0FBECDBFCF91DF911F910F9122
:101C2000FF90EF900895EF92FF920F931F93DF9331
:101C3000CF93CDB7DEB7C854D0400FB6F894DEBF0F
:101C40000FBECDBF80913805909139050097A9F45A
:101C50008091400590914105A0914205B0914305C6
:101C6000689414F8B695A795979587951694D1F72B
:101C700029969FAF8EAF2997DEC01092390510923A
:101C80003805209140053091410540914205509121
:101C900043058091440590914505880F991FFC01EB
:101CA000E255F84F80819181CC01A0E0B0E079014C
:101CB0008A01E81AF90A0A0B1B0BD801C7018093A5
:101CC000400590934105A0934205B09343050091D0
:101CD000440510914505E0910B06F0910C0609951D
:101CE0009C01C801880F991FFC01E255F84F318310
:101CF00020838091440590914505880F991FFC0130
:101D0000E255F84F808191819C0140E050E0809144
:101D1000400590914105A0914205B0914305820F85
:101D2000931FA41FB51F8093400590934105A09376
:101D30004205B09343058091440590914505019675
:101D40008F71907090934505809344058EEA97E0DB
:101D50009E012B5F3F4FB90140E250E00E946911A4
:101D6000CE010596489668E070E00E94F6119C83CB
:101D70008B83CE010596489668E070E00E9445127C
:101D80009A838983209125043091260489819A8140
:101D90002817390730F489819A819093260480931B
:101DA000250420912704309128048B819C8182177F
:101DB000930730F48B819C819093280480932704AF
:101DC00020915E0730915F078091A2079091A30751
:101DD000280F391F80912504909126042817390770
:101DE00058F020912704309128048091A207909107
:101DF000A3072817390758F48091270490912804E5
:101E00002091250430912604B9010E949E108091F2
:101E1000400590914105A0914205B0914305689419
:101E200014F8B695A795979587951694D1F72996A6
:101E30009FAF8EAF299729968EAD9FAD2997C85B2E
:101E4000DF4F0FB6F894DEBF0FBECDBFCF91DF914D
:101E50001F910F91FF90EF900895DF93CF93CDB72F
:101E6000DEB70E94F90C9C018091520790915307B4
:101E7000281B390B8091A8079091A907820F931F07
:101E80002091A8073091A907B9010E942A1ACC0114
:101E9000A0E0B0E0BC01CD010E948E14DC01CB01BA
:101EA000209158073091590740915A0750915B078C
:101EB000BC01CD010E949412DC01CB01BC01CD011B
:101EC0000E943A14DC01CB019C018091EE079091B5
:101ED000EF07A901481B590BCA01CF91DF91089563
:101EE000DF93CF93CDB7DEB70E94130E9C01809194
:101EF000AA079091AB07281B390B80915E07909140
:101F00005F07820F931F20915E0730915F07B90131
:101F10000E942A1ACC01A0E0B0E0BC01CD010E94D1
:101F20008E14DC01CB01209154073091550740916C
:101F3000560750915707BC01CD010E949412DC0155
:101F4000CB01BC01CD010E943A14DC01CB019C0104
:101F50008091AC079091AD07A901481B590BCA01AC
:101F6000CF91DF910895DF93CF9300D0CDB7DEB747
:101F70009A8389838091A0079091A107823091056F
:101F800081F48091A8079091A9079C013695279527
:101F900089819A81820F931F9093530780935207F0
:101FA00006C089819A8190935307809352072091AC
:101FB0005207309153078AE090E0B9010E942C1C2F
:101FC0000F900F90CF91DF910895DF93CF9300D0C2
:101FD000CDB7DEB79A8389838091A4079091A50736
:101FE0008230910581F480915E0790915F079C019A
:101FF0003695279589819A81820F931F9093AB071D
:102000008093AA0706C089819A819093AB07809339
:10201000AA072091AA073091AB0788E190E0B901A7
:102020000E942C1C0F900F90CF91DF910895DF93A9
:10203000CF9300D000D0CDB7DEB79A8389837C835D
:102040006B8320915207309153078091A60790919E
:10205000A707281B390B89819A81820F931F9093C0
:1020600053078093520789819A819093A7078093A1
:10207000A6072B813C8189819A81A901481B590BB4
:10208000CA019093A9078093A8078091A80790910F
:10209000A907CC01A0E0B0E0BC01CD010E948E14E4
:1020A0009B01AC0160E070E084EB93E40E948E132E
:1020B000DC01CB018093580790935907A0935A07EE
:1020C000B0935B0720915207309153078AE090E06C
:1020D000B9010E942C1C2091A6073091A70788E027
:1020E00090E0B9010E942C1C2091A8073091A9070B
:1020F00086E090E0B9010E942C1C20915807309195
:10210000590740915A0750915B0782E090E0BA016D
:10211000A9010E94241C89819A81909322048093B2
:1021200021048B819C819093200480931F040F9045
:102130000F900F900F90CF91DF910895DF93CF9381
:1021400000D000D0CDB7DEB79A8389837C836B83C0
:102150002091AA073091AB078091A2079091A30725
:10216000A901481B590BCA019093AB078093AA079A
:102170002B813C8189819A81A901481B590BCA0195
:10218000CC01A0E0B0E0BC01CD010E948E14DC01C6
:10219000CB01BC01CD0120E030E044EB53E40E94D0
:1021A0009412DC01CB01BC01CD0120E030E047E816
:1021B00053E40E948E13DC01CB01BC01CD010E94CF
:1021C0003A14DC01CB0190935F0780935E0729816D
:1021D0003A818B819C81281B390B80915E079091FD
:1021E0005F07820F931F9C013695279589819A81FD
:1021F000821B930B9093A3078093A2072091AA07B9
:102200003091AB078091A2079091A307820F931F93
:102210009093AB078093AA072B813C8189819A8197
:10222000A901481B590BCA01CC01A0E0B0E0BC01D8
:10223000CD010E948E149B01AC0160E070E087E844
:1022400093E40E948E13DC01CB018093540790939A
:102250005507A0935607B09357072091AA073091CE
:10226000AB0788E190E0B9010E942C1C20915E0729
:1022700030915F0784E190E0B9010E942C1C20910D
:10228000A2073091A30786E190E0B9010E942C1CBF
:1022900020915407309155074091560750915707A8
:1022A00080E190E0BA01A9010E94241C89819A81F1
:1022B00090932804809327048B819C81909326041B
:1022C000809325040F900F900F900F90CF91DF9186
:1022D0000895DF93CF93CDB7DEB72C970FB6F89460
:1022E000DEBF0FBECDBF98878F837A8769875C87F3
:1022F0004B871E821D8269C08D819E819C01220FA9
:10230000331F8F819885FC01E20FF31F808191813B
:102310009A8389838D819E819C838B8325C08B8149
:102320009C819C01220F331F89859A85DC01A20FB5
:10233000B31F2B813C8181E090E0821B930B880FBF
:10234000991F22273327281B390B89859A85FC0181
:10235000E20FF31F8081918111969C938E938B8164
:102360009C8101979C838B838B819C811816190615
:10237000CCF42B813C8181E090E0821B930B880F91
:10238000991F22273327281B390B89859A85FC0141
:10239000E20FF31F2081318189819A81821793078F
:1023A00008F4BDCF8B819C819C01220F331F89854E
:1023B0009A85FC01E20FF31F89819A8191838083C2
:1023C0008D819E8101969E838D832D813E818B859B
:1023D0009C852817390708F48FCF2C960FB6F894F0
:1023E000DEBF0FBECDBFCF91DF910895DF93CF93B6
:1023F000CDB7DEB728970FB6F894DEBF0FBECDBFBE
:102400009E838D8378876F83ED81FE8180819181AA
:102410009A83898381E090E09C838B8324C08B81A5
:102420009C819C01220F331F8D819E81FC01E20F54
:10243000F31F2081318189819A812817390770F42F
:102440008B819C819C01220F331F8D819E81FC0119
:10245000E20FF31F808191819A8389838B819C8114
:1024600001969C838B832B813C818F8198852817D3
:102470003907A8F289819A8128960FB6F894DEBFB1
:102480000FBECDBFCF91DF910895DF93CF93CDB72E
:10249000DEB728970FB6F894DEBF0FBECDBF9E8380
:1024A0008D8378876F83ED81FE81808191819A830E
:1024B000898381E090E09C838B8324C08B819C8105
:1024C0009C01220F331F8D819E81FC01E20FF31FBF
:1024D0002081318189819A818217930770F48B81E1
:1024E0009C819C01220F331F8D819E81FC01E20F94
:1024F000F31F808191819A8389838B819C810196CE
:102500009C838B832B813C818F8198852817390789
:10251000A8F289819A8128960FB6F894DEBF0FBE83
:10252000CDBFCF91DF910895A0E2B0E0EAE9F2E1FA
:102530000C943E1A69837A838B839C832D833E831C
:102540004F835887CE010196BE01675F7F4F0E947F
:102550002B16CE010596BE016F5E7F4F0E942B1693
:102560009985923088F089898230C8F0943019F4C6
:10257000823051F404C0843029F4923081F489E22D
:1025800094E0C6C0923049F420E09A858A89981375
:1025900021E02A87CE010996BBC0823049F420E0B1
:1025A0009A858A89981321E02A8BCE014196B0C082
:1025B0002D843E844F8458886D887E888F88988CBF
:1025C000EE24FF248701AA24BB24650140E050E0EB
:1025D00060E070E0E0E0F0E0C10181709070892B74
:1025E000E9F0E60CF71C081D191D9A01AB012A0D34
:1025F0003B1D4C1D5D1D80E090E0A0E0B0E0E614C6
:10260000F7040805190520F481E090E0A0E0B0E0AF
:10261000BA01A901480F591F6A1F7B1FAA0CBB1CD6
:10262000CC1CDD1C97FE08C081E090E0A0E0B0E08B
:10263000A82AB92ACA2ADB2A3196E032F10549F0E4
:10264000660C771C881C991C5694479437942794E1
:10265000C3CFFA85EA892B893C898B859C85280F15
:10266000391F2E5F3F4F17C0CA0181709070892BB0
:1026700061F016950795F794E79480E090E0A0E06C
:10268000B0E8E82AF92A0A2B1B2B7695679557950F
:1026900047952F5F3F4F77FDE7CF0CC0440F551F85
:1026A000661F771F17FD4160EE0CFF1C001F111FF6
:1026B00021503040403090E0590790E0690790E4A5
:1026C000790760F32B8F3C8FDB01CA018F77907005
:1026D000A070B07080349105A105B10561F447FD8B
:1026E0000AC0E114F1040105110529F0405C5F4FB7
:1026F0006F4F7F4F40781A8EFE1711F081E08A8F5E
:102700004D8F5E8F6F8F78A383E0898FCE014996BE
:102710000E945615A096E2E10C945A1AA8E1B0E086
:10272000E4E9F3E10C94461A69837A838B839C83F2
:102730002D833E834F835887B9E0EB2EF12CEC0EAE
:10274000FD1ECE010196B7010E942B168E010F5E71
:102750001F4FCE010596B8010E942B162985223005
:1027600008F47EC03989323010F4B8017CC08A8503
:102770009A8989278A87243011F0223031F423176F
:1027800009F06EC069E274E06EC0343039F41D8621
:102790001E861F86188A1C861B8604C0323021F4D0
:1027A00084E08987B7015FC02B853C858B899C8934
:1027B000281B390B3C872B87ED84FE840F851889F5
:1027C000AD88BE88CF88D88CEA14FB040C051D05A3
:1027D00040F4EE0CFF1C001F111F215030403C87BD
:1027E0002B8720E030E040E050E080E090E0A0E087
:1027F000B0E460E070E0EA14FB040C051D0540F055
:10280000282B392B4A2B5B2BEA18FB080C091D09D6
:10281000B695A79597958795EE0CFF1C001F111F85
:102820006F5F7F4F6F31710531F7DA01C9018F7723
:102830009070A070B07080349105A105B10561F46D
:1028400027FD0AC0E114F1040105110529F0205CFF
:102850003F4F4F4F5F4F20782D873E874F87588BD4
:10286000BE01675F7F4FCB010E9456156896EAE074
:102870000C94621AACE0B0E0E0E4F4E10C944E1A7F
:1028800069837A838B839C83CE010196BE016B5F43
:102890007F4F0E942B168D81823061F1823050F182
:1028A000843021F48E81882351F12EC02F81388508
:1028B00037FD20C06E812F3131051CF06623F9F001
:1028C00023C08EE190E0821B930B29853A854B85CE
:1028D0005C8504C056954795379527958A95D2F71C
:1028E0006623B1F050954095309521953F4F4F4F5D
:1028F0005F4F0EC020E030E040E050E009C02FEF15
:102900003FEF4FEF5FE704C020E030E040E050E8E9
:10291000B901CA012C96E2E00C946A1AA8E0B0E072
:10292000E4E9F4E10C94461A7B018C016115710510
:102930008105910519F482E0898360C083E0898371
:102940008EE1C82ED12CDC82CB82ED82FE820F83F9
:102950001887C801B7010E940715FC013197F7FFDE
:102960003BC0222733272E1B3F0B57016801022E45
:1029700004C0D694C794B794A7940A94D2F740E0C1
:1029800050E060E070E081E090E0A0E0B0E004C0E2
:10299000880F991FAA1FBB1F2A95D2F70197A1097B
:1029A000B1098E219F21A023B1230097A105B10574
:1029B00021F041E050E060E070E04A295B296C2999
:1029C0007D294D835E836F8378878EE190E08E1B37
:1029D0009F0B9C838B8312C0309781F00E2E04C016
:1029E000EE0CFF1C001F111F0A94D2F7ED82FE822D
:1029F0000F831887CE1ADF0ADC82CB821A82CE01BF
:102A000001960E9456152896EAE00C94621AEF92FD
:102A1000FF920F931F937B018C0180E0E81680E00A
:102A2000F80681E0080780E0180788F48FEFE816C1
:102A3000F1040105110531F028F088E090E0A0E0F4
:102A4000B0E017C080E090E0A0E0B0E012C080E00D
:102A5000E81680E0F80680E0080781E0180728F013
:102A600088E190E0A0E0B0E004C080E190E0A0E068
:102A7000B0E020E230E040E050E0281B390B4A0B88
:102A80005B0B04C016950795F794E7948A95D2F7E7
:102A9000F701EF5CFB4F8081281B31094109510987
:102AA000C9011F910F91FF90EF900895DF92EF926F
:102AB000FF920F931F93FC01E480F580068117813C
:102AC000D1808081823048F480E090E0A0E1B0E0E5
:102AD000E82AF92A0A2B1B2BA5C0843009F49FC0D1
:102AE000823021F4EE24FF24870105C0E114F104B3
:102AF0000105110519F4E0E0F0E096C062817381F0
:102B00009FEF623879070CF05BC022E83FEF261B8D
:102B1000370B2A3131052CF020E030E040E050E066
:102B20002AC0B801A701022E04C076956795579573
:102B300047950A94D2F781E090E0A0E0B0E004C0AD
:102B4000880F991FAA1FBB1F2A95D2F70197A109C9
:102B5000B1098E219F21A023B1230097A105B105C2
:102B600021F081E090E0A0E0B0E09A01AB01282BD9
:102B7000392B4A2B5B2BDA01C9018F779070A0703B
:102B8000B07080349105A105B10539F427FF09C063
:102B9000205C3F4F4F4F5F4F04C0215C3F4F4F4F72
:102BA0005F4FE0E0F0E02030A0E03A07A0E04A0705
:102BB000A0E45A0710F0E1E0F0E079018A0127C0B3
:102BC0006038710564F5FB01E158FF4FD801C7017A
:102BD0008F779070A070B07080349105A105B10519
:102BE00039F4E7FE0DC080E490E0A0E0B0E004C05E
:102BF0008FE390E0A0E0B0E0E80EF91E0A1F1B1F73
:102C000017FF05C016950795F794E794319687E06E
:102C100016950795F794E7948A95D1F705C0EE24A9
:102C2000FF248701EFEFF0E06E2F67956627679529
:102C3000902F9F77D794DD24D7948E2F8695492F98
:102C4000462B582F5D29B701CA011F910F91FF90A4
:102C5000EF90DF900895FC01DB01408151812281DA
:102C6000622F6F7770E0221F2227221F9381892F06
:102C7000880F822B282F30E0991F9927991F1196D2
:102C80009C93119721153105A9F541155105610551
:102C9000710511F482E037C082E89FEF13969C9390
:102CA0008E9312979A01AB0167E0220F331F441FE6
:102CB000551F6A95D1F783E08C930DC0220F331F07
:102CC000441F551F12968D919C911397019713964F
:102CD0009C938E931297203080E0380780E048075D
:102CE00080E4580758F314962D933D934D935C93CD
:102CF000179708952F3F310579F441155105610566
:102D0000710519F484E08C93089564FF03C081E099
:102D10008C9312C01C9210C02F57304013963C93D6
:102D20002E93129783E08C9387E0440F551F661F04
:102D3000771F8A95D1F7706414964D935D936D93C8
:102D40007C9317970895A1E1B0E0E9EAF6E10C94CD
:102D50003E1A3C017F876E876A01FC01178216824A
:102D6000838181FD03C06FEF7FEF6FC39E012F5FF3
:102D70003F4F398B288BF3012381EE85FF8523FD9F
:102D8000859123FF8191FF87EE87882309F45AC339
:102D9000853251F4EE85FF8523FD859123FF8191D6
:102DA000FF87EE87853229F490E0B3010E946A1B09
:102DB000E2CF982F10E0882499241032B0F49B328F
:102DC00069F09C3228F4903251F0933271F40BC0C8
:102DD0009D3239F0903349F4116028C012601460BC
:102DE00025C0186023C0106121C017FD2AC0892F9B
:102DF00080538A3078F416FF06C0FAE09F9E902C2C
:102E00001124980E13C03AE0839E802C1124880E62
:102E100010620CC09E3221F416FD14C3106406C06B
:102E20009C3611F4106802C0983659F4EE85FF857F
:102E300023FD959123FF9191FF87EE87992309F058
:102E4000BCCF892F8554833020F4812F8061905E20
:102E500007C0892F8556833008F09FC1812F8F7E50
:102E600086FD02C076E0972E6FE3F62EF8229536A7
:102E700019F4F0E4FF2A07C0963619F420E8F22A84
:102E800002C091109A94F7FE0AC03BE3391518F47A
:102E90005CE3B52E02C0B92CB39427E009C047E02B
:102EA000491520F4BB2447E0942EF7CF292DBB24ED
:102EB000C60104969D878C87F601608171818281AD
:102EC0009381AE014F5F5F4F0B2D0E94751A6C010D
:102ED0000981202E332400FF04C003FD02C01DE23F
:102EE00009C0F1FE02C01BE205C0F2FC02C010E006
:102EF00001C010E2C1018C709070892BB9F11123CF
:102F000011F483E001C084E0881510F088240AC021
:102F1000881AF3FC07C080E290E0B3010E946A1BAC
:102F20008A94C9F7112329F0812F90E0B3010E9400
:102F30006A1B23FE03C004EE10E00EC008EE10E092
:102F40000BC0E114F10409F0805290E0B3010E943B
:102F50006A1B0F5F1F4F05C0EF2CFF24F0E1EF222B
:102F6000FF24F8018491882361F714C1F7FE12C091
:102F7000BC0C24FE04C08A81813309F4BA941B146A
:102F80001CF0BB24B3942DC0F8E0FB1550F538E0DD
:102F9000B32E27C0F6FC25C0892D90E08C159D0529
:102FA0004CF02CEFC2162FEFD20624F030E8F32AB3
:102FB00001C09A94992049F0E2E0F0E0EC0FFD1F87
:102FC000E90DF11D80818033A1F3F7FE0AC0B92C11
:102FD000B394892D90E0C816D90614F0992401C045
:102FE0009C18F7FC03C025E030E009C01C141D0448
:102FF0001CF021E030E003C096012F5F3F4F11230A
:1030000011F02F5F3F4F992029F0892D90E0019614
:10301000280F391F882D90E02817390714F08824CD
:1030200001C0821A4F2C5524C20189709070892BDF
:1030300039F008C080E290E0B3010E946A1B8A94D4
:103040008820C1F7112329F0812F90E0B3010E945D
:103050006A1B43FE07C008C080E390E0B3010E94F2
:103060006A1B8A948820C1F7F7FE46C08601D7FE06
:1030700002C000E010E076010894E11CF11CE01AA7
:10308000F10A41E050E04C0F5D1FE40EF51E2601F1
:103090004B185108892D90E0AA24BB24A81AB90A1C
:1030A0005FEF0F3F150729F48EE290E0B3010E9415
:1030B0006A1BC016D10634F0401651061CF4F70105
:1030C000808101C080E3015010400894E11CF11C94
:1030D0000A151B052CF090E0B3010E946A1BE0CF9B
:1030E0000C151D0539F49A81963318F4953311F4B3
:1030F00024FE81E390E04BC08A81813309F00F7E8A
:1031000090E0B3010E946A1B9920A1F08EE290E04A
:10311000B3010E946A1B12E0E1E0F0E0EC0FFD1F3A
:10312000E10FF11D1F5F808190E0B3010E946A1BD7
:103130009A9491F744FC03C085E690E002C085E4D0
:1031400090E0B3010E946A1BD7FC05C0C114D104F2
:1031500041F404FF06C0D094C194D108D3948DE209
:1031600001C08BE290E0B3010E946A1B80E305C0BE
:103170008F5F26EF3FEFC20ED31E3AE0C316D10495
:10318000BCF790E0B3010E946A1BC601C096B30170
:103190000E946A1BCC84DD8452C1933631F0933790
:1031A00099F0933509F059C023C0F60180818983D5
:1031B0005E010894A11CB11C22E030E0C20ED31EB7
:1031C00021E0E22EF12C12C0F601A080B18016FDA4
:1031D00003C06FEF7FEF02C0692D70E022E030E0A6
:1031E000C20ED31EC5010E945F1B7C011F7713C056
:1031F000F601A080B18016FD03C06FEF7FEF02C023
:10320000692D70E022E030E0C20ED31EC5010E949D
:103210004D1B7C01106813FF07C01BC080E290E0CB
:10322000B3010E946A1B8A94882D90E0E816F90683
:10323000A8F30FC0F50117FD859117FF81915F017C
:1032400090E0B3010E946A1B81108A940894E108FF
:10325000F108E114F10471F7F2C0943611F09936D7
:1032600089F517FF08C0F601208131814281538121
:1032700084E090E00AC0F601808191819C0144279E
:1032800037FD4095542F82E090E0C80ED91E9FE68E
:10329000F92EF12257FF09C05095409530952195A0
:1032A0003F4F4F4F5F4F90E8F92ACA01B901AE0175
:1032B0004F5F5F4F2AE030E00E94BA1BE82EE8899A
:1032C000EE1A41C0953721F41F7E2AE030E01CC081
:1032D000197F9F3661F0903720F4983509F0B2C01D
:1032E0000FC0903739F0983709F0ACC004C028E01F
:1032F00030E00AC0106114FD146020E130E004C029
:1033000014FD166020E132E017FF08C0F60160816D
:1033100071818281938144E050E008C0F601808190
:103320009181BC0180E090E042E050E0C40ED51EE7
:10333000AE014F5F5F4F0E94BA1BE82E5889E51A15
:103340008FE7F82EF122F6FE0BC08EEFF822E9147B
:1033500038F4F4FE07C0F2FC05C09FEEF92202C06B
:103360001E2D01C0192DF4FE0DC0FE01EE0DF11D44
:103370008081803319F4E9EEFE2208C01F5FF2FE5F
:1033800005C003C08F2D867809F01F5F0F2DF3FC59
:1033900014C0F0FE0FC0181510F09E2C0BC09E2C10
:1033A000980C911A182D06C080E290E0B3010E949B
:1033B0006A1B1F5F1815C0F304C0181510F4811A9A
:1033C00001C0882404FF0FC080E390E0B3010E9495
:1033D0006A1B02FF1DC001FD03C088E790E00EC01C
:1033E00088E590E00BC0802F867891F001FF02C045
:1033F0008BE201C080E2F7FC8DE290E0B3010E9415
:103400006A1B06C080E390E0B3010E946A1B9A9495
:10341000E914C0F3EA94E1E0F0E0EC0FFD1FEE0DDB
:10342000F11D808190E0B3010E946A1BEE2091F7AC
:1034300006C080E290E0B3010E946A1B8A94882053
:10344000C1F799CCF30166817781CB016196E2E106
:103450000C945A1AAA1BBB1B51E107C0AA1FBB1F21
:10346000A617B70710F0A61BB70B881F991F5A9510
:10347000A9F780959095BC01CD0108952F923F92B8
:103480004F925F926F927F928F929F92AF92BF9274
:10349000CF92DF92EF92FF920F931F93CF93DF9320
:1034A000CDB7DEB7CA1BDB0B0FB6F894DEBF0FBE7D
:1034B000CDBF09942A88398848885F846E847D84CA
:1034C0008C849B84AA84B984C884DF80EE80FD80CC
:1034D0000C811B81AA81B981CE0FD11D0FB6F89442
:1034E000DEBF0FBECDBFED010895283008F027E004
:1034F0003327DA01990F311D87FD91600096610530
:10350000710539F432602E5F3D9330E32A95E1F77F
:1035100008959F3F30F080387105610509F03C5FE8
:103520003C5F3D93913008F08068911DDF93CF930D
:103530001F930F93FF92EF92192F987F9695E92F83
:1035400096959695E90FFF27EA5BFE4F992733275B
:10355000EE24FF24A701E70105900894079428F4BE
:10356000360FE71EF81E491F511D660F771F881F73
:10357000991F0694A1F70590079428F4E70EF81E0A
:10358000491F561FC11D770F881F991F661F06947C
:10359000A1F70590079428F4F80E491F561FC71F7E
:1035A000D11D880F991F661F771F0694A1F70590FC
:1035B000079420F4490F561FC71FD81F990F661F85
:1035C000771F881F0694A9F784911095177041F012
:1035D000D695C79557954795F794E7941A95C1F7EF
:1035E000ECEEF0E068941590159135916591959108
:1035F00005907FE27395E118F10A430B560BC90B56
:10360000D009C0F7E10CF11E431F561FC91FD01D82
:103610007EF4703311F48A95E6CFE894015030F0CF
:10362000080F0AF40027021708F4202F2395022F11
:103630007A3328F079E37D932A95E9F710C07D93DA
:103640002A9589F606949795679537951795179457
:10365000E118F10A430B560BC90BD00998F02395DA
:103660007E9173957A3308F070E37C932013B8F75A
:103670007E9170617D9330F0839571E37D9370E36B
:103680002A95E1F71124EF90FF900F911F91CF91B0
:10369000DF91992787FD90950895FC010590615071
:1036A00070400110D8F7809590958E0F9F1F089558
:1036B000DC0101C06D9341505040E0F70895FC01DA
:1036C0006150704001900110D8F7809590958E0F51
:1036D0009F1F08950F931F93CF93DF938C01EB01EE
:1036E0008B8181FF1BC082FF0DC02E813F818C81A9
:1036F0009D812817390764F4E881F9810193F983E2
:10370000E88306C0E885F985802F0995892B31F477
:103710008E819F8101969F838E8302C00FEF1FEFE2
:10372000C801DF91CF911F910F910895AEE0B0E0F5
:10373000ECE9FBE10C944C1A0D891E8986E08C8320
:103740001A8309838FEF9FE79E838D839E01275EF7
:103750003F4FCE0101966F89788DA9010E94A31673
:103760002F813885020F131FF80110822E96E4E096
:103770000C94681AFA01AA27283051F1203181F1FE
:10378000E8946F936E7F6E5F7F4F8F4F9F4FAF4F69
:10379000B1E03ED0B4E03CD0670F781F891F9A1F7C
:1037A000A11D680F791F8A1F911DA11D6A0F711D30
:1037B000811D911DA11D20D009F468943F912AE03C
:1037C000269F11243019305D3193DEF6CF01089524
:1037D000462F4770405D4193B3E00FD0C9F7F6CF55
:1037E000462F4F70405D4A3318F0495D31FD40521D
:1037F000419302D0A9F7EACFB4E0A69597958795B3
:1038000077956795BA95C9F7009761057105089591
:103810009B01AC010A2E069457954795379527953D
:10382000BA95C9F7620F731F841F951FA01D0895D5
:10383000A6E1B0E044E050E00C94331CA8E1B0E015
:1038400042E050E00C94331C242F0E94421C252F90
:103850000E94421C0C942C1C0E94411C272F0C948B
:10386000421CDC01CB01FC01F999FECF06C0F2BD80
:10387000E1BDF89A319600B40D9241505040B8F72E
:103880000895262FF999FECF1FBA92BD81BD20BDA4
:103890000FB6F894FA9AF99A0FBE01960895F89423
:0238A000FFCF58
:1038A2001B5B333231307C0042554420746F20421E
:1038B2004F422D3420416E676C65204F7665726CE5
:1038C2006179206170706C69636174696F6E0A0D51
:1038D20072656164790A0D001B5B31346D1B5B36C6
:1038E200366D1B5B324A001B5B31346D1B5B363617
:1038F2006D001B5B303B3048002050414E3A25346E
:1039020064205241573A2535642053414D503A259F
:10391200356420001B5B313B30480020544C543A44
:10392200253464205241573A2535642053414D5085
:103932003A25356420002050414E3A253464200057
:1039420020544C543A2534642000405A5241545079
:1039520047515356447064020202020000000800FC
:103962000009000C000A0D50414E205820534849CE
:1039720046543A2020253575202050414E205920AA
:1039820053484946543A2020252D33642064656704
:10399200090909090909200A0D50414E2052414ED8
:1039A20047453A20202020253575202050414E20C1
:1039B200534C4F50453A2020202025662009090902
:1039C200090909200A0D50414E204D494E494D55D5
:1039D2004D3A2020253575200909090909200A0DCB
:1039E2000A0D54494C5420582053484946543A2011
:1039F200253575202054494C5420592053484946B6
:103A0200543A20252D3364206465670909090909A0
:103A120009200A0D54494C542052414E47453A2040
:103A22002020253575202054494C5420534C4F50AA
:103A3200453A202020256620200909090909092084
:103A42000A0D54494C54204D494E494D554D3A208A
:103A5200253575200A0D000A0D43555252454E5424
:103A6200205241572050414E3A202535752020439F
:103A7200555252454E54205241572054494C543AC3
:103A82002025750A0D000A0D43555252454E542009
:103A920053414D504C45442050414E3A20253575F6
:103AA200202043555252454E542053414D504C45CF
:103AB200442054494C543A2025750A0D00E803E885
:103AC20003E803E803E803E8030000000000000045
:103AD20000000102020303030304040404040404B7
:103AE2000405050505050505050505050505050585
:103AF2000506060606060606060606060606060665
:103B02000606060606060606060606060606060653
:103B12000607070707070707070707070707070734
:103B22000707070707070707070707070707070723
:103B32000707070707070707070707070707070713
:103B42000707070707070707070707070707070703
:103B520007080808080808080808080808080808E4
:103B620008080808080808080808080808080808D3
:103B720008080808080808080808080808080808C3
:103B820008080808080808080808080808080808B3
:103B920008080808080808080808080808080808A3
:103BA2000808080808080808080808080808080893
:103BB2000808080808080808080808080808080883
:103BC2000808080808080808080808080808080873
:023BD2000800E9
:00000001FF
