:100000000C9472000C948F000C948F000C948F0051
:100010000C948F000C948F000C948F000C948F0024
:100020000C948F000C948F000C948F000C948F0014
:100030000C948F000C948F000C948F000C948F0004
:100040000C948F000C948F000C948F000C948F00F4
:100050000C948F000C948F000C948F000C948F00E4
:100060000C948F000C941C020C948F000C948F0045
:100070000C948F000C948F000C948F000C948F00C4
:100080000C948F000C948F000C948F000C948F00B4
:100090000C944C020C948F000C948F000C948F00E5
:1000A0000C948F000C948F000C948F000C948F0094
:1000B0000C948F000C948F000C948F000C948F0084
:1000C0000C948F000C948F000C948F000C947C0285
:1000D0000C948F000C948F000C94AC020C948F0045
:1000E0000C948F0011241FBECFEFD1E2DEBFCDBF35
:1000F00014E0A0E0B2E0ECEDF7E202C005900D9252
:10010000A439B107D9F717E0A4E9B4E001C01D9202
:10011000A632B107E1F70E9491000C94EC130C9405
:100120000000AF92BF92CF92DF92EF92FF920F93B7
:100130001F93DF93CF93CDB7DEB7E2970FB6F89456
:10014000DEBF0FBECDBF0E9497010E943D010E94FD
:10015000B50780E00E944B0178947E010894E11C71
:10016000F11CD701E0E0F2E088E001900D928150AF
:10017000E1F7C7010E94DD03D701E8E0F2E080E388
:1001800001900D928150E1F7C7010E940A04D70146
:10019000E8E3F2E085E001900D928150E1F7C701BC
:1001A0000E94DD0394E4C92E92E0D92E8AE5A82EA0
:1001B00082E0B82E00E911E0D701EDE3F2E087E03C
:1001C00001900D928150E1F7C7010E94DD030E946A
:1001D000540900D000D000D0EDB7FEB73196ADB7CE
:1001E000BEB71296FC92EE921197D382C28295838B
:1001F00084830E9427118DB79EB706960FB6F89498
:100200009EBF0FBE8DBFC7010E94DD03D701E3E58E
:10021000F2E087E001900D928150E1F7C7010E9462
:10022000DD030E949B0900D000D000D0EDB7FEB7DF
:100230003196ADB7BEB71296FC92EE921197B3828B
:10024000A282958384830E9427118DB79EB706965C
:100250000FB6F8949EBF0FBE8DBFC7010E94DD038D
:100260000E941A0520E030E0C8010197F1F72F5FE6
:100270003F4F2A3F3105C1F79FCFDF93CF93CDB7D3
:10028000DEB7AAE7B0E0EAE7F0E0808180688C930F
:10029000CF91DF910895DF93CF930F92CDB7DEB763
:1002A00089838981809369020F90CF91DF910895AE
:1002B000DF93CF9300D00F92CDB7DEB78B83ECE7FF
:1002C000F0E08B81982F977080916902892B808351
:1002D000ABE7B0E0EBE7F0E08081877F8C93AAE7A3
:1002E000B0E0EAE7F0E0808180648C93EAE7F0E038
:1002F0008081882F90E0807490700097B9F7E8E7CC
:10030000F0E080818A83E9E7F0E080818983898158
:10031000882F90E0382F22278A81882F90E0822B27
:10032000932B0F900F900F90CF91DF910895DF9353
:10033000CF930F92CDB7DEB71092DF048091DF0428
:1003400080932005809120058093A505109261057A
:10035000809161058093DE048091DE048093A30583
:1003600080EE94E060E070E040E450E00E942011F4
:100370008EE994E060E070E040E450E00E942011DB
:1003800081E295E060E070E040E450E00E942011DE
:1003900082E695E060E070E040E450E00E942011C9
:1003A000E4ECF0E08FE590E091838083ECECF0E00A
:1003B00087E090E091838083E4EDF0E087E090E0D7
:1003C00091838083E4E3F1E08FE590E09183808383
:1003D000E1ECF0E088E98083E9ECF0E088E98083F3
:1003E000E1EDF0E088E98083E1E3F1E088E98083F2
:1003F000E2ECF0E086E08083EAECF0E086E08083E7
:10040000E2EDF0E086E08083E2E3F1E086E08083E5
:10041000E6ECF0E080818983EEECF0E08081898376
:10042000E6EDF0E080818983E6E3F1E08081898375
:100430000F90CF91DF9108951F920F920FB60F92F8
:1004400011242F938F939F93EF93FF93DF93CF9379
:10045000CDB7DEB78091A305882F90E0E6ECF0E001
:100460002081FC01E052FB4F20838091A3058F5F28
:100470008093A3058091A305803411F41092A30505
:10048000CF91DF91FF91EF919F918F912F910F90DD
:100490000FBE0F901F9018951F920F920FB60F92DC
:1004A00011242F938F939F93EF93FF93DF93CF9319
:1004B000CDB7DEB78091DE04882F90E0EEECF0E05F
:1004C0002081FC01E256FB4F20838091DE048F5F88
:1004D0008093DE048091DE04803411F41092DE04F7
:1004E000CF91DF91FF91EF919F918F912F910F907D
:1004F0000FBE0F901F9018951F920F920FB60F927C
:1005000011242F938F939F93EF93FF93DF93CF93B8
:10051000CDB7DEB780916105882F90E0E6EDF0E081
:100520002081FC01EF5DFA4F2083809161058F5F90
:100530008093610580916105803411F4109261050A
:10054000CF91DF91FF91EF919F918F912F910F901C
:100550000FBE0F901F9018951F920F920FB60F921B
:1005600011242F938F939F93EF93FF93DF93CF9358
:10057000CDB7DEB78091A205882F90E0E6E3F1E0E9
:100580002081FC01EE59FA4F20838091A2058F5FF4
:100590008093A2058091A205803411F41092A205E7
:1005A000CF91DF91FF91EF919F918F912F910F90BC
:1005B0000FBE0F901F901895DF93CF930F92CDB77A
:1005C000DEB78091A505882F90E0FC01E052FB4F3B
:1005D000808189838091A5058F5F8093A505809197
:1005E000A505803411F41092A50589810F90CF9153
:1005F000DF910895DF93CF930F92CDB7DEB780914F
:100600002005882F90E0FC01E256FB4F8081898312
:10061000809120058F5F8093200580912005803494
:1006200011F41092200589810F90CF91DF910895E8
:10063000DF93CF930F92CDB7DEB78091DF04882F81
:1006400090E0FC01EF5DFA4F808189838091DF04A7
:100650008F5F8093DF048091DF04803411F4109267
:10066000DF0489810F90CF91DF910895DF93CF93BD
:100670000F92CDB7DEB78091A405882F90E0FC01E2
:10068000EE59FA4F808189838091A4058F5F809312
:10069000A4058091A405803411F41092A4058981E9
:1006A0000F90CF91DF910895DF93CF930F92CDB745
:1006B000DEB78983E0ECF0E08081882F90E08072E3
:1006C00090700097B9F3E6ECF0E0898180830F9099
:1006D000CF91DF910895DF93CF930F92CDB7DEB71F
:1006E0008983E8ECF0E08081882F90E08072907040
:1006F0000097B9F3EEECF0E0898180830F90CF9101
:10070000DF910895DF93CF930F92CDB7DEB7898342
:10071000E0EDF0E08081882F90E08072907000978B
:10072000B9F3E6EDF0E0898180830F90CF91DF91FE
:100730000895DF93CF930F92CDB7DEB78983E0E3BF
:10074000F1E08081882F90E0807290700097B9F37B
:10075000E6E3F1E0898180830F90CF91DF910895E6
:10076000DF93CF9300D000D0CDB7DEB79C838B83CF
:100770001A82198211C02B813C8189819A81F901E9
:10078000E80FF91F8081282F89819A8101969A8329
:100790008983822F0E9454032B813C8189819A8115
:1007A000F901E80FF91F8081882329F70F900F9036
:1007B0000F900F90CF91DF910895DF93CF9300D0EA
:1007C00000D0CDB7DEB79C838B831A82198211C00B
:1007D0002B813C8189819A81F901E80FF91F808181
:1007E000282F89819A8101969A838983822F0E947A
:1007F0006B032B813C8189819A81F901E80FF91FF4
:100800008081882329F70F900F900F900F90CF9140
:10081000DF910895DF93CF9300D000D0CDB7DEB73E
:100820009C838B831A82198211C02B813C81898120
:100830009A81F901E80FF91F8081282F89819A8117
:1008400001969A838983822F0E9482032B813C81A7
:1008500089819A81F901E80FF91F8081882329F79E
:100860000F900F900F900F90CF91DF910895DF932D
:10087000CF9300D000D0CDB7DEB79C838B831A8294
:10088000198211C02B813C8189819A81F901E80F7D
:10089000F91F8081282F89819A8101969A83898303
:1008A000822F0E9499032B813C8189819A81F901D1
:1008B000E80FF91F8081882329F70F900F900F9080
:1008C0000F90CF91DF910895DF93CF9300D000D0A8
:1008D0000F92CDB7DEB79B838A837D836C831982A9
:1008E0000FC08981282F30E08A819B81FC01E20FB3
:1008F000F31F908189818F5F8983892F0E94540320
:100900008981282F30E08C819D812817390748F391
:100910000F900F900F900F900F90CF91DF9108954F
:10092000DF93CF9300D000D000D0CDB7DEB79C834B
:100930008B837E836D831A82198210C02B813C8148
:1009400089819A81F901E80FF91F208189819A81B3
:1009500001969A838983822F0E946B0329813A81B1
:100960008D819E812817390748F326960FB6F89493
:10097000DEBF0FBECDBFCF91DF910895DF93CF9340
:1009800000D000D000D0CDB7DEB79C838B837E83B0
:100990006D831A82198210C02B813C8189819A81D2
:1009A000F901E80FF91F208189819A8101969A83C4
:1009B0008983822F0E94820329813A818D819E81C1
:1009C0002817390748F326960FB6F894DEBF0FBEF6
:1009D000CDBFCF91DF910895DF93CF9300D000D0AA
:1009E00000D0CDB7DEB79C838B837E836D831A8264
:1009F000198210C02B813C8189819A81F901E80F0D
:100A0000F91F208189819A8101969A838983822F97
:100A10000E94990329813A818D819E812817390787
:100A200048F326960FB6F894DEBF0FBECDBFCF9128
:100A3000DF9108956F927F928F929F92AF92BF92B3
:100A4000CF92DF92EF92FF920F931F93DF93CF939A
:100A5000CDB7DEB7C650D2400FB6F894DEBF0FBE9A
:100A6000CDBF1B821A8210C00E9418038983209177
:100A70009404822F90E0FC01EA55FA4F898180832B
:100A8000822F8F5F809394049091DF0480916105A1
:100A9000981751F780919404282F30E080919504A5
:100AA000882F90E00296821793070CF048C21E82AE
:100AB0001D821FC080919504282F30E08D819E817A
:100AC000820F931FFC01EA55FA4F20818D819E8190
:100AD000FC01E659FD4F8081281731F08091950483
:100AE0008E5F809395042BC28D819E8101969E839B
:100AF0008D838D819E8182309105E4F280919504F1
:100B0000882F90E00296FC01EA55FA4F80818C8391
:100B10001E821D820EC08D819E81FC01E359FD4F16
:100B200090818C81981771F08D819E8101969E83B2
:100B30008D8320917502309176028D819E8182177E
:100B400093074CF320917502309176028D819E813E
:100B50008217930729F4809195048D5F8093950403
:100B600081E090E09E838D8338C080919504882F2A
:100B700090E09C012E5F3F4F8D819E81820F931FDD
:100B8000FC01EA55FA4F80818C838C81803531F4E9
:100B90008A819B8181609B838A831AC08C81843582
:100BA00031F48A819B8182609B838A8311C08C810E
:100BB000853531F48A819B8184609B838A8308C058
:100BC0008C818C3429F48A819B8188609B838A8301
:100BD0008D819E8101969E838D838D819E8184303F
:100BE00091051CF280919504882F90E00296FC01FB
:100BF000EA55FA4F80818C838C818A3529F5809162
:100C000095048F5F809395048A819B818170907099
:100C1000882349F0809195048F5F809395040E940A
:100C20000B0B0E94E2098A819B8182709070009771
:100C300009F485C1809195048F5F809395040E948B
:100C4000B00B0E940D0A7BC18C81833471F58091B9
:100C500095048F5F809395048A819B818170907049
:100C6000882339F0809195048F5F809395040E94CA
:100C7000380A8A819B8184709070009739F0809146
:100C800095048F5F809395040E94FD0A8A819B8161
:100C900088709070009709F452C1809195048F5F1D
:100CA000809395040E94A30A4AC18C81823529F55C
:100CB000809195048F5F809395048A819B818170D8
:100CC0009070882349F0809195048F5F80939504FC
:100CD00081E090E00E946E088A819B818270907012
:100CE000009709F42CC1809195048F5F809395043F
:100CF00081E090E00E94E10822C18C81813429F5D5
:100D0000809195048F5F809395048A819B81817087
:100D10009070882349F0809195048F5F80939504AB
:100D200080E090E00E946E088A819B8182709070C2
:100D3000009709F404C1809195048F5F8093950416
:100D400080E090E00E94E108FAC08C81843509F5CA
:100D5000809195048F5F809395048A819B81817037
:100D60009070882339F0809195048F5F809395046B
:100D70000E94C7088A819B8182709070009709F455
:100D8000DEC0809195048F5F809395040E943A099C
:100D9000D6C08C81803509F063C0809195048F5F47
:100DA000809395046091790370917A03A0917B03FD
:100DB000B0917C03C0907703D090780320917303A7
:100DC000309174034091750350917603A090850390
:100DD000B09086038090870390908803609083038F
:100DE00070908403E0907F03F09080030091810372
:100DF000109182038DB79EB748970FB6F8949EBFA7
:100E00000FBE8DBFEDB7FEB73196CE010796918329
:100E1000808387E792E09383828375836483B783BB
:100E2000A683D186C0862287338744875587B786B5
:100E3000A686918A808A738A628AE48AF58A068BFA
:100E4000178B0E9427118DB79EB748960FB6F8945E
:100E50009EBF0FBE8DBFCE0107960E940A046FC0D1
:100E60008C81813599F5809195048F5F80939504ED
:100E700080E00E9458018C0183E00E9458019C018F
:100E80008DB79EB708970FB6F8949EBF0FBE8DBF63
:100E9000EDB7FEB73196CE0107969183808384E447
:100EA00093E09383828315830483378326830E9490
:100EB00027118DB79EB708960FB6F8949EBF0FBE48
:100EC0008DBFCE0107960E940A0439C08C818335FC
:100ED00089F5809195048F5F809395040E940B0B98
:100EE0008C010E94B00B9C018DB79EB708970FB67E
:100EF000F8949EBF0FBE8DBFEDB7FEB73196CE0101
:100F000007969183808384E493E09383828315839F
:100F10000483378326830E9427118DB79EB70896D6
:100F20000FB6F8949EBF0FBE8DBFCE0107960E94EC
:100F30000A0405C0809195048F5F80939504CA5F71
:100F4000DD4F0FB6F894DEBF0FBECDBFCF91DF915E
:100F50001F910F91FF90EF90DF90CF90BF90AF90D7
:100F60009F908F907F906F900895DF93CF9300D0E4
:100F70000F92CDB7DEB70F900F900F90CF91DF910A
:100F80000895DF93CF9300D0CDB7DEB780E094E033
:100F90009A83898389819A8161E00E9428138981DB
:100FA0009A8102969A83898389819A812091730319
:100FB000309174034091750350917603BA01A901F1
:100FC0000E943A1389819A8104969A838983898140
:100FD0009A812091790330917A03B9010E944613D6
:100FE00089819A8102969A83898389819A81209145
:100FF000770330917803B9010E94461389819A8161
:1010000002969A83898349815A8180917B039091CA
:101010007C039C01CA01B9010E94461389819A810F
:1010200002969A83898389819A8120917D033091E8
:101030007E03B9010E94461389819A8102969A83A0
:10104000898389819A8120917F0330918003409127
:10105000810350918203BA01A9010E943A13898148
:101060009A8104969A83898389819A812091850344
:1010700030918603B9010E94461389819A810296B4
:101080009A83898389819A81209183033091840393
:10109000B9010E94461389819A8102969A838983B5
:1010A00049815A8180918703909188039C01CA01EC
:1010B000B9010E94461389819A8102969A83898395
:1010C00089819A812091890330918A03B9010E9414
:1010D00046130F900F90CF91DF910895DF93CF9338
:1010E00000D0CDB7DEB79A83898320917D033091FC
:1010F0007E0389819A812817390709F443C08981C1
:101100009A8181309105F9F42091790330917A0325
:10111000809177039091780396958795A901481B54
:10112000590BCA0190937A038093790384EB90E082
:1011300090937C0380937B0381E090E090937E0307
:1011400080937D031DC089819A810097C9F48091A5
:101150007703909178039C013695279580917903C8
:1011600090917A03820F931F90937A03809379036F
:1011700010927C0310927B0310927E0310927D03E9
:101180000E94C1070F900F90CF91DF910895DF93D8
:10119000CF9300D0CDB7DEB780917D0390917E03D1
:1011A0001A821982009721F481E090E09A83898362
:1011B00089819A810E946E080F900F90CF91DF91E4
:1011C0000895DF93CF9300D0CDB7DEB79A8389839C
:1011D0002091890330918A0389819A8128173907E0
:1011E00009F443C089819A8181309105F9F42091F5
:1011F00085033091860380918303909184039695B3
:101200008795A901481B590BCA01909386038093C7
:10121000850384EB90E0909388038093870381E0BB
:1012200090E090938A03809389031DC089819A81FD
:101230000097C9F480918303909184039C013695B3
:1012400027958091850390918603820F931F909339
:10125000860380938503109288031092870310926F
:101260008A03109289030E94C1070F900F90CF91BB
:10127000DF910895DF93CF9300D0CDB7DEB7809193
:10128000890390918A031A821982009721F481E0E0
:1012900090E09A83898389819A810E94E1080F9066
:1012A0000F90CF91DF910895DF93CF93CDB7DEB745
:1012B0000E940B0B9C018091790390917A03281B6B
:1012C000390B8091770390917803A901480F591F3A
:1012D00080917703909178039C01CA01B9010E9423
:1012E000C210AA2797FDA095BA2FBC01CD010E947C
:1012F000FB0DDC01CB01209173033091740340910D
:10130000750350917603BC01CD010E94550CDC01A0
:10131000CB01BC01CD010E94590EDC01CB019C0127
:1013200080917B0390917C03A901481B590BCA0152
:10133000CF91DF910895DF93CF93CDB7DEB70E94B1
:10134000B00B9C018091850390918603281B390B7B
:101350008091830390918403A901480F591F8091C4
:101360008303909184039C01CA01B9010E94C210B9
:10137000AA2797FDA095BA2FBC01CD010E94FB0DB5
:10138000DC01CB0120917F033091800340918103E8
:1013900050918203BC01CD010E94550CDC01CB01B0
:1013A000BC01CD010E94590EDC01CB019C01809152
:1013B000870390918803A901481B590BCA01CF915B
:1013C000DF910895DF93CF9300D0CDB7DEB79A8336
:1013D000898380917D0390917E038130910581F412
:1013E00080917703909178039C01369527958981A8
:1013F0009A81820F931F90937A038093790306C09A
:1014000089819A8190937A03809379030E94C1071E
:101410000F900F90CF91DF910895DF93CF9300D07D
:10142000CDB7DEB79A8389838091890390918A032F
:101430008130910581F480918303909184039C0114
:101440003695279589819A81820F931F9093860301
:101450008093850306C089819A8190938603809347
:1014600085030E94C1070F900F90CF91DF910895DF
:10147000DF93CF9300D000D000D0CDB7DEB780E0AF
:101480000E9458019E838D838D819E819C838B83D6
:101490001CC080E00E9458019A83898329813A8187
:1014A0008B819C818217930728F489819A819C8380
:1014B0008B830BC029813A818D819E812817390742
:1014C00020F489819A819E838D838B819C812D81DB
:1014D0003E81821B930B22E088359207D0F22B814C
:1014E0003C818D819E81A901481B590BCA019093B3
:1014F0007803809377038091770390917803CC01F0
:10150000A0E0B0E0BC01CD010E94AD0E9B01AC019A
:1015100060E070E084EB93E40E944F0DDC01CB01AE
:101520008093730390937403A0937503B093760331
:101530000E94C10726960FB6F894DEBF0FBECDBF3E
:10154000CF91DF910895DF93CF9300D000D0CDB736
:10155000DEB783E00E9458019C838B832091850332
:10156000309186038B819C81821B930B9A838983A4
:1015700089819A81CC01A0E0B0E0BC01CD010E943C
:10158000AD0EDC01CB01BC01CD0128ED32E84DE20E
:101590005FE30E944F0DDC01CB01BC01CD010E9435
:1015A000590EDC01CB0190938403809383038091D7
:1015B000830390918403CC01A0E0B0E0BC01CD0195
:1015C0000E94AD0E9B01AC0160E070E084EB93E4FF
:1015D0000E944F0DDC01CB0180937F039093800329
:1015E000A0938103B09382030E94C1070F900F90D4
:1015F0000F900F90CF91DF910895DF93CF93CDB7E8
:10160000DEB783E00E9458019093860380938503A0
:10161000CF91DF9108950F931F93DF93CF93CDB7B1
:10162000DEB72091960430919704809198049091B0
:101630009904880F991FFC01EA55F94F8081918127
:10164000A901481B590BCA019093970480939604F3
:10165000009198041091990480E00E9458019C0127
:10166000C801880F991FFC01EA55F94F3183208387
:101670008091980490919904880F991FFC01EA5574
:10168000F94F208131818091960490919704820FC7
:10169000931F90939704809396048091980490915F
:1016A000990401968F719070909399048093980497
:1016B0002091960430919704809198049091990418
:1016C000880F991FFC01EA55F94F80819181A9018A
:1016D000481B590BCA01909397048093960400917C
:1016E00098041091990480E00E9458019C01C8015F
:1016F000880F991FFC01EA55F94F318320838091AF
:10170000980490919904880F991FFC01EA55F94FAC
:10171000208131818091960490919704820F931FCC
:1017200090939704809396048091980490919904E3
:1017300001968F7190709093990480939804809192
:1017400096049091970496958795929582958F70BF
:1017500089279F708927CF91DF911F910F9108955D
:101760000F931F93DF93CF93CDB7DEB720919A04E9
:1017700030919B0480919C0490919D04880F991F47
:10178000FC01EA51F94F80819181A901481B590B55
:10179000CA0190939B0480939A0400919C04109139
:1017A0009D0483E00E9458019C01C801880F991F85
:1017B000FC01EA51F94F3183208380919C04909180
:1017C0009D04880F991FFC01EA51F94F2081318156
:1017D00080919A0490919B04820F931F90939B0495
:1017E00080939A0480919C0490919D0401968F713E
:1017F000907090939D0480939C0420919A04309162
:101800009B0480919C0490919D04880F991FFC017A
:10181000EA51F94F80819181A901481B590BCA01F6
:1018200090939B0480939A0400919C0410919D04D2
:1018300083E00E9458019C01C801880F991FFC0198
:10184000EA51F94F3183208380919C0490919D044B
:10185000880F991FFC01EA51F94F20813181809155
:101860009A0490919B04820F931F90939B04809302
:101870009A0480919C0490919D0401968F719070C0
:1018800090939D0480939C0480919A0490919B0472
:1018900096958795929582958F7089279F70892755
:1018A000CF91DF911F910F910895A0E2B0E0EBE599
:1018B000FCE00C94E91069837A838B839C832D83ED
:1018C0003E834F835887CE010196BE01675F7F4FED
:1018D0000E944A10CE010596BE016F5E7F4F0E94A6
:1018E0004A109985923088F089898230C8F0943006
:1018F00019F4823051F404C0843029F4923081F418
:101900008BE893E0C6C0923049F420E09A858A893A
:10191000981321E02A87CE010996BBC0823049F492
:1019200020E09A858A89981321E02A8BCE0141967E
:10193000B0C02D843E844F8458886D887E888F88FF
:10194000988CEE24FF248701AA24BB24650140E083
:1019500050E060E070E0E0E0F0E0C1018170907084
:10196000892BE9F0E60CF71C081D191D9A01AB0143
:101970002A0D3B1D4C1D5D1D80E090E0A0E0B0E015
:10198000E614F7040805190520F481E090E0A0E0D2
:10199000B0E0BA01A901480F591F6A1F7B1FAA0CAA
:1019A000BB1CCC1CDD1C97FE08C081E090E0A0E0D1
:1019B000B0E0A82AB92ACA2ADB2A3196E032F1051A
:1019C00049F0660C771C881C991C569447943794F0
:1019D0002794C3CFFA85EA892B893C898B859C851E
:1019E000280F391F2E5F3F4F17C0CA0181709070BA
:1019F000892B61F016950795F794E79480E090E0C5
:101A0000A0E0B0E8E82AF92A0A2B1B2B7695679507
:101A1000579547952F5F3F4F77FDE7CF0CC0440F99
:101A2000551F661F771F17FD4160EE0CFF1C001F3E
:101A3000111F21503040403090E0590790E0690775
:101A400090E4790760F32B8F3C8FDB01CA018F771D
:101A50009070A070B07080349105A105B10561F45B
:101A600047FD0AC0E114F1040105110529F0405CAD
:101A70005F4F6F4F7F4F40781A8EFE1711F081E055
:101A80008A8F4D8F5E8F6F8F78A383E0898FCE0111
:101A900049960E94750FA096E2E10C940511A8E109
:101AA000B0E0E5E5FDE00C94F11069837A838B8367
:101AB0009C832D833E834F835887B9E0EB2EF12C16
:101AC000EC0EFD1ECE010196B7010E944A108E0158
:101AD0000F5E1F4FCE010596B8010E944A1029855E
:101AE000223008F47EC03989323010F4B8017CC04D
:101AF0008A859A8989278A87243011F0223031F427
:101B0000231709F06EC06BE873E06EC0343039F40F
:101B10001D861E861F86188A1C861B8604C03230CE
:101B200021F484E08987B7015FC02B853C858B89D0
:101B30009C89281B390B3C872B87ED84FE840F85FD
:101B40001889AD88BE88CF88D88CEA14FB040C05B0
:101B50001D0540F4EE0CFF1C001F111F21503040EA
:101B60003C872B8720E030E040E050E080E090E0D0
:101B7000A0E0B0E460E070E0EA14FB040C051D0591
:101B800040F0282B392B4A2B5B2BEA18FB080C0959
:101B90001D09B695A79597958795EE0CFF1C001F1C
:101BA000111F6F5F7F4F6F31710531F7DA01C90186
:101BB0008F779070A070B07080349105A105B10549
:101BC00061F427FD0AC0E114F1040105110529F0B3
:101BD000205C3F4F4F4F5F4F20782D873E874F87C8
:101BE000588BBE01675F7F4FCB010E94750F6896CF
:101BF000EAE00C940D11A8E0B0E0E1E0FEE00C9406
:101C0000F2109B01AC0183E08983DA01C9018827C6
:101C1000B7FD83959927AA27BB27B82E2115310533
:101C20004105510519F482E089833AC08823A9F05F
:101C3000203080E0380780E0480780E8580729F422
:101C400060E070E080E09FEC30C0EE24FF2487016C
:101C5000E21AF30A040B150B02C079018A018EE126
:101C6000C82ED12CDC82CB82ED82FE820F831887B6
:101C7000C801B7010E94260F01971816190684F4AF
:101C8000082E04C0EE0CFF1C001F111F0A94D2F78F
:101C9000ED82FE820F831887C81AD90ADC82CB82B4
:101CA000BA82CE0101960E94750F2896E9E00C9445
:101CB0000E11ACE0B0E0EFE5FEE00C94F9106983A2
:101CC0007A838B839C83CE010196BE016B5F7F4F2D
:101CD0000E944A108D81823061F1823050F184304F
:101CE00021F48E81882351F12EC02F81388537FD54
:101CF00020C06E812F3131051CF06623F9F023C01E
:101D00008EE190E0821B930B29853A854B855C859B
:101D100004C056954795379527958A95D2F766233F
:101D2000B1F050954095309521953F4F4F4F5F4F03
:101D30000EC020E030E040E050E009C02FEF3FEF60
:101D40004FEF5FE704C020E030E040E050E8B90129
:101D5000CA012C96E2E00C941511A8E0B0E0E3EB88
:101D6000FEE00C94F1107B018C0161157105810579
:101D7000910519F482E0898360C083E089838EE154
:101D8000C82ED12CDC82CB82ED82FE820F83188795
:101D9000C801B7010E94260FFC013197F7FF3BC035
:101DA000222733272E1B3F0B57016801022E04C048
:101DB000D694C794B794A7940A94D2F740E050E021
:101DC00060E070E081E090E0A0E0B0E004C0880F47
:101DD000991FAA1FBB1F2A95D2F70197A109B10924
:101DE0008E219F21A023B1230097A105B10521F0E9
:101DF00041E050E060E070E04A295B296C297D29D0
:101E00004D835E836F8378878EE190E08E1B9F0BFE
:101E10009C838B8312C0309781F00E2E04C0EE0C91
:101E2000FF1C001F111F0A94D2F7ED82FE820F8360
:101E30001887CE1ADF0ADC82CB821A82CE01019685
:101E40000E94750F2896EAE00C940D11EF92FF9214
:101E50000F931F937B018C0180E0E81680E0F80669
:101E600081E0080780E0180788F48FEFE816F10496
:101E70000105110531F028F088E090E0A0E0B0E025
:101E800017C080E090E0A0E0B0E012C080E0E8166B
:101E900080E0F80680E0080781E0180728F088E174
:101EA00090E0A0E0B0E004C080E190E0A0E0B0E00D
:101EB00020E230E040E050E0281B390B4A0B5B0B7E
:101EC00004C016950795F794E7948A95D2F7F70121
:101ED000ED56FC4F8081281B310941095109C90188
:101EE0001F910F91FF90EF900895DF92EF92FF9274
:101EF0000F931F93FC01E480F58006811781D18048
:101F00008081823048F480E090E0A0E1B0E0E82AEF
:101F1000F92A0A2B1B2BA5C0843009F49FC08230FC
:101F200021F4EE24FF24870105C0E114F10401052A
:101F3000110519F4E0E0F0E096C0628173819FEF33
:101F4000623879070CF05BC022E83FEF261B370BA5
:101F50002A3131052CF020E030E040E050E02AC08A
:101F6000B801A701022E04C076956795579547954D
:101F70000A94D2F781E090E0A0E0B0E004C0880FBE
:101F8000991FAA1FBB1F2A95D2F70197A109B10972
:101F90008E219F21A023B1230097A105B10521F037
:101FA00081E090E0A0E0B0E09A01AB01282B392B52
:101FB0004A2B5B2BDA01C9018F779070A070B0704B
:101FC00080349105A105B10539F427FF09C0205CD3
:101FD0003F4F4F4F5F4F04C0215C3F4F4F4F5F4F0C
:101FE000E0E0F0E02030A0E03A07A0E04A07A0E4FB
:101FF0005A0710F0E1E0F0E079018A0127C060386B
:10200000710564F5FB01E158FF4FD801C7018F77D7
:102010009070A070B07080349105A105B10539F4BD
:10202000E7FE0DC080E490E0A0E0B0E004C08FE3E4
:1020300090E0A0E0B0E0E80EF91E0A1F1B1F17FF9A
:1020400005C016950795F794E794319687E01695A5
:102050000795F794E7948A95D1F705C0EE24FF24FD
:102060008701EFEFF0E06E2F679566276795902F59
:102070009F77D794DD24D7948E2F8695492F462BB2
:10208000582F5D29B701CA011F910F91FF90EF9062
:10209000DF900895FC01DB01408151812281622F94
:1020A0006F7770E0221F2227221F9381892F880FCC
:1020B000822B282F30E0991F9927991F11969C9306
:1020C000119721153105A9F54115510561057105D6
:1020D00011F482E037C082E89FEF13969C938E93B1
:1020E00012979A01AB0167E0220F331F441F551F5F
:1020F0006A95D1F783E08C930DC0220F331F441FE4
:10210000551F12968D919C911397019713969C934E
:102110008E931297203080E0380780E0480780E4F3
:10212000580758F314962D933D934D935C9317974E
:1021300008952F3F310579F4411551056105710569
:1021400019F484E08C93089564FF03C081E08C93BC
:1021500012C01C9210C02F57304013963C932E9300
:10216000129783E08C9387E0440F551F661F771FFB
:102170008A95D1F7706414964D935D936D937C931B
:102180001797089597FB092E07260AD077FD04D0EC
:102190000CD006D000201AF4709561957F4F0895F9
:1021A000F6F7909581959F4F0895AA1BBB1B51E1AF
:1021B00007C0AA1FBB1FA617B70710F0A61BB70BB7
:1021C000881F991F5A95A9F780959095BC01CD015C
:1021D00008952F923F924F925F926F927F928F92CB
:1021E0009F92AF92BF92CF92DF92EF92FF920F93A6
:1021F0001F93CF93DF93CDB7DEB7CA1BDB0B0FB6B0
:10220000F894DEBF0FBECDBF09942A88398848886C
:102210005F846E847D848C849B84AA84B984C88402
:10222000DF80EE80FD800C811B81AA81B981CE0FF9
:10223000D11D0FB6F894DEBF0FBECDBFED010895DE
:10224000DC0101C06D9341505040E0F70895AEE0CD
:10225000B0E0EDE2F1E10C94F7100D891E8986E003
:102260008C831A8309838FEF9FE79E838D839E0162
:10227000275E3F4FCE0101966F89788DA9010E949C
:102280004B112F813885020F131FF80110822E96F3
:10229000E4E00C941311ABE0B0E0E1E5F1E10C9463
:1022A000E9103C012B015A01FC011782168283813F
:1022B00081FD03C06FEF7FEFC6C19AE0892E1E013A
:1022C0000894211C311CF3012381F20123FD859127
:1022D00023FF81912F01882309F4B2C1853239F49B
:1022E00023FD859123FF81912F01853229F490E010
:1022F000B3010E946213E7CF982FFF24EE249924A4
:10230000FFE1FF15D0F09B3269F09C3228F4903247
:1023100059F0933291F40EC09D3249F0903369F434
:1023200041E024C052E0F52A84E0F82A28C098E071
:10233000F92A25C0E0E1FE2A22C0F7FC29C0892F36
:1023400080538A3070F4F6FE05C0989C902C1124BE
:10235000980E15C0E89CE02C1124E80EF0E2FF2A4C
:102360000EC09E3229F4F6FC6BC140E4F42A07C08B
:102370009C3619F450E8F52A02C0983649F4F20167
:1023800023FD959123FF91912F01992309F0B8CF57
:10239000892F8554833018F08052833038F444E01C
:1023A00050E0A40EB51E5FE359830FC0933631F0A1
:1023B000933779F0933509F056C020C0F50180813C
:1023C000898342E050E0A40EB51E610101E010E0F7
:1023D00012C0F501C080D180F6FC03C06FEF7FEF23
:1023E00002C0692D70E042E050E0A40EB51EC601A7
:1023F0000E9457138C015FE7F52214C0F501C080DD
:10240000D180F6FC03C06FEF7FEF02C0692D70E052
:1024100042E050E0A40EB51EC6010E944C138C0190
:1024200050E8F52AF3FE07C01AC080E290E0B3013D
:102430000E946213EA948E2D90E008171907A8F302
:102440000EC0F601F7FC8591F7FE81916F0190E0D7
:10245000B3010E946213E110EA940150104001158B
:10246000110579F7EAC0943611F0993669F5F7FE4F
:1024700008C0F501208131814281538184E090E0E0
:102480000AC0F501808191819C01442737FD409568
:10249000542F82E090E0A80EB91E9FE6F92257FF64
:1024A00009C050954095309521953F4F4F4F5F4F54
:1024B000E0E8FE2ACA01B901A1012AE030E00E9449
:1024C0008E13D82ED21840C0953729F41F2D1F7EA9
:1024D0002AE030E01DC01F2D197F9F3661F0903734
:1024E00020F4983509F0ACC00FC0903739F0983718
:1024F00009F0A6C004C028E030E00AC0106114FD55
:10250000146020E130E004C014FD166020E132E0E8
:1025100017FF08C0F501608171818281938144E0D9
:1025200050E008C0F50180819181BC0180E090E01D
:1025300042E050E0A40EB51EA1010E948E13D82ED9
:10254000D2188FE7F82EF122F6FE0BC05EEFF522CF
:10255000D91438F4F4FE07C0F2FC05C08FEEF8225F
:1025600002C01D2D01C0192DF4FE0DC0FE01ED0DA0
:10257000F11D8081803319F499EEF92208C01F5FA4
:10258000F2FE05C003C08F2D867809F01F5F0F2D66
:10259000F3FC14C0F0FE0FC01E1510F09D2C0BC0F4
:1025A0009D2C9E0C911A1E2D06C080E290E0B30176
:1025B0000E9462131F5F1E15C0F304C01E1510F4A5
:1025C000E11A01C0EE2404FF0FC080E390E0B301E4
:1025D0000E94621302FF1DC001FD03C088E790E066
:1025E0000EC088E590E00BC0802F867891F001FF47
:1025F00002C08BE201C080E2F7FC8DE290E0B30103
:102600000E94621306C080E390E0B3010E9462134F
:102610009A94D914C0F3DA94F101ED0DF11D808183
:1026200090E0B3010E946213DD20A9F706C080E2AA
:1026300090E0B3010E946213EA94EE20C1F743CE0A
:10264000F30166817781CB012B96E2E10C940511B1
:10265000262FF999FECF92BD81BDF89A019700B45B
:10266000021639F01FBA20BD0FB6F894FA9AF99AFB
:102670000FBE08950396272F0E9429130E94281346
:10268000252F0E942913242F0C9429130196272FFC
:102690000E9429130C942813FC010590615070408E
:1026A0000110D8F7809590958E0F9F1F0895FC011B
:1026B0006150704001900110D8F7809590958E0F71
:1026C0009F1F08950F931F93CF93DF938C01EB010E
:1026D0008B8181FF1BC082FF0DC02E813F818C81C9
:1026E0009D812817390764F4E881F9810193F98302
:1026F000E88306C0E885F985802F0995892B31F498
:102700008E819F8101969F838E8302C00FEF1FEF02
:10271000C801DF91CF911F910F910895FA01AA2767
:10272000283051F1203181F1E8946F936E7F6E5F14
:102730007F4F8F4F9F4FAF4FB1E03ED0B4E03CD0C2
:10274000670F781F891F9A1FA11D680F791F8A1FA5
:10275000911DA11D6A0F711D811D911DA11D20D00C
:1027600009F468943F912AE0269F11243019305DC6
:102770003193DEF6CF010895462F4770405D4193B7
:10278000B3E00FD0C9F7F6CF462F4F70405D4A3304
:1027900018F0495D31FD4052419302D0A9F7EACFCC
:1027A000B4E0A6959795879577956795BA95C9F7FB
:1027B00000976105710508959B01AC010A2E0694EE
:1027C0005795479537952795BA95C9F7620F731FA7
:0C27D000841F951FA01D0895F894FFCFF2
:1027DC001B5B333231307C0042554420746F2042F5
:1027EC004F422D3420416E676C65204F7665726CBC
:1027FC006179206170706C69636174696F6E0A0D28
:10280C0072656164790A0D001B5B347A001B5B30C6
:10281C003B30480050414E3A2020252D3464202076
:10282C002020001B5B313B30480054494C543A206B
:10283C00252D34642020202000401B5B005A43527D
:10284C00415450515308000A0D50414E205820530A
:10285C00484946543A2020253464202050414E20CB
:10286C00592053484946543A2020252D336420647E
:10287C006567090909090920202020202020202033
:10288C000A0D50414E2052414E47453A20202020FF
:10289C00253464202050414E20534C4F50453A2053
:1028AC002020202566200909090909202020202044
:1028BC000A0D0A0D54494C5420582053484946548B
:1028CC003A20253464202054494C54205920534834
:1028DC004946543A20252D3364206465670909095B
:1028EC0009092020202020202020200A0D54494CAA
:1028FC00542052414E47453A202020253464202054
:10290C0054494C5420534C4F50453A2020202566B6
:10291C00200A0D000A0D43555252454E5420524187
:10292C00572050414E3A20253464202043555252B2
:10293C00454E54205241572054494C543A2025645A
:10294C000A0D00110EE13E33036600B400010011C4
:10295C000EE13E6502CD00B4000100000000000055
:10296C000000000001020203030303040404040436
:10297C0004040405050505050505050505050505FE
:10298C0005050506060606060606060606060606DE
:10299C0006060606060606060606060606060606CB
:1029AC0006060607070707070707070707070707AE
:1029BC00070707070707070707070707070707079B
:1029CC00070707070707070707070707070707078B
:1029DC00070707070707070707070707070707077B
:1029EC00070707080808080808080808080808085E
:1029FC00080808080808080808080808080808084B
:102A0C00080808080808080808080808080808083A
:102A1C00080808080808080808080808080808082A
:102A2C00080808080808080808080808080808081A
:102A3C00080808080808080808080808080808080A
:102A4C0008080808080808080808080808080808FA
:102A5C0008080808080808080808080808080808EA
:042A6C00080808004E
:00000001FF
