:100000000C9472000C948F000C948F000C948F0051
:100010000C948F000C948F000C948F000C948F0024
:100020000C948F000C948F000C948F000C948F0014
:100030000C948F000C948F000C948F000C948F0004
:100040000C948F000C948F000C948F000C948F00F4
:100050000C948F000C948F000C948F000C948F00E4
:100060000C948F000C941D020C948F000C948F0044
:100070000C948F000C948F000C948F000C948F00C4
:100080000C948F000C948F000C948F000C948F00B4
:100090000C944D020C948F000C948F000C948F00E4
:1000A0000C948F000C948F000C948F000C948F0094
:1000B0000C948F000C948F000C948F000C948F0084
:1000C0000C948F000C948F000C948F000C947D0284
:1000D0000C948F000C948F000C94AD020C948F0044
:1000E0000C948F0011241FBECFEFD1E2DEBFCDBF35
:1000F00014E0A0E0B2E0E6EEF4E202C005900D925A
:10010000AA38B107D9F716E0AAE8B4E001C01D92F9
:10011000A439B107E1F70E9491000C9471120C947C
:100120000000AF92BF92CF92DF92EF92FF920F93B7
:100130001F93DF93CF93CDB7DEB7E2970FB6F89456
:10014000DEBF0FBECDBF0E9498010E943E010E94FB
:10015000820780E00E944C0178947E010894E11CA3
:10016000F11CD701E0E0F2E088E001900D928150AF
:10017000E1F7C7010E94DE03D701E8E0F2E080E387
:1001800001900D928150E1F7C7010E940B04D70145
:10019000E8E3F2E085E001900D928150E1F7C701BC
:1001A0000E94DE0394E4C92E92E0D92E86E5A82EA3
:1001B00082E0B82E00E911E0D701EDE3F2E087E03C
:1001C00001900D928150E1F7C7010E94DE030E9469
:1001D000210900D000D000D0EDB7FEB73196ADB701
:1001E000BEB71296FC92EE921197D382C28295838B
:1001F00084830E94AC0F8DB79EB706960FB6F89415
:100200009EBF0FBE8DBFC7010E94DE03D701EFE482
:10021000F2E087E001900D928150E1F7C7010E9462
:10022000DE030E94690900D000D000D0EDB7FEB710
:100230003196ADB7BEB71296FC92EE921197B3828B
:10024000A282958384830E94AC0F8DB79EB70696D9
:100250000FB6F8949EBF0FBE8DBFC7010E94DE038C
:100260000E941B0520E030E0C8010197F1F72F5FE5
:100270003F4F93E0283E3907B9F79ECFDF93CF93E6
:10028000CDB7DEB7AAE7B0E0EAE7F0E080818068AA
:100290008C93CF91DF910895DF93CF930F92CDB7D9
:1002A000DEB789838981809361020F90CF91DF91BE
:1002B0000895DF93CF9300D00F92CDB7DEB78B8335
:1002C000ECE7F0E08B81982F977080916102892B89
:1002D0008083ABE7B0E0EBE7F0E08081877F8C9331
:1002E000AAE7B0E0EAE7F0E0808180648C93EAE777
:1002F000F0E08081882F90E0807490700097B9F7CB
:10030000E8E7F0E080818A83E9E7F0E08081898393
:100310008981882F90E0382F22278A81882F90E0CA
:10032000822B932B0F900F900F90CF91DF91089518
:10033000DF93CF930F92CDB7DEB71092CD048091AB
:10034000CD0480930E0580910E0580939305109245
:100350004F0580914F058093CC048091CC0480930D
:1003600091058EEC94E060E070E040E450E00E9483
:10037000A50F8CE894E060E070E040E450E00E945B
:10038000A50F8FE095E060E070E040E450E00E944F
:10039000A50F80E595E060E070E040E450E00E9449
:1003A000A50FE4ECF0E08FE590E091838083ECEC26
:1003B000F0E087E090E091838083E4EDF0E087E077
:1003C00090E091838083E4E3F1E08FE590E0918316
:1003D0008083E1ECF0E088E98083E9ECF0E088E9F3
:1003E0008083E1EDF0E088E98083E1E3F1E088E9F2
:1003F0008083E2ECF0E086E08083EAECF0E086E0E7
:100400008083E2EDF0E086E08083E2E3F1E086E0E5
:100410008083E6ECF0E080818983EEECF0E080817F
:100420008983E6EDF0E080818983E6E3F1E0808175
:1004300089830F90CF91DF9108951F920F920FB68D
:100440000F9211242F938F939F93EF93FF93DF933A
:10045000CF93CDB7DEB780919105882F90E0E6EC81
:10046000F0E02081FC01E253FB4F20838091910555
:100470008F5F8093910580919105803411F41092E3
:100480009105CF91DF91FF91EF919F918F912F91E6
:100490000F900FBE0F901F9018951F920F920FB6DE
:1004A0000F9211242F938F939F93EF93FF93DF93DA
:1004B000CF93CDB7DEB78091CC04882F90E0EEECDF
:1004C000F0E02081FC01E457FB4F20838091CC04B5
:1004D0008F5F8093CC048091CC04803411F410920F
:1004E000CC04CF91DF91FF91EF919F918F912F914C
:1004F0000F900FBE0F901F9018951F920F920FB67E
:100500000F9211242F938F939F93EF93FF93DF9379
:10051000CF93CDB7DEB780914F05882F90E0E6ED01
:10052000F0E02081FC01E15FFA4F208380914F05CC
:100530008F5F80934F0580914F05803411F41092A6
:100540004F05CF91DF91FF91EF919F918F912F9167
:100550000F900FBE0F901F9018951F920F920FB61D
:100560000F9211242F938F939F93EF93FF93DF9319
:10057000CF93CDB7DEB780919005882F90E0E6E36A
:10058000F1E02081FC01E05BFA4F2083809190052F
:100590008F5F8093900580919005803411F41092C4
:1005A0009005CF91DF91FF91EF919F918F912F91C6
:1005B0000F900FBE0F901F901895DF93CF930F925F
:1005C000CDB7DEB780919305882F90E0FC01E25310
:1005D000FB4F80818983809193058F5F8093930582
:1005E00080919305803411F41092930589810F90C6
:1005F000CF91DF910895DF93CF930F92CDB7DEB700
:1006000080910E05882F90E0FC01E457FB4F80811C
:10061000898380910E058F5F80930E0580910E0572
:10062000803411F410920E0589810F90CF91DF91E3
:100630000895DF93CF930F92CDB7DEB78091CD04AD
:10064000882F90E0FC01E15FFA4F808189838091DF
:10065000CD048F5F8093CD048091CD04803411F45C
:100660001092CD0489810F90CF91DF910895DF938F
:10067000CF930F92CDB7DEB780919205882F90E08F
:10068000FC01E05BFA4F80818983809192058F5F46
:100690008093920580919205803411F41092920516
:1006A00089810F90CF91DF910895DF93CF930F92BF
:1006B000CDB7DEB78983E0ECF0E08081882F90E051
:1006C000807290700097B9F3E6ECF0E08981808346
:1006D0000F90CF91DF910895DF93CF930F92CDB715
:1006E000DEB78983E8ECF0E08081882F90E08072AB
:1006F00090700097B9F3EEECF0E0898180830F9061
:10070000CF91DF910895DF93CF930F92CDB7DEB7EE
:100710008983E0EDF0E08081882F90E08072907016
:100720000097B9F3E6EDF0E0898180830F90CF91D7
:10073000DF910895DF93CF930F92CDB7DEB7898312
:10074000E0E3F1E08081882F90E080729070009764
:10075000B9F3E6E3F1E0898180830F90CF91DF91D7
:100760000895DF93CF9300D000D0CDB7DEB79C8340
:100770008B831A82198211C02B813C8189819A81D5
:10078000F901E80FF91F8081282F89819A8101964C
:100790009A838983822F0E9455032B813C81898112
:1007A0009A81F901E80FF91F8081882329F70F90BA
:1007B0000F900F900F90CF91DF910895DF93CF931B
:1007C00000D000D0CDB7DEB79C838B831A8219820C
:1007D00011C02B813C8189819A81F901E80FF91FB1
:1007E0008081282F89819A8101969A838983822F1B
:1007F0000E946C032B813C8189819A81F901E80F69
:10080000F91F8081882329F70F900F900F900F9088
:10081000CF91DF910895DF93CF9300D000D0CDB773
:10082000DEB79C838B831A82198211C02B813C8195
:1008300089819A81F901E80FF91F8081282F898128
:100840009A8101969A838983822F0E9483032B8148
:100850003C8189819A81F901E80FF91F8081882301
:1008600029F70F900F900F900F90CF91DF9108957F
:10087000DF93CF9300D000D0CDB7DEB79C838B83BE
:100880001A82198211C02B813C8189819A81F901D8
:10089000E80FF91F8081282F89819A8101969A8318
:1008A0008983822F0E949A032B813C8189819A81BE
:1008B000F901E80FF91F8081882329F70F900F9025
:1008C0000F900F90CF91DF910895DF93CF9300D0D9
:1008D00000D00F92CDB7DEB79B838A837D836C8374
:1008E00019820FC08981282F30E08A819B81FC0109
:1008F000E20FF31F908189818F5F8983892F0E9486
:1009000055038981282F30E08C819D812817390774
:1009100048F30F900F900F900F900F90CF91DF91B1
:100920000895DF93CF9300D000D000D0CDB7DEB7CD
:100930009C838B837E836D831A82198210C02B81E6
:100940003C8189819A81F901E80FF91F2081898111
:100950009A8101969A838983822F0E946C03298150
:100960003A818D819E812817390748F326960FB664
:10097000F894DEBF0FBECDBFCF91DF910895DF9316
:10098000CF9300D000D000D0CDB7DEB79C838B834F
:100990007E836D831A82198210C02B813C818981EC
:1009A0009A81F901E80FF91F208189819A810196C6
:1009B0009A838983822F0E94830329813A818D81C2
:1009C0009E812817390748F326960FB6F894DEBFA4
:1009D0000FBECDBFCF91DF910895DF93CF9300D0AD
:1009E00000D000D0CDB7DEB79C838B837E836D8330
:1009F0001A82198210C02B813C8189819A81F90168
:100A0000E80FF91F208189819A8101969A83898351
:100A1000822F0E949A0329813A818D819E81281715
:100A2000390748F326960FB6F894DEBF0FBECDBF48
:100A3000CF91DF9108956F927F928F929F92AF92A4
:100A4000BF92CF92DF92EF92FF920F931F93DF93AB
:100A5000CF93CDB7DEB7C650D2400FB6F894DEBF05
:100A60000FBECDBF1B821A8210C00E94190389835A
:100A700020918A04822F90E0FC01EC56FA4F898184
:100A80008083822F8F5F80938A049091CD04809120
:100A90004F05981751F780918A04282F30E08091F4
:100AA0008B04882F90E00296821793070CF014C2F3
:100AB0001E821D821FC080918B04282F30E08D8103
:100AC0009E81820F931FFC01EC56FA4F20818D818D
:100AD0009E81FC01EE59FD4F8081281731F08091F5
:100AE0008B048E5F80938B04F7C18D819E8101966C
:100AF0009E838D838D819E8182309105E4F2809169
:100B00008B04882F90E00296FC01EC56FA4F80810E
:100B10008C831E821D820EC08D819E81FC01EB594B
:100B2000FD4F90818C81981771F08D819E81019687
:100B30009E838D8320916C0230916D028D819E8108
:100B4000821793074CF320916C0230916D028D81D6
:100B50009E818217930729F480918B048D5F809387
:100B60008B0481E090E09E838D8338C080918B045C
:100B7000882F90E09C012E5F3F4F8D819E81820FD8
:100B8000931FFC01EC56FA4F80818C838C81803559
:100B900031F48A819B8181609B838A831AC08C8116
:100BA000843531F48A819B8182609B838A8311C062
:100BB0008C81853531F48A819B8184609B838A8313
:100BC00008C08C818C3429F48A819B8188609B8346
:100BD0008A838D819E8101969E838D838D819E81E6
:100BE000843091051CF280918B04882F90E002964E
:100BF000FC01EC56FA4F80818C838C818A3549F553
:100C000080918B048F5F80938B048A819B8181709C
:100C10009070882359F080918B048F5F80938B04B0
:100C200080E090E00E9459010E94B1098A819B8175
:100C300082709070009709F44FC180918B048F5F90
:100C400080938B0480E090E00E9459010E94DC09AF
:100C500043C18C81833471F580918B048F5F8093C5
:100C60008B048A819B8181709070882339F08091F8
:100C70008B048F5F80938B040E94070A8A819B817B
:100C800084709070009739F080918B048F5F80930F
:100C90008B040E94720A8A819B81887090700097F1
:100CA00009F41AC180918B048F5F80938B040E949A
:100CB000CC0A12C18C81823529F580918B048F5F1B
:100CC00080938B048A819B8181709070882349F086
:100CD00080918B048F5F80938B0481E090E00E9471
:100CE0003B088A819B8182709070009709F4F4C060
:100CF00080918B048F5F80938B0481E090E00E9451
:100D0000AE08EAC08C81813429F580918B048F5F15
:100D100080938B048A819B8181709070882349F035
:100D200080918B048F5F80938B0480E090E00E9421
:100D30003B088A819B8182709070009709F4CCC037
:100D400080918B048F5F80938B0480E090E00E9401
:100D5000AE08C2C08C81843509F580918B048F5F09
:100D600080938B048A819B8181709070882339F0F5
:100D700080918B048F5F80938B040E9494088A81FA
:100D80009B8182709070009709F4A6C080918B04BB
:100D90008F5F80938B040E9407099EC08C818035F1
:100DA00009F063C080918B048F5F80938B04609106
:100DB0006F0370917003A0917103B0917203C090A2
:100DC0006D03D0906E032091690330916A034091C6
:100DD0006B0350916C03A0907B03B0907C038090D8
:100DE0007D0390907E036090790370907A03E09089
:100DF0007503F090760300917703109178038DB717
:100E00009EB748970FB6F8949EBF0FBE8DBFEDB743
:100E1000FEB73196CE010796918380838EE692E0ED
:100E20009383828375836483B783A683D186C086C8
:100E30002287338744875587B786A686918A808A1A
:100E4000738A628AE48AF58A068B178B0E94AC0F3C
:100E50008DB79EB748960FB6F8949EBF0FBE8DBF54
:100E6000CE0107960E940B0437C08C818135A1F515
:100E700080918B048F5F80938B0480E090E00E94D0
:100E800059018C0183E090E00E9459019C018DB7CB
:100E90009EB708970FB6F8949EBF0FBE8DBFEDB7F3
:100EA000FEB73196CE010796918380838AE393E063
:100EB0009383828315830483378326830E94AC0F38
:100EC0008DB79EB708960FB6F8949EBF0FBE8DBF24
:100ED000CE0107960E940B04CA5FDD4F0FB6F8944F
:100EE000DEBF0FBECDBFCF91DF911F910F91FF905D
:100EF000EF90DF90CF90BF90AF909F908F907F90BA
:100F00006F900895DF93CF9300D00F92CDB7DEB7E7
:100F10000F900F900F90CF91DF910895DF93CF93B3
:100F200000D0CDB7DEB780E094E09A8389838981D1
:100F30009A8161E00E94AD1189819A8102969A831B
:100F4000898389819A812091690330916A03409154
:100F50006B0350916C03BA01A9010E94BF118981F2
:100F60009A8104969A83898389819A8120916F035B
:100F700030917003B9010E94CB1189819A81029648
:100F80009A83898389819A8120916D0330916E03C0
:100F9000B9010E94CB1189819A8102969A83898333
:100FA00049815A8180917103909172039C01CA0119
:100FB000B9010E94CB1189819A8102969A83898313
:100FC00089819A812091730330917403B9010E9441
:100FD000CB1189819A8102969A83898389819A812A
:100FE00020917503309176034091770350917803F7
:100FF000BA01A9010E94BF1189819A8104969A833E
:10100000898389819A8120917B0330917C03B90186
:101010000E94CB1189819A8102969A838983898162
:101020009A812091790330917A03B9010E94CB1102
:1010300089819A8102969A83898349815A81809114
:101040007D0390917E039C01CA01B9010E94CB11DE
:1010500089819A8102969A83898389819A812091D4
:101060007F0330918003B9010E94CB110F900F9044
:10107000CF91DF910895DF93CF9300D0CDB7DEB746
:101080009A838983209173033091740389819A81B3
:101090002817390709F443C089819A818130910565
:1010A000F9F420916F033091700380916D0390915A
:1010B0006E0396958795A901481B590BCA01909319
:1010C000700380936F0384EB90E09093720380939E
:1010D000710381E090E090937403809373031DC0CB
:1010E00089819A810097C9F480916D0390916E0374
:1010F0009C013695279580916F0390917003820F24
:10110000931F9093700380936F0310927203109259
:10111000710310927403109273030E948E070F9054
:101120000F90CF91DF910895DF93CF9300D0CDB78B
:10113000DEB780917303909174031A82198200972D
:1011400021F481E090E09A83898389819A810E94C9
:101150003B080F900F90CF91DF910895DF93CF93CD
:1011600000D0CDB7DEB79A83898320917F03309179
:10117000800389819A812817390709F443C089813E
:101180009A8181309105F9F420917B0330917C03A1
:101190008091790390917A0396958795A901481BD0
:1011A000590BCA0190937C0380937B0384EB90E0FE
:1011B00090937E0380937D0381E090E09093800381
:1011C00080937F031DC089819A810097C9F4809123
:1011D000790390917A039C013695279580917B0342
:1011E00090917C03820F931F90937C0380937B03E9
:1011F00010927E0310927D031092800310927F0361
:101200000E948E070F900F90CF91DF910895DF938A
:10121000CF9300D0CDB7DEB780917F03909180034C
:101220001A821982009721F481E090E09A838983E1
:1012300089819A810E94AE080F900F90CF91DF9123
:101240000895DF93CF93CDB7DEB780E00E945901B8
:101250009C0180916F0390917003281B390B809142
:101260006D0390916E03A901480F591F80916D0382
:1012700090916E039C01CA01B9010E94470FAA27F1
:1012800097FDA095BA2FBC01CD010E94800CDC0116
:10129000CB012091690330916A0340916B03509117
:1012A0006C03BC01CD010E94DA0ADC01CB01BC0158
:1012B000CD010E94DE0CDC01CB019C018091710309
:1012C00090917203A901481B590BCA01CF91DF917C
:1012D0000895DF93CF93CDB7DEB783E00E94590125
:1012E0009C0180917B0390917C03281B390B80919A
:1012F000790390917A03A901480F591F80917903CE
:1013000090917A039C01CA01B9010E94470FAA2754
:1013100097FDA095BA2FBC01CD010E94800CDC0185
:10132000CB01209175033091760340917703509162
:101330007803BC01CD010E94DA0ADC01CB01BC01BB
:10134000CD010E94DE0CDC01CB019C0180917D036C
:1013500090917E03A901481B590BCA01CF91DF91DF
:101360000895DF93CF9300D0CDB7DEB79A838983FA
:1013700080917303909174038130910581F4809181
:101380006D0390916E039C013695279589819A8112
:10139000820F931F9093700380936F0306C089811F
:1013A0009A819093700380936F030E948E070F9031
:1013B0000F90CF91DF910895DF93CF9300D0CDB7F9
:1013C000DEB79A83898380917F0390918003813077
:1013D000910581F48091790390917A039C0136956F
:1013E000279589819A81820F931F90937C03809324
:1013F0007B0306C089819A8190937C0380937B0351
:101400000E948E070F900F90CF91DF910895DF9388
:10141000CF9300D000D000D0CDB7DEB780E00E94DF
:1014200059019E838D838D819E819C838B831CC0FB
:1014300080E00E9459019A83898329813A818B81B6
:101440009C818217930728F489819A819C838B83DE
:101450000BC029813A818D819E812817390720F49C
:1014600089819A819E838D838B819C812D813E8190
:10147000821B930B22E0883E9207D0F22B813C81A5
:101480008D819E81A901481B590BCA0190936E035F
:1014900080936D0380916D0390916E03CC01A0E069
:1014A000B0E0BC01CD010E94320D9B01AC0160E0B7
:1014B00070E084EB93E40E94D40BDC01CB018093B9
:1014C000690390936A03A0936B03B0936C030E942B
:1014D0008E0726960FB6F894DEBF0FBECDBFCF9114
:1014E000DF910895DF93CF9300D000D0CDB7DEB762
:1014F00083E00E9459019C838B8320917B03309170
:101500007C038B819C81821B930B9A8389838981C5
:101510009A81CC01A0E0B0E0BC01CD010E94320D67
:10152000DC01CB01BC01CD0120E030E040E45FE311
:101530000E94D40BDC01CB01BC01CD010E94DE0C6A
:10154000DC01CB0190937A03809379038091790336
:1015500090917A03CC01A0E0B0E0BC01CD010E94E3
:10156000320D9B01AC0160E070E084EB93E40E94DB
:10157000D40BDC01CB018093750390937603A09389
:101580007703B09378030E948E070F900F900F900F
:101590000F90CF91DF910895DF93CF93CDB7DEB752
:1015A00083E00E94590190937C0380937B03CF9149
:1015B000DF910895A0E2B0E0E0EEFAE00C946E0F47
:1015C00069837A838B839C832D833E834F835887E3
:1015D000CE010196BE01675F7F4F0E94CF0ECE0104
:1015E0000596BE016F5E7F4F0E94CF0E99859230A7
:1015F00088F089898230C8F0943019F4823051F42F
:1016000004C0843029F4923081F481E893E0C6C0AC
:10161000923049F420E09A858A89981321E02A873C
:10162000CE010996BBC0823049F420E09A858A89B0
:10163000981321E02A8BCE014196B0C02D843E84C0
:101640004F8458886D887E888F88988CEE24FF247C
:101650008701AA24BB24650140E050E060E070E00F
:10166000E0E0F0E0C10181709070892BE9F0E60CB8
:10167000F71C081D191D9A01AB012A0D3B1D4C1DBD
:101680005D1D80E090E0A0E0B0E0E614F7040805FE
:10169000190520F481E090E0A0E0B0E0BA01A901D2
:1016A000480F591F6A1F7B1FAA0CBB1CCC1CDD1CDA
:1016B00097FE08C081E090E0A0E0B0E0A82AB92A37
:1016C000CA2ADB2A3196E032F10549F0660C771C14
:1016D000881C991C5694479437942794C3CFFA8555
:1016E000EA892B893C898B859C85280F391F2E5FC1
:1016F0003F4F17C0CA0181709070892B61F0169519
:101700000795F794E79480E090E0A0E0B0E8E82A3D
:10171000F92A0A2B1B2B76956795579547952F5FCE
:101720003F4F77FDE7CF0CC0440F551F661F771F53
:1017300017FD4160EE0CFF1C001F111F21503040AF
:10174000403090E0590790E0690790E4790760F332
:101750002B8F3C8FDB01CA018F779070A070B07027
:1017600080349105A105B10561F447FD0AC0E1147B
:10177000F1040105110529F0405C5F4F6F4F7F4F69
:1017800040781A8EFE1711F081E08A8F4D8F5E8FA0
:101790006F8F78A383E0898FCE0149960E94FA0D5E
:1017A000A096E2E10C948A0FA8E1B0E0EAEDFBE03C
:1017B0000C94760F69837A838B839C832D833E837D
:1017C0004F835887B9E0EB2EF12CEC0EFD1ECE01B5
:1017D0000196B7010E94CF0E8E010F5E1F4FCE0102
:1017E0000596B8010E94CF0E2985223008F47EC0EC
:1017F0003989323010F4B8017CC08A859A898927EA
:101800008A87243011F0223031F4231709F06EC09A
:1018100061E873E06EC0343039F41D861E861F8681
:10182000188A1C861B8604C0323021F484E0898724
:10183000B7015FC02B853C858B899C89281B390BA0
:101840003C872B87ED84FE840F851889AD88BE8880
:10185000CF88D88CEA14FB040C051D0540F4EE0C6F
:10186000FF1C001F111F215030403C872B8720E0B8
:1018700030E040E050E080E090E0A0E0B0E460E0E4
:1018800070E0EA14FB040C051D0540F0282B392BF1
:101890004A2B5B2BEA18FB080C091D09B695A79586
:1018A00097958795EE0CFF1C001F111F6F5F7F4FF0
:1018B0006F31710531F7DA01C9018F779070A0702F
:1018C000B07080349105A105B10561F427FD0AC00F
:1018D000E114F1040105110529F0205C3F4F4F4F41
:1018E0005F4F20782D873E874F87588BBE01675FFB
:1018F0007F4FCB010E94FA0D6896EAE00C94920F9C
:10190000A8E0B0E0E6E8FCE00C94770F9B01AC01A6
:1019100083E08983DA01C9018827B7FD8395992778
:10192000AA27BB27B82E211531054105510519F409
:1019300082E089833AC08823A9F0203080E038070C
:1019400080E0480780E8580729F460E070E080E014
:101950009FEC30C0EE24FF248701E21AF30A040B47
:10196000150B02C079018A018EE1C82ED12CDC82D0
:10197000CB82ED82FE820F831887C801B7010E94D7
:10198000AB0D01971816190684F4082E04C0EE0C4E
:10199000FF1C001F111F0A94D2F7ED82FE820F83F5
:1019A0001887C81AD90ADC82CB82BA82CE01019686
:1019B0000E94FA0D2896E9E00C94930FACE0B0E099
:1019C000E4EEFCE00C947E0F69837A838B839C8326
:1019D000CE010196BE016B5F7F4F0E94CF0E8D81BD
:1019E000823061F1823050F1843021F48E8188237D
:1019F00051F12EC02F81388537FD20C06E812F31E7
:101A000031051CF06623F9F023C08EE190E0821BC3
:101A1000930B29853A854B855C8504C0569547957F
:101A2000379527958A95D2F76623B1F05095409562
:101A3000309521953F4F4F4F5F4F0EC020E030E073
:101A400040E050E009C02FEF3FEF4FEF5FE704C0E9
:101A500020E030E040E050E8B901CA012C96E2E015
:101A60000C949A0FA8E0B0E0E8E3FDE00C94760F48
:101A70007B018C01611571058105910519F482E0E6
:101A8000898360C083E089838EE1C82ED12CDC82FB
:101A9000CB82ED82FE820F831887C801B7010E94B6
:101AA000AB0DFC013197F7FF3BC0222733272E1BDC
:101AB0003F0B57016801022E04C0D694C794B79417
:101AC000A7940A94D2F740E050E060E070E081E033
:101AD00090E0A0E0B0E004C0880F991FAA1FBB1FD0
:101AE0002A95D2F70197A109B1098E219F21A02340
:101AF000B1230097A105B10521F041E050E060E07D
:101B000070E04A295B296C297D294D835E836F83B0
:101B100078878EE190E08E1B9F0B9C838B8312C095
:101B2000309781F00E2E04C0EE0CFF1C001F111F19
:101B30000A94D2F7ED82FE820F831887CE1ADF0A4D
:101B4000DC82CB821A82CE0101960E94FA0D289681
:101B5000EAE00C94920FEF92FF920F931F937B0198
:101B60008C0180E0E81680E0F80681E0080780E05C
:101B7000180788F48FEFE816F1040105110531F01C
:101B800028F088E090E0A0E0B0E017C080E090E0AE
:101B9000A0E0B0E012C080E0E81680E0F80680E047
:101BA000080781E0180728F088E190E0A0E0B0E0A5
:101BB00004C080E190E0A0E0B0E020E230E040E04E
:101BC00050E0281B390B4A0B5B0B04C01695079598
:101BD000F794E7948A95D2F7F701E757FC4F808195
:101BE000281B310941095109C9011F910F91FF902B
:101BF000EF900895DF92EF92FF920F931F93FC01F5
:101C0000E480F58006811781D1808081823048F49C
:101C100080E090E0A0E1B0E0E82AF92A0A2B1B2B33
:101C2000A5C0843009F49FC0823021F4EE24FF2443
:101C3000870105C0E114F1040105110519F4E0E084
:101C4000F0E096C0628173819FEF623879070CF0F3
:101C50005BC022E83FEF261B370B2A3131052CF001
:101C600020E030E040E050E02AC0B801A701022E99
:101C700004C076956795579547950A94D2F781E009
:101C800090E0A0E0B0E004C0880F991FAA1FBB1F1E
:101C90002A95D2F70197A109B1098E219F21A0238E
:101CA000B1230097A105B10521F081E090E0A0E00B
:101CB000B0E09A01AB01282B392B4A2B5B2BDA01C0
:101CC000C9018F779070A070B07080349105A10524
:101CD000B10539F427FF09C0205C3F4F4F4F5F4FDC
:101CE00004C0215C3F4F4F4F5F4FE0E0F0E02030F9
:101CF000A0E03A07A0E04A07A0E45A0710F0E1E0AC
:101D0000F0E079018A0127C06038710564F5FB01B4
:101D1000E158FF4FD801C7018F779070A070B07065
:101D200080349105A105B10539F4E7FE0DC080E4CA
:101D300090E0A0E0B0E004C08FE390E0A0E0B0E06D
:101D4000E80EF91E0A1F1B1F17FF05C01695079501
:101D5000F794E794319687E016950795F794E79402
:101D60008A95D1F705C0EE24FF248701EFEFF0E05C
:101D70006E2F679566276795902F9F77D794DD2400
:101D8000D7948E2F8695492F462B582F5D29B70162
:101D9000CA011F910F91FF90EF90DF900895FC0111
:101DA000DB01408151812281622F6F7770E0221F19
:101DB0002227221F9381892F880F822B282F30E022
:101DC000991F9927991F11969C93119721153105F9
:101DD000A9F5411551056105710511F482E037C07F
:101DE00082E89FEF13969C938E9312979A01AB0112
:101DF00067E0220F331F441F551F6A95D1F783E018
:101E00008C930DC0220F331F441F551F12968D91C6
:101E10009C911397019713969C938E931297203061
:101E200080E0380780E0480780E4580758F31496AC
:101E30002D933D934D935C93179708952F3F310554
:101E400079F4411551056105710519F484E08C930D
:101E5000089564FF03C081E08C9312C01C9210C0EF
:101E60002F57304013963C932E93129783E08C9318
:101E700087E0440F551F661F771F8A95D1F770645E
:101E800014964D935D936D937C931797089597FBEC
:101E9000092E07260AD077FD04D00CD006D00020EA
:101EA0001AF4709561957F4F0895F6F79095819596
:101EB0009F4F0895AA1BBB1B51E107C0AA1FBB1F60
:101EC000A617B70710F0A61BB70B881F991F5A95C6
:101ED000A9F780959095BC01CD0108952F923F926E
:101EE0004F925F926F927F928F929F92AF92BF922A
:101EF000CF92DF92EF92FF920F931F93CF93DF93D6
:101F0000CDB7DEB7CA1BDB0B0FB6F894DEBF0FBE32
:101F1000CDBF09942A88398848885F846E847D847F
:101F20008C849B84AA84B984C884DF80EE80FD8081
:101F30000C811B81AA81B981CE0FD11D0FB6F894F7
:101F4000DEBF0FBECDBFED010895DC0101C06D9372
:101F500041505040E0F70895AEE0B0E0E2EBFFE022
:101F60000C947C0F0D891E8986E08C831A8309836B
:101F70008FEF9FE79E838D839E01275E3F4FCE01AB
:101F800001966F89788DA9010E94D00F2F81388525
:101F9000020F131FF80110822E96E4E00C94980FA4
:101FA000ABE0B0E0E6EDFFE00C946E0F3C012B01DE
:101FB0005A01FC0117821682838181FD03C06FEFF5
:101FC0007FEFC6C19AE0892E1E010894211C311CA6
:101FD000F3012381F20123FD859123FF81912F01DC
:101FE000882309F4B2C1853239F423FD859123FF9A
:101FF00081912F01853229F490E0B3010E94E7110D
:10200000E7CF982FFF24EE249924FFE1FF15D0F0AD
:102010009B3269F09C3228F4903259F0933291F45B
:102020000EC09D3249F0903369F441E024C052E083
:10203000F52A84E0F82A28C098E0F92A25C0E0E1D2
:10204000FE2A22C0F7FC29C0892F80538A3070F401
:10205000F6FE05C0989C902C1124980E15C0E89CA3
:10206000E02C1124E80EF0E2FF2A0EC09E3229F483
:10207000F6FC6BC140E4F42A07C09C3619F450E822
:10208000F52A02C0983649F4F20123FD959123FF09
:1020900091912F01992309F0B8CF892F855483306E
:1020A00018F08052833038F444E050E0A40EB51E9E
:1020B0005FE359830FC0933631F0933779F093354E
:1020C00009F056C020C0F5018081898342E050E0CC
:1020D000A40EB51E610101E010E012C0F501C08040
:1020E000D180F6FC03C06FEF7FEF02C0692D70E076
:1020F00042E050E0A40EB51EC6010E94DC118C0126
:102100005FE7F52214C0F501C080D180F6FC03C062
:102110006FEF7FEF02C0692D70E042E050E0A40E47
:10212000B51EC6010E94D1118C0150E8F52AF3FEBC
:1021300007C01AC080E290E0B3010E94E711EA9460
:102140008E2D90E008171907A8F30EC0F601F7FCD2
:102150008591F7FE81916F0190E0B3010E94E71134
:10216000E110EA94015010400115110579F7EAC019
:10217000943611F0993669F5F7FE08C0F501208113
:1021800031814281538184E090E00AC0F501808171
:1021900091819C01442737FD4095542F82E090E0C7
:1021A000A80EB91E9FE6F92257FF09C05095409529
:1021B000309521953F4F4F4F5F4FE0E8FE2ACA010F
:1021C000B901A1012AE030E00E941312D82ED218E2
:1021D00040C0953729F41F2D1F7E2AE030E01DC036
:1021E0001F2D197F9F3661F0903720F4983509F044
:1021F000ACC00FC0903739F0983709F0A6C004C0C2
:1022000028E030E00AC0106114FD146020E130E0E5
:1022100004C014FD166020E132E017FF08C0F5018C
:10222000608171818281938144E050E008C0F501B2
:1022300080819181BC0180E090E042E050E0A40EFA
:10224000B51EA1010E941312D82ED2188FE7F82EC6
:10225000F122F6FE0BC05EEFF522D91438F4F4FE3D
:1022600007C0F2FC05C08FEEF82202C01D2D01C090
:10227000192DF4FE0DC0FE01ED0DF11D808180339E
:1022800019F499EEF92208C01F5FF2FE05C003C0E1
:102290008F2D867809F01F5F0F2DF3FC14C0F0FE20
:1022A0000FC01E1510F09D2C0BC09D2C9E0C911A7A
:1022B0001E2D06C080E290E0B3010E94E7111F5F6F
:1022C0001E15C0F304C01E1510F4E11A01C0EE245F
:1022D00004FF0FC080E390E0B3010E94E71102FF0A
:1022E0001DC001FD03C088E790E00EC088E590E0C6
:1022F0000BC0802F867891F001FF02C08BE201C0F5
:1023000080E2F7FC8DE290E0B3010E94E71106C085
:1023100080E390E0B3010E94E7119A94D914C0F3CE
:10232000DA94F101ED0DF11D808190E0B3010E947E
:10233000E711DD20A9F706C080E290E0B3010E941A
:10234000E711EA94EE20C1F743CEF301668177816D
:10235000CB012B96E2E10C948A0F262FF999FECF40
:1023600092BD81BDF89A019700B4021639F01FBAE8
:1023700020BD0FB6F894FA9AF99A0FBE0895039605
:10238000272F0E94AE110E94AD11252F0E94AE1181
:10239000242F0C94AE110196272F0E94AE110C949D
:1023A000AD11FC010590615070400110D8F7809587
:1023B00090958E0F9F1F0895FC0161507040019011
:1023C0000110D8F7809590958E0F9F1F08950F9359
:1023D0001F93CF93DF938C01EB018B8181FF1BC097
:1023E00082FF0DC02E813F818C819D812817390786
:1023F00064F4E881F9810193F983E88306C0E885F4
:10240000F985802F0995892B31F48E819F81019662
:102410009F838E8302C00FEF1FEFC801DF91CF9122
:102420001F910F910895FA01AA27283051F1203108
:1024300081F1E8946F936E7F6E5F7F4F8F4F9F4F58
:10244000AF4FB1E03ED0B4E03CD0670F781F891F9A
:102450009A1FA11D680F791F8A1F911DA11D6A0F68
:10246000711D811D911DA11D20D009F468943F911B
:102470002AE0269F11243019305D3193DEF6CF011A
:102480000895462F4770405D4193B3E00FD0C9F7E0
:10249000F6CF462F4F70405D4A3318F0495D31FD4D
:1024A0004052419302D0A9F7EACFB4E0A6959795A0
:1024B000879577956795BA95C9F700976105710576
:1024C00008959B01AC010A2E0694579547953795C0
:1024D0002795BA95C9F7620F731F841F951FA01D1A
:0624E0000895F894FFCFFF
:1024E6001B5B333231307C0042554420746F2042EE
:1024F6004F422D3420416E676C65204F7665726CB5
:102506006179206170706C69636174696F6E0A0D20
:1025160072656164790A0D001B5B347A001B5B30BF
:102526003B30480050414E3A2020252D3464001B94
:102536005B313B30480054494C543A20252D3464D5
:1025460000401B5B005A43524154505107000A0D8C
:1025560050414E20582053484946543A20202534AD
:1025660064202050414E20592053484946543A2071
:1025760020252D336420646567090909090920208F
:10258600202020202020200A0D50414E2052414E6E
:1025960047453A20202020253464202050414E20F3
:1025A600534C4F50453A2020202025662009090922
:1025B600090920202020200A0D0A0D54494C5420D8
:1025C600582053484946543A20253464202054491B
:1025D6004C5420592053484946543A20252D3364FB
:1025E6002064656709090909092020202020202088
:1025F60020200A0D54494C542052414E47453A205A
:102606002020253464202054494C5420534C4F50EC
:10261600453A20202025660A0D000A0D43555252E0
:10262600454E54205241572050414E3A202534649D
:10263600202043555252454E54205241572054496A
:102646004C543A2025640A0D00110EE13E33036610
:1026560000B4000100110EE13E6502CD00B4000198
:102666000000000000000000000001020203030356
:10267600030404040404040404050505050505050E
:1026860005050505050505050506060606060606ED
:1026960006060606060606060606060606060606D4
:1026A60006060606060606060607070707070707BD
:1026B60007070707070707070707070707070707A4
:1026C6000707070707070707070707070707070794
:1026D6000707070707070707070707070707070784
:1026E600070707070707070707080808080808086D
:1026F6000808080808080808080808080808080854
:102706000808080808080808080808080808080843
:102716000808080808080808080808080808080833
:102726000808080808080808080808080808080823
:102736000808080808080808080808080808080813
:102746000808080808080808080808080808080803
:1027560008080808080808080808080808080808F3
:0A2766000808080808080808080021
:00000001FF
