:100000000C94F3000C9410010C9410010C9410014A
:100010000C9410010C9410010C9410010C9410011C
:100020000C9410010C9410010C9410010C9410010C
:100030000C9410010C9410010C9410010C941001FC
:100040000C9410010C9410010C9410010C941001EC
:100050000C9410010C9410010C9410010C941001DC
:100060000C9410010C940A030C9410010C941001D0
:100070000C9410010C9410010C9410010C941001BC
:100080000C9410010C9410010C9410010C941001AC
:100090000C943A030C9410010C9410010C94100170
:1000A0000C9410010C9410010C9410010C9410018C
:1000B0000C9410010C9410010C9410010C9410017C
:1000C0000C9410010C9410010C9410010C946A0310
:1000D0000C9410010C9410010C949A030C941001D0
:1000E0000C9410016E616E00696E660000407A101B
:1000F000F35A00A0724E18090010A5D4E80000E8D9
:100100007648170000E40B54020000CA9A3B000036
:1001100000E1F505000080969800000040420F00C5
:100120000000A08601000000102700000000E80386
:10013000000000006400000000000A000000000051
:100140000100000000002C76D888DC674F0823DF10
:10015000C1DFAE59E1B1B796E5E3E453C63AE651E3
:10016000997696E8E6C28426EB898C9B62ED407C0A
:100170006FFCEFBC9C9F40F2BAA56FA5F490055AA6
:100180002AF75C936B6CF9676DC11BFCE0E40D47CB
:10019000FEF520E6B500D0ED902E030094357705EE
:1001A0000080841E080000204E0A000000C80C33A6
:1001B0003333330F986E12831141EF8D2114893B35
:1001C000E65516CFFEE6DB18D1844B381BF77C1DB5
:1001D000901DA4BBE424203284725E228100C9F108
:1001E00024ECA1E53D2711241FBECFEFD1E2DEBFF5
:1001F000CDBF15E0A0E0B2E0E4E8F8E302C005906E
:100200000D92A233B107D9F717E0A2E3B5E001C020
:100210001D92AC3EB107E1F70E9412010C94401C04
:100220000C9400002F923F924F925F926F927F92B8
:100230008F929F92AF92BF92CF92DF92EF92FF92F6
:100240000F931F93DF93CF93CDB7DEB7E2970FB62F
:10025000F894DEBF0FBECDBF0E9485020E945D02F2
:100260000E945D0B80E00E94630278945E01089416
:10027000A11CB11CD501E0E0F2E088E001900D92F4
:100280008150E1F7C5010E94CB04D501E8E0F2E01E
:1002900080E301900D928150E1F7C5010E94F804BE
:1002A000D501E8E3F2E08FE001900D928150E1F793
:1002B000C5010E94CB0480E090E020E931E0F90123
:1002C0003197F1F7019643E188389407C1F749E582
:1002D000842E42E0942E3BE7632E32E0732E26E913
:1002E000422E22E0522E90EA292E92E0392E80E909
:1002F000C82E81E0D82ED501E7E4F2E08BE0019032
:100300000D928150E1F7C5010E94CB04D501E2E5D1
:10031000F2E087E001900D928150E1F7C5010E9463
:10032000CB048091320590913305892B09F479C073
:100330000E94230E7C01E0918305F09184050995CC
:100340008C010E940E0DADB7BEB71A970FB6F89488
:10035000BEBF0FBEADBFEDB7FEB731961296BC92D1
:10036000AE92119793828282F582E482178306838C
:10037000918780870E94871B2DB73EB7265F3F4F2E
:100380000FB6F8943EBF0FBE2DBFC5010E94CB042F
:10039000D501E4E7F2E087E001900D928150E1F7AA
:1003A000C5010E94CB040E94B6108C01E0910706A3
:1003B000F091080609957C010E947A0FADB7BEB78F
:1003C0001A970FB6F894BEBF0FBEADBFEDB7FEB71C
:1003D00031961296BC92AE92119773826282158307
:1003E0000483F782E682918780870E94871B2DB75E
:1003F0003EB7265F3F4F0FB6F8943EBF0FBE2DBFEE
:10040000C5010E94CB040E94660620E030E0C601D0
:100410000197F1F72F5F3F4F43E02A3C3407B9F7CC
:100420006ACF0E94230E00D000D000D0EDB7FEB7F7
:100430003196ADB7BEB71296BC92AE921197538269
:100440004282958384830E94871B2DB73EB72A5F23
:100450003F4F0FB6F8943EBF0FBE2DBFC5010E949F
:10046000CB04D501E4E7F2E087E001900D928150E2
:10047000E1F7C5010E94CB040E94B61000D000D065
:1004800000D0EDB7FEB73196ADB7BEB71296BC92AD
:10049000AE92119733822282958384830E94871BB8
:1004A0002DB73EB72A5F3F4F0FB6F8943EBF0FBE41
:1004B0002DBFC5010E94CB04A6CFEAE7F0E0808102
:1004C0008068808308958093AA0208958770909130
:1004D000AA02892B80937C0080917B00877F809388
:1004E0007B0080917A00806480937A0080917A000A
:1004F00086FDFCCF2091780040917900942F80E018
:1005000030E0282B392BC9010895DF93CF930F9248
:10051000CDB7DEB710928505809185058093C6051D
:100520008091C60580934D061092090680910906B8
:10053000809382058091820580934B0686E895E042
:1005400060E070E040E450E00E94491B82E495E0E6
:1005500060E070E040E450E00E94491B87EC95E0C9
:1005600060E070E040E450E00E94491B8AE096E0C1
:1005700060E070E040E450E00E94491BE4ECF0E0F1
:100580008FE590E091838083ECECF0E087E090E0F1
:1005900091838083E4EDF0E087E090E091838083B5
:1005A000E4E3F1E08FE590E091838083E1ECF0E01B
:1005B00088E98083E9ECF0E088E98083E1EDF0E010
:1005C00088E98083E1E3F1E088E98083E2ECF0E010
:1005D00086E08083EAECF0E086E08083E2EDF0E004
:1005E00086E08083E2E3F1E086E08083E6ECF0E001
:1005F00080818983EEECF0E080818983E6EDF0E094
:1006000080818983E6E3F1E0808189830F90CF9137
:10061000DF9108951F920F920FB60F9211242F931E
:100620008F939F93EF93FF93DF93CF93CDB7DEB775
:1006300080914B06882F90E0E6ECF0E02081FC01F1
:10064000EA57FA4F208380914B068F5F80934B06C9
:1006500080914B06803411F410924B06CF91DF91BC
:10066000FF91EF919F918F912F910F900FBE0F905F
:100670001F9018951F920F920FB60F9211242F936F
:100680008F939F93EF93FF93DF93CF93CDB7DEB715
:1006900080918205882F90E0EEECF0E02081FC0153
:1006A000EE5BFA4F2083809182058F5F80938205F5
:1006B00080918205803411F410928205CF91DF91F0
:1006C000FF91EF919F918F912F910F900FBE0F90FF
:1006D0001F9018951F920F920FB60F9211242F930F
:1006E0008F939F93EF93FF93DF93CF93CDB7DEB7B5
:1006F00080910906882F90E0E6EDF0E02081FC0172
:10070000E953FA4F2083809109068F5F8093090691
:1007100080910906803411F410920906CF91DF917F
:10072000FF91EF919F918F912F910F900FBE0F909E
:100730001F9018951F920F920FB60F9211242F93AE
:100740008F939F93EF93FF93DF93CF93CDB7DEB754
:1007500080914A06882F90E0E6E3F1E02081FC01D9
:10076000E65FF94F208380914A068F5F80934A06A7
:1007700080914A06803411F410924A06CF91DF919D
:10078000FF91EF919F918F912F910F900FBE0F903E
:100790001F901895DF93CF930F92CDB7DEB780915E
:1007A0004D06882F90E0FC01EA57FA4F808189833B
:1007B00080914D068F5F80934D0680914D06803469
:1007C00011F410924D0689810F90CF91DF91089519
:1007D000DF93CF930F92CDB7DEB78091C605882FF8
:1007E00090E0FC01EE5BFA4F808189838091C60521
:1007F0008F5F8093C6058091C605803411F41092F6
:10080000C60589810F90CF91DF910895DF93CF9333
:100810000F92CDB7DEB780918505882F90E0FC015F
:10082000E953FA4F80818983809185058F5F80939A
:10083000850580918505803411F4109285058981A4
:100840000F90CF91DF910895DF93CF930F92CDB7A3
:10085000DEB780914C06882F90E0FC01E65FF94FEF
:100860008081898380914C068F5F80934C068091B4
:100870004C06803411F410924C0689810F90CF9170
:10088000DF910895DF93CF930F92CDB7DEB78983C1
:10089000E0ECF0E08081882F90E08072907000970B
:1008A000B9F3E6ECF0E0898180830F90CF91DF917E
:1008B0000895DF93CF930F92CDB7DEB78983E8EC2D
:1008C000F0E08081882F90E0807290700097B9F3FB
:1008D000EEECF0E0898180830F90CF91DF91089555
:1008E000DF93CF930F92CDB7DEB78983E0EDF0E0D1
:1008F0008081882F90E0807290700097B9F3E6EDC8
:10090000F0E0898180830F90CF91DF910895DF938C
:10091000CF930F92CDB7DEB78983E0E3F1E080811A
:10092000882F90E0807290700097B9F3E6E3F1E0D1
:10093000898180830F90CF91DF910895DF93CF93CA
:1009400000D000D0CDB7DEB79C838B831A8219828A
:1009500011C02B813C8189819A81F901E80FF91F2F
:100960008081282F89819A8101969A838983822F99
:100970000E9442042B813C8189819A81F901E80F10
:10098000F91F8081882329F70F900F900F900F9007
:10099000CF91DF910895DF93CF9300D000D0CDB7F2
:1009A000DEB79C838B831A82198211C02B813C8114
:1009B00089819A81F901E80FF91F8081282F8981A7
:1009C0009A8101969A838983822F0E9459042B81F0
:1009D0003C8189819A81F901E80FF91F8081882380
:1009E00029F70F900F900F900F90CF91DF910895FE
:1009F000DF93CF9300D000D0CDB7DEB79C838B833D
:100A00001A82198211C02B813C8189819A81F90156
:100A1000E80FF91F8081282F89819A8101969A8396
:100A20008983822F0E9470042B813C8189819A8165
:100A3000F901E80FF91F8081882329F70F900F90A3
:100A40000F900F90CF91DF910895DF93CF9300D057
:100A500000D0CDB7DEB79C838B831A82198211C078
:100A60002B813C8189819A81F901E80FF91F8081EE
:100A7000282F89819A8101969A838983822F0E94E7
:100A800087042B813C8189819A81F901E80FF91F44
:100A90008081882329F70F900F900F900F90CF91AE
:100AA000DF910895DF93CF9300D000D00F92CDB7A0
:100AB000DEB79B838A837D836C8319820FC0898113
:100AC000282F30E08A819B81FC01E20FF31F908187
:100AD00089818F5F8983892F0E9442048981282F11
:100AE00030E08C819D812817390748F30F900F90D3
:100AF0000F900F900F90CF91DF910895DF93CF93D8
:100B000000D000D000D0CDB7DEB79C838B837E832E
:100B10006D831A82198210C02B813C8189819A8150
:100B2000F901E80FF91F208189819A8101969A8342
:100B30008983822F0E94590429813A818D819E8167
:100B40002817390748F326960FB6F894DEBF0FBE74
:100B5000CDBFCF91DF910895DF93CF9300D000D028
:100B600000D0CDB7DEB79C838B837E836D831A82E2
:100B7000198210C02B813C8189819A81F901E80F8B
:100B8000F91F208189819A8101969A838983822F16
:100B90000E94700429813A818D819E81281739072E
:100BA00048F326960FB6F894DEBF0FBECDBFCF91A7
:100BB000DF910895DF93CF9300D000D000D0CDB760
:100BC000DEB79C838B837E836D831A82198210C06B
:100BD0002B813C8189819A81F901E80FF91F2081DD
:100BE00089819A8101969A838983822F0E94870442
:100BF00029813A818D819E812817390748F32696ED
:100C00000FB6F894DEBF0FBECDBFCF91DF91089530
:100C1000722F8A336CF5A82FBB27A7FDB095BA2F8A
:100C2000AA27B295B07F6A3374F5862F992787FD7E
:100C30009095C097382F22274A3374F5552747FDE2
:100C400050954053504042955295507F5427407FD5
:100C500054277A3374F1E72FFF27E7FDF095F797D4
:100C60002A2B3B2B242B352B2E2B3F2BC9010895F0
:100C7000A82FBB27A7FDB095D797BA2FAA27B29563
:100C8000B07F6A3394F2862F992787FD9095C79796
:100C9000382F22274A3394F2552747FD5095475362
:100CA000504042955295507F5427407F54277A33C5
:100CB00094F6E72FFF27E7FDF095F0972A2B3B2BC3
:100CC000242B352B2E2B3F2BC9010895EF92FF9239
:100CD0000F931F93DF93CF93CDB7DEB7CA50D140A8
:100CE0000FB6F894DEBF0FBECDBF9091090680917C
:100CF0008505891709F4A0C00E94060420913405D7
:100D0000E22FF0E0E25BF94F80832F5F2093340500
:100D10009091090680918505891771F71091350525
:100D2000211B30E02330310554F0E12FF0E0E25B8D
:100D3000F94F8081833C89F01F5F10933505C65FB2
:100D4000DE4F0FB6F894DEBF0FBECDBFCF91DF915F
:100D50001F910F91FF90EF9008951F5FE12FF0E03A
:100D60001150E25BF94FE081EA3509F40CC1E2353C
:100D700009F40CC1E13409F40FC1E43509F409C1E7
:100D8000E03509F412C1E73409F40CC1E13509F486
:100D900006C1E33509F435C1E63509F42FC1E43461
:100DA00009F429C1E03709F423C1E43609F41DC16F
:100DB000812F8E5F80933505ACE0B0E0182FA15FE6
:100DC000BB4F8C91A90142505040F2E0FF2EF10E32
:100DD000EF2DF0E0E25BF94FE081ED3581F1682F16
:100DE00070E0E9834130510509F4A9CF012F0D5F6F
:100DF000302F81E090E0DE011196681779078CF0C2
:100E0000E32FF0E0E25BF94F20812D3509F456C065
:100E1000FD01E80FF91F208301963F5F84179507B6
:100E200064F38417950709F48ACF681779075CF48F
:100E3000F80EF092350583CF209134056FCF60E036
:100E400070E0012F0D5F1F5FE12FF0E0E25BF94FD3
:100E50008081060F009335058A3509F44DC082352F
:100E600079F1813409F46EC0843509F4A1C080356C
:100E700009F432C1873409F40CC1813509F4D9C0B1
:100E8000833509F4C1C0863509F495C1843409F469
:100E9000B3C1803709F494C1843609F050CF20E003
:100EA00030E08091320590913305892B11F421E0D7
:100EB00030E0309333052093320541CFBC01B1CFF0
:100EC000161617060CF03BCF8E010F5F1F4F7801EF
:100ED000E60EF71E08C0843581F10F5F1F4F0E1517
:100EE0001F0509F42CCFF80180818035A1F782E03D
:100EF00090E00E94060AF1CF161617060CF01FCFDD
:100F00008E010F5F1F4F7801E60EF71E08C0843573
:100F100079F00F5F1F4F0E151F0509F410CFD80190
:100F20008C918035A1F70E940E0D0E945609F1CFD9
:100F30000E947A0F0E943309ECCF82E090E00E9479
:100F4000AA09CBCF161617060CF0F9CE8E010F5F4B
:100F50001F4F7801E60EF71E08C0843579F00F5F49
:100F60001F4F0E151F0509F4EACED8018C9180356C
:100F7000A1F781E090E00E94060AF1CF81E090E0C5
:100F80000E94AA09ECCFA0E0B0E019CFA1E0B0E048
:100F900016CFA3E0B0E013CFA2E0B0E010CFA6E000
:100FA000B0E00DCFA5E0B0E00ACFA4E0B0E007CFFD
:100FB000161617060CF0C3CE8E010F5F1F4F780177
:100FC000E60EF71E08C0843569F00F5F1F4F0E153F
:100FD0001F0509F4B4CEF80180818035A1F70E9485
:100FE0008E0CF3CF0E94CE0CF0CFABE0B0E0E7CE9A
:100FF000AAE0B0E0E4CEA9E0B0E0E1CEA8E0B0E045
:10100000DECEA7E0B0E0DBCE6830710509F097CE08
:1010100089816A814B812C810E9408060E941309F4
:101020008D816E814F8128850E9408060E941E09CD
:1010300086CE0E940E0D7C010E947A0F2DB73EB71E
:10104000285030400FB6F8943EBF0FBE2DBFEDB70D
:10105000FEB731968E01055F1F4FADB7BEB7129632
:101060001C930E9311972CEC33E033832283F5828B
:10107000E482978386830E94871BEDB7FEB738967C
:101080000FB6F894FEBF0FBEEDBFC8010E94F80472
:1010900056CEE0918305F091840509957C01E0919D
:1010A0000706F091080609952DB73EB72850304045
:1010B0000FB6F8943EBF0FBE2DBFEDB7FEB7319609
:1010C0008E01055F1F4FADB7BEB712961C930E93EE
:1010D00011972DE933E0C9CF2DB73EB72C513040E1
:1010E0000FB6F8943EBF0FBE2DBFEDB7FEB73196D9
:1010F0008E01055F1F4FADB7BEB712961C930E93BE
:1011000011978BEA92E09383828380914E079091AE
:101110004F07958384838091EA079091EB0797832B
:1011200086838091A4079091A507918780878091FD
:10113000540790915507A0915607B09157078287A1
:101140009387A487B5878091A2079091A30797877B
:1011500086878091A6079091A707918B808B8091BD
:10116000A8079091A907938B828B80915A07909141
:101170005B07958B848B8091500790915107A091CC
:101180005207B0915307868B978BA08FB18F8091B8
:101190009E0790919F07938F828F0E94871BEDB7C8
:1011A000FEB77C960FB6F894FEBF0FBEEDBFC80128
:1011B0000E94F804C4CD84E090E00E947909BFCD7C
:1011C0006930710509F0BBCD89818035D1F0843556
:1011D00009F0B5CD8A816B814C812D810E94080672
:1011E0008C018E816F81488529850E940806BC018B
:1011F000C8010E94620AA3CD83E090E00E947909B1
:101200009ECD8A816B814C812D810E9408068C01C4
:101210008E816F81488529850E940806BC01C8011E
:101220000E94EF0A8CCD929582958F7089279F70CE
:10123000892790931E0480931D04089592958295AA
:101240008F7089279F7089279093240480932304AB
:10125000089580911D0490911E04089580912304A7
:101260009091240408959C018091A0079091A1077A
:10127000029751F03093A7072093A607B90188E1A0
:1012800090E00E941D1C089580915A0790915B0781
:1012900096958795820F931F9093A7078093A60733
:1012A000BC0188E190E00E941D1C08959C01809182
:1012B0009C0790919D07029751F030934F07209320
:1012C0004E07B9018AE090E00E941D1C08958091AC
:1012D000A4079091A50796958795820F931F9093E9
:1012E0004F0780934E07BC018AE090E00E941D1CCE
:1012F000089584309105E9F08330910549F06091BB
:1013000058077091590780E090E00E941D1C0895D5
:10131000909359078093580789E299E09093840548
:10132000809383058EE299E09093080680930706E8
:10133000E6CF909359078093580789E59BE09093F7
:1013400084058093830585E59BE090930806809350
:101350000706D5CFAC018091A0079091A107841713
:10136000950731F04230510521F04130510589F1A6
:10137000089580915A0790915B07969587952091E3
:10138000A6073091A707281B390B3093A707209396
:10139000A60784EB90E09093A9078093A807509349
:1013A000A1074093A007BC018AE190E00E941D1CA8
:1013B0006091A6077091A70788E190E00E941D1C2C
:1013C0006091A0077091A1078CE190E00E941D1C24
:1013D000089520915A0730915B07369527958091A3
:1013E000A6079091A707820F931F9093A70780935A
:1013F000A6071092A9071092A8075093A10740933F
:10140000A0076091A8077091A907CECFAC01809189
:101410009C0790919D078417950731F04230510544
:1014200021F04130510589F108958091A4079091F0
:10143000A5079695879520914E0730914F07281B59
:10144000390B30934F0720934E0784EB90E0909335
:10145000EB078093EA0750939D0740939C07BC01DC
:101460008CE090E00E941D1C60914E0770914F0728
:101470008AE090E00E941D1C60919C0770919D077E
:101480008EE090E00E941D1C08952091A4073091E9
:10149000A5073695279580914E0790914F07820FAB
:1014A000931F90934F0780934E071092EB07109273
:1014B000EA0750939D0740939C076091EA0770915B
:1014C000EB07CECF6F927F928F929F92AF92BF9297
:1014D000CF92DF92EF92FF920F931F935C014B012B
:1014E0000091A6071091A70760909E0770909F0734
:1014F000681B790B80E090E00E947F146B017C01F7
:1015000020E030E044EB53E40E94851220E030E01C
:1015100047E853E40E947F130E942B149B017093B1
:101520005B0760935A07C50188199909820F931FB9
:10153000969587959501281B390B30939F0720932B
:101540009E0706191709020F131F1093A707009390
:10155000A60760E070E087E893E4A70196010E9487
:101560007F136093500770935107809352079093B5
:10157000530788E190E0B8010E941D1C60915A0752
:1015800070915B0784E190E00E941D1C60919E07B2
:1015900070919F0786E190E00E941D1C40915007CA
:1015A00050915107609152077091530780E190E08C
:1015B0000E94151CB0922804A09227049092260441
:1015C000809225041F910F91FF90EF90DF90CF90B4
:1015D000BF90AF909F908F907F906F900895CF9223
:1015E000DF92EF92FF920F931F937C016B010091AA
:1015F0004E0710914F078091A2079091A307081BF7
:10160000190B0E0D1F1D10934F0700934E07F092FC
:10161000A307E092A2076E197F097093A507609354
:10162000A40780E090E00E947F149B01AC0160E081
:1016300070E084EB93E40E947F13609354077093EF
:10164000550780935607909357078AE090E0B801BA
:101650000E941D1C6091A2077091A30788E090E092
:101660000E941D1C6091A4077091A50786E090E080
:101670000E941D1C409154075091550760915607D8
:101680007091570782E090E00E94151CF0922204AE
:10169000E0922104D0922004C0921F041F910F9168
:1016A000FF90EF90DF90CF90089583E00E94660254
:1016B000089580E00E94660208956F927F928F9253
:1016C0009F92AF92BF92CF92DF92EF92FF920F93D1
:1016D0001F93CF93DF93A0911D04B0911E046091DE
:1016E0002304709124047D0100E010E09B0140E0A0
:1016F00050E0A0903C05B0903D05C0903E05D090D4
:101700003F056090360570903705809038059090C1
:10171000390580E090E0FC01E45AF84FB183A083E2
:10172000FC01E655F84F7183608302968034910581
:1017300091F7220F331F441F551F220F331F441FE1
:10174000551F220F331F441F551F220F331F441FE5
:10175000551F220F331F441F551FA20EB31EC41E58
:10176000D51EA0923C05B0923D05C0923E05D09298
:101770003F05EE0CFF1C001F111FEE0CFF1C001F8D
:10178000111FEE0CFF1C001F111FEE0CFF1C001F91
:10179000111FEE0CFF1C001F111F6E0C7F1C801E02
:1017A000911E6092360570923705809238059092AE
:1017B0003905C9E2D9E0D0938405C09383050EE2D0
:1017C00019E0109308060093070680E090E00E945D
:1017D0000F1C8430910509F490C08330910509F401
:1017E0007FC0609158077091590780E090E00E9497
:1017F0001D1C82E090E00E94091C609354077093C6
:101800005507809356079093570788E090E00E9411
:101810000F1C9093A3078093A20786E090E00E949C
:101820000F1C9093A5078093A4078EE090E00E9480
:101830000F1C90939D0780939C078AE090E00E9484
:101840000F1C90934F0780934E078CE090E00E940E
:101850000F1C9093EB078093EA0780E190E00E94D1
:10186000091C60935007709351078093520790931F
:10187000530786E190E00E940F1C90939F0780938E
:101880009E0784E190E00E940F1C90935B07809379
:101890005A078CE190E00E940F1C9093A10780935F
:1018A000A00788E190E00E940F1C9093A707809307
:1018B000A6078AE190E00E940F1C9093A9078093ED
:1018C000A807DF91CF911F910F91FF90EF90DF90CC
:1018D000CF90BF90AF909F908F907F906F90089522
:1018E0009093590780935807D0938405C09383053C
:1018F000109308060093070674CF909359078093BE
:10190000580789E59BE0909384058093830585E5DE
:101910009BE0909308068093070663CF80919C0715
:1019200090919D0740E050E0009711F441E050E0B5
:101930008417950719F04130510509F00895209159
:10194000A4073091A5073695279580914E07909171
:101950004F07820F931F90934F0780934E0710926B
:10196000EB071092EA0750939D0740939C078CE089
:1019700090E060E070E00E941D1C60914E07709145
:101980004F078AE090E00E941D1C60919C077091B7
:101990009D078EE090E00E941D1C08958091A00795
:1019A0009091A10740E050E0009711F441E050E031
:1019B0008417950719F04130510509F008952091D9
:1019C0005A0730915B07369527958091A60790912D
:1019D000A707820F931F9093A7078093A6071092E3
:1019E000A9071092A8075093A1074093A0078AE186
:1019F00090E060E070E00E941D1C6091A60770916D
:101A0000A70788E190E00E941D1C6091A0077091DB
:101A1000A1078CE190E00E941D1C0895CF92DF92F7
:101A2000EF92FF920F931F93DF93CF93CDB7DEB763
:101A3000C254D0400FB6F894DEBF0FBECDBF0091A8
:101A40003A0510913B05000F111F045A184FF80179
:101A50002081318140E050E080913605909137053A
:101A6000A0913805B0913905821B930BA40BB50BDF
:101A70008093360590933705A0933805B0933905C8
:101A8000E0918305F09184050995F80191838083A5
:101A900060913A0570913B05FB01EE0FFF1FE45A80
:101AA000F84F2081318140E050E0809136059091DF
:101AB0003705A0913805B0913905820F931FA41FF7
:101AC000B51F8093360590933705A0933805B093E2
:101AD00039056F5F7F4F6F71707070933B05609336
:101AE0003A058CE597E0BE016F5F7F4F40E250E022
:101AF0000E94341229A13AA1C0901F04D090200462
:101B0000C216D30608F08EC03093200420931F0421
:101B100069012091A2073091A3078091A4079091B9
:101B2000A507820F931F8C159D0508F487C0E090D0
:101B30002104F0902204E216F30608F054C000914C
:101B40004E0710914F070E0D1F1D021B130B109314
:101B50004F0700934E07F092A307E092A207B60149
:101B60006E197F097093A5076093A40780E090E049
:101B70000E947F149B01AC0160E070E084EB93E471
:101B80000E947F1360935407709355078093560704
:101B9000909357078AE090E0B8010E941D1C609165
:101BA000A2077091A30788E090E00E941D1C60913D
:101BB000A4077091A50786E090E00E941D1C40914B
:101BC000540750915507609156077091570782E06E
:101BD00090E00E94151CF0922204E0922104D09221
:101BE0002004C0921F048091360590913705A09182
:101BF0003805B091390515E0B695A7959795879565
:101C00001A95D1F7CE5BDF4F0FB6F894DEBF0FBE4B
:101C1000CDBFCF91DF911F910F91FF90EF90DF909B
:101C2000CF900895809121049091220428173907BC
:101C3000D0F630932204209321046BCFE09021044E
:101C4000F09022047CCFCF92DF92EF92FF920F931D
:101C50001F93DF93CF93CDB7DEB7C254D0400FB6FA
:101C6000F894DEBF0FBECDBF00913A0510913B0541
:101C7000000F111F045A184FF8012081318140E0F4
:101C800050E08091360590913705A0913805B091CC
:101C90003905821B930BA40BB50B809336059093EB
:101CA0003705A0933805B0933905E0918305F0918D
:101CB00084050995F8019183808360913A057091BC
:101CC0003B05FB01EE0FFF1FE45AF84F20813181E5
:101CD00040E050E08091360590913705A09138059D
:101CE000B0913905820F931FA41FB51F809336054D
:101CF00090933705A0933805B09339056F5F7F4FF8
:101D00006F71707070933B0560933A058CE597E0B6
:101D1000BE016F5F7F4F40E250E00E94341229A164
:101D20003AA1C0901F04D0902004C216D30608F038
:101D3000C0C03093200420931F0469012091A207A2
:101D40003091A3076091A4077091A507C901860F80
:101D5000971F8C159D0508F44FC0E0902104F0906A
:101D60002204E216F30608F44BC0809136059091E8
:101D70003705A0913805B091390525E0B695A795AE
:101D8000979587952A95D1F79C0180914E07909160
:101D90004F07AB01481B590BCA01820F931F0E94CA
:101DA0001B1AA0E0B0E0BC01CD010E947F1420917D
:101DB00054073091550740915607509157070E949C
:101DC00085120E942B149B01AC018091EA0790912F
:101DD000EB07281B390BC901CE5BDF4F0FB6F89418
:101DE000DEBF0FBECDBFCF91DF911F910F91FF904E
:101DF000EF90DF90CF900895E0902104F0902204BE
:101E000000914E0710914F070E0D1F1D021B130B63
:101E100010934F0700934E07F092A307E092A2079A
:101E2000B6016E197F097093A5076093A40780E03F
:101E300090E00E947F149B01AC0160E070E084EBB5
:101E400093E40E947F136093540770935507809327
:101E50005607909357078AE090E0B8010E941D1C36
:101E60006091A2077091A30788E090E00E941D1C7A
:101E70006091A4077091A50786E090E00E941D1C68
:101E8000409154075091550760915607709157073C
:101E900082E090E00E94151CF0922204E09221045E
:101EA000D0922004C0921F046091A4077091A507EE
:101EB0005CCF80912104909122042817390728F4DF
:101EC000309322042093210439CF809136059091DC
:101ED0003705A0913805B091390535E0B695A7953D
:101EE000979587953A95D1F79C016091A4077091D9
:101EF000A5074BCF6F927F928F929F92AF92BF9226
:101F0000CF92DF92EF92FF920F931F93DF93CF93C5
:101F1000CDB7DEB7C254D0400FB6F894DEBF0FBEC7
:101F2000CDBF0091400510914105000F111F0655CE
:101F3000184FF8012081318140E050E080913C054C
:101F400090913D05A0913E05B0913F05821B930BFA
:101F5000A40BB50B80933C0590933D05A0933E05E3
:101F6000B0933F05E0910706F09108060995F80146
:101F7000918380836091400570914105FB01EE0FD4
:101F8000FF1FE655F84F2081318140E050E08091FD
:101F90003C0590913D05A0913E05B0913F05820F13
:101FA000931FA41FB51F80933C0590933D05A093FC
:101FB0003E05B0933F056F5F7F4F6F7170707093F8
:101FC0004105609340058AEA97E0BE016F5F7F4F4D
:101FD00040E250E00E94341229A13AA180902504E9
:101FE000909026048216930608F0AFC03093260422
:101FF000209325044901A0909E07B0909F078091EF
:102000005A0790915B078A0D9B1D8815990508F466
:10201000A8C060902704709028046A147B0408F01C
:102020006FC00091A6071091A707B4016619770940
:1020300080E090E00E947F146B017C0120E030E0A2
:1020400044EB53E40E94851220E030E047E853E47B
:102050000E947F130E942B149B0170935B07609377
:102060005A07C30188199909820F931F969587957E
:102070009301281B390B30939F0720939E070A1961
:102080001B09020F131F1093A7070093A60760E018
:1020900070E087E893E4A70196010E947F136093A4
:1020A000500770935107809352079093530788E12C
:1020B00090E0B8010E941D1C60915A0770915B0767
:1020C00084E190E00E941D1C60919E0770919F0723
:1020D00086E190E00E941D1C4091500750915107ED
:1020E000609152077091530780E190E00E94151CA7
:1020F000709228046092270490922604809225040E
:1021000080913C0590913D05A0913E05B0913F0521
:1021100065E0B695A795979587956A95D1F7CE5BBB
:10212000DF4F0FB6F894DEBF0FBECDBFCF91DF916A
:102130001F910F91FF90EF90DF90CF90BF90AF90E5
:102140009F908F907F906F90089580912704909139
:10215000280428173907A0F6309328042093270471
:102160004ACF60902704709028045BCF6F927F92D3
:102170008F929F92AF92BF92CF92DF92EF92FF9297
:102180000F931F93DF93CF93CDB7DEB7C254D040E8
:102190000FB6F894DEBF0FBECDBF00914005109181
:1021A0004105000F111F0655184FF801208131819C
:1021B00040E050E080913C0590913D05A0913E05A6
:1021C000B0913F05821B930BA40BB50B80933C058C
:1021D00090933D05A0933E05B0933F05E09107061F
:1021E000F09108060995F80191838083609140057C
:1021F00070914105FB01EE0FFF1FE655F84F20815E
:10220000318140E050E080913C0590913D05A091E6
:102210003E05B0913F05820F931FA41FB51F809309
:102220003C0590933D05A0933E05B0933F056F5F3D
:102230007F4F6F71707070934105609340058AEA1B
:1022400097E0BE016F5F7F4F40E250E00E94341282
:1022500029A13AA180902504909026048216930625
:1022600008F0E1C030932604209325044901A09092
:102270009E07B0909F0760915A0770915B07C50158
:10228000860F971F8815990508F455C0609027049C
:10229000709028046A147B0408F451C080913C05B6
:1022A00090913D05A0913E05B0913F0515E0B69592
:1022B000A795979587951A95D1F79C018091A607C8
:1022C0009091A707AB01481B590BCA01820F931FBE
:1022D0000E941B1AA0E0B0E0BC01CD010E947F1457
:1022E0002091500730915107409152075091530768
:1022F0000E9485120E942B149B01AC018091A807BB
:102300009091A907281B390BC901CE5BDF4F0FB68F
:10231000F894DEBF0FBECDBFCF91DF911F910F911B
:10232000FF90EF90DF90CF90BF90AF909F908F90F5
:102330007F906F900895609027047090280400911A
:10234000A6071091A707B4016619770980E090E00D
:102350000E947F146B017C0120E030E044EB53E4E9
:102360000E94851220E030E047E853E40E947F138A
:102370000E942B149B0170935B0760935A07C30163
:1023800088199909820F931F969587959301281BA9
:10239000390B30939F0720939E070A191B09020FE0
:1023A000131F1093A7070093A60760E070E087E86B
:1023B00093E4A70196010E947F13609350077093E6
:1023C0005107809352079093530788E190E0B8013A
:1023D0000E941D1C60915A0770915B0784E190E098
:1023E0000E941D1C60919E0770919F0786E190E0FE
:1023F0000E941D1C40915007509151076091520757
:102400007091530780E190E00E94151C709228049F
:1024100060922704909226048092250460915A07C6
:1024200070915B073BCF8091270490912804281777
:10243000390728F4309328042093270418CF80917B
:102440003C0590913D05A0913E05B0913F0535E0DA
:10245000B695A795979587953A95D1F79C01609188
:102460005A0770915B072ACFCF92DF92EF92FF92CB
:102470000F931F93CF93DF936C017A0141155105A0
:10248000C1F18B010450104040E050E0E0E0F0E08A
:10249000EE0FFF1FEC0DFD1D80819181411551054F
:1024A000D1F0FA01E801AA81BB818A179B0750F598
:1024B0009A01E80107C0F901A881B98122978A171A
:1024C0009B0700F5EE0FFF1FE60FF71FB183A083F8
:1024D0002150304081F7E0E0F0E0E60FF71F9183F4
:1024E00080834F5F5F4FFA010E5F1F4F4E155F05F0
:1024F00078F2DF91CF911F910F91FF90EF90DF90D5
:10250000CF900895EE0FFF1FE8CFA0E2B0E0EBE818
:10251000F2E10C942F1A69837A838B839C832D8339
:102520003E834F835887CE010196BE01675F7F4F80
:102530000E941C16CE010596BE016F5E7F4F0E9461
:102540001C169985923088F089898230C8F09430C1
:1025500019F4823051F404C0843029F4923081F4AB
:1025600089E294E0C6C0923049F420E09A858A89D5
:10257000981321E02A87CE010996BBC0823049F426
:1025800020E09A858A89981321E02A8BCE01419612
:10259000B0C02D843E844F8458886D887E888F8893
:1025A000988CEE24FF248701AA24BB24650140E017
:1025B00050E060E070E0E0E0F0E0C1018170907018
:1025C000892BE9F0E60CF71C081D191D9A01AB01D7
:1025D0002A0D3B1D4C1D5D1D80E090E0A0E0B0E0A9
:1025E000E614F7040805190520F481E090E0A0E066
:1025F000B0E0BA01A901480F591F6A1F7B1FAA0C3E
:10260000BB1CCC1CDD1C97FE08C081E090E0A0E064
:10261000B0E0A82AB92ACA2ADB2A3196E032F105AD
:1026200049F0660C771C881C991C56944794379483
:102630002794C3CFFA85EA892B893C898B859C85B1
:10264000280F391F2E5F3F4F17C0CA01817090704D
:10265000892B61F016950795F794E79480E090E058
:10266000A0E0B0E8E82AF92A0A2B1B2B769567959B
:10267000579547952F5F3F4F77FDE7CF0CC0440F2D
:10268000551F661F771F17FD4160EE0CFF1C001FD2
:10269000111F21503040403090E0590790E0690709
:1026A00090E4790760F32B8F3C8FDB01CA018F77B1
:1026B0009070A070B07080349105A105B10561F4EF
:1026C00047FD0AC0E114F1040105110529F0405C41
:1026D0005F4F6F4F7F4F40781A8EFE1711F081E0E9
:1026E0008A8F4D8F5E8F6F8F78A383E0898FCE01A5
:1026F00049960E944715A096E2E10C944B1AA8E176
:10270000B0E0E5E8F3E10C94371A69837A838B83B0
:102710009C832D833E834F835887B9E0EB2EF12CA9
:10272000EC0EFD1ECE010196B7010E941C168E0113
:102730000F5E1F4FCE010596B8010E941C16298519
:10274000223008F47EC03989323010F4B8017CC0E0
:102750008A859A8989278A87243011F0223031F4BA
:10276000231709F06EC069E274E06EC0343039F4AA
:102770001D861E861F86188A1C861B8604C0323062
:1027800021F484E08987B7015FC02B853C858B8964
:102790009C89281B390B3C872B87ED84FE840F8591
:1027A0001889AD88BE88CF88D88CEA14FB040C0544
:1027B0001D0540F4EE0CFF1C001F111F215030407E
:1027C0003C872B8720E030E040E050E080E090E064
:1027D000A0E0B0E460E070E0EA14FB040C051D0525
:1027E00040F0282B392B4A2B5B2BEA18FB080C09ED
:1027F0001D09B695A79597958795EE0CFF1C001FB0
:10280000111F6F5F7F4F6F31710531F7DA01C90119
:102810008F779070A070B07080349105A105B105DC
:1028200061F427FD0AC0E114F1040105110529F046
:10283000205C3F4F4F4F5F4F20782D873E874F875B
:10284000588BBE01675F7F4FCB010E94471568968A
:10285000EAE00C94531AACE0B0E0E1E3F4E10C944C
:102860003F1A69837A838B839C83CE010196BE01D4
:102870006B5F7F4F0E941C168D81823061F1823028
:1028800050F1843021F48E81882351F12EC02F81A4
:10289000388537FD20C06E812F3131051CF066234D
:1028A000F9F023C08EE190E0821B930B29853A85D5
:1028B0004B855C8504C056954795379527958A9535
:1028C000D2F76623B1F050954095309521953F4F52
:1028D0004F4F5F4F0EC020E030E040E050E009C0B5
:1028E0002FEF3FEF4FEF5FE704C020E030E040E024
:1028F00050E8B901CA012C96E2E00C945B1AA8E0FA
:10290000B0E0E5E8F4E10C94371A7B018C01611525
:1029100071058105910519F482E0898360C083E027
:1029200089838EE1C82ED12CDC82CB82ED82FE829F
:102930000F831887C801B7010E94F814FC01319772
:10294000F7FF3BC0222733272E1B3F0B570168019F
:10295000022E04C0D694C794B794A7940A94D2F7D1
:1029600040E050E060E070E081E090E0A0E0B0E0A6
:1029700004C0880F991FAA1FBB1F2A95D2F7019781
:10298000A109B1098E219F21A023B1230097A105A0
:10299000B10521F041E050E060E070E04A295B2998
:1029A0006C297D294D835E836F8378878EE190E06B
:1029B0008E1B9F0B9C838B8312C0309781F00E2E51
:1029C00004C0EE0CFF1C001F111F0A94D2F7ED8209
:1029D000FE820F831887CE1ADF0ADC82CB821A822E
:1029E000CE0101960E9447152896EAE00C94531AEE
:1029F000EF92FF920F931F937B018C0180E0E8160A
:102A000080E0F80681E0080780E0180788F48FEF7F
:102A1000E816F1040105110531F028F088E090E096
:102A2000A0E0B0E017C080E090E0A0E0B0E012C00D
:102A300080E0E81680E0F80680E0080781E01807EB
:102A400028F088E190E0A0E0B0E004C080E190E0F0
:102A5000A0E0B0E020E230E040E050E0281B390B7D
:102A60004A0B5B0B04C016950795F794E7948A957B
:102A7000D2F7F701EF5CFB4F8081281B3109410938
:102A80005109C9011F910F91FF90EF900895DF92B6
:102A9000EF92FF920F931F93FC01E480F580068173
:102AA0001781D1808081823048F480E090E0A0E1FD
:102AB000B0E0E82AF92A0A2B1B2BA5C0843009F4C0
:102AC0009FC0823021F4EE24FF24870105C0E11469
:102AD000F1040105110519F4E0E0F0E096C062810F
:102AE00073819FEF623879070CF05BC022E83FEFFB
:102AF000261B370B2A3131052CF020E030E040E076
:102B000050E02AC0B801A701022E04C0769567954F
:102B1000579547950A94D2F781E090E0A0E0B0E0A5
:102B200004C0880F991FAA1FBB1F2A95D2F70197CF
:102B3000A109B1098E219F21A023B1230097A105EE
:102B4000B10521F081E090E0A0E0B0E09A01AB0196
:102B5000282B392B4A2B5B2BDA01C9018F77907018
:102B6000A070B07080349105A105B10539F427FF3C
:102B700009C0205C3F4F4F4F5F4F04C0215C3F4F67
:102B80004F4F5F4FE0E0F0E02030A0E03A07A0E0D8
:102B90004A07A0E45A0710F0E1E0F0E079018A0169
:102BA00027C06038710564F5FB01E158FF4FD8017B
:102BB000C7018F779070A070B07080349105A10527
:102BC000B10539F4E7FE0DC080E490E0A0E0B0E08C
:102BD00004C08FE390E0A0E0B0E0E80EF91E0A1F09
:102BE0001B1F17FF05C016950795F794E7943196BC
:102BF00087E016950795F794E7948A95D1F705C075
:102C0000EE24FF248701EFEFF0E06E2F6795662733
:102C10006795902F9F77D794DD24D7948E2F869534
:102C2000492F462B582F5D29B701CA011F910F91DB
:102C3000FF90EF90DF900895FC01DB01408151810E
:102C40002281622F6F7770E0221F2227221F93813B
:102C5000892F880F822B282F30E0991F9927991FE1
:102C600011969C93119721153105A9F54115510530
:102C70006105710511F482E037C082E89FEF139679
:102C80009C938E9312979A01AB0167E0220F331F3A
:102C9000441F551F6A95D1F783E08C930DC0220F16
:102CA000331F441F551F12968D919C9113970197C6
:102CB00013969C938E931297203080E0380780E023
:102CC000480780E4580758F314962D933D934D938D
:102CD0005C93179708952F3F310579F441155105FD
:102CE0006105710519F484E08C93089564FF03C0B5
:102CF00081E08C9312C01C9210C02F573040139665
:102D00003C932E93129783E08C9387E0440F551FDA
:102D1000661F771F8A95D1F7706414964D935D9363
:102D20006D937C9317970895A1E1B0E0EAE9F6E18D
:102D30000C942F1A3C017F876E876A01FC01178271
:102D40001682838181FD03C06FEF7FEF6FC39E0109
:102D50002F5F3F4F398B288BF3012381EE85FF8551
:102D600023FD859123FF8191FF87EE87882309F456
:102D70005AC3853251F4EE85FF8523FD859123FFEB
:102D80008191FF87EE87853229F490E0B3010E949C
:102D90005B1BE2CF982F10E0882499241032B0F406
:102DA0009B3269F09C3228F4903251F0933271F4E6
:102DB0000BC09D3239F0903349F4116028C0126085
:102DC000146025C0186023C0106121C017FD2AC0FF
:102DD000892F80538A3078F416FF06C0FAE09F9E50
:102DE000902C1124980E13C03AE0839E802C11245D
:102DF000880E10620CC09E3221F416FD14C31064BC
:102E000006C09C3611F4106802C0983659F4EE855D
:102E1000FF8523FD959123FF9191FF87EE879923ED
:102E200009F0BCCF892F8554833020F4812F806135
:102E3000905E07C0892F8556833008F09FC1812F8F
:102E40008F7E86FD02C076E0972E6FE3F62EF82285
:102E5000953619F4F0E4FF2A07C0963619F420E8F5
:102E6000F22A02C091109A94F7FE0AC03BE339158A
:102E700018F45CE3B52E02C0B92CB39427E009C066
:102E800047E0491520F4BB2447E0942EF7CF292DC5
:102E9000BB24C60104969D878C87F60160817181F1
:102EA00082819381AE014F5F5F4F0B2D0E94661AA6
:102EB0006C010981202E332400FF04C003FD02C0F1
:102EC0001DE209C0F1FE02C01BE205C0F2FC02C017
:102ED00010E001C010E2C1018C709070892BB9F133
:102EE000112311F483E001C084E0881510F08824D8
:102EF0000AC0881AF3FC07C080E290E0B3010E9488
:102F00005B1B8A94C9F7112329F0812F90E0B3014C
:102F10000E945B1B23FE03C004EE10E00EC008EE0F
:102F200010E00BC0E114F10409F0805290E0B3010D
:102F30000E945B1B0F5F1F4F05C0EF2CFF24F0E1C9
:102F4000EF22FF24F8018491882361F714C1F7FE72
:102F500012C0BC0C24FE04C08A81813309F4BA94E7
:102F60001B141CF0BB24B3942DC0F8E0FB1550F5E6
:102F700038E0B32E27C0F6FC25C0892D90E08C15D3
:102F80009D054CF02CEFC2162FEFD20624F030E84E
:102F9000F32A01C09A94992049F0E2E0F0E0EC0FA6
:102FA000FD1FE90DF11D80818033A1F3F7FE0AC0FA
:102FB000B92CB394892D90E0C816D90614F0992441
:102FC00001C09C18F7FC03C025E030E009C01C14C8
:102FD0001D041CF021E030E003C096012F5F3F4F3D
:102FE000112311F02F5F3F4F992029F0892D90E098
:102FF0000196280F391F882D90E02817390714F003
:10300000882401C0821A4F2C5524C2018970907007
:10301000892B39F008C080E290E0B3010E945B1B6D
:103020008A948820C1F7112329F0812F90E0B30101
:103030000E945B1B43FE07C008C080E390E0B30121
:103040000E945B1B8A948820C1F7F7FE46C0860168
:10305000D7FE02C000E010E076010894E11CF11CEC
:10306000E01AF10A41E050E04C0F5D1FE40EF51E3E
:1030700026014B185108892D90E0AA24BB24A81AD8
:10308000B90A5FEF0F3F150729F48EE290E0B30114
:103090000E945B1BC016D10634F0401651061CF48A
:1030A000F701808101C080E3015010400894E11CC9
:1030B000F11C0A151B052CF090E0B3010E945B1B6C
:1030C000E0CF0C151D0539F49A81963318F4953329
:1030D00011F424FE81E390E04BC08A81813309F032
:1030E0000F7E90E0B3010E945B1B9920A1F08EE25D
:1030F00090E0B3010E945B1B12E0E1E0F0E0EC0F16
:10310000FD1FE10FF11D1F5F808190E0B3010E9460
:103110005B1B9A9491F744FC03C085E690E002C0E3
:1031200085E490E0B3010E945B1BD7FC05C0C1148D
:10313000D10441F404FF06C0D094C194D108D394C3
:103140008DE201C08BE290E0B3010E945B1B80E343
:1031500005C08F5F26EF3FEFC20ED31E3AE0C316C5
:10316000D104BCF790E0B3010E945B1BC601C0967E
:10317000B3010E945B1BCC84DD8452C1933631F0D5
:10318000933799F0933509F059C023C0F601808137
:1031900089835E010894A11CB11C22E030E0C20EBC
:1031A000D31E21E0E22EF12C12C0F601A080B180E6
:1031B00016FD03C06FEF7FEF02C0692D70E022E0C3
:1031C00030E0C20ED31EC5010E94501B7C011F7748
:1031D00013C0F601A080B18016FD03C06FEF7FEF32
:1031E00002C0692D70E022E030E0C20ED31EC5019E
:1031F0000E943E1B7C01106813FF07C01BC080E2C9
:1032000090E0B3010E945B1B8A94882D90E0E81641
:10321000F906A8F30FC0F50117FD859117FF8191FD
:103220005F0190E0B3010E945B1B81108A940894B7
:10323000E108F108E114F10471F7F2C0943611F0DD
:10324000993689F517FF08C0F60120813181428146
:10325000538184E090E00AC0F601808191819C0155
:10326000442737FD4095542F82E090E0C80ED91EC8
:103270009FE6F92EF12257FF09C0509540953095F1
:1032800021953F4F4F4F5F4F90E8F92ACA01B9018E
:10329000AE014F5F5F4F2AE030E00E94AB1BE82E8B
:1032A000E889EE1A41C0953721F41F7E2AE030E00C
:1032B0001CC0197F9F3661F0903720F4983509F0D3
:1032C000B2C00FC0903739F0983709F0ACC004C0D5
:1032D00028E030E00AC0106114FD146020E130E005
:1032E00004C014FD166020E132E017FF08C0F601AB
:1032F000608171818281938144E050E008C0F601D1
:1033000080819181BC0180E090E042E050E0C40EF9
:10331000D51EAE014F5F5F4F0E94AB1BE82E588950
:10332000E51A8FE7F82EF122F6FE0BC08EEFF82299
:10333000E91438F4F4FE07C0F2FC05C09FEEF92250
:1033400002C01E2D01C0192DF4FE0DC0FE01EE0DB0
:10335000F11D8081803319F4E9EEFE2208C01F5F61
:10336000F2FE05C003C08F2D867809F01F5F0F2D78
:10337000F3FC14C0F0FE0FC0181510F09E2C0BC00B
:103380009E2C980C911A182D06C080E290E0B30193
:103390000E945B1B1F5F1815C0F304C0181510F4C2
:1033A000811A01C0882404FF0FC080E390E0B301BC
:1033B0000E945B1B02FF1DC001FD03C088E790E077
:1033C0000EC088E590E00BC0802F867891F001FF59
:1033D00002C08BE201C080E2F7FC8DE290E0B30115
:1033E0000E945B1B06C080E390E0B3010E945B1B60
:1033F0009A94E914C0F3EA94E1E0F0E0EC0FFD1FC9
:10340000EE0DF11D808190E0B3010E945B1BEE2068
:1034100091F706C080E290E0B3010E945B1B8A94A2
:103420008820C1F799CCF30166817781CB01619641
:10343000E2E10C944B1AAA1BBB1B51E107C0AA1F67
:10344000BB1FA617B70710F0A61BB70B881F991F45
:103450005A95A9F780959095BC01CD0108952F92BA
:103460003F924F925F926F927F928F929F92AF9214
:10347000BF92CF92DF92EF92FF920F931F93CF9361
:10348000DF93CDB7DEB7CA1BDB0B0FB6F894DEBFF8
:103490000FBECDBF09942A88398848885F846E841E
:1034A0007D848C849B84AA84B984C884DF80EE8068
:1034B000FD800C811B81AA81B981CE0FD11D0FB671
:1034C000F894DEBF0FBECDBFED010895283008F09F
:1034D00027E03327DA01990F311D87FD91600096AF
:1034E0006105710539F432602E5F3D9330E32A9512
:1034F000E1F708959F3F30F080387105610509F0CC
:103500003C5F3C5F3D93913008F08068911DDF93F4
:10351000CF931F930F93FF92EF92192F987F969559
:10352000E92F96959695E90FFF27EA5BFE4F9927BD
:103530003327EE24FF24A701E701059008940794A0
:1035400028F4360FE71EF81E491F511D660F771F1E
:10355000881F991F0694A1F70590079428F4E70E99
:10356000F81E491F561FC11D770F881F991F661F20
:103570000694A1F70590079428F4F80E491F561FEA
:10358000C71FD11D880F991F661F771F0694A1F7CB
:103590000590079420F4490F561FC71FD81F990F95
:1035A000661F771F881F0694A9F7849110951770DE
:1035B00041F0D695C79557954795F794E7941A9596
:1035C000C1F7ECEEF0E06894159015913591659196
:1035D000959105907FE27395E118F10A430B560B24
:1035E000C90BD009C0F7E10CF11E431F561FC91FBC
:1035F000D01D7EF4703311F48A95E6CFE894015023
:1036000030F0080F0AF40027021708F4202F239542
:10361000022F7A3328F079E37D932A95E9F710C0D9
:103620007D932A9589F60694979567953795179512
:103630001794E118F10A430B560BC90BD00998F007
:1036400023957E9173957A3308F070E37C93201371
:10365000B8F77E9170617D9330F0839571E37D932F
:1036600070E32A95E1F71124EF90FF900F911F91DD
:10367000CF91DF91992787FD90950895FC010590E2
:10368000615070400110D8F7809590958E0F9F1F64
:103690000895DC0101C06D9341505040E0F708955A
:1036A000FC016150704001900110D8F78095909511
:1036B0008E0F9F1F08950F931F93CF93DF938C015D
:1036C000EB018B8181FF1BC082FF0DC02E813F81EA
:1036D0008C819D812817390764F4E881F981019371
:1036E000F983E88306C0E885F985802F0995892B41
:1036F00031F48E819F8101969F838E8302C00FEFEC
:103700001FEFC801DF91CF911F910F910895AEE097
:10371000B0E0EDE8FBE10C943D1A0D891E8986E0CE
:103720008C831A8309838FEF9FE79E838D839E018D
:10373000275E3F4FCE0101966F89788DA9010E94C7
:1037400094162F813885020F131FF80110822E96D0
:10375000E4E00C94591AFA01AA27283051F12031DB
:1037600081F1E8946F936E7F6E5F7F4F8F4F9F4F15
:10377000AF4FB1E03ED0B4E03CD0670F781F891F57
:103780009A1FA11D680F791F8A1F911DA11D6A0F25
:10379000711D811D911DA11D20D009F468943F91D8
:1037A0002AE0269F11243019305D3193DEF6CF01D7
:1037B0000895462F4770405D4193B3E00FD0C9F79D
:1037C000F6CF462F4F70405D4A3318F0495D31FD0A
:1037D0004052419302D0A9F7EACFB4E0A69597955D
:1037E000879577956795BA95C9F700976105710533
:1037F00008959B01AC010A2E06945795479537957D
:103800002795BA95C9F7620F731F841F951FA01DD6
:103810000895A6E1B0E044E050E00C94241CA8E137
:10382000B0E042E050E00C94241C242F0E94331C92
:10383000252F0E94331C0C941D1C0E94321C272F24
:103840000C94331CDC01CB01FC01F999FECF06C0BE
:10385000F2BDE1BDF89A319600B40D92415050404E
:10386000B8F70895262FF999FECF1FBA92BD81BDF2
:1038700020BD0FB6F894FA9AF99A0FBE01960895F2
:04388000F894FFCFEA
:103884001B5B333231307C0042554420746F20423C
:103894004F422D3420416E676C65204F7665726C03
:1038A4006179206170706C69636174696F6E0A0D6F
:1038B40072656164790A0D001B5B31346D1B5B36E4
:1038C400366D1B5B324A001B5B31346D1B5B363635
:1038D4006D001B5B303B3048002050414E3A25348C
:1038E40064205241573A2535642053414D503A25BE
:1038F400356420001B5B313B30480020544C543A63
:10390400253464205241573A2535642053414D50A3
:103914003A25356420002050414E3A253464200075
:1039240020544C543A2534642000400A0D50414E32
:1039340020582053484946543A20202535752020E4
:1039440050414E20592053484946543A2020252DB1
:10395400336420646567090909090909200A0D50BF
:10396400414E2052414E47453A20202020253575AE
:10397400202050414E20534C4F50453A20202020C7
:10398400256620090909090909200A0D50414E201C
:103994004D494E494D554D3A20202535752009098C
:1039A400090909200A0D0A0D54494C542058205382
:1039B400484946543A20253575202054494C542012
:1039C400592053484946543A20252D3364206465D0
:1039D40067090909090909200A0D54494C54205260
:1039E400414E47453A202020253575202054494C26
:1039F4005420534C4F50453A20202025662020095E
:103A04000909090909200A0D54494C54204D494E0D
:103A1400494D554D3A20253575200A0D000A0D43B0
:103A2400555252454E54205241572050414E3A204F
:103A3400253575202043555252454E542052415746
:103A44002054494C543A2025750A0D000A0D43555B
:103A54005252454E542053414D504C454420504100
:103A64004E3A20253575202043555252454E542058
:103A740053414D504C45442054494C543A202575EB
:103A84000A0D005A5241545047515356447064022F
:103A940002020200000008000009000C00E803E82C
:103AA40003E803E803E803E8030000000000000063
:103AB40000000102020303030304040404040404D5
:103AC40004050505050505050505050505050505A3
:103AD4000506060606060606060606060606060683
:103AE4000606060606060606060606060606060672
:103AF4000607070707070707070707070707070753
:103B04000707070707070707070707070707070741
:103B14000707070707070707070707070707070731
:103B24000707070707070707070707070707070721
:103B34000708080808080808080808080808080802
:103B440008080808080808080808080808080808F1
:103B540008080808080808080808080808080808E1
:103B640008080808080808080808080808080808D1
:103B740008080808080808080808080808080808C1
:103B840008080808080808080808080808080808B1
:103B940008080808080808080808080808080808A1
:103BA4000808080808080808080808080808080891
:023BB400080007
:00000001FF
