:100000000C94F3000C9410010C9410010C9410014A
:100010000C9410010C9410010C9410010C9410011C
:100020000C9410010C9410010C9410010C9410010C
:100030000C9410010C9410010C9410010C941001FC
:100040000C9410010C9410010C9410010C941001EC
:100050000C9410010C9410010C9410010C941001DC
:100060000C9410010C943B030C9410010C9410019F
:100070000C9410010C9410010C9410010C941001BC
:100080000C9410010C9410010C9410010C941001AC
:100090000C946B030C9410010C9410010C9410013F
:1000A0000C9410010C9410010C9410010C9410018C
:1000B0000C9410010C9410010C9410010C9410017C
:1000C0000C9410010C9410010C9410010C949B03DF
:1000D0000C9410010C9410010C94CB030C9410019F
:1000E0000C9410016E616E00696E660000407A101B
:1000F000F35A00A0724E18090010A5D4E80000E8D9
:100100007648170000E40B54020000CA9A3B000036
:1001100000E1F505000080969800000040420F00C5
:100120000000A08601000000102700000000E80386
:10013000000000006400000000000A000000000051
:100140000100000000002C76D888DC674F0823DF10
:10015000C1DFAE59E1B1B796E5E3E453C63AE651E3
:10016000997696E8E6C28426EB898C9B62ED407C0A
:100170006FFCEFBC9C9F40F2BAA56FA5F490055AA6
:100180002AF75C936B6CF9676DC11BFCE0E40D47CB
:10019000FEF520E6B500D0ED902E030094357705EE
:1001A0000080841E080000204E0A000000C80C33A6
:1001B0003333330F986E12831141EF8D2114893B35
:1001C000E65516CFFEE6DB18D1844B381BF77C1DB5
:1001D000901DA4BBE424203284725E228100C9F108
:1001E00024ECA1E53D2711241FBECFEFD1E2DEBFF5
:1001F000CDBF15E0A0E0B2E0EAE3F6E302C005906F
:100200000D92A035B107D9F717E0A0E5B5E001C020
:100210001D92AC3EB107E1F70E9412010C941B1B2A
:100220000C9400002F923F924F925F926F927F92B8
:100230008F929F92AF92BF92CF92DF92EF92FF92F6
:100240000F931F93DF93CF93CDB7DEB7E2970FB62F
:10025000F894DEBF0FBECDBF0E94B6020E945C02C2
:100260000E94580A80E00E946A0278945E01089415
:10027000A11CB11CD501E0E0F2E088E001900D92F4
:100280008150E1F7C5010E94FC04D501E8E0F2E0ED
:1002900080E301900D928150E1F7C5010E9429058C
:1002A000D501E8E3F2E08FE001900D928150E1F793
:1002B000C5010E94FC0480E090E020E931E0F901F2
:1002C0003197F1F7019643E188389407C1F749E582
:1002D000842E42E0942E3BE7632E32E0732E26E913
:1002E000422E22E0522E90EA292E92E0392E80E909
:1002F000C82E81E0D82ED501E7E4F2E08BE0019032
:100300000D928150E1F7C5010E94FC04D501E2E5A0
:10031000F2E087E001900D928150E1F7C5010E9463
:10032000FC048091500590915105892B09F478C007
:100330000E94970E7C01E091A105F091A20509951C
:100340008C010E948F0CADB7BEB71A970FB6F89408
:10035000BEBF0FBEADBFEDB7FEB731961296BC92D1
:10036000AE92119793828282F582E482178306838C
:10037000918780870E94621A2DB73EB7265F3F4F54
:100380000FB6F8943EBF0FBE2DBFC5010E94FC04FE
:10039000D501E4E7F2E087E001900D928150E1F7AA
:1003A000C5010E94FC040E94DA0E8C01E091250632
:1003B000F091260609957C010E94930DADB7BEB75A
:1003C0001A970FB6F894BEBF0FBEADBFEDB7FEB71C
:1003D00031961296BC92AE92119773826282158307
:1003E0000483F782E682918780870E94621A2DB784
:1003F0003EB7265F3F4F0FB6F8943EBF0FBE2DBFEE
:10040000C5010E94FC040E94DC0620E030E0C60129
:100410000197F1F72F5F3F4F2A3F3105C1F76BCFAF
:100420000E94970E00D000D000D0EDB7FEB73196F5
:10043000ADB7BEB71296BC92AE921197538242826C
:10044000958384830E94621A2DB73EB72A5F3F4F7F
:100450000FB6F8943EBF0FBE2DBFC5010E94FC042D
:10046000D501E4E7F2E087E001900D928150E1F7D9
:10047000C5010E94FC040E94DA0E00D000D000D01A
:10048000EDB7FEB73196ADB7BEB71296BC92AE923D
:10049000119733822282958384830E94621A2DB73A
:1004A0003EB72A5F3F4F0FB6F8943EBF0FBE2DBF39
:1004B000C5010E94FC04A7CFDF93CF93CDB7DEB771
:1004C000AAE7B0E0EAE7F0E0808180688C93CF9102
:1004D000DF910895DF93CF930F92CDB7DEB7898375
:1004E00089818093AA020F90CF91DF910895DF93C5
:1004F000CF9300D00F92CDB7DEB78B83ECE7F0E05F
:100500008B81982F97708091AA02892B8083ABE70B
:10051000B0E0EBE7F0E08081877F8C93AAE7B0E062
:10052000EAE7F0E0808180648C93EAE7F0E0808184
:10053000882F90E0807490700097B9F7E8E7F0E0BA
:1005400080818A83E9E7F0E0808189838981882F2F
:1005500090E0382F22278A81882F90E0822B932BDE
:100560000F900F900F90CF91DF910895DF93CF936D
:100570000F92CDB7DEB71092A3058091A3058093AB
:10058000E4058091E40580936B0610922706809124
:1005900027068093A0058091A0058093690684EAD0
:1005A00095E060E070E040E450E00E94241A80E6AC
:1005B00095E060E070E040E450E00E94241A85EE8F
:1005C00095E060E070E040E450E00E94241A88E288
:1005D00096E060E070E040E450E00E94241AE4EC11
:1005E000F0E08FE590E091838083ECECF0E087E031
:1005F00090E091838083E4EDF0E087E090E09183E8
:100600008083E4E3F1E08FE590E091838083E1EC87
:10061000F0E088E98083E9ECF0E088E98083E1EDAF
:10062000F0E088E98083E1E3F1E088E98083E2ECAF
:10063000F0E086E08083EAECF0E086E08083E2EDA3
:10064000F0E086E08083E2E3F1E086E08083E6ECA0
:10065000F0E080818983EEECF0E080818983E6ED33
:10066000F0E080818983E6E3F1E0808189830F9067
:10067000CF91DF9108951F920F920FB60F92112420
:100680002F938F939F93EF93FF93DF93CF93CDB7E8
:10069000DEB780916906882F90E0E6ECF0E02081DB
:1006A000FC01EC55FA4F2083809169068F5F80939F
:1006B000690680916906803411F410926906CF9121
:1006C000DF91FF91EF919F918F912F910F900FBE2E
:1006D0000F901F9018951F920F920FB60F92112432
:1006E0002F938F939F93EF93FF93DF93CF93CDB788
:1006F000DEB78091A005882F90E0EEECF0E020813D
:10070000FC01E05AFA4F20838091A0058F5F80930F
:10071000A0058091A005803411F41092A005CF911E
:10072000DF91FF91EF919F918F912F910F900FBECD
:100730000F901F9018951F920F920FB60F921124D1
:100740002F938F939F93EF93FF93DF93CF93CDB727
:10075000DEB780912706882F90E0E6EDF0E020815B
:10076000FC01EB51FA4F2083809127068F5F809325
:10077000270680912706803411F410922706CF9126
:10078000DF91FF91EF919F918F912F910F900FBE6D
:100790000F901F9018951F920F920FB60F92112471
:1007A0002F938F939F93EF93FF93DF93CF93CDB7C7
:1007B000DEB780916806882F90E0E6E3F1E02081C3
:1007C000FC01E85DF94F2083809168068F5F80937C
:1007D000680680916806803411F410926806CF9103
:1007E000DF91FF91EF919F918F912F910F900FBE0D
:1007F0000F901F901895DF93CF930F92CDB7DEB770
:1008000080916B06882F90E0FC01EC55FA4F8081B7
:10081000898380916B068F5F80936B0680916B0656
:10082000803411F410926B0689810F90CF91DF9183
:100830000895DF93CF930F92CDB7DEB78091E40593
:10084000882F90E0FC01E05AFA4F808189838091E3
:10085000E4058F5F8093E4058091E405803411F412
:100860001092E40589810F90CF91DF910895DF9375
:10087000CF930F92CDB7DEB78091A305882F90E07C
:10088000FC01EB51FA4F808189838091A3058F5F32
:100890008093A3058091A305803411F41092A305E1
:1008A00089810F90CF91DF910895DF93CF930F92BD
:1008B000CDB7DEB780916A06882F90E0FC01E85D35
:1008C000F94F8081898380916A068F5F80936A06E1
:1008D00080916A06803411F410926A0689810F9023
:1008E000CF91DF910895DF93CF930F92CDB7DEB70D
:1008F0008983E0ECF0E08081882F90E08072907036
:100900000097B9F3E6ECF0E0898180830F90CF91F6
:10091000DF910895DF93CF930F92CDB7DEB7898330
:10092000E8ECF0E08081882F90E080729070009772
:10093000B9F3EEECF0E0898180830F90CF91DF91E5
:100940000895DF93CF930F92CDB7DEB78983E0EDA3
:10095000F0E08081882F90E0807290700097B9F36A
:10096000E6EDF0E0898180830F90CF91DF910895CB
:10097000DF93CF930F92CDB7DEB78983E0E3F1E049
:100980008081882F90E0807290700097B9F3E6E341
:10099000F1E0898180830F90CF91DF910895DF93FB
:1009A000CF9300D000D0CDB7DEB79C838B831A8263
:1009B000198211C02B813C8189819A81F901E80F4C
:1009C000F91F8081282F89819A8101969A838983D2
:1009D000822F0E9473042B813C8189819A81F901C5
:1009E000E80FF91F8081882329F70F900F900F904F
:1009F0000F90CF91DF910895DF93CF9300D000D077
:100A0000CDB7DEB79C838B831A82198211C02B81EC
:100A10003C8189819A81F901E80FF91F8081282F93
:100A200089819A8101969A838983822F0E948A0400
:100A30002B813C8189819A81F901E80FF91F80811E
:100A4000882329F70F900F900F900F90CF91DF918F
:100A50000895DF93CF9300D000D0CDB7DEB79C834D
:100A60008B831A82198211C02B813C8189819A81E2
:100A7000F901E80FF91F8081282F89819A81019659
:100A80009A838983822F0E94A1042B813C818981D2
:100A90009A81F901E80FF91F8081882329F70F90C7
:100AA0000F900F900F90CF91DF910895DF93CF9328
:100AB00000D000D0CDB7DEB79C838B831A82198219
:100AC00011C02B813C8189819A81F901E80FF91FBE
:100AD0008081282F89819A8101969A838983822F28
:100AE0000E94B8042B813C8189819A81F901E80F29
:100AF000F91F8081882329F70F900F900F900F9096
:100B0000CF91DF910895DF93CF9300D000D00F9263
:100B1000CDB7DEB79B838A837D836C8319820FC038
:100B20008981282F30E08A819B81FC01E20FF31F2D
:100B3000908189818F5F8983892F0E9473048981C5
:100B4000282F30E08C819D812817390748F30F90BA
:100B50000F900F900F900F90CF91DF910895DF933A
:100B6000CF9300D000D000D0CDB7DEB79C838B836D
:100B70007E836D831A82198210C02B813C8189810A
:100B80009A81F901E80FF91F208189819A810196E4
:100B90009A838983822F0E948A0429813A818D81D8
:100BA0009E812817390748F326960FB6F894DEBFC2
:100BB0000FBECDBFCF91DF910895DF93CF9300D0CB
:100BC00000D000D0CDB7DEB79C838B837E836D834E
:100BD0001A82198210C02B813C8189819A81F90186
:100BE000E80FF91F208189819A8101969A83898370
:100BF000822F0E94A10429813A818D819E8128172C
:100C0000390748F326960FB6F894DEBF0FBECDBF66
:100C1000CF91DF910895DF93CF9300D000D000D023
:100C2000CDB7DEB79C838B837E836D831A82198256
:100C300010C02B813C8189819A81F901E80FF91F4D
:100C4000208189819A8101969A838983822F0E94CB
:100C5000B80429813A818D819E812817390748F38C
:100C600026960FB6F894DEBF0FBECDBFCF91DF91B1
:100C70000895DF93CF93CDB7DEB72E970FB6F894D4
:100C8000DEBF0FBECDBF8B836C834D832E831A8254
:100C900019828B818A336CF48B81992787FD90951B
:100CA000C0979C01322F22273295307F3E872D87B7
:100CB0000CC08B81992787FD9095C7979C01322F97
:100CC00022273295307F3E872D872D853E8589816D
:100CD0009A81822B932B9A8389838C818A3354F453
:100CE0008C81992787FD9095C097382F22273C87C4
:100CF0002B8709C08C81992787FD9095C797382F3E
:100D000022273C872B872B853C8589819A81822BE2
:100D1000932B9A8389838D818A337CF48D819927E3
:100D200087FD9095C0979C0122953295307F3227A0
:100D3000207F32273A8729870EC08D81992787FD2A
:100D40009095C7979C0122953295307F3227207F5E
:100D500032273A87298729853A8589819A81822B8A
:100D6000932B9A8389838E818A3354F48E819927B9
:100D700087FD90959C012053304038872F8309C010
:100D80008E81992787FD90959C01275330403887A5
:100D90002F832F81388589819A81822B932B9A8387
:100DA000898389819A812E960FB6F894DEBF0FBE93
:100DB000CDBFCF91DF9108952F923F924F925F92D6
:100DC0006F927F928F929F92AF92BF92CF92DF925B
:100DD000EF92FF920F931F93DF93CF93CDB7DEB7C0
:100DE000C451D1400FB6F894DEBF0FBECDBF10C0C6
:100DF0000E943704898320915205822F90E0FC01E4
:100E0000E459F94F89818083822F8F5F8093520547
:100E10009091A30580912706981751F7909152055C
:100E200080915305292F281B822F882F90E09C83C7
:100E30008B838B819C81833091050CF41FC380913F
:100E40005305882F90E0FC01E459F94F8081833CE1
:100E500031F0809153058F5F809353050FC38091CC
:100E600053058F5F882F90E0FC01E459F94F808192
:100E70008A8318861F820EC08F819885FC01E555F4
:100E8000FD4F90818A81981771F08F819885019626
:100E900098878F832091C3023091C4028F819885F7
:100EA000821793074CF32091C3023091C4028F81C3
:100EB00098858217930729F4809153058E5F80935C
:100EC00053058F819885FC01E954FD4F8081882F5F
:100ED00090E09E838D838B819C8102979C838B8382
:100EE00018861F8223C09F8180915305890F8E5FD2
:100EF000882F90E0FC01E459F94F80818A838A8130
:100F00008D3529F48F8198859E838D831DC02F8117
:100F10003885CE01875F9E4FFC01E20FF31F8A8167
:100F200080838F819885019698878F832F8138855C
:100F30008B819C81281739073CF42F8138858D815E
:100F40009E81821793077CF62F8138858B819C8147
:100F50002817390709F492C22F8138858D819E8127
:100F60008217930744F49F8180915305890F8E5F08
:100F70008093530583C2809153058F5F882F90E043
:100F8000FC01E459F94F80818A839D81809153054A
:100F9000890F8D5F809353058A818A3579F518868C
:100FA0001F8224C02F813885CE01875F9E4FFC01B0
:100FB000E20FF31F8081803529F40E948F0C0E947C
:100FC0001D0F0FC02F813885CE01875F9E4FFC011A
:100FD000E20FF31F8081843521F40E94930D0E945B
:100FE0004F0F8F819885019698878F832F81388541
:100FF0008D819E8128173907ACF240C28A818235E3
:1010000079F518861F8224C02F813885CE01875F2D
:101010009E4FFC01E20FF31F8081803529F481E0AF
:1010200090E00E94EB0A0FC02F813885CE01875FC8
:101030009E4FFC01E20FF31F8081843521F481E093
:1010400090E00E946E0B8F819885019698878F8320
:101050002F8138858D819E8128173907ACF20EC209
:101060008A81813479F518861F8224C02F813885C2
:10107000CE01875F9E4FFC01E20FF31F8081803518
:1010800029F480E090E00E94EB0A0FC02F813885A0
:10109000CE01875F9E4FFC01E20FF31F80818435F4
:1010A00021F480E090E00E946E0B8F81988501967C
:1010B00098878F832F8138858D819E8128173907E6
:1010C000ACF2DCC18A81843559F518861F8220C0B4
:1010D0002F813885CE01875F9E4FFC01E20FF31F01
:1010E0008081803519F40E94540B0DC02F81388502
:1010F000CE01875F9E4FFC01E20FF31F8081843594
:1011000011F40E94D70B8F819885019698878F8361
:101110002F8138858D819E8128173907CCF2AEC189
:101120008A81803509F06AC06091290470912A048F
:10113000A0912B04B0912C04C0902504D0902604DB
:1011400020911F04309120044091210450912204E9
:10115000A0902704B090280480903D0490903E0415
:1011600060903F04709040044090390450903A04DD
:10117000E0903304F090340400913504109136046B
:1011800020903B0430903C048DB79EB74C970FB62F
:10119000F8949EBF0FBE8DBFEDB7FEB73196CE015E
:1011A00009969183808385EC92E093838283758393
:1011B0006483B783A683D186C0862287338744871A
:1011C0005587B786A686918A808A738A628A558AED
:1011D000448AE68AF78A008F118F338E228E0E940E
:1011E000621A8DB79EB74C960FB6F8949EBF0FBE8D
:1011F0008DBFCE0109960E94290540C18A8187349E
:1012000091F5E091A105F091A20509958C01E0917D
:101210002506F091260609959C018DB79EB7089783
:101220000FB6F8949EBF0FBE8DBFEDB7FEB73196D7
:10123000CE0109969183808387EB93E09383828329
:1012400015830483378326830E94621A8DB79EB765
:1012500008960FB6F8949EBF0FBE8DBFCE010996BB
:101260000E9429050BC18A81813561F50E948F0C8E
:101270008C010E94930D9C018DB79EB708970FB605
:10128000F8949EBF0FBE8DBFEDB7FEB73196CE016D
:1012900009969183808386EE93E0938382831583FE
:1012A0000483378326830E94621A8DB79EB70896FF
:1012B0000FB6F8949EBF0FBE8DBFCE0109960E9457
:1012C0002905DCC08A81833599F58D819E8188301E
:1012D000910509F0D3C0FE01E75FFE4F8081FE015A
:1012E000E75FFE4F3181FE01E75FFE4F9281FE0115
:1012F000E75FFE4F2381632F492F0E9439060E942A
:10130000350CFE01E75FFE4F8481FE01E75FFE4F73
:101310003581FE01E75FFE4F9681FE01E75FFE4FDC
:101320002781632F492F0E9439060E944D0CA6C0C9
:101330008A81863529F483E090E00E94F10B9EC0FB
:101340008A81843429F482E090E00E94F10B96C0F7
:101350008A81803709F071C08D819E818930910525
:1013600009F08CC0FE01E75FFE4F8081803579F582
:10137000FE01E75FFE4F8181FE01E75FFE4F328194
:10138000FE01E75FFE4F9381FE01E75FFE4F248180
:10139000632F492F0E9439068C01FE01E75FFE4F43
:1013A0008581FE01E75FFE4F3681FE01E75FFE4F5C
:1013B0009781FE01E75FFE4F2085632F492F0E9432
:1013C00039069C01C801B9010E94810F57C0FE0176
:1013D000E75FFE4F8081843509F050C0FE01E75F72
:1013E000FE4F8181FE01E75FFE4F3281FE01E75F24
:1013F000FE4F9381FE01E75FFE4F2481632F492F4B
:101400000E9439068C01FE01E75FFE4F8581FE01D7
:10141000E75FFE4F3681FE01E75FFE4F9781FE01D9
:10142000E75FFE4F2085632F492F0E9439069C01FC
:10143000C801B9010E94081021C08A818436F1F4E4
:101440008091500590915105CD5EDE4F1982188232
:10145000C351D140009741F481E090E0CD5EDE4F72
:1014600099838883C351D140CD5EDE4F88819981B5
:10147000C351D1409093510580935005CC5EDE4F0F
:101480000FB6F894DEBF0FBECDBFCF91DF911F9195
:101490000F91FF90EF90DF90CF90BF90AF909F9013
:1014A0008F907F906F905F904F903F902F90089516
:1014B000DF93CF9300D0CDB7DEB71A82198217C061
:1014C00089819A81880F991FFC01E459F84F118294
:1014D000108289819A81880F991FFC01E455F84F89
:1014E0001182108289819A8101969A8389838981E8
:1014F0009A818032910524F385E69CE09093A205C1
:101500008093A10580E79CE09093260680932506B2
:1015100080E090E00E94EA1A0E94F10B82E090E0E5
:101520000E94E41ADC01CB0180931F0490932004F5
:10153000A0932104B093220488E090E00E94EA1A6C
:1015400090932804809327048AE090E00E94EA1A8E
:1015500090932A048093290486E090E00E94EA1A7E
:1015600090932604809325048CE090E00E94EA1A70
:101570000E94EB0A8EE090E00E94E41ADC01CB01AD
:101580008093330490933404A0933504B0933604CD
:1015900084E190E00E94EA1A90933C0480933B041B
:1015A00086E190E00E94EA1A90933E0480933D0405
:1015B00082E190E00E94EA1A90933A048093390401
:1015C00088E190E00E94EA1A0E946E0B0F900F9043
:1015D000CF91DF910895DF93CF9300D0CDB7DEB7E1
:1015E0009A83898320912D0430912E0489819A81D8
:1015F0002817390709F453C089819A8181309105F0
:10160000F9F42091290430912A04809125049091C5
:10161000260496958795A901481B590BCA019093FA
:101620002A048093290484EB90E090932C04809307
:101630002B0481E090E090932E0480932D041DC034
:1016400089819A810097C9F480912504909126049C
:101650009C01369527958091290490912A04820F48
:10166000931F90932A048093290410922C041092C3
:101670002B0410922E0410922D04209129043091F5
:101680002A048AE090E0B9010E94F81A20912D0402
:1016900030912E048CE090E0B9010E94F81A0F906E
:1016A0000F90CF91DF910895DF93CF9300D0CDB706
:1016B000DEB780912D0490912E041A821982009732
:1016C00021F481E090E09A83898389819A810E9444
:1016D000EB0A0F900F90CF91DF910895DF93CF9396
:1016E00000D0CDB7DEB79A83898320914104309131
:1016F000420489819A812817390709F453C08981E6
:101700009A8181309105F9F420913D0430913E0495
:101710008091390490913A0496958795A901481BC8
:10172000590BCA0190933E0480933D0484EB90E0F2
:101730009093400480933F0481E090E090934204B2
:10174000809341041DC089819A810097C9F48091DA
:10175000390490913A049C013695279580913D0477
:1017600090913E04820F931F90933E0480933D041A
:101770001092400410923F041092420410924104CF
:1017800020913D0430913E0486E190E0B9010E9431
:10179000F81A209141043091420488E190E0B901A7
:1017A0000E94F81A0F900F90CF91DF910895DF9368
:1017B000CF9300D0CDB7DEB7809141049091420421
:1017C0001A821982009721F481E090E09A8389833C
:1017D00089819A810E946E0B0F900F90CF91DF91BB
:1017E0000895DF93CF9300D0CDB7DEB79A83898376
:1017F00089819A818330910599F489819A819093A6
:101800001E0480931D048BE79CE09093A2058093B7
:10181000A10585E89CE0909326068093250617C0D5
:1018200089819A818230910591F489819A8190937E
:101830001E0480931D0485E69CE09093A20580938E
:10184000A10580E79CE090932606809325062091D1
:101850001D0430911E0480E090E0B9010E94F81A46
:101860000F900F90CF91DF910895DF93CF9300D029
:10187000CDB7DEB79A83898389819A8192958295C3
:101880008F7089279F708927909324048093230465
:101890000F900F90CF91DF910895DF93CF9300D0F9
:1018A000CDB7DEB79A83898389819A819295829593
:1018B0008F7089279F70892790933804809337040D
:1018C0000F900F90CF91DF910895DF93CF93CDB715
:1018D000DEB78091230490912404CF91DF91089585
:1018E000DF93CF93CDB7DEB7809137049091380462
:1018F000CF91DF910895DF93CF93CDB7DEB780E02E
:101900000E947702CF91DF910895DF93CF93CDB7F7
:10191000DEB783E00E947702CF91DF910895EF92C6
:10192000FF920F931F93DF93CF93CDB7DEB7C654CB
:10193000D0400FB6F894DEBF0FBECDBF2091540546
:1019400030915505409156055091570580915805A5
:1019500090915905880F991FFC01E459F84F808137
:101960009181CC01A0E0B0E079018A01E81AF90A7E
:101970000A0B1B0BD801C7018093540590935505A2
:10198000A0935605B093570500915805109159053D
:10199000E091A105F091A20509959C01C801880F6D
:1019A000991FFC01E459F84F318320838091580539
:1019B00090915905880F991FFC01E459F84F8081D7
:1019C00091819C0140E050E0809154059091550533
:1019D000A0915605B0915705820F931FA41FB51F04
:1019E0008093540590935505A0935605B0935705E1
:1019F000809158059091590501968F719070909340
:101A00005905809358058CE697E09E012D5F3F4F66
:101A1000B90140E250E00E94D3108BA19CA19A83AF
:101A2000898320912F043091300489819A8128176D
:101A3000390738F489819A819093300480932F0478
:101A400025C0209131043091320489819A81821716
:101A5000930738F489819A819093320480933104FA
:101A600015C08091540590915505A0915605B091EF
:101A70005705689414F8B695A79597958795169489
:101A8000D1F727969FAF8EAF27973BC020912504B3
:101A9000309126048091270490912804280F391F43
:101AA00080912F04909130042817390758F0209125
:101AB0003104309132048091270490912804281732
:101AC000390758F4809131049091320420912F0409
:101AD00030913004B9010E94810F8091540590919A
:101AE0005505A0915605B0915705689414F8B69520
:101AF000A795979587951694D1F727969FAF8EAFA8
:101B0000279727968EAD9FAD2797CA5BDF4F0FB6FD
:101B1000F894DEBF0FBECDBFCF91DF911F910F9123
:101B2000FF90EF900895EF92FF920F931F93DF9332
:101B3000CF93CDB7DEB7C654D0400FB6F894DEBF12
:101B40000FBECDBF20915A0530915B0540915C05D9
:101B500050915D0580915E0590915F05880F991FFA
:101B6000FC01E455F84F80819181CC01A0E0B0E008
:101B700079018A01E81AF90A0A0B1B0BD801C7017F
:101B800080935A0590935B05A0935C05B0935D0527
:101B900000915E0510915F05E0912506F091260603
:101BA00009959C01C801880F991FFC01E455F84F65
:101BB0003183208380915E0590915F05880F991F86
:101BC000FC01E455F84F808191819C0140E050E098
:101BD00080915A0590915B05A0915C05B0915D05DF
:101BE000820F931FA41FB51F80935A0590935B0526
:101BF000A0935C05B0935D0580915E0590915F05B3
:101C000001968F71907090935F0580935E058CEACA
:101C100097E09E012D5F3F4FB90140E250E00E94E6
:101C2000D3108BA19CA19A83898320914304309186
:101C3000440489819A812817390738F489819A8167
:101C4000909344048093430425C02091450430912F
:101C5000460489819A818217930738F489819A8191
:101C6000909346048093450415C080915A05909145
:101C70005B05A0915C05B0915D05689414F8B6957C
:101C8000A795979587951694D1F727969FAF8EAF16
:101C900027973BC02091390430913A0480913B044E
:101CA00090913C04280F391F809143049091440483
:101CB0002817390758F02091450430914604809147
:101CC0003B0490913C042817390758F4809145044F
:101CD000909146042091430430914404B9010E943C
:101CE000081080915A0590915B05A0915C05B09118
:101CF0005D05689414F8B695A79597958795169401
:101D0000D1F727969FAF8EAF279727968EAD9FADC1
:101D10002797CA5BDF4F0FB6F894DEBF0FBECDBF6B
:101D2000CF91DF911F910F91FF90EF900895DF9376
:101D3000CF93CDB7DEB70E948F0C9C018091290410
:101D400090912A04281B390B809125049091260438
:101D5000820F931F2091250430912604B9010E941F
:101D6000F618CC01A0E0B0E0BC01CD010E945A13EE
:101D7000DC01CB0120911F0430912004409121040B
:101D800050912204BC01CD010E946011DC01CB0105
:101D9000BC01CD010E940613DC01CB019C018091A6
:101DA0002B0490912C04A901481B590BCA01CF9117
:101DB000DF910895DF93CF93CDB7DEB70E94930DE7
:101DC0009C0180913D0490913E04281B390B809129
:101DD000390490913A04820F931F20913904309175
:101DE0003A04B9010E94F618CC01A0E0B0E0BC01B1
:101DF000CD010E945A13DC01CB01209133043091B4
:101E000034044091350450913604BC01CD010E9448
:101E10006011DC01CB01BC01CD010E940613DC0185
:101E2000CB019C0180913F0490914004A901481B83
:101E3000590BCA01CF91DF910895DF93CF9300D062
:101E4000CDB7DEB79A83898380912D0490912E04BB
:101E50008130910581F480912504909126049C01A4
:101E60003695279589819A81820F931F90932A0432
:101E70008093290406C089819A8190932A048093D3
:101E800029042091290430912A048AE090E0B901C4
:101E90000E94F81A0F900F90CF91DF910895DF9371
:101EA000CF9300D0CDB7DEB79A8389838091410468
:101EB000909142048130910581F480913904909190
:101EC0003A049C013695279589819A81820F931F48
:101ED00090933E0480933D0406C089819A8190933B
:101EE0003E0480933D0420913D0430913E0486E100
:101EF00090E0B9010E94F81A0F900F90CF91DF91F6
:101F00000895DF93CF9300D000D0CDB7DEB79A838A
:101F100089837C836B832091290430912A048091EA
:101F2000270490912804281B390B89819A81820FFC
:101F3000931F90932A048093290489819A81909316
:101F40002804809327042B813C8189819A81A901EF
:101F5000481B590BCA019093260480932504809155
:101F6000250490912604CC01A0E0B0E0BC01CD0195
:101F70000E945A139B01AC0160E070E084EB93E493
:101F80000E945A12DC01CB0180931F04909320041D
:101F9000A0932104B09322042091290430912A04B3
:101FA0008AE090E0B9010E94F81A2091270430914C
:101FB000280488E090E0B9010E94F81A20912504D5
:101FC0003091260486E090E0B9010E94F81A209131
:101FD0001F0430912004409121045091220482E09A
:101FE00090E0BA01A9010E94F01A89819A81909328
:101FF0003204809331048B819C81909330048093D0
:102000002F040F900F900F900F90CF91DF910895B4
:10201000DF93CF9300D000D0CDB7DEB79A8389830A
:102020007C836B8320913D0430913E0480913B047E
:1020300090913C04A901481B590BCA0190933E049E
:1020400080933D042B813C8189819A81A901481BA1
:10205000590BCA01CC01A0E0B0E0BC01CD010E9447
:102060005A13DC01CB01BC01CD0120E030E044EB90
:1020700053E40E946011DC01CB01BC01CD0120E0E2
:1020800030E044E753E40E945A12DC01CB01BC016A
:10209000CD010E940613DC01CB0190933A0480939A
:1020A000390429813A818B819C81281B390B8091CD
:1020B000390490913A04820F931F9C01369527951D
:1020C00089819A81821B930B90933C0480933B04FB
:1020D00020913D0430913E0480913B0490913C045A
:1020E000820F931F90933E0480933D042B813C818B
:1020F00089819A81A901481B590BCA01CC01A0E032
:10210000B0E0BC01CD010E945A139B01AC0160E01C
:1021100070E084E793E40E945A12DC01CB018093C3
:10212000330490933404A0933504B0933604209183
:102130003D0430913E0486E190E0B9010E94F81A16
:102140002091390430913A0482E190E0B9010E9473
:10215000F81A20913B0430913C0484E190E0B901ED
:102160000E94F81A209133043091340440913504D0
:10217000509136048EE090E0BA01A9010E94F01A55
:1021800089819A8190934604809345048B819C8138
:1021900090934404809343040F900F900F900F90FE
:1021A000CF91DF910895DF93CF93CDB7DEB72C9712
:1021B0000FB6F894DEBF0FBECDBF98878F837A87A6
:1021C00069875C874B871E821D8269C08D819E81D5
:1021D0009C01220F331F8F819885FC01E20FF31FB2
:1021E000808191819A8389838D819E819C838B8359
:1021F00025C08B819C819C01220F331F89859A8584
:10220000DC01A20FB31F2B813C8181E090E0821B97
:10221000930B880F991F22273327281B390B898599
:102220009A85FC01E20FF31F8081918111969C93A6
:102230008E938B819C8101979C838B838B819C8166
:1022400018161906CCF42B813C8181E090E0821BAA
:10225000930B880F991F22273327281B390B898559
:102260009A85FC01E20FF31F2081318189819A81D7
:102270008217930708F4BDCF8B819C819C01220FAC
:10228000331F89859A85FC01E20FF31F89819A81AA
:10229000918380838D819E8101969E838D832D8184
:1022A0003E818B859C852817390708F48FCF2C96A3
:1022B0000FB6F894DEBF0FBECDBFCF91DF9108956A
:1022C000A0E2B0E0E6E6F1E10C940A1969837A83B2
:1022D0008B839C832D833E834F835887CE01019649
:1022E000BE01675F7F4F0E94F714CE010596BE01C5
:1022F0006F5E7F4F0E94F7149985923088F089892C
:102300008230C8F0943019F4823051F404C0843023
:1023100029F4923081F487E494E0C6C0923049F405
:1023200020E09A858A89981321E02A87CE010996B0
:10233000BBC0823049F420E09A858A89981321E055
:102340002A8BCE014196B0C02D843E844F8458889C
:102350006D887E888F88988CEE24FF248701AA24BC
:10236000BB24650140E050E060E070E0E0E0F0E0B8
:10237000C10181709070892BE9F0E60CF71C081DF3
:10238000191D9A01AB012A0D3B1D4C1D5D1D80E0FE
:1023900090E0A0E0B0E0E614F7040805190520F489
:1023A00081E090E0A0E0B0E0BA01A901480F591F18
:1023B0006A1F7B1FAA0CBB1CCC1CDD1C97FE08C02F
:1023C00081E090E0A0E0B0E0A82AB92ACA2ADB2A7E
:1023D0003196E032F10549F0660C771C881C991C97
:1023E0005694479437942794C3CFFA85EA892B896A
:1023F0003C898B859C85280F391F2E5F3F4F17C066
:10240000CA0181709070892B61F016950795F79439
:10241000E79480E090E0A0E0B0E8E82AF92A0A2BEF
:102420001B2B76956795579547952F5F3F4F77FD07
:10243000E7CF0CC0440F551F661F771F17FD416083
:10244000EE0CFF1C001F111F21503040403090E067
:10245000590790E0690790E4790760F32B8F3C8F70
:10246000DB01CA018F779070A070B0708034910545
:10247000A105B10561F447FD0AC0E114F1040105AD
:10248000110529F0405C5F4F6F4F7F4F40781A8EE7
:10249000FE1711F081E08A8F4D8F5E8F6F8F78A3CA
:1024A00083E0898FCE0149960E942214A096E2E132
:1024B0000C942619A8E1B0E0E0E6F2E10C941219C0
:1024C00069837A838B839C832D833E834F835887D4
:1024D000B9E0EB2EF12CEC0EFD1ECE010196B701FA
:1024E0000E94F7148E010F5E1F4FCE010596B801B2
:1024F0000E94F7142985223008F47EC039893230D1
:1025000010F4B8017CC08A859A8989278A8724308B
:1025100011F0223031F4231709F06EC067E474E043
:102520006EC0343039F41D861E861F86188A1C86BC
:102530001B8604C0323021F484E08987B7015FC074
:102540002B853C858B899C89281B390B3C872B87E5
:10255000ED84FE840F851889AD88BE88CF88D88C1D
:10256000EA14FB040C051D0540F4EE0CFF1C001FD3
:10257000111F215030403C872B8720E030E040E0A5
:1025800050E080E090E0A0E0B0E460E070E0EA14A9
:10259000FB040C051D0540F0282B392B4A2B5B2B27
:1025A000EA18FB080C091D09B695A795979587951C
:1025B000EE0CFF1C001F111F6F5F7F4F6F31710505
:1025C00031F7DA01C9018F779070A070B070803454
:1025D0009105A105B10561F427FD0AC0E114F104DC
:1025E0000105110529F0205C3F4F4F4F5F4F2078C8
:1025F0002D873E874F87588BBE01675F7F4FCB018A
:102600000E9422146896EAE00C942E19ACE0B0E027
:10261000ECE0F3E10C941A1969837A838B839C8331
:10262000CE010196BE016B5F7F4F0E94F7148D8132
:10263000823061F1823050F1843021F48E81882320
:1026400051F12EC02F81388537FD20C06E812F318A
:1026500031051CF06623F9F023C08EE190E0821B67
:10266000930B29853A854B855C8504C05695479523
:10267000379527958A95D2F76623B1F05095409506
:10268000309521953F4F4F4F5F4F0EC020E030E017
:1026900040E050E009C02FEF3FEF4FEF5FE704C08D
:1026A00020E030E040E050E8B901CA012C96E2E0B9
:1026B0000C943619A8E0B0E0E0E6F3E10C941219AE
:1026C0007B018C01611571058105910519F482E08A
:1026D000898360C083E089838EE1C82ED12CDC829F
:1026E000CB82ED82FE820F831887C801B7010E945A
:1026F000D313FC013197F7FF3BC0222733272E1B52
:102700003F0B57016801022E04C0D694C794B794BA
:10271000A7940A94D2F740E050E060E070E081E0D6
:1027200090E0A0E0B0E004C0880F991FAA1FBB1F73
:102730002A95D2F70197A109B1098E219F21A023E3
:10274000B1230097A105B10521F041E050E060E020
:1027500070E04A295B296C297D294D835E836F8354
:1027600078878EE190E08E1B9F0B9C838B8312C039
:10277000309781F00E2E04C0EE0CFF1C001F111FBD
:102780000A94D2F7ED82FE820F831887CE1ADF0AF1
:10279000DC82CB821A82CE0101960E9422142896F6
:1027A000EAE00C942E19EF92FF920F931F937B0196
:1027B0008C0180E0E81680E0F80681E0080780E000
:1027C000180788F48FEFE816F1040105110531F0C0
:1027D00028F088E090E0A0E0B0E017C080E090E052
:1027E000A0E0B0E012C080E0E81680E0F80680E0EB
:1027F000080781E0180728F088E190E0A0E0B0E049
:1028000004C080E190E0A0E0B0E020E230E040E0F1
:1028100050E0281B390B4A0B5B0B04C0169507953B
:10282000F794E7948A95D2F7F701E15BFB4F80813B
:10283000281B310941095109C9011F910F91FF90CE
:10284000EF900895DF92EF92FF920F931F93FC0198
:10285000E480F58006811781D1808081823048F440
:1028600080E090E0A0E1B0E0E82AF92A0A2B1B2BD7
:10287000A5C0843009F49FC0823021F4EE24FF24E7
:10288000870105C0E114F1040105110519F4E0E028
:10289000F0E096C0628173819FEF623879070CF097
:1028A0005BC022E83FEF261B370B2A3131052CF0A5
:1028B00020E030E040E050E02AC0B801A701022E3D
:1028C00004C076956795579547950A94D2F781E0AD
:1028D00090E0A0E0B0E004C0880F991FAA1FBB1FC2
:1028E0002A95D2F70197A109B1098E219F21A02332
:1028F000B1230097A105B10521F081E090E0A0E0AF
:10290000B0E09A01AB01282B392B4A2B5B2BDA0163
:10291000C9018F779070A070B07080349105A105C7
:10292000B10539F427FF09C0205C3F4F4F4F5F4F7F
:1029300004C0215C3F4F4F4F5F4FE0E0F0E020309C
:10294000A0E03A07A0E04A07A0E45A0710F0E1E04F
:10295000F0E079018A0127C06038710564F5FB0158
:10296000E158FF4FD801C7018F779070A070B07009
:1029700080349105A105B10539F4E7FE0DC080E46E
:1029800090E0A0E0B0E004C08FE390E0A0E0B0E011
:10299000E80EF91E0A1F1B1F17FF05C016950795A5
:1029A000F794E794319687E016950795F794E794A6
:1029B0008A95D1F705C0EE24FF248701EFEFF0E000
:1029C0006E2F679566276795902F9F77D794DD24A4
:1029D000D7948E2F8695492F462B582F5D29B70106
:1029E000CA011F910F91FF90EF90DF900895FC01B5
:1029F000DB01408151812281622F6F7770E0221FBD
:102A00002227221F9381892F880F822B282F30E0C5
:102A1000991F9927991F11969C931197211531059C
:102A2000A9F5411551056105710511F482E037C022
:102A300082E89FEF13969C938E9312979A01AB01B5
:102A400067E0220F331F441F551F6A95D1F783E0BB
:102A50008C930DC0220F331F441F551F12968D916A
:102A60009C911397019713969C938E931297203005
:102A700080E0380780E0480780E4580758F3149650
:102A80002D933D934D935C93179708952F3F3105F8
:102A900079F4411551056105710519F484E08C93B1
:102AA000089564FF03C081E08C9312C01C9210C093
:102AB0002F57304013963C932E93129783E08C93BC
:102AC00087E0440F551F661F771F8A95D1F7706402
:102AD00014964D935D936D937C9317970895A1E1A0
:102AE000B0E0E5E7F5E10C940A193C017F876E87B9
:102AF0006A01FC0117821682838181FD03C06FEF9A
:102B00007FEF6FC39E012F5F3F4F398B288BF301FF
:102B10002381EE85FF8523FD859123FF8191FF872A
:102B2000EE87882309F45AC3853251F4EE85FF8578
:102B300023FD859123FF8191FF87EE87853229F45C
:102B400090E0B3010E94361AE2CF982F10E088245B
:102B500099241032B0F49B3269F09C3228F4903200
:102B600051F0933271F40BC09D3239F0903349F437
:102B7000116028C01260146025C0186023C0106165
:102B800021C017FD2AC0892F80538A3078F416FFA0
:102B900006C0FAE09F9E902C1124980E13C03AE0D4
:102BA000839E802C1124880E10620CC09E3221F46A
:102BB00016FD14C3106406C09C3611F4106802C0E0
:102BC000983659F4EE85FF8523FD959123FF919169
:102BD000FF87EE87992309F0BCCF892F8554833076
:102BE00020F4812F8061905E07C0892F8556833045
:102BF00008F09FC1812F8F7E86FD02C076E0972E60
:102C00006FE3F62EF822953619F4F0E4FF2A07C098
:102C1000963619F420E8F22A02C091109A94F7FE31
:102C20000AC03BE3391518F45CE3B52E02C0B92C99
:102C3000B39427E009C047E0491520F4BB2447E0DE
:102C4000942EF7CF292DBB24C60104969D878C872F
:102C5000F6016081718182819381AE014F5F5F4F88
:102C60000B2D0E9441196C010981202E332400FF95
:102C700004C003FD02C01DE209C0F1FE02C01BE258
:102C800005C0F2FC02C010E001C010E2C1018C706E
:102C90009070892BB9F1112311F483E001C084E015
:102CA000881510F088240AC0881AF3FC07C080E257
:102CB00090E0B3010E94361A8A94C9F7112329F0D3
:102CC000812F90E0B3010E94361A23FE03C004EE68
:102CD00010E00EC008EE10E00BC0E114F10409F0A2
:102CE000805290E0B3010E94361A0F5F1F4F05C05B
:102CF000EF2CFF24F0E1EF22FF24F80184918823D8
:102D000061F714C1F7FE12C0BC0C24FE04C08A8116
:102D1000813309F4BA941B141CF0BB24B3942DC066
:102D2000F8E0FB1550F538E0B32E27C0F6FC25C0BF
:102D3000892D90E08C159D054CF02CEFC2162FEFDD
:102D4000D20624F030E8F32A01C09A94992049F081
:102D5000E2E0F0E0EC0FFD1FE90DF11D8081803312
:102D6000A1F3F7FE0AC0B92CB394892D90E0C816E0
:102D7000D90614F0992401C09C18F7FC03C025E083
:102D800030E009C01C141D041CF021E030E003C039
:102D900096012F5F3F4F112311F02F5F3F4F992076
:102DA00029F0892D90E00196280F391F882D90E099
:102DB0002817390714F0882401C0821A4F2C552493
:102DC000C20189709070892B39F008C080E290E0D0
:102DD000B3010E94361A8A948820C1F7112329F082
:102DE000812F90E0B3010E94361A43FE07C008C04D
:102DF00080E390E0B3010E94361A8A948820C1F7DC
:102E0000F7FE46C08601D7FE02C000E010E0760162
:102E10000894E11CF11CE01AF10A41E050E04C0F6B
:102E20005D1FE40EF51E26014B185108892D90E018
:102E3000AA24BB24A81AB90A5FEF0F3F150729F48B
:102E40008EE290E0B3010E94361AC016D10634F02B
:102E5000401651061CF4F701808101C080E3015047
:102E600010400894E11CF11C0A151B052CF090E0A1
:102E7000B3010E94361AE0CF0C151D0539F49A8172
:102E8000963318F4953311F424FE81E390E04BC09F
:102E90008A81813309F00F7E90E0B3010E94361AD7
:102EA0009920A1F08EE290E0B3010E94361A12E060
:102EB000E1E0F0E0EC0FFD1FE10FF11D1F5F8081ED
:102EC00090E0B3010E94361A9A9491F744FC03C033
:102ED00085E690E002C085E490E0B3010E94361AD6
:102EE000D7FC05C0C114D10441F404FF06C0D0943E
:102EF000C194D108D3948DE201C08BE290E0B3017C
:102F00000E94361A80E305C08F5F26EF3FEFC20EA6
:102F1000D31E3AE0C316D104BCF790E0B3010E947F
:102F2000361AC601C096B3010E94361ACC84DD84DD
:102F300052C1933631F0933799F0933509F059C067
:102F400023C0F601808189835E010894A11CB11C15
:102F500022E030E0C20ED31E21E0E22EF12C12C09E
:102F6000F601A080B18016FD03C06FEF7FEF02C0B5
:102F7000692D70E022E030E0C20ED31EC5010E9430
:102F80002B1A7C011F7713C0F601A080B18016FDBB
:102F900003C06FEF7FEF02C0692D70E022E030E0E8
:102FA000C20ED31EC5010E94191A7C01106813FFBE
:102FB00007C01BC080E290E0B3010E94361A8A94D9
:102FC000882D90E0E816F906A8F30FC0F50117FD6B
:102FD000859117FF81915F0190E0B3010E94361A3D
:102FE00081108A940894E108F108E114F10471F762
:102FF000F2C0943611F0993689F517FF08C0F60132
:10300000208131814281538184E090E00AC0F60141
:10301000808191819C01442737FD4095542F82E0A7
:1030200090E0C80ED91E9FE6F92EF12257FF09C085
:1030300050954095309521953F4F4F4F5F4F90E809
:10304000F92ACA01B901AE014F5F5F4F2AE030E0B3
:103050000E94861AE82EE889EE1A41C0953721F4BD
:103060001F7E2AE030E01CC0197F9F3661F0903748
:1030700020F4983509F0B2C00FC0903739F0983776
:1030800009F0ACC004C028E030E00AC0106114FDB3
:10309000146020E130E004C014FD166020E132E04D
:1030A00017FF08C0F601608171818281938144E03D
:1030B00050E008C0F60180819181BC0180E090E081
:1030C00042E050E0C40ED51EAE014F5F5F4F0E943C
:1030D000861AE82E5889E51A8FE7F82EF122F6FEB7
:1030E0000BC08EEFF822E91438F4F4FE07C0F2FCAE
:1030F00005C09FEEF92202C01E2D01C0192DF4FE5D
:103100000DC0FE01EE0DF11D8081803319F4E9EE52
:10311000FE2208C01F5FF2FE05C003C08F2D867817
:1031200009F01F5F0F2DF3FC14C0F0FE0FC018153F
:1031300010F09E2C0BC09E2C980C911A182D06C0D6
:1031400080E290E0B3010E94361A1F5F1815C0F3A9
:1031500004C0181510F4811A01C0882404FF0FC0A0
:1031600080E390E0B3010E94361A02FF1DC001FD0A
:1031700003C088E790E00EC088E590E00BC0802F88
:10318000867891F001FF02C08BE201C080E2F7FC7B
:103190008DE290E0B3010E94361A06C080E390E011
:1031A000B3010E94361A9A94E914C0F3EA94E1E05C
:1031B000F0E0EC0FFD1FEE0DF11D808190E0B301FA
:1031C0000E94361AEE2091F706C080E290E0B3012B
:1031D0000E94361A8A948820C1F799CCF30166813F
:1031E0007781CB016196E2E10C942619AA1BBB1BE7
:1031F00051E107C0AA1FBB1FA617B70710F0A61BF7
:10320000B70B881F991F5A95A9F780959095BC0117
:10321000CD0108952F923F924F925F926F927F92CD
:103220008F929F92AF92BF92CF92DF92EF92FF92D6
:103230000F931F93CF93DF93CDB7DEB7CA1BDB0B82
:103240000FB6F894DEBF0FBECDBF09942A88398827
:1032500048885F846E847D848C849B84AA84B9842E
:10326000C884DF80EE80FD800C811B81AA81B9813A
:10327000CE0FD11D0FB6F894DEBF0FBECDBFED014E
:103280000895283008F027E03327DA01990F311D1F
:1032900087FD916000966105710539F432602E5FFB
:1032A0003D9330E32A95E1F708959F3F30F0803851
:1032B0007105610509F03C5F3C5F3D93913008F07A
:1032C0008068911DDF93CF931F930F93FF92EF922E
:1032D000192F987F9695E92F96959695E90FFF27D8
:1032E000EA5BFE4F99273327EE24FF24A701E7016D
:1032F00005900894079428F4360FE71EF81E491F1E
:10330000511D660F771F881F991F0694A1F705901E
:10331000079428F4E70EF81E491F561FC11D770FAA
:10332000881F991F661F0694A1F70590079428F43B
:10333000F80E491F561FC71FD11D880F991F661F02
:10334000771F0694A1F70590079420F4490F561FA4
:10335000C71FD81F990F661F771F881F0694A9F7EC
:1033600084911095177041F0D695C795579547955C
:10337000F794E7941A95C1F7ECEEF0E06894159095
:10338000159135916591959105907FE27395E118BE
:10339000F10A430B560BC90BD009C0F7E10CF11E23
:1033A000431F561FC91FD01D7EF4703311F48A9538
:1033B000E6CFE894015030F0080F0AF40027021716
:1033C00008F4202F2395022F7A3328F079E37D9398
:1033D0002A95E9F710C07D932A9589F6069497956A
:1033E0006795379517951794E118F10A430B560B1B
:1033F000C90BD00998F023957E9173957A3308F024
:1034000070E37C932013B8F77E9170617D9330F068
:10341000839571E37D9370E32A95E1F71124EF9092
:10342000FF900F911F91CF91DF91992787FD909584
:103430000895FC010590615070400110D8F7809507
:1034400090958E0F9F1F0895DC0101C06D93415030
:103450005040E0F70895FC01615070400190011068
:10346000D8F7809590958E0F9F1F08950F931F9307
:10347000CF93DF938C01EB018B8181FF1BC082FF17
:103480000DC02E813F818C819D812817390764F4FE
:10349000E881F9810193F983E88306C0E885F9851D
:1034A000802F0995892B31F48E819F8101969F830E
:1034B0008E8302C00FEF1FEFC801DF91CF911F91E4
:1034C0000F910895AEE0B0E0E8E6FAE10C94181927
:1034D0000D891E8986E08C831A8309838FEF9FE70D
:1034E0009E838D839E01275E3F4FCE0101966F899B
:1034F000788DA9010E946F152F813885020F131F47
:10350000F80110822E96E4E00C943419FA01AA27EF
:10351000283051F1203181F1E8946F936E7F6E5F16
:103520007F4F8F4F9F4FAF4FB1E03ED0B4E03CD0C4
:10353000670F781F891F9A1FA11D680F791F8A1FA7
:10354000911DA11D6A0F711D811D911DA11D20D00E
:1035500009F468943F912AE0269F11243019305DC8
:103560003193DEF6CF010895462F4770405D4193B9
:10357000B3E00FD0C9F7F6CF462F4F70405D4A3306
:1035800018F0495D31FD4052419302D0A9F7EACFCE
:10359000B4E0A6959795879577956795BA95C9F7FD
:1035A00000976105710508959B01AC010A2E0694F0
:1035B0005795479537952795BA95C9F7620F731FA9
:1035C000841F951FA01D0895A6E1B0E044E050E0DF
:1035D0000C94FF1AA8E1B0E042E050E00C94FF1A0E
:1035E000242F0E940E1B252F0E940E1B0C94F81AEC
:1035F0000E940D1B272F0C940E1BDC01CB01FC013C
:10360000F999FECF06C0F2BDE1BDF89A319600B43B
:103610000D9241505040B8F70895262FF999FECFEA
:103620001FBA92BD81BD20BD0FB6F894FA9AF99ADF
:0A3630000FBE01960895F894FFCF35
:10363A001B5B333231307C0042554420746F204288
:10364A004F422D3420416E676C65204F7665726C4F
:10365A006179206170706C69636174696F6E0A0DBB
:10366A0072656164790A0D001B5B31346D1B5B3630
:10367A00366D1B5B324A001B5B31346D1B5B363681
:10368A006D001B5B303B3048002050414E3A2534D8
:10369A0064205241573A2535642053414D503A250A
:1036AA00356420001B5B313B30480020544C543AAF
:1036BA00253464205241573A2535642053414D50F0
:1036CA003A25356420002050414E3A2534642000C2
:1036DA0020544C543A2534642000405A52415450E4
:1036EA004751535644706402020202000000080067
:1036FA000009000C000A0D50414E20582053484939
:10370A0046543A2020253575202050414E20592014
:10371A0053484946543A2020252D3364206465676E
:10372A00090909090909200A0D50414E2052414E42
:10373A0047453A20202020253575202050414E202B
:10374A00534C4F50453A202020202566200909096C
:10375A00090909200A0D50414E204D494E494D553F
:10376A004D3A2020253575200909090909200A0D35
:10377A000A0D54494C5420582053484946543A207B
:10378A00253575202054494C542059205348494620
:10379A00543A20252D33642064656709090909090B
:1037AA0009200A0D54494C542052414E47453A20AB
:1037BA002020253575202054494C5420534C4F5015
:1037CA00453A2020202566202009090909090920EF
:1037DA000A0D54494C54204D494E494D554D3A20F5
:1037EA00253575200A0D000A0D43555252454E548F
:1037FA00205241572050414E3A202535752020430A
:10380A00555252454E54205241572054494C543A2D
:10381A002025750A0D000A0D43555252454E542073
:10382A0053414D504C45442050414E3A2025357560
:10383A00202043555252454E542053414D504C4539
:10384A00442054494C543A2025750A0D000200853B
:10385A00EB513EE803E803F401F401B4000100E887
:10386A0003E80385EB513EE803E803F401F401B4ED
:10387A00000100E803E80300000000000000000067
:10388A0001020203030303040404040404040405F8
:10389A0005050505050505050505050505050506CD
:1038AA0006060606060606060606060606060606AE
:1038BA00060606060606060606060606060606079D
:1038CA00070707070707070707070707070707077E
:1038DA00070707070707070707070707070707076E
:1038EA00070707070707070707070707070707075E
:1038FA00070707070707070707070707070707084D
:10390A00080808080808080808080808080808082D
:10391A00080808080808080808080808080808081D
:10392A00080808080808080808080808080808080D
:10393A0008080808080808080808080808080808FD
:10394A0008080808080808080808080808080808ED
:10395A0008080808080808080808080808080808DD
:10396A0008080808080808080808080808080808CD
:10397A0008080808080808080808080808080800C5
:00000001FF
