:100000000C94F3000C9410010C9410010C9410014A
:100010000C9410010C9410010C9410010C9410011C
:100020000C9410010C9410010C9410010C9410010C
:100030000C9410010C9410010C9410010C941001FC
:100040000C9410010C9410010C9410010C941001EC
:100050000C9410010C9410010C9410010C941001DC
:100060000C9410010C9437030C9410010C941001A3
:100070000C9410010C9410010C9410010C941001BC
:100080000C9410010C9410010C9410010C941001AC
:100090000C9467030C9410010C9410010C94100143
:1000A0000C9410010C9410010C9410010C9410018C
:1000B0000C9410010C9410010C9410010C9410017C
:1000C0000C9410010C9410010C9410010C949703E3
:1000D0000C9410010C9410010C94C7030C941001A3
:1000E0000C9410016E616E00696E660000407A101B
:1000F000F35A00A0724E18090010A5D4E80000E8D9
:100100007648170000E40B54020000CA9A3B000036
:1001100000E1F505000080969800000040420F00C5
:100120000000A08601000000102700000000E80386
:10013000000000006400000000000A000000000051
:100140000100000000002C76D888DC674F0823DF10
:10015000C1DFAE59E1B1B796E5E3E453C63AE651E3
:10016000997696E8E6C28426EB898C9B62ED407C0A
:100170006FFCEFBC9C9F40F2BAA56FA5F490055AA6
:100180002AF75C936B6CF9676DC11BFCE0E40D47CB
:10019000FEF520E6B500D0ED902E030094357705EE
:1001A0000080841E080000204E0A000000C80C33A6
:1001B0003333330F986E12831141EF8D2114893B35
:1001C000E65516CFFEE6DB18D1844B381BF77C1DB5
:1001D000901DA4BBE424203284725E228100C9F108
:1001E00024ECA1E53D2711241FBECFEFD1E2DEBFF5
:1001F000CDBF15E0A0E0B2E0ECEEF0E402C0059067
:100200000D92AC34B107D9F717E0ACE4B5E001C00A
:100210001D92AA3CB107E1F70E9412010C947420D0
:100220000C9400004F925F926F927F928F929F92F8
:10023000AF92BF92CF92DF92EF92FF920F931F93F4
:10024000DF93CF93CDB7DEB7E2970FB6F894DEBF5A
:100250000FBECDBF0E94B2020E9458020E941F1022
:1002600080E00E94660278946E010894C11CD11C43
:10027000D601E0E0F2E088E001900D928150E1F7D4
:10028000C6010E94F804D601E8E0F2E080E30190A4
:100290000D928150E1F7C6010E942505D601E8E3E1
:1002A000F2E08FE001900D928150E1F7C6010E94CB
:1002B000F80420E030E040E951E0CA010197F1F78D
:1002C0002F5F3F4F83E128383807B9F73BE5832E8E
:1002D00032E0932E2FE7622E22E0722E93EAA92EAF
:1002E00092E0B92E86EB482E82E0582ED601E7E444
:1002F000F2E08BE001900D928150E1F7C6010E947F
:10030000F80480914C0590914D05019709F459C06E
:10031000D601EAE9F2E089E001900D928150E1F71F
:10032000C6010E94F8040E94D60F00D000D000D071
:10033000EDB7FEB73196ADB7BEB71296DC92CE924E
:100340001197B382A282958384830E943F1F2DB7A9
:100350003EB72A5F3F4F0FB6F8943EBF0FBE2DBF8A
:10036000C6010E94F804D601EDEAF2E089E00190AE
:100370000D928150E1F7C6010E94F8040E94190E07
:1003800000D000D000D0EDB7FEB73196ADB7BEB704
:100390001296DC92CE921197538242829583848387
:1003A0000E943F1F2DB73EB72A5F3F4F0FB6F8940C
:1003B0003EBF0FBE2DBFC6010E94F8040E94D806A2
:1003C00095CFD601E2E5F2E089E001900D928150EF
:1003D000E1F7C6010E94F8040E94D60F7C01E0916B
:1003E000A105F091A20509958C010E945A0EADB7A6
:1003F000BEB71A970FB6F894BEBF0FBEADBFEDB72C
:10040000FEB731961296DC92CE9211979382828239
:10041000F582E48217830683918780870E943F1FBD
:100420002DB73EB7265F3F4F0FB6F8943EBF0FBEC5
:100430002DBFC6010E94F804D601E6E7F2E089E08C
:1004400001900D928150E1F7C6010E94F8040E94CC
:10045000190E7C01E0912506F091260609958C0184
:100460000E949D0CADB7BEB71A970FB6F894BEBFE9
:100470000FBEADBFEDB7FEB731961296DC92CE92AD
:10048000119773826282F582E482178306839187D3
:1004900080870E943F1F2DB73EB7265F3F4F0FB6A4
:1004A000F8943EBF0FBE2DBFC6010E94F80486CF50
:1004B000DF93CF93CDB7DEB7AAE7B0E0EAE7F0E08D
:1004C000808180688C93CF91DF910895DF93CF93E3
:1004D0000F92CDB7DEB7898389818093C0020F90D8
:1004E000CF91DF910895DF93CF9300D00F92CDB7D6
:1004F000DEB78B83ECE7F0E08B81982F97708091CB
:10050000C002892B8083ABE7B0E0EBE7F0E08081AD
:10051000877F8C93AAE7B0E0EAE7F0E0808180640F
:100520008C93EAE7F0E08081882F90E080749070EF
:100530000097B9F7E8E7F0E080818A83E9E7F0E027
:10054000808189838981882F90E0382F22278A81B2
:10055000882F90E0822B932B0F900F900F90CF91CC
:10056000DF910895DF93CF930F92CDB7DEB710924E
:10057000A3058091A3058093E4058091E405809311
:100580006B0610922706809127068093A005809124
:10059000A0058093690684EA95E060E070E040E49D
:1005A00050E00E94011F80E695E060E070E040E4CA
:1005B00050E00E94011F85EE95E060E070E040E4AD
:1005C00050E00E94011F88E296E060E070E040E4A5
:1005D00050E00E94011FE4ECF0E08FE590E0918391
:1005E0008083ECECF0E087E090E091838083E4EDA1
:1005F000F0E087E090E091838083E4E3F1E08FE531
:1006000090E091838083E1ECF0E088E98083E9EC7D
:10061000F0E088E98083E1EDF0E088E98083E1E3C0
:10062000F1E088E98083E2ECF0E086E08083EAECA8
:10063000F0E086E08083E2EDF0E086E08083E2E3B4
:10064000F1E086E08083E6ECF0E080818983EEECE7
:10065000F0E080818983E6EDF0E080818983E6E344
:10066000F1E0808189830F90CF91DF9108951F92EF
:100670000F920FB60F9211242F938F939F93EF93A6
:10068000FF93DF93CF93CDB7DEB780916906882FB4
:1006900090E0E6ECF0E02081FC01EC55FA4F20837D
:1006A000809169068F5F8093690680916906803426
:1006B00011F410926906CF91DF91FF91EF919F9114
:1006C0008F912F910F900FBE0F901F9018951F9232
:1006D0000F920FB60F9211242F938F939F93EF9346
:1006E000FF93DF93CF93CDB7DEB78091A005882F1E
:1006F00090E0EEECF0E02081FC01E05AFA4F20831C
:100700008091A0058F5F8093A0058091A005803423
:1007100011F41092A005CF91DF91FF91EF919F917D
:100720008F912F910F900FBE0F901F9018951F92D1
:100730000F920FB60F9211242F938F939F93EF93E5
:10074000FF93DF93CF93CDB7DEB780912706882F35
:1007500090E0E6EDF0E02081FC01EB51FA4F2083C0
:10076000809127068F5F809327068091270680342B
:1007700011F410922706CF91DF91FF91EF919F9195
:100780008F912F910F900FBE0F901F9018951F9271
:100790000F920FB60F9211242F938F939F93EF9385
:1007A000FF93DF93CF93CDB7DEB780916806882F94
:1007B00090E0E6E3F1E02081FC01E85DF94F208361
:1007C000809168068F5F8093680680916806803408
:1007D00011F410926806CF91DF91FF91EF919F91F4
:1007E0008F912F910F900FBE0F901F901895DF9350
:1007F000CF930F92CDB7DEB780916B06882F90E034
:10080000FC01EC55FA4F8081898380916B068F5FE4
:1008100080936B0680916B06803411F410926B0606
:1008200089810F90CF91DF910895DF93CF930F923D
:10083000CDB7DEB78091E405882F90E0FC01E05A47
:10084000FA4F808189838091E4058F5F8093E4056E
:100850008091E405803411F41092E40589810F90B1
:10086000CF91DF910895DF93CF930F92CDB7DEB78D
:100870008091A305882F90E0FC01EB51FA4F808115
:1008800089838091A3058F5F8093A3058091A30541
:10089000803411F41092A30589810F90CF91DF91DC
:1008A0000895DF93CF930F92CDB7DEB780916A069C
:1008B000882F90E0FC01E85DF94F80818983809169
:1008C0006A068F5F80936A0680916A06803411F40D
:1008D00010926A0689810F90CF91DF910895DF937E
:1008E000CF930F92CDB7DEB78983E0ECF0E0808143
:1008F000882F90E0807290700097B9F3E6ECF0E0FA
:10090000898180830F90CF91DF910895DF93CF93FA
:100910000F92CDB7DEB78983E8ECF0E08081882FB5
:1009200090E0807290700097B9F3EEECF0E089816E
:1009300080830F90CF91DF910895DF93CF930F9233
:10094000CDB7DEB78983E0EDF0E08081882F90E0BD
:10095000807290700097B9F3E6EDF0E089818083B2
:100960000F90CF91DF910895DF93CF930F92CDB782
:10097000DEB78983E0E3F1E08081882F90E0807228
:1009800090700097B9F3E6E3F1E0898180830F90DE
:10099000CF91DF910895DF93CF9300D000D0CDB7F2
:1009A000DEB79C838B831A82198211C02B813C8114
:1009B00089819A81F901E80FF91F8081282F8981A7
:1009C0009A8101969A838983822F0E946F042B81DA
:1009D0003C8189819A81F901E80FF91F8081882380
:1009E00029F70F900F900F900F90CF91DF910895FE
:1009F000DF93CF9300D000D0CDB7DEB79C838B833D
:100A00001A82198211C02B813C8189819A81F90156
:100A1000E80FF91F8081282F89819A8101969A8396
:100A20008983822F0E9486042B813C8189819A814F
:100A3000F901E80FF91F8081882329F70F900F90A3
:100A40000F900F90CF91DF910895DF93CF9300D057
:100A500000D0CDB7DEB79C838B831A82198211C078
:100A60002B813C8189819A81F901E80FF91F8081EE
:100A7000282F89819A8101969A838983822F0E94E7
:100A80009D042B813C8189819A81F901E80FF91F2E
:100A90008081882329F70F900F900F900F90CF91AE
:100AA000DF910895DF93CF9300D000D0CDB7DEB7AC
:100AB0009C838B831A82198211C02B813C8189818E
:100AC0009A81F901E80FF91F8081282F89819A8185
:100AD00001969A838983822F0E94B4042B813C81E2
:100AE00089819A81F901E80FF91F8081882329F70C
:100AF0000F900F900F900F90CF91DF910895DF939B
:100B0000CF9300D000D00F92CDB7DEB79B838A83FE
:100B10007D836C8319820FC08981282F30E08A8100
:100B20009B81FC01E20FF31F908189818F5F898394
:100B3000892F0E946F048981282F30E08C819D814C
:100B40002817390748F30F900F900F900F900F90D0
:100B5000CF91DF910895DF93CF9300D000D000D0E4
:100B6000CDB7DEB79C838B837E836D831A82198217
:100B700010C02B813C8189819A81F901E80FF91F0E
:100B8000208189819A8101969A838983822F0E948C
:100B9000860429813A818D819E812817390748F37F
:100BA00026960FB6F894DEBF0FBECDBFCF91DF9172
:100BB0000895DF93CF9300D000D000D0CDB7DEB73B
:100BC0009C838B837E836D831A82198210C02B8154
:100BD0003C8189819A81F901E80FF91F208189817F
:100BE0009A8101969A838983822F0E949D0429818C
:100BF0003A818D819E812817390748F326960FB6D2
:100C0000F894DEBF0FBECDBFCF91DF910895DF9383
:100C1000CF9300D000D000D0CDB7DEB79C838B83BC
:100C20007E836D831A82198210C02B813C81898159
:100C30009A81F901E80FF91F208189819A81019633
:100C40009A838983822F0E94B40429813A818D81FD
:100C50009E812817390748F326960FB6F894DEBF11
:100C60000FBECDBFCF91DF910895DF93CF93CDB766
:100C7000DEB72E970FB6F894DEBF0FBECDBF8B83C5
:100C80006C834D832E831A8219828B818A336CF494
:100C90008B81992787FD9095C0979C01322F222741
:100CA0003295307F3E872D870CC08B81992787FD39
:100CB0009095C7979C01322F22273295307F3E872F
:100CC0002D872D853E8589819A81822B932B9A834E
:100CD00089838C818A3354F48C81992787FD909580
:100CE000C097382F22273C872B8709C08C819927F2
:100CF00087FD9095C797382F22273C872B872B8518
:100D00003C8589819A81822B932B9A8389838D815B
:100D10008A337CF48D81992787FD9095C0979C013B
:100D200022953295307F3227207F32273A872987D4
:100D30000EC08D81992787FD9095C7979C012295BC
:100D40003295307F3227207F32273A8729872985BD
:100D50003A8589819A81822B932B9A8389838E810C
:100D60008A3354F48E81992787FD90959C012053F6
:100D7000304038872F8309C08E81992787FD909551
:100D80009C012753304038872F832F8138858981F4
:100D90009A81822B932B9A83898389819A812E96BB
:100DA0000FB6F894DEBF0FBECDBFCF91DF9108958F
:100DB0002F923F924F925F926F927F928F929F926B
:100DC000AF92BF92CF92DF92EF92FF920F931F9359
:100DD000DF93CF93CDB7DEB7C451D1400FB6F894AF
:100DE000DEBF0FBECDBF10C00E94330489832091A7
:100DF0004E05822F90E0FC01E459F94F89818083F0
:100E0000822F8F5F80934E059091A30580912706D6
:100E1000981751F790914E0580914F05292F281B67
:100E2000822F882F90E09C838B838B819C818330E1
:100E300091050CF42CC380914F05882F90E0FC01A4
:100E4000E459F94F8081833C31F080914F058F5FE9
:100E500080934F051CC380914F058F5F882F90E0D2
:100E6000FC01E459F94F80818A8318861F820EC0E5
:100E70008F819885FC01EF53FD4F90818A819817EF
:100E800071F08F819885019698878F832091D90280
:100E90003091DA028F819885821793074CF3209165
:100EA000D9023091DA028F8198858217930729F44D
:100EB00080914F058E5F80934F058F819885FC014F
:100EC000E353FD4F8081882F90E09E838D838B813B
:100ED0009C8102979C838B8318861F8223C09F81ED
:100EE00080914F05890F8E5F882F90E0FC01E459B7
:100EF000F94F80818A838A818D3529F48F81988585
:100F00009E838D831DC02F813885CE01875F9E4FC4
:100F1000FC01E20FF31F8A8180838F8198850196FF
:100F200098878F832F8138858B819C81281739077B
:100F30003CF42F8138858D819E81821793077CF642
:100F40002F8138858B819C812817390709F49FC22E
:100F50002F8138858D819E818217930744F49F816C
:100F600080914F05890F8E5F80934F0590C28091CD
:100F70004F058F5F882F90E0FC01E459F94F808185
:100F80008A839D8180914F05890F8D5F80934F05E6
:100F90008A818A3579F518861F8224C02F81388589
:100FA000CE01875F9E4FFC01E20FF31F80818035E9
:100FB00029F40E945A0E0E94B00A0FC02F81388572
:100FC000CE01875F9E4FFC01E20FF31F80818435C5
:100FD00021F40E949D0C0E948D0A8F8198850196B4
:100FE00098878F832F8138858D819E8128173907B7
:100FF000ACF24DC28A81823579F518861F8224C0F1
:101000002F813885CE01875F9E4FFC01E20FF31FD1
:101010008081803529F482E090E00E945F0B0FC050
:101020002F813885CE01875F9E4FFC01E20FF31FB1
:101030008081843521F482E090E00E94040B8F814E
:101040009885019698878F832F8138858D819E8121
:1010500028173907ACF21BC28A81813479F51886CA
:101060001F8224C02F813885CE01875F9E4FFC01EF
:10107000E20FF31F8081803529F481E090E00E9427
:101080005F0B0FC02F813885CE01875F9E4FFC011B
:10109000E20FF31F8081843521F481E090E00E940B
:1010A000040B8F819885019698878F832F813885CF
:1010B0008D819E8128173907ACF2E9C18A81843578
:1010C00059F518861F8220C02F813885CE01875F91
:1010D0009E4FFC01E20FF31F8081803519F40E94BE
:1010E000B8110DC02F813885CE01875F9E4FFC015E
:1010F000E20FF31F8081843511F40E94F8118F8173
:101100009885019698878F832F8138858D819E8160
:1011100028173907CCF2BBC18A81803509F06AC033
:1011200060916C0770916D07A091C807B091C907D5
:10113000C090A207D090A307209172073091730747
:101140004091740750917507A090A007B090A10737
:101150008090A4079090A5076090A6077090A707BD
:101160004090780750907907E0906E07F0906F07F5
:10117000009170071091710720909C0730909D0797
:101180008DB79EB74C970FB6F8949EBF0FBE8DBF1C
:10119000EDB7FEB73196CE010996918380838BED32
:1011A00092E09383828375836483B783A683D18619
:1011B000C0862287338744875587B786A686918A5B
:1011C000808A738A628A558A448AE68AF78A008FFF
:1011D000118F338E228E0E943F1F8DB79EB74C9683
:1011E0000FB6F8949EBF0FBE8DBFCE0109960E9428
:1011F00025054DC18A81873491F5E091A105F091D3
:10120000A20509958C01E0912506F0912606099525
:101210009C018DB79EB708970FB6F8949EBF0FBE7E
:101220008DBFEDB7FEB73196CE01099691838083CD
:101230008DEC93E093838283158304833783268325
:101240000E943F1F8DB79EB708960FB6F8949EBFB9
:101250000FBE8DBFCE0109960E94250518C18A8157
:10126000813561F50E945A0E8C010E949D0C9C01F3
:101270008DB79EB708970FB6F8949EBF0FBE8DBF6F
:10128000EDB7FEB73196CE010996918380838CEF3E
:1012900093E09383828315830483378326830E949C
:1012A0003F1F8DB79EB708960FB6F8949EBF0FBE2E
:1012B0008DBFCE0109960E942505E9C08A8183353C
:1012C00099F58D819E818830910509F0E0C0FE017D
:1012D000E75FFE4F8081FE01E75FFE4F3181FE0137
:1012E000E75FFE4F9281FE01E75FFE4F2381632F90
:1012F000492F0E9435060E94610AFE01E75FFE4FFA
:101300008481FE01E75FFE4F3581FE01E75FFE4FFE
:101310009681FE01E75FFE4F2781632F492F0E94D0
:1013200035060E94720AB3C08A81863529F484E0AA
:1013300090E00E94D30AABC08A81843429F483E010
:1013400090E00E94D30AA3C08A81803709F071C05F
:101350008D819E818930910509F099C0FE01E75F7A
:10136000FE4F8081803579F5FE01E75FFE4F818178
:10137000FE01E75FFE4F3281FE01E75FFE4F938182
:10138000FE01E75FFE4F2481632F492F0E9435063F
:101390008C01FE01E75FFE4F8581FE01E75FFE4F96
:1013A0003681FE01E75FFE4F9781FE01E75FFE4F4A
:1013B0002085632F492F0E9435069C01C801B90181
:1013C0000E94370C64C0FE01E75FFE4F80818435C8
:1013D00009F05DC0FE01E75FFE4F8181FE01E75F1E
:1013E000FE4F3281FE01E75FFE4F9381FE01E75F12
:1013F000FE4F2481632F492F0E9435068C01FE0188
:10140000E75FFE4F8581FE01E75FFE4F3681FE01FB
:10141000E75FFE4F9781FE01E75FFE4F2085632F58
:10142000492F0E9435069C01C801B9010E94BB0BDF
:101430002EC08A81843659F580914C0590914D05D6
:10144000CD5EDE4F19821882C351D140009741F41E
:1014500081E090E0CD5EDE4F99838883C351D14017
:10146000CD5EDE4F88819981C351D14090934D0567
:1014700080934C05CE01099623E334E0B90145E0A1
:1014800050E00E94F81ECE0109960E94F804CC5E3E
:10149000DE4F0FB6F894DEBF0FBECDBFCF91DF9108
:1014A0001F910F91FF90EF90DF90CF90BF90AF9082
:1014B0009F908F907F906F905F904F903F902F9074
:1014C000089521E030E03093510520935005929526
:1014D00082958F7089279F70892790933904809314
:1014E0003804089521E030E03093530520935205ED
:1014F000929582958F7089279F70892790933F04DA
:1015000080933E04089580913804909139040895A1
:1015100080913E0490913F0408959C0180919E0724
:1015200090919F07029751F03093A5072093A4074D
:10153000B90188E190E00E942F20089580917807FA
:101540009091790796958795820F931F9093A507A1
:101550008093A407BC0188E190E00E942F200895A9
:101560009C0180919A0790919B07029751F03093CC
:101570006D0720936C07B9018AE090E00E942F204C
:1015800008958091A2079091A30796958795820F61
:10159000931F90936D0780936C07BC018AE090E0E5
:1015A0000E942F20089584309105E9F08330910541
:1015B00049F0609176077091770780E090E00E9493
:1015C0002F200895909377078093760783E89AE019
:1015D0009093A2058093A10588E89AE0909326064F
:1015E00080932506E6CF90937707809376078BE16B
:1015F00090E19093A2058093A10587E190E19093FB
:10160000260680932506D5CFAC0180919E07909148
:101610009F078417950731F04230510521F0413082
:10162000510589F1089580917807909179079695F1
:1016300087952091A4073091A507281B390B30937B
:10164000A5072093A40784EB90E09093A7078093CD
:10165000A60750939F0740939E07BC018AE190E044
:101660000E942F206091A4077091A50788E190E067
:101670000E942F2060919E0770919F078CE190E05F
:101680000E942F2008958091780790917907969570
:1016900087952091A4073091A507280F391F309313
:1016A000A5072093A40788E691E09093A70780936D
:1016B000A60750939F0740939E07BC01CFCFAC0174
:1016C00080919A0790919B078417950731F04230DB
:1016D000510521F04130510589F108958091A2070B
:1016E0009091A3079695879520916C0730916D078F
:1016F000281B390B30936D0720936C0784EB90E027
:101700009093C9078093C80750939B0740939A070B
:10171000BC018CE090E00E942F2060916C077091DA
:101720006D078AE090E00E942F2060919A077091E7
:101730009B078EE090E00E942F2008952091A20741
:101740003091A3073695279580916C0790916D078E
:10175000820F931F90936D0780936C071092C907B7
:101760001092C80750939B0740939A076091C8074F
:101770007091C907CECF6F927F928F929F92AF9256
:10178000BF92CF92DF92EF92FF920F931F935C0173
:101790003B010091A4071091A50780909C079090B1
:1017A0009D07681B790B80E090E00E94E9176B01B0
:1017B0007C0120E030E040E45FE30E945B160E9481
:1017C00095177093790760937807B0929D07A09260
:1017D0009C07081919090A0D1B1D1093A5070093F2
:1017E000A40760E070E087E893ECA70196010E94EF
:1017F0005B1660936E0770936F07809370079093EA
:10180000710788E190E0B8010E942F20609178076D
:101810007091790784E190E00E942F2060919C07ED
:1018200070919D0786E190E00E942F2040916E0705
:1018300050916F07609170077091710780E190E09F
:101840000E942720B0924304A09242047092410467
:10185000609240041F910F91FF90EF90DF90CF9026
:10186000BF90AF909F908F907F906F900895CF9290
:10187000DF92EF92FF920F931F937C016B01009117
:101880006C0710916D078091A0079091A107081B2C
:10189000190B0E0D1F1D10936D0700936C07F0922E
:1018A000A107E092A0076E197F097093A3076093C8
:1018B000A20780E090E00E94E9179B01AC0160E084
:1018C00070E084EB93E40E945B1660937207709360
:1018D000730780937407909375078AE090E0B801CE
:1018E0000E942F206091A0077091A10788E090E0EE
:1018F0000E942F206091A2077091A30786E090E0DC
:101900000E942F20409172075091730760917407D5
:101910007091750782E090E00E942720F0923D04CC
:10192000E0923C04D0923B04C0923A041F910F9184
:10193000FF90EF90DF90CF9008956F927F928F92FB
:101940009F92AF92BF92CF92DF92EF92FF920F934E
:101950001F93DF93CF93CDB7DEB7A0970FB6F89460
:10196000DEBF0FBECDBF8091520590915305892BEC
:1019700031F580915A0590915B05A0915C05B0917D
:101980005D0524E0B695A795979587952A95D1F79B
:101990006C01C601A0960FB6F894DEBF0FBECDBF96
:1019A000CF91DF911F910F91FF90EF90DF90CF903B
:1019B000BF90AF909F908F907F906F9008951092FE
:1019C00053051092520500915E0510915F05000FBE
:1019D000111F0855184FF8012081318140E050E077
:1019E00080915A0590915B05A0915C05B0915D05D1
:1019F000821B930BA40BB50B80935A0590935B0548
:101A0000A0935C05B0935D05E0912506F091260654
:101A10000995F8019183808360915E0570915F055F
:101A2000FB01EE0FFF1FE855F84F80819181A0E088
:101A3000B0E020915A0530915B0540915C055091D2
:101A40005D05820F931FA41FB51F80935A059093C5
:101A50005B05A0935C05B0935D056F5F7F4F6F7072
:101A6000707070935F0560935E0504E0B695A7956E
:101A7000979587950A95D1F76C0188EA97E0BE01A2
:101A80006F5F7F4F40E150E00E943A128E01035F8A
:101A90001F4FC80164E070E00E94C7123C01C801FA
:101AA00064E070E00E9416134C01E0912506F0916D
:101AB00026060995A0907807B09079078C199D09A2
:101AC000A0E0B0E0BC01CD010E94E9177B018C01D0
:101AD000B50180E090E00E94E9172DEC3CEC4CE46D
:101AE0005FE30E9461159B01AC01C801B7010E9430
:101AF0000717181674F1609140047091410468153D
:101B0000790508F1809142049091430468167906A2
:101B100008F03FCF709243046092420420919C07EA
:101B200030919D07A20EB31EA616B70608F47CC01E
:101B300080914204909143048217930708F029CFC3
:101B40000E94BB0B26CF9092410480924004B401C6
:101B5000E5CFE0912506F091260609959C014427E2
:101B600037FD4095542F9093A9078093A807909331
:101B7000AB078093AA079093AD078093AC0790932F
:101B8000AF078093AE079093B1078093B00790930F
:101B9000B3078093B2079093B5078093B4079093EF
:101BA000B7078093B6079093B9078093B8079093CF
:101BB000BB078093BA079093BD078093BC079093AF
:101BC000BF078093BE079093C1078093C00790938F
:101BD000C3078093C2079093C5078093C40790936F
:101BE000C7078093C607220F331F441F551F220FBC
:101BF000331F441F551F220F331F441F551F220F31
:101C0000331F441F551F20935A0530935B054093A3
:101C10005C0550935D05A4E056954795379527954B
:101C2000AA95D1F76901B5CE809142049091430401
:101C300087CFEF92FF920F931F930E949D0C6091AC
:101C40007807709179072091A4073091A507AB011F
:101C5000421B530B840F951F0E946513AA2797FD03
:101C6000A095BA2FBC01CD010E94371720916E07B5
:101C700030916F0740917007509171070E94611574
:101C80007B018C016091A6077091A707882777FDDB
:101C90008095982F0E9437179B01AC01C801B701AE
:101CA0000E9434150E949517CB011F910F91FF9050
:101CB000EF9008956F927F928F929F92AF92BF9212
:101CC000CF92DF92EF92FF920F931F93DF93CF9308
:101CD000CDB7DEB7A0970FB6F894DEBF0FBECDBF6D
:101CE0008091500590915105892B31F580915405D3
:101CF00090915505A0915605B091570514E0B69501
:101D0000A795979587951A95D1F76C01C601A0966E
:101D10000FB6F894DEBF0FBECDBFCF91DF911F91FC
:101D20000F91FF90EF90DF90CF90BF90AF909F907A
:101D30008F907F906F9008951092510510925005EA
:101D40000091580510915905000F111F0658184FA2
:101D5000F8012081318140E050E08091540590915C
:101D60005505A0915605B0915705821B930BA40B06
:101D7000B50B8093540590935505A0935605B093E9
:101D80005705E091A105F091A2050995F80191830D
:101D900080836091580570915905FB01EE0FFF1F7C
:101DA000E658F84F80819181A0E0B0E02091540581
:101DB000309155054091560550915705820F931F5C
:101DC000A41FB51F8093540590935505A093560505
:101DD000B09357056F5F7F4F6F70707070935905A8
:101DE00060935805F4E0B695A79597958795FA9571
:101DF000D1F76C018AE797E0BE016F5F7F4F40E14A
:101E000050E00E943A128E01035F1F4FC80164E048
:101E100070E00E94C7123C01C80164E070E00E94BB
:101E200016134C01E091A105F091A2050995A0902F
:101E3000A207B090A3078C199D09A0E0B0E0BC01F7
:101E4000CD010E94E9177B018C01B50180E090E093
:101E50000E94E9172DEC3CEC4CE45FE30E94611515
:101E60009B01AC01C801B7010E940717181674F155
:101E700060913A0470913B046815790508F18091EE
:101E80003C0490913D046816790608F03FCF7092AB
:101E90003D0460923C042091A0073091A107A20E5E
:101EA000B31EA616B70608F47CC080913C0490913E
:101EB0003D048217930708F029CF0E94370C26CFE4
:101EC00090923B0480923A04B401E5CFE091A105E1
:101ED000F091A20509959C01442737FD4095542FA8
:101EE00090937B0780937A0790937D0780937C077C
:101EF00090937F0780937E0790938107809380075C
:101F0000909383078093820790938507809384073B
:101F1000909387078093860790938907809388071B
:101F200090938B0780938A0790938D0780938C07FB
:101F300090938F0780938E079093910780939007DB
:101F400090939307809392079093950780939407BB
:101F5000909397078093960790939907809398079B
:101F6000220F331F441F551F220F331F441F551FBD
:101F7000220F331F441F551F220F331F441F551FAD
:101F800020935405309355054093560550935705BB
:101F900064E056954795379527956A95D1F769017D
:101FA000B5CE80913C0490913D0487CFEF92FF9293
:101FB0000F931F930E945A0E6091A2077091A3077E
:101FC00020916C0730916D07AB01421B530B840FBE
:101FD000951F0E946513AA2797FDA095BA2FBC01F3
:101FE000CD010E94371720917207309173074091FD
:101FF0007407509175070E9461157B018C016091F7
:10200000C8077091C907882777FD8095982F0E948F
:1020100037179B01AC01C801B7010E9403150E944C
:102020009517CB011F910F91FF90EF90089583E0DA
:102030000E947302089580E00E94730208956F92D7
:102040007F928F929F92AF92BF92CF92DF92EF9248
:10205000FF920F931F93CF93DF9380913804909159
:10206000390420913E0430913F047C0100E010E0EF
:10207000A90160E070E0A0905A05B0905B05C090A7
:102080005C05D0905D05609054057090550580907A
:1020900056059090570590937B0780937A0730936D
:1020A000A9072093A80790937D0780937C0730931E
:1020B000AB072093AA0790937F0780937E07309306
:1020C000AD072093AC0790938107809380073093EE
:1020D000AF072093AE0790938307809382073093D6
:1020E000B1072093B00790938507809384073093BE
:1020F000B3072093B20790938707809386073093A6
:10210000B5072093B407909389078093880730938D
:10211000B7072093B60790938B0780938A07309375
:10212000B9072093B80790938D0780938C0730935D
:10213000BB072093BA0790938F0780938E07309345
:10214000BD072093BC07909391078093900730932D
:10215000BF072093BE079093930780939207309315
:10216000C1072093C00790939507809394073093FD
:10217000C3072093C20790939707809396073093E5
:10218000C5072093C40790939907809398073093CD
:10219000C7072093C607440F551F661F771F440FBC
:1021A000551F661F771F440F551F661F771F440F6B
:1021B000551F661F771FA40EB51EC61ED71EA09200
:1021C0005A05B0925B05C0925C05D0925D05EE0C9D
:1021D000FF1C001F111FEE0CFF1C001F111FEE0C37
:1021E000FF1C001F111FEE0CFF1C001F111F6E0CA7
:1021F0007F1C801E911E609254057092550580923E
:1022000056059092570503E81AE01093A205009333
:10221000A105C8E8DAE0D0932606C093250680E041
:1022200090E00E9421208430910509F490C0833011
:10223000910509F47FC0609176077091770780E07F
:1022400090E00E942F2082E090E00E941B2060938B
:10225000720770937307809374079093750788E0F3
:1022600090E00E9421209093A1078093A00786E030
:1022700090E00E9421209093A3078093A2078EE014
:1022800090E00E94212090939B0780939A078AE018
:1022900090E00E94212090936D0780936C078CE062
:1022A00090E00E9421209093C9078093C80780E1A5
:1022B00090E00E941B2060936E0770936F078093DD
:1022C00070079093710786E190E00E94212090931F
:1022D0009D0780939C0784E190E00E9421209093C9
:1022E0007907809378078CE190E00E9421209093F9
:1022F0009F0780939E0788E190E00E9421209093A1
:10230000A5078093A4078AE190E00E942120909382
:10231000A7078093A607DF91CF911F910F91FF90A0
:10232000EF90DF90CF90BF90AF909F908F907F9075
:102330006F90089590937707809376071093A20586
:102340000093A105D0932606C093250674CF9093E1
:102350007707809376078BE190E19093A2058093B5
:10236000A10587E190E1909326068093250663CF2F
:1023700080919A0790919B0740E050E0009711F4FC
:1023800041E050E08417950719F04130510509F0FC
:1023900008952091A2073091A30736952795809143
:1023A0006C0790916D07820F931F90936D07809338
:1023B0006C071092C9071092C80750939B0740936F
:1023C0009A078CE090E060E070E00E942F2060911E
:1023D0006C0770916D078AE090E00E942F20609159
:1023E0009A0770919B078EE090E00E942F2008953D
:1023F00080919E0790919F0740E050E0009711F474
:1024000041E050E08417950719F04130510509F07B
:102410000895209178073091790736952795809116
:10242000A4079091A507820F931F9093A50780930F
:10243000A40788E691E09093A7078093A60750939E
:102440009F0740939E078AE190E068E671E00E9452
:102450002F206091A4077091A50788E190E00E9469
:102460002F2060919E0770919F078CE190E00E9461
:102470002F200895DF93CF93CDB7DEB72C970FB6FB
:10248000F894DEBF0FBECDBF98878F837A876987A8
:102490005C874B871E821D8269C08D819E819C0155
:1024A000220F331F8F819885FC01E20FF31F80817B
:1024B00091819A8389838D819E819C838B8325C0A2
:1024C0008B819C819C01220F331F89859A85DC01B9
:1024D000A20FB31F2B813C8181E090E0821B930B04
:1024E000880F991F22273327281B390B89859A8546
:1024F000FC01E20FF31F8081918111969C938E93D2
:102500008B819C8101979C838B838B819C81181686
:102510001906CCF42B813C8181E090E0821B930B67
:10252000880F991F22273327281B390B89859A8505
:10253000FC01E20FF31F2081318189819A8182178A
:10254000930708F4BDCF8B819C819C01220F331F20
:1025500089859A85FC01E20FF31F89819A81918315
:1025600080838D819E8101969E838D832D813E8106
:102570008B859C852817390708F48FCF2C960FB6CA
:10258000F894DEBF0FBECDBFCF91DF910895DF93EA
:10259000CF93CDB7DEB728970FB6F894DEBF0FBE46
:1025A000CDBF9E838D8378876F83ED81FE8180818F
:1025B00091819A83898381E090E09C838B8324C0FE
:1025C0008B819C819C01220F331F8D819E81FC0198
:1025D000E20FF31F2081318189819A812817390701
:1025E00070F48B819C819C01220F331F8D819E8111
:1025F000FC01E20FF31F808191819A8389838B8193
:102600009C8101969C838B832B813C818F81988553
:1026100028173907A8F289819A8128960FB6F8946D
:10262000DEBF0FBECDBFCF91DF910895DF93CF9373
:10263000CDB7DEB728970FB6F894DEBF0FBECDBF7B
:102640009E838D8378876F83ED81FE818081918168
:102650009A83898381E090E09C838B8324C08B8163
:102660009C819C01220F331F8D819E81FC01E20F12
:10267000F31F2081318189819A818217930770F439
:102680008B819C819C01220F331F8D819E81FC01D7
:10269000E20FF31F808191819A8389838B819C81D2
:1026A00001969C838B832B813C818F819885281791
:1026B0003907A8F289819A8128960FB6F894DEBF6F
:1026C0000FBECDBFCF91DF910895EF92FF920F9390
:1026D0001F93DF93CF9300D000D0CDB7DEB79A839E
:1026E00089837C836B8389819A81AA2797FDA09532
:1026F000BA2FBC01CD010E9437177B018C018B8161
:102700009C81AA2797FDA095BA2FBC01CD010E94FC
:1027100037179B01AC01C801B7010E945B16DC01B1
:10272000CB01BC01CD010E94C11FDC01CB01BC016A
:10273000CD010E949517DC01CB019C018B819C810E
:10274000A901489F9001499F300D589F300D1124D9
:1027500089819A81821B930B0F900F900F900F909D
:10276000CF91DF911F910F91FF90EF900895A0E01E
:10277000B0E0EDEBF3E10C94DE1DDC012B01FA017E
:102780009C91923008F439C1EB018881823008F4C1
:1027900033C1943069F4843009F02FC111969C91B3
:1027A00011978981981709F428C1A4E4B4E025C1E0
:1027B000843009F421C18230A9F4923009F01DC19E
:1027C0009A01AD0188E0EA010990AE01E9010992A0
:1027D0009E018150C1F7E201898111969C91892364
:1027E000818308C1923009F407C112962D903C9064
:1027F0001397EB018A819B811496AD90BD90CD908B
:10280000DC901797EC80FD800E811F819101281BC1
:10281000390BB90137FF04C066277727621B730B9A
:10282000603271050CF061C0121613066CF53701A9
:102830004801062E04C096948794779467940A946E
:10284000D2F721E030E040E050E004C0220F331F17
:10285000441F551F6A95D2F72150304040405040E8
:102860002E213F21402351232115310541055105DA
:1028700021F021E030E040E050E079018A01E628D3
:10288000F728082919293CC0232BD1F1260E371E21
:1028900035014601062E04C0969487947794679478
:1028A0000A94D2F721E030E040E050E004C0220F6B
:1028B000331F441F551F6A95D2F7215030404040C6
:1028C00050402A213B214C215D2121153105410534
:1028D000510521F021E030E040E050E059016A016B
:1028E000A628B728C828D9280BC0821593052CF034
:1028F0001C01AA24BB24650103C0EE24FF24870128
:1029000011969C91D20111968C91981709F445C0AB
:10291000992339F0A80197012A193B094C095D094F
:1029200006C0A60195012E193F09400B510B57FD1A
:1029300008C01182338222822483358346835783E1
:102940001DC081E081833382228288279927DC01A0
:10295000821B930BA40BB50B84839583A683B7834B
:102960000DC0220F331F441F551F24833583468318
:102970005783828193810197938382832481358158
:1029800046815781DA01C9010197A109B1098F5F19
:102990009F4FAF4FBF4328F30BC0918333822282F6
:1029A000EA0CFB1C0C1D1D1DE482F58206831783B7
:1029B00083E08083248135814681578157FF1AC087
:1029C000C901AA2797FDA095BA2F81709070A070B9
:1029D000B0705695479537952795822B932BA42B4E
:1029E000B52B84839583A683B783828193810196D7
:1029F00093838283DF0101C0D201CD01CDB7DEB761
:102A0000E2E10C94FA1DA0E2B0E0E9E0F5E10C94FB
:102A1000EA1D69837A838B839C832D833E834F8356
:102A20005887E9E0EE2EF12CEC0EFD1ECE0101964A
:102A3000B7010E9486198E010F5E1F4FCE010596C9
:102A4000B8010E9486198A8991E089278A8BC7017B
:102A5000B801AE01475E5F4F0E94B7130E94B118E4
:102A6000A096E6E00C94061EA0E2B0E0EAE3F5E1F1
:102A70000C94EA1D69837A838B839C832D833E8328
:102A80004F835887F9E0EF2EF12CEC0EFD1ECE019E
:102A90000196B7010E9486198E010F5E1F4FCE016D
:102AA0000596B8010E948619C701B801AE01475EBC
:102AB0005F4F0E94B7130E94B118A096E6E00C94F5
:102AC000061EA0E2B0E0E7E6F5E10C94DE1D6983A6
:102AD0007A838B839C832D833E834F835887CE01DB
:102AE0000196BE01675F7F4F0E948619CE01059651
:102AF000BE016F5E7F4F0E9486199985923088F0E3
:102B000089898230C8F0943019F4823051F404C0BD
:102B1000843029F4923081F484E494E0C6C0923089
:102B200049F420E09A858A89981321E02A87CE010A
:102B30000996BBC0823049F420E09A858A899813AF
:102B400021E02A8BCE014196B0C02D843E844F8473
:102B500058886D887E888F88988CEE24FF248701A2
:102B6000AA24BB24650140E050E060E070E0E0E0B2
:102B7000F0E0C10181709070892BE9F0E60CF71C40
:102B8000081D191D9A01AB012A0D3B1D4C1D5D1D31
:102B900080E090E0A0E0B0E0E614F7040805190535
:102BA00020F481E090E0A0E0B0E0BA01A901480F74
:102BB000591F6A1F7B1FAA0CBB1CCC1CDD1C97FE77
:102BC00008C081E090E0A0E0B0E0A82AB92ACA2AB3
:102BD000DB2A3196E032F10549F0660C771C881C3F
:102BE000991C5694479437942794C3CFFA85EA8961
:102BF0002B893C898B859C85280F391F2E5F3F4F81
:102C000017C0CA0181709070892B61F016950795E5
:102C1000F794E79480E090E0A0E0B0E8E82AF92A91
:102C20000A2B1B2B76956795579547952F5F3F4F3E
:102C300077FDE7CF0CC0440F551F661F771F17FDA8
:102C40004160EE0CFF1C001F111F2150304040302E
:102C500090E0590790E0690790E4790760F32B8FC3
:102C60003C8FDB01CA018F779070A070B070803408
:102C70009105A105B10561F447FD0AC0E114F10415
:102C80000105110529F0405C5F4F6F4F7F4F407881
:102C90001A8EFE1711F081E08A8F4D8F5E8F6F8F35
:102CA00078A383E0898FCE0149960E94B118A0963F
:102CB000E2E10C94FA1DA8E1B0E0E1E6F6E10C9443
:102CC000E61D69837A838B839C832D833E834F83A8
:102CD0005887B9E0EB2EF12CEC0EFD1ECE010196CB
:102CE000B7010E9486198E010F5E1F4FCE01059617
:102CF000B8010E9486192985223008F47EC03989DE
:102D0000323010F4B8017CC08A859A8989278A8775
:102D1000243011F0223031F4231709F06EC064E43E
:102D200074E06EC0343039F41D861E861F86188A02
:102D30001C861B8604C0323021F484E08987B701E9
:102D40005FC02B853C858B899C89281B390B3C8770
:102D50002B87ED84FE840F851889AD88BE88CF88C7
:102D6000D88CEA14FB040C051D0540F4EE0CFF1C86
:102D7000001F111F215030403C872B8720E030E09E
:102D800040E050E080E090E0A0E0B0E460E070E07F
:102D9000EA14FB040C051D0540F0282B392B4A2BA7
:102DA0005B2BEA18FB080C091D09B695A7959795AA
:102DB0008795EE0CFF1C001F111F6F5F7F4F6F3157
:102DC000710531F7DA01C9018F779070A070B0708A
:102DD00080349105A105B10561F427FD0AC0E11415
:102DE000F1040105110529F0205C3F4F4F4F5F4F63
:102DF00020782D873E874F87588BBE01675F7F4FB6
:102E0000CB010E94B1186896EAE00C94021EA8E17A
:102E1000B0E0EDE0F7E10C94EA1D69837A838B83DF
:102E20009C832D833E834F83588789E0E82EF12CC5
:102E3000EC0EFD1ECE010196B7010E9486198E018F
:102E40000F5E1F4FCE010596B8010E948619898535
:102E5000823040F08989823028F0C701B8010E9491
:102E6000FE1901C08FEF6896E6E00C94061EA8E0FC
:102E7000B0E0EDE3F7E10C94E71D9B01AC0183E0CA
:102E80008983DA01C9018827B7FD83959927AA2785
:102E9000BB27B82E211531054105510519F482E0F3
:102EA00089833AC08823A9F0203080E0380780E089
:102EB000480780E8580729F460E070E080E09FEC64
:102EC00030C0EE24FF248701E21AF30A040B150B2D
:102ED00002C079018A018EE1C82ED12CDC82CB821E
:102EE000ED82FE820F831887C801B7010E94621825
:102EF00001971816190684F4082E04C0EE0CFF1C66
:102F0000001F111F0A94D2F7ED82FE820F831887EB
:102F1000C81AD90ADC82CB82BA82CE0101960E94FD
:102F2000B1182896E9E00C94031EACE0B0E0EBE9A0
:102F3000F7E10C94EE1D69837A838B839C83CE0129
:102F40000196BE016B5F7F4F0E9486198D81823092
:102F500061F1823050F1843021F48E81882351F167
:102F60002EC02F81388537FD20C06E812F3131056D
:102F70001CF06623F9F023C08EE190E0821B930BD6
:102F800029853A854B855C8504C0569547953795CC
:102F900027958A95D2F76623B1F0509540953095E4
:102FA00021953F4F4F4F5F4F0EC020E030E040E093
:102FB00050E009C02FEF3FEF4FEF5FE704C020E084
:102FC00030E040E050E8B901CA012C96E2E00C94F0
:102FD0000A1EA8E0B0E0EFEEF7E10C94E61D7B01DD
:102FE0008C01611571058105910519F482E08983D1
:102FF00060C083E089838EE1C82ED12CDC82CB8235
:10300000ED82FE820F831887C801B7010E94621803
:10301000FC013197F7FF3BC0222733272E1B3F0BC4
:1030200057016801022E04C0D694C794B794A794A0
:103030000A94D2F740E050E060E070E081E090E078
:10304000A0E0B0E004C0880F991FAA1FBB1F2A95FB
:10305000D2F70197A109B1098E219F21A023B123A5
:103060000097A105B10521F041E050E060E070E07B
:103070004A295B296C297D294D835E836F8378877C
:103080008EE190E08E1B9F0B9C838B8312C0309748
:1030900081F00E2E04C0EE0CFF1C001F111F0A94BD
:1030A000D2F7ED82FE820F831887CE1ADF0ADC8208
:1030B000CB821A82CE0101960E94B1182896EAE0CE
:1030C0000C94021EEF92FF920F931F937B018C01D1
:1030D00080E0E81680E0F80681E0080780E0180745
:1030E00088F48FEFE816F1040105110531F028F09E
:1030F00088E090E0A0E0B0E017C080E090E0A0E0C1
:10310000B0E012C080E0E81680E0F80680E0080732
:1031100081E0180728F088E190E0A0E0B0E004C06A
:1031200080E190E0A0E0B0E020E230E040E050E05C
:10313000281B390B4A0B5B0B04C016950795F794B7
:10314000E7948A95D2F7F701E45BFB4F8081281B57
:10315000310941095109C9011F910F91FF90EF9069
:103160000895DF92EF92FF920F931F93FC01E4808A
:10317000F58006811781D1808081823048F480E01B
:1031800090E0A0E1B0E0E82AF92A0A2B1B2BA5C0A9
:10319000843009F49FC0823021F4EE24FF2487019B
:1031A00005C0E114F1040105110519F4E0E0F0E0B7
:1031B00096C0628173819FEF623879070CF05BC023
:1031C00022E83FEF261B370B2A3131052CF020E097
:1031D00030E040E050E02AC0B801A701022E04C050
:1031E00076956795579547950A94D2F781E090E0D8
:1031F000A0E0B0E004C0880F991FAA1FBB1F2A954A
:10320000D2F70197A109B1098E219F21A023B123F3
:103210000097A105B10521F081E090E0A0E0B0E0C9
:103220009A01AB01282B392B4A2B5B2BDA01C90100
:103230008F779070A070B07080349105A105B105B2
:1032400039F427FF09C0205C3F4F4F4F5F4F04C048
:10325000215C3F4F4F4F5F4FE0E0F0E02030A0E0B7
:103260003A07A0E04A07A0E45A0710F0E1E0F0E0D6
:1032700079018A0127C06038710564F5FB01E158C6
:10328000FF4FD801C7018F779070A070B070803465
:103290009105A105B10539F4E7FE0DC080E490E089
:1032A000A0E0B0E004C08FE390E0A0E0B0E0E80E62
:1032B000F91E0A1F1B1F17FF05C016950795F794E7
:1032C000E794319687E016950795F794E7948A95E9
:1032D000D1F705C0EE24FF248701EFEFF0E06E2F59
:1032E000679566276795902F9F77D794DD24D794AD
:1032F0008E2F8695492F462B582F5D29B701CA017D
:103300001F910F91FF90EF90DF900895FC01DB017A
:10331000408151812281622F6F7770E0221F222726
:10332000221F9381892F880F822B282F30E0991F2D
:103330009927991F11969C93119721153105A9F58D
:10334000411551056105710511F482E037C082E82D
:103350009FEF13969C938E9312979A01AB0167E0AF
:10336000220F331F441F551F6A95D1F783E08C93BA
:103370000DC0220F331F441F551F12968D919C9133
:103380001397019713969C938E931297203080E0A9
:10339000380780E0480780E4580758F314962D93C7
:1033A0003D934D935C93179708952F3F310579F422
:1033B000411551056105710519F484E08C93089558
:1033C00064FF03C081E08C9312C01C9210C02F5781
:1033D000304013963C932E93129783E08C9387E0B2
:1033E000440F551F661F771F8A95D1F77064149696
:1033F0004D935D936D937C93179708951F93DC0114
:10340000FB019C91923008F447C08081823008F41F
:1034100043C0943051F411961C91843099F5818108
:10342000682F70E0611B71093FC0843021F0923039
:1034300031F48230B9F18181882389F12DC0119650
:103440001C9111978230F1F081811817D9F41296EE
:103450002D913C911397828193818217930794F069
:1034600028173907BCF014968D919D910D90BC9151
:10347000A02D2481358146815781281739074A07B5
:103480005B0718F4112341F00AC082179307A407C1
:10349000B50740F4112319F061E070E005C06FEF4B
:1034A0007FEF02C060E070E0CB011F910895A1E1C1
:1034B000B0E0EDE5FAE10C94DE1D3C017F876E87FC
:1034C0006A01FC0117821682838181FD03C06FEFC0
:1034D0007FEF6FC39E012F5F3F4F398B288BF30126
:1034E0002381EE85FF8523FD859123FF8191FF8751
:1034F000EE87882309F45AC3853251F4EE85FF859F
:1035000023FD859123FF8191FF87EE87853229F482
:1035100090E0B3010E94131FE2CF982F10E088249F
:1035200099241032B0F49B3269F09C3228F4903226
:1035300051F0933271F40BC09D3239F0903349F45D
:10354000116028C01260146025C0186023C010618B
:1035500021C017FD2AC0892F80538A3078F416FFC6
:1035600006C0FAE09F9E902C1124980E13C03AE0FA
:10357000839E802C1124880E10620CC09E3221F490
:1035800016FD14C3106406C09C3611F4106802C006
:10359000983659F4EE85FF8523FD959123FF91918F
:1035A000FF87EE87992309F0BCCF892F855483309C
:1035B00020F4812F8061905E07C0892F855683306B
:1035C00008F09FC1812F8F7E86FD02C076E0972E86
:1035D0006FE3F62EF822953619F4F0E4FF2A07C0BF
:1035E000963619F420E8F22A02C091109A94F7FE58
:1035F0000AC03BE3391518F45CE3B52E02C0B92CC0
:10360000B39427E009C047E0491520F4BB2447E004
:10361000942EF7CF292DBB24C60104969D878C8755
:10362000F6016081718182819381AE014F5F5F4FAE
:103630000B2D0E94151E6C010981202E332400FFE2
:1036400004C003FD02C01DE209C0F1FE02C01BE27E
:1036500005C0F2FC02C010E001C010E2C1018C7094
:103660009070892BB9F1112311F483E001C084E03B
:10367000881510F088240AC0881AF3FC07C080E27D
:1036800090E0B3010E94131F8A94C9F7112329F017
:10369000812F90E0B3010E94131F23FE03C004EEAC
:1036A00010E00EC008EE10E00BC0E114F10409F0C8
:1036B000805290E0B3010E94131F0F5F1F4F05C09F
:1036C000EF2CFF24F0E1EF22FF24F80184918823FE
:1036D00061F714C1F7FE12C0BC0C24FE04C08A813D
:1036E000813309F4BA941B141CF0BB24B3942DC08D
:1036F000F8E0FB1550F538E0B32E27C0F6FC25C0E6
:10370000892D90E08C159D054CF02CEFC2162FEF03
:10371000D20624F030E8F32A01C09A94992049F0A7
:10372000E2E0F0E0EC0FFD1FE90DF11D8081803338
:10373000A1F3F7FE0AC0B92CB394892D90E0C81606
:10374000D90614F0992401C09C18F7FC03C025E0A9
:1037500030E009C01C141D041CF021E030E003C05F
:1037600096012F5F3F4F112311F02F5F3F4F99209C
:1037700029F0892D90E00196280F391F882D90E0BF
:103780002817390714F0882401C0821A4F2C5524B9
:10379000C20189709070892B39F008C080E290E0F6
:1037A000B3010E94131F8A948820C1F7112329F0C6
:1037B000812F90E0B3010E94131F43FE07C008C091
:1037C00080E390E0B3010E94131F8A948820C1F720
:1037D000F7FE46C08601D7FE02C000E010E0760189
:1037E0000894E11CF11CE01AF10A41E050E04C0F92
:1037F0005D1FE40EF51E26014B185108892D90E03F
:10380000AA24BB24A81AB90A5FEF0F3F150729F4B1
:103810008EE290E0B3010E94131FC016D10634F06F
:10382000401651061CF4F701808101C080E301506D
:1038300010400894E11CF11C0A151B052CF090E0C7
:10384000B3010E94131FE0CF0C151D0539F49A81B6
:10385000963318F4953311F424FE81E390E04BC0C5
:103860008A81813309F00F7E90E0B3010E94131F1B
:103870009920A1F08EE290E0B3010E94131F12E0A4
:10388000E1E0F0E0EC0FFD1FE10FF11D1F5F808113
:1038900090E0B3010E94131F9A9491F744FC03C077
:1038A00085E690E002C085E490E0B3010E94131F1A
:1038B000D7FC05C0C114D10441F404FF06C0D09464
:1038C000C194D108D3948DE201C08BE290E0B301A2
:1038D0000E94131F80E305C08F5F26EF3FEFC20EEB
:1038E000D31E3AE0C316D104BCF790E0B3010E94A6
:1038F000131FC601C096B3010E94131FCC84DD8440
:1039000052C1933631F0933799F0933509F059C08D
:1039100023C0F601808189835E010894A11CB11C3B
:1039200022E030E0C20ED31E21E0E22EF12C12C0C4
:10393000F601A080B18016FD03C06FEF7FEF02C0DB
:10394000692D70E022E030E0C20ED31EC5010E9456
:10395000081F7C011F7713C0F601A080B18016FDFF
:1039600003C06FEF7FEF02C0692D70E022E030E00E
:10397000C20ED31EC5010E94ED1E7C01106813FF0C
:1039800007C01BC080E290E0B3010E94131F8A941D
:10399000882D90E0E816F906A8F30FC0F50117FD91
:1039A000859117FF81915F0190E0B3010E94131F81
:1039B00081108A940894E108F108E114F10471F788
:1039C000F2C0943611F0993689F517FF08C0F60158
:1039D000208131814281538184E090E00AC0F60168
:1039E000808191819C01442737FD4095542F82E0CE
:1039F00090E0C80ED91E9FE6F92EF12257FF09C0AC
:103A000050954095309521953F4F4F4F5F4F90E82F
:103A1000F92ACA01B901AE014F5F5F4F2AE030E0D9
:103A20000E94631FE82EE889EE1A41C0953721F401
:103A30001F7E2AE030E01CC0197F9F3661F090376E
:103A400020F4983509F0B2C00FC0903739F098379C
:103A500009F0ACC004C028E030E00AC0106114FDD9
:103A6000146020E130E004C014FD166020E132E073
:103A700017FF08C0F601608171818281938144E063
:103A800050E008C0F60180819181BC0180E090E0A7
:103A900042E050E0C40ED51EAE014F5F5F4F0E9462
:103AA000631FE82E5889E51A8FE7F82EF122F6FEFB
:103AB0000BC08EEFF822E91438F4F4FE07C0F2FCD4
:103AC00005C09FEEF92202C01E2D01C0192DF4FE83
:103AD0000DC0FE01EE0DF11D8081803319F4E9EE79
:103AE000FE2208C01F5FF2FE05C003C08F2D86783E
:103AF00009F01F5F0F2DF3FC14C0F0FE0FC0181566
:103B000010F09E2C0BC09E2C980C911A182D06C0FC
:103B100080E290E0B3010E94131F1F5F1815C0F3ED
:103B200004C0181510F4811A01C0882404FF0FC0C6
:103B300080E390E0B3010E94131F02FF1DC001FD4E
:103B400003C088E790E00EC088E590E00BC0802FAE
:103B5000867891F001FF02C08BE201C080E2F7FCA1
:103B60008DE290E0B3010E94131F06C080E390E055
:103B7000B3010E94131F9A94E914C0F3EA94E1E0A0
:103B8000F0E0EC0FFD1FEE0DF11D808190E0B30120
:103B90000E94131FEE2091F706C080E290E0B3016F
:103BA0000E94131F8A948820C1F799CCF301668183
:103BB0007781CB016196E2E10C94FA1D2F923F923E
:103BC0004F925F926F927F928F929F92AF92BF922D
:103BD000CF92DF92EF92FF920F931F93CF93DF93D9
:103BE000CDB7DEB7CA1BDB0B0FB6F894DEBF0FBE36
:103BF000CDBF09942A88398848885F846E847D8483
:103C00008C849B84AA84B984C884DF80EE80FD8084
:103C10000C811B81AA81B981CE0FD11D0FB6F894FA
:103C2000DEBF0FBECDBFED010895283008F027E0BC
:103C30003327DA01990F311D87FD916000966105E8
:103C4000710539F432602E5F3D9330E32A95E1F738
:103C500008959F3F30F080387105610509F03C5FA1
:103C60003C5F3D93913008F08068911DDF93CF93C6
:103C70001F930F93FF92EF92192F987F9695E92F3C
:103C800096959695E90FFF27EA5BFE4F9927332714
:103C9000EE24FF24A701E70105900894079428F477
:103CA000360FE71EF81E491F511D660F771F881F2C
:103CB000991F0694A1F70590079428F4E70EF81EC3
:103CC000491F561FC11D770F881F991F661F069435
:103CD000A1F70590079428F4F80E491F561FC71F37
:103CE000D11D880F991F661F771F0694A1F70590B5
:103CF000079420F4490F561FC71FD81F990F661F3E
:103D0000771F881F0694A9F784911095177041F0CA
:103D1000D695C79557954795F794E7941A95C1F7A7
:103D2000ECEEF0E0689415901591359165919591C0
:103D300005907FE27395E118F10A430B560BC90B0E
:103D4000D009C0F7E10CF11E431F561FC91FD01D3B
:103D50007EF4703311F48A95E6CFE894015030F088
:103D6000080F0AF40027021708F4202F2395022FCA
:103D70007A3328F079E37D932A95E9F710C07D9393
:103D80002A9589F606949795679537951795179410
:103D9000E118F10A430B560BC90BD00998F0239593
:103DA0007E9173957A3308F070E37C932013B8F713
:103DB0007E9170617D9330F0839571E37D9370E324
:103DC0002A95E1F71124EF90FF900F911F91CF9169
:103DD000DF91992787FD90950895FC01059061502A
:103DE00070400110D8F7809590958E0F9F1F089511
:103DF000FB01DC0102C001900D9241505040D8F708
:103E00000895DC0101C06D9341505040E0F70895E2
:103E1000FC016150704001900110D8F78095909599
:103E20008E0F9F1F08950F931F93CF93DF938C01E5
:103E3000EB018B8181FF1BC082FF0DC02E813F8172
:103E40008C819D812817390764F4E881F9810193F9
:103E5000F983E88306C0E885F985802F0995892BC9
:103E600031F48E819F8101969F838E8302C00FEF74
:103E70001FEFC801DF91CF911F910F910895AEE020
:103E8000B0E0E5E4FFE10C94EC1D0D891E8986E0AD
:103E90008C831A8309838FEF9FE79E838D839E0116
:103EA000275E3F4FCE0101966F89788DA9010E9450
:103EB000571A2F813885020F131FF80110822E9692
:103EC000E4E00C94081EFA01AA27283051F12031B1
:103ED00081F1E8946F936E7F6E5F7F4F8F4F9F4F9E
:103EE000AF4FB1E03ED0B4E03CD0670F781F891FE0
:103EF0009A1FA11D680F791F8A1F911DA11D6A0FAE
:103F0000711D811D911DA11D20D009F468943F9160
:103F10002AE0269F11243019305D3193DEF6CF015F
:103F20000895462F4770405D4193B3E00FD0C9F725
:103F3000F6CF462F4F70405D4A3318F0495D31FD92
:103F40004052419302D0A9F7EACFB4E0A6959795E5
:103F5000879577956795BA95C9F7009761057105BB
:103F600008959B01AC010A2E069457954795379505
:103F70002795BA95C9F7620F731F841F951FA01D5F
:103F800008953BD080F09F3740F491110EF04DC062
:103F900060E070E080E89FEB089526F41B16611D39
:103FA000711D811D01C01BC0882371F4772321F08E
:103FB0009850872B762F07C0662311F499270DC0E0
:103FC0009051862B70E060E02AF09A95660F771F7B
:103FD000881FDAF7880F9695879597F908959F3F80
:103FE00031F0915020F4879577956795B795880FB4
:103FF000911D9695879597F908953ED0A0F0BEE75C
:10400000B91788F4BB279F3860F41616B11D672FC7
:10401000782F8827985FF7CF869577956795B11D9C
:1040200093959639C8F30895E894BB2766277727B8
:10403000CB0197F90895A6E1B0E044E050E00C947C
:104040005820A8E1B0E042E050E00C945820242F22
:104050000E946720252F0E9467200C942F200E9429
:104060006620272F0C94672057FD9058440F551F4A
:1040700059F05F3F71F04795880F97FB991F61F0EA
:104080009F3F79F087950895121613061406551F61
:10409000F2CF4695F1DF08C0161617061806991FCD
:1040A000F1CF86957105610508940895DC01CB0177
:1040B000FC01F999FECF06C0F2BDE1BDF89A319638
:1040C00000B40D9241505040B8F70895262FF99949
:1040D000FECF1FBA92BD81BD20BD0FB6F894FA9AEB
:0C40E000F99A0FBE01960895F894FFCFE6
:1040EC001B5B333231307C0042554420746F2042CC
:1040FC004F422D3420416E676C65204F7665726C93
:10410C006179206170706C69636174696F6E0A0DFE
:10411C0072656164790A0D001B5B31346D1B5B3673
:10412C00366D1B5B324A001B5B31346D1B5B3636C4
:10413C006D001B5B31383B333748002050414E3A01
:10414C00253464205241573A2535642053414D5053
:10415C003A25356420001B5B31393B33374800204E
:10416C00544C543A253464205241573A2535642036
:10417C0053414D503A25356420001B5B31383B359B
:10418C003848002050414E3A25346420001B5B31E6
:10419C00393B3538480020544C543A2534642000BF
:1041AC00405A5241545047515356447064020202D3
:1041BC000200000008000009000C000A0D50414EDE
:1041CC0020582053484946543A2020253575202044
:1041DC0050414E20592053484946543A2020252D11
:1041EC00336420646567090909090909200A0D501F
:1041FC00414E2052414E47453A202020202535750E
:10420C00202050414E20534C4F50453A2020202026
:10421C00256620090909090909200A0D50414E207B
:10422C004D494E494D554D3A2020253575200909EB
:10423C00090909200A0D0A0D54494C5420582053E1
:10424C00484946543A20253575202054494C542071
:10425C00592053484946543A20252D33642064652F
:10426C0067090909090909200A0D54494C542052BF
:10427C00414E47453A202020253575202054494C85
:10428C005420534C4F50453A2020202566202009BD
:10429C000909090909200A0D54494C54204D494E6D
:1042AC00494D554D3A20253575200A0D000A0D4310
:1042BC00555252454E54205241572050414E3A20AF
:1042CC00253575202043555252454E5420524157A6
:1042DC002054494C543A2025750A0D000A0D4355BB
:1042EC005252454E542053414D504C454420504160
:1042FC004E3A20253575202043555252454E5420B8
:10430C0053414D504C45442054494C543A2025754A
:10431C000A0D001B5B324A00E803E803E803E803DC
:10432C00E803E803000000000000000000010202A6
:10433C000303030304040404040404040505050531
:10434C00050505050505050505050505060606060D
:10435C0006060606060606060606060606060606F1
:10436C0006060606060606060606060607070707DD
:10437C0007070707070707070707070707070707C1
:10438C0007070707070707070707070707070707B1
:10439C0007070707070707070707070707070707A1
:1043AC00070707070707070707070707080808088D
:1043BC000808080808080808080808080808080871
:1043CC000808080808080808080808080808080861
:1043DC000808080808080808080808080808080851
:1043EC000808080808080808080808080808080841
:1043FC000808080808080808080808080808080831
:10440C000808080808080808080808080808080820
:10441C000808080808080808080808080808080810
:0C442C0008080808080808080808080824
:00000001FF
