:100000000C94F3000C9410010C9410010C9410014A
:100010000C9410010C9410010C9410010C9410011C
:100020000C9410010C9410010C9410010C9410010C
:100030000C9410010C9410010C9410010C941001FC
:100040000C9410010C9410010C9410010C941001EC
:100050000C9410010C9410010C9410010C941001DC
:100060000C9410010C943B030C9410010C9410019F
:100070000C9410010C9410010C9410010C941001BC
:100080000C9410010C9410010C9410010C941001AC
:100090000C946B030C9410010C9410010C9410013F
:1000A0000C9410010C9410010C9410010C9410018C
:1000B0000C9410010C9410010C9410010C9410017C
:1000C0000C9410010C9410010C9410010C949B03DF
:1000D0000C9410010C9410010C94CB030C9410019F
:1000E0000C9410016E616E00696E660000407A101B
:1000F000F35A00A0724E18090010A5D4E80000E8D9
:100100007648170000E40B54020000CA9A3B000036
:1001100000E1F505000080969800000040420F00C5
:100120000000A08601000000102700000000E80386
:10013000000000006400000000000A000000000051
:100140000100000000002C76D888DC674F0823DF10
:10015000C1DFAE59E1B1B796E5E3E453C63AE651E3
:10016000997696E8E6C28426EB898C9B62ED407C0A
:100170006FFCEFBC9C9F40F2BAA56FA5F490055AA6
:100180002AF75C936B6CF9676DC11BFCE0E40D47CB
:10019000FEF520E6B500D0ED902E030094357705EE
:1001A0000080841E080000204E0A000000C80C33A6
:1001B0003333330F986E12831141EF8D2114893B35
:1001C000E65516CFFEE6DB18D1844B381BF77C1DB5
:1001D000901DA4BBE424203284725E228100C9F108
:1001E00024ECA1E53D2711241FBECFEFD1E2DEBFF5
:1001F000CDBF15E0A0E0B2E0EAE9F9E302C0059066
:100200000D92A834B107D9F717E0A8E4B5E001C012
:100210001D92AE3EB107E1F70E9412010C94CB1C77
:100220000C9400002F923F924F925F926F927F92B8
:100230008F929F92AF92BF92CF92DF92EF92FF92F6
:100240000F931F93DF93CF93CDB7DEB7E2970FB62F
:10025000F894DEBF0FBECDBF0E94B6020E945C02C2
:100260000E94940A80E00E946A0278945E010894D9
:10027000A11CB11CD501E0E0F2E088E001900D92F4
:100280008150E1F7C5010E94FC04D501E8E0F2E0ED
:1002900080E301900D928150E1F7C5010E9429058C
:1002A000D501E8E3F2E08FE001900D928150E1F793
:1002B000C5010E94FC0480E090E020E931E0F901F2
:1002C0003197F1F7019643E188389407C1F749E582
:1002D000842E42E0942E3BE7632E32E0732E26E913
:1002E000422E22E0522E90EA292E92E0392E80E909
:1002F000C82E81E0D82ED501E7E4F2E08BE0019032
:100300000D928150E1F7C5010E94FC04D501E2E5A0
:10031000F2E087E001900D928150E1F7C5010E9463
:10032000FC048091480590914905892B09F478C017
:100330000E94CF0F7C01E091A305F091A4050995DF
:100340008C010E94C70DADB7BEB71A970FB6F894CF
:10035000BEBF0FBEADBFEDB7FEB731961296BC92D1
:10036000AE92119793828282F582E482178306838C
:10037000918780870E94011C2DB73EB7265F3F4FB3
:100380000FB6F8943EBF0FBE2DBFC5010E94FC04FE
:10039000D501E4E7F2E087E001900D928150E1F7AA
:1003A000C5010E94FC040E9412108C01E0912706F6
:1003B000F091280609957C010E94CB0EADB7BEB71F
:1003C0001A970FB6F894BEBF0FBEADBFEDB7FEB71C
:1003D00031961296BC92AE92119773826282158307
:1003E0000483F782E682918780870E94011C2DB7E3
:1003F0003EB7265F3F4F0FB6F8943EBF0FBE2DBFEE
:10040000C5010E94FC040E94DC0620E030E0C60129
:100410000197F1F72F5F3F4F2A3F3105C1F76BCFAF
:100420000E94CF0F00D000D000D0EDB7FEB73196BC
:10043000ADB7BEB71296BC92AE921197538242826C
:10044000958384830E94011C2DB73EB72A5F3F4FDE
:100450000FB6F8943EBF0FBE2DBFC5010E94FC042D
:10046000D501E4E7F2E087E001900D928150E1F7D9
:10047000C5010E94FC040E94121000D000D000D0E0
:10048000EDB7FEB73196ADB7BEB71296BC92AE923D
:10049000119733822282958384830E94011C2DB799
:1004A0003EB72A5F3F4F0FB6F8943EBF0FBE2DBF39
:1004B000C5010E94FC04A7CFDF93CF93CDB7DEB771
:1004C000AAE7B0E0EAE7F0E0808180688C93CF9102
:1004D000DF910895DF93CF930F92CDB7DEB7898375
:1004E00089818093AA020F90CF91DF910895DF93C5
:1004F000CF9300D00F92CDB7DEB78B83ECE7F0E05F
:100500008B81982F97708091AA02892B8083ABE70B
:10051000B0E0EBE7F0E08081877F8C93AAE7B0E062
:10052000EAE7F0E0808180648C93EAE7F0E0808184
:10053000882F90E0807490700097B9F7E8E7F0E0BA
:1005400080818A83E9E7F0E0808189838981882F2F
:1005500090E0382F22278A81882F90E0822B932BDE
:100560000F900F900F90CF91DF910895DF93CF936D
:100570000F92CDB7DEB71092A5058091A5058093A7
:10058000E6058091E60580936D061092290680911C
:1005900029068093A2058091A20580936B0686EAC6
:1005A00095E060E070E040E450E00E94C31B82E60A
:1005B00095E060E070E040E450E00E94C31B87EEED
:1005C00095E060E070E040E450E00E94C31B8AE2E6
:1005D00096E060E070E040E450E00E94C31BE4EC71
:1005E000F0E08FE590E091838083ECECF0E087E031
:1005F00090E091838083E4EDF0E087E090E09183E8
:100600008083E4E3F1E08FE590E091838083E1EC87
:10061000F0E088E98083E9ECF0E088E98083E1EDAF
:10062000F0E088E98083E1E3F1E088E98083E2ECAF
:10063000F0E086E08083EAECF0E086E08083E2EDA3
:10064000F0E086E08083E2E3F1E086E08083E6ECA0
:10065000F0E080818983EEECF0E080818983E6ED33
:10066000F0E080818983E6E3F1E0808189830F9067
:10067000CF91DF9108951F920F920FB60F92112420
:100680002F938F939F93EF93FF93DF93CF93CDB7E8
:10069000DEB780916B06882F90E0E6ECF0E02081D9
:1006A000FC01EA55FA4F208380916B068F5F80939F
:1006B0006B0680916B06803411F410926B06CF911B
:1006C000DF91FF91EF919F918F912F910F900FBE2E
:1006D0000F901F9018951F920F920FB60F92112432
:1006E0002F938F939F93EF93FF93DF93CF93CDB788
:1006F000DEB78091A205882F90E0EEECF0E020813B
:10070000FC01EE59FA4F20838091A2058F5F809300
:10071000A2058091A205803411F41092A205CF9118
:10072000DF91FF91EF919F918F912F910F900FBECD
:100730000F901F9018951F920F920FB60F921124D1
:100740002F938F939F93EF93FF93DF93CF93CDB727
:10075000DEB780912906882F90E0E6EDF0E0208159
:10076000FC01E951FA4F2083809129068F5F809325
:10077000290680912906803411F410922906CF9120
:10078000DF91FF91EF919F918F912F910F900FBE6D
:100790000F901F9018951F920F920FB60F92112471
:1007A0002F938F939F93EF93FF93DF93CF93CDB7C7
:1007B000DEB780916A06882F90E0E6E3F1E02081C1
:1007C000FC01E65DF94F208380916A068F5F80937C
:1007D0006A0680916A06803411F410926A06CF91FD
:1007E000DF91FF91EF919F918F912F910F900FBE0D
:1007F0000F901F901895DF93CF930F92CDB7DEB770
:1008000080916D06882F90E0FC01EA55FA4F8081B7
:10081000898380916D068F5F80936D0680916D0650
:10082000803411F410926D0689810F90CF91DF9181
:100830000895DF93CF930F92CDB7DEB78091E60591
:10084000882F90E0FC01EE59FA4F808189838091D6
:10085000E6058F5F8093E6058091E605803411F40C
:100860001092E60589810F90CF91DF910895DF9373
:10087000CF930F92CDB7DEB78091A505882F90E07A
:10088000FC01E951FA4F808189838091A5058F5F32
:100890008093A5058091A505803411F41092A505DB
:1008A00089810F90CF91DF910895DF93CF930F92BD
:1008B000CDB7DEB780916C06882F90E0FC01E65D35
:1008C000F94F8081898380916C068F5F80936C06DD
:1008D00080916C06803411F410926C0689810F901F
:1008E000CF91DF910895DF93CF930F92CDB7DEB70D
:1008F0008983E0ECF0E08081882F90E08072907036
:100900000097B9F3E6ECF0E0898180830F90CF91F6
:10091000DF910895DF93CF930F92CDB7DEB7898330
:10092000E8ECF0E08081882F90E080729070009772
:10093000B9F3EEECF0E0898180830F90CF91DF91E5
:100940000895DF93CF930F92CDB7DEB78983E0EDA3
:10095000F0E08081882F90E0807290700097B9F36A
:10096000E6EDF0E0898180830F90CF91DF910895CB
:10097000DF93CF930F92CDB7DEB78983E0E3F1E049
:100980008081882F90E0807290700097B9F3E6E341
:10099000F1E0898180830F90CF91DF910895DF93FB
:1009A000CF9300D000D0CDB7DEB79C838B831A8263
:1009B000198211C02B813C8189819A81F901E80F4C
:1009C000F91F8081282F89819A8101969A838983D2
:1009D000822F0E9473042B813C8189819A81F901C5
:1009E000E80FF91F8081882329F70F900F900F904F
:1009F0000F90CF91DF910895DF93CF9300D000D077
:100A0000CDB7DEB79C838B831A82198211C02B81EC
:100A10003C8189819A81F901E80FF91F8081282F93
:100A200089819A8101969A838983822F0E948A0400
:100A30002B813C8189819A81F901E80FF91F80811E
:100A4000882329F70F900F900F900F90CF91DF918F
:100A50000895DF93CF9300D000D0CDB7DEB79C834D
:100A60008B831A82198211C02B813C8189819A81E2
:100A7000F901E80FF91F8081282F89819A81019659
:100A80009A838983822F0E94A1042B813C818981D2
:100A90009A81F901E80FF91F8081882329F70F90C7
:100AA0000F900F900F90CF91DF910895DF93CF9328
:100AB00000D000D0CDB7DEB79C838B831A82198219
:100AC00011C02B813C8189819A81F901E80FF91FBE
:100AD0008081282F89819A8101969A838983822F28
:100AE0000E94B8042B813C8189819A81F901E80F29
:100AF000F91F8081882329F70F900F900F900F9096
:100B0000CF91DF910895DF93CF9300D000D00F9263
:100B1000CDB7DEB79B838A837D836C8319820FC038
:100B20008981282F30E08A819B81FC01E20FF31F2D
:100B3000908189818F5F8983892F0E9473048981C5
:100B4000282F30E08C819D812817390748F30F90BA
:100B50000F900F900F900F90CF91DF910895DF933A
:100B6000CF9300D000D000D0CDB7DEB79C838B836D
:100B70007E836D831A82198210C02B813C8189810A
:100B80009A81F901E80FF91F208189819A810196E4
:100B90009A838983822F0E948A0429813A818D81D8
:100BA0009E812817390748F326960FB6F894DEBFC2
:100BB0000FBECDBFCF91DF910895DF93CF9300D0CB
:100BC00000D000D0CDB7DEB79C838B837E836D834E
:100BD0001A82198210C02B813C8189819A81F90186
:100BE000E80FF91F208189819A8101969A83898370
:100BF000822F0E94A10429813A818D819E8128172C
:100C0000390748F326960FB6F894DEBF0FBECDBF66
:100C1000CF91DF910895DF93CF9300D000D000D023
:100C2000CDB7DEB79C838B837E836D831A82198256
:100C300010C02B813C8189819A81F901E80FF91F4D
:100C4000208189819A8101969A838983822F0E94CB
:100C5000B80429813A818D819E812817390748F38C
:100C600026960FB6F894DEBF0FBECDBFCF91DF91B1
:100C70000895DF93CF93CDB7DEB72E970FB6F894D4
:100C8000DEBF0FBECDBF8B836C834D832E831A8254
:100C900019828B818A336CF48B81992787FD90951B
:100CA000C0979C01322F22273295307F3E872D87B7
:100CB0000CC08B81992787FD9095C7979C01322F97
:100CC00022273295307F3E872D872D853E8589816D
:100CD0009A81822B932B9A8389838C818A3354F453
:100CE0008C81992787FD9095C097382F22273C87C4
:100CF0002B8709C08C81992787FD9095C797382F3E
:100D000022273C872B872B853C8589819A81822BE2
:100D1000932B9A8389838D818A337CF48D819927E3
:100D200087FD9095C0979C0122953295307F3227A0
:100D3000207F32273A8729870EC08D81992787FD2A
:100D40009095C7979C0122953295307F3227207F5E
:100D500032273A87298729853A8589819A81822B8A
:100D6000932B9A8389838E818A3354F48E819927B9
:100D700087FD90959C012053304038872F8309C010
:100D80008E81992787FD90959C01275330403887A5
:100D90002F832F81388589819A81822B932B9A8387
:100DA000898389819A812E960FB6F894DEBF0FBE93
:100DB000CDBFCF91DF9108952F923F924F925F92D6
:100DC0006F927F928F929F92AF92BF92CF92DF925B
:100DD000EF92FF920F931F93DF93CF93CDB7DEB7C0
:100DE000C451D1400FB6F894DEBF0FBECDBF10C0C6
:100DF0000E943704898320914A05822F90E0FC01EC
:100E0000E259F94F89818083822F8F5F80934A0551
:100E10009091A50580912906981751F790914A0560
:100E200080914B05292F281B822F882F90E09C83CF
:100E30008B838B819C81833091050CF45BC3809103
:100E40004B05882F90E0FC01E259F94F8081833CEB
:100E500031F080914B058F5F80934B054BC38091A0
:100E60004B058F5F882F90E0FC01E259F94F80819C
:100E70008A8318861F820EC08F819885FC01E555F4
:100E8000FD4F90818A81981771F08F819885019626
:100E900098878F832091C5023091C6028F819885F3
:100EA000821793074CF32091C5023091C6028F81BF
:100EB00098858217930729F480914B058E5F809364
:100EC0004B058F819885FC01E854FD4F8081882F68
:100ED00090E09E838D838B819C8102979C838B8382
:100EE00018861F8223C09F8180914B05890F8E5FDA
:100EF000882F90E0FC01E259F94F80818A838A8132
:100F00008D3529F48F8198859E838D831DC02F8117
:100F10003885CE01875F9E4FFC01E20FF31F8A8167
:100F200080838F819885019698878F832F8138855C
:100F30008B819C81281739073CF42F8138858D815E
:100F40009E81821793077CF62F8138858B819C8147
:100F50002817390709F4CEC22F8138858D819E81EB
:100F60008217930744F49F8180914B05890F8E5F10
:100F700080934B05BFC280914B058F5F882F90E017
:100F8000FC01E259F94F80818A839D8180914B0554
:100F9000890F8D5F80934B058A818A3579F5188694
:100FA0001F8224C02F813885CE01875F9E4FFC01B0
:100FB000E20FF31F8081803529F40E94C70D0E9443
:100FC00055100FC02F813885CE01875F9E4FFC01E1
:100FD000E20FF31F8081843521F40E94CB0E0E9422
:100FE00080108F819885019698878F832F8138850F
:100FF0008D819E8128173907ACF27CC28A818334A7
:10100000C9F518861F822EC02F813885CE01875FD3
:101010009E4FFC01E20FF31F8081803519F40E947E
:10102000AF111BC02F813885CE01875F9E4FFC0119
:10103000E20FF31F8081853519F40E945E120DC006
:101040002F813885CE01875F9E4FFC01E20FF31F91
:1010500080818C3411F40E94FD118F819885019656
:1010600098878F832F8138858D819E812817390736
:101070005CF240C28A81823579F518861F8224C0CD
:101080002F813885CE01875F9E4FFC01E20FF31F51
:101090008081803529F481E090E00E94430C0FC0EC
:1010A0002F813885CE01875F9E4FFC01E20FF31F31
:1010B0008081843521F481E090E00E94B60C8F811C
:1010C0009885019698878F832F8138858D819E81A1
:1010D00028173907ACF20EC28A81813479F5188657
:1010E0001F8224C02F813885CE01875F9E4FFC016F
:1010F000E20FF31F8081803529F480E090E00E94A8
:10110000430C0FC02F813885CE01875F9E4FFC01B5
:10111000E20FF31F8081843521F480E090E00E948B
:10112000B60C8F819885019698878F832F8138859B
:101130008D819E8128173907ACF2DCC18A81843504
:1011400059F518861F8220C02F813885CE01875F10
:101150009E4FFC01E20FF31F8081803519F40E943D
:101160009C0C0DC02F813885CE01875F9E4FFC01FE
:10117000E20FF31F8081843511F40E940F0D8F81DF
:101180009885019698878F832F8138858D819E81E0
:1011900028173907CCF2AEC18A81803509F06AC0C0
:1011A0006091250470912604A0912704B091280431
:1011B000C0902104D090220420914E0530914F051B
:1011C0004091500550915105A0902304B090240403
:1011D0008090350490903604609037047090380405
:1011E0004090310450903204E0905205F090530545
:1011F000009154051091550520903304309034042B
:101200008DB79EB74C970FB6F8949EBF0FBE8DBF9B
:10121000EDB7FEB73196CE0109969183808387ECB6
:1012200092E09383828375836483B783A683D18698
:10123000C0862287338744875587B786A686918ADA
:10124000808A738A628A558A448AE68AF78A008F7E
:10125000118F338E228E0E94011C8DB79EB74C9643
:101260000FB6F8949EBF0FBE8DBFCE0109960E94A7
:10127000290540C18A81873491F5E091A305F09159
:10128000A40509958C01E0912706F091280609959F
:101290009C018DB79EB708970FB6F8949EBF0FBEFE
:1012A0008DBFEDB7FEB73196CE010996918380834D
:1012B00089EB93E0938382831583048337832683AA
:1012C0000E94011C8DB79EB708960FB6F8949EBF7A
:1012D0000FBE8DBFCE0109960E9429050BC18A81E0
:1012E000813561F50E94C70D8C010E94CB0E9C01D7
:1012F0008DB79EB708970FB6F8949EBF0FBE8DBFEF
:10130000EDB7FEB73196CE0109969183808388EEC2
:1013100093E09383828315830483378326830E941B
:10132000011C8DB79EB708960FB6F8949EBF0FBEEE
:101330008DBFCE0109960E942905DCC08A818335C4
:1013400099F58D819E818830910509F0D3C0FE0109
:10135000E75FFE4F8081FE01E75FFE4F3181FE01B6
:10136000E75FFE4F9281FE01E75FFE4F2381632F0F
:10137000492F0E9439060E946D0DFE01E75FFE4F66
:101380008481FE01E75FFE4F3581FE01E75FFE4F7E
:101390009681FE01E75FFE4F2781632F492F0E9450
:1013A00039060E94850DA6C08A81863529F482E01F
:1013B00090E00E94290D9EC08A81843429F481E046
:1013C00090E00E94290D96C08A81803709F071C093
:1013D0008D819E818930910509F08CC0FE01E75F07
:1013E000FE4F8081803579F5FE01E75FFE4F8181F8
:1013F000FE01E75FFE4F3281FE01E75FFE4F938102
:10140000FE01E75FFE4F2481632F492F0E943906BA
:101410008C01FE01E75FFE4F8581FE01E75FFE4F15
:101420003681FE01E75FFE4F9781FE01E75FFE4FC9
:101430002085632F492F0E9439069C01C801B901FC
:101440000E94AB1057C0FE01E75FFE4F80818435DC
:1014500009F050C0FE01E75FFE4F8181FE01E75FAA
:10146000FE4F3281FE01E75FFE4F9381FE01E75F91
:10147000FE4F2481632F492F0E9439068C01FE0103
:10148000E75FFE4F8581FE01E75FFE4F3681FE017B
:10149000E75FFE4F9781FE01E75FFE4F2085632FD8
:1014A000492F0E9439069C01C801B9010E940B1105
:1014B00021C08A818436F1F48091480590914905D4
:1014C000CD5EDE4F19821882C351D140009741F49E
:1014D00081E090E0CD5EDE4F99838883C351D14097
:1014E000CD5EDE4F88819981C351D14090934905EB
:1014F00080934805CC5EDE4F0FB6F894DEBF0FBE7A
:10150000CDBFCF91DF911F910F91FF90EF90DF90B2
:10151000CF90BF90AF909F908F907F906F905F9093
:101520004F903F902F900895DF93CF9300D000D03D
:101530000F92CDB7DEB781E090E00E94290D1D82A9
:101540001C8217C08C819D81880F991FFC01E25974
:10155000F84F118210828C819D81880F991FFC01A8
:10156000E255F84F118210828C819D8101969D83F6
:101570008C838C819D818032910524F380E094E0FE
:101580009B838A838A819B810E94831C89838981B2
:10159000882309F4A5C08A819B8102969B838A8354
:1015A0008A819B810E948B1CDC01CB0180934E05BC
:1015B00090934F05A0935005B09351058A819B816C
:1015C00004969B838A838A819B810E94911C9093BD
:1015D0002404809323048A819B8102969B838A83BF
:1015E0008A819B810E94911C9093260480932504FC
:1015F0008A819B8102969B838A838A819B810E9438
:10160000911C90932204809321048A819B810296ED
:101610009B838A838A819B810E94911C90932804DA
:10162000809327048A819B8102969B838A838A8187
:101630009B810E94911C0E94430C8A819B8102968F
:101640009B838A838A819B810E948B1CDC01CB0156
:101650008093520590935305A0935405B09355057C
:101660008A819B8104969B838A838A819B810E94C5
:10167000911C90933404809333048A819B81029659
:101680009B838A838A819B810E94911C909336045C
:10169000809335048A819B8102969B838A838A8109
:1016A0009B810E94911C90933204809331048A8123
:1016B0009B8102969B838A838A819B810E94911CD5
:1016C00090933804809337048A819B8102969B8390
:1016D0008A838A819B810E94911C0E94B60C02C061
:1016E0000E947A0B0F900F900F900F900F90CF9158
:1016F000DF910895DF93CF9300D0CDB7DEB780E0C0
:1017000094E09A83898389819A8161E00E94971C81
:1017100089819A8102969A83898389819A8120910D
:101720004E0530914F054091500550915105BA0139
:10173000A9010E94A91C89819A8104969A838983B0
:1017400089819A812091230430912404B9010E9457
:10175000B51C89819A8102969A83898389819A81AD
:101760002091250430912604B9010E94B51C89817D
:101770009A8102969A83898389819A812091210492
:1017800030912204B9010E94B51C89819A81029688
:101790009A83898349815A818091270490912804F2
:1017A0009C01CA01B9010E94B51C89819A810296E7
:1017B0009A83898389819A812091290430912A040E
:1017C000B9010E94B51C89819A8102969A83898306
:1017D00089819A8120915205309153054091540599
:1017E00050915505BA01A9010E94A91C89819A81CD
:1017F00004969A83898389819A8120913304309158
:101800003404B9010E94B51C89819A8102969A8399
:10181000898389819A812091350430913604B901F8
:101820000E94B51C89819A8102969A838983898155
:101830009A812091310430913204B9010E94B51C83
:1018400089819A8102969A83898349815A818091FC
:101850003704909138049C01CA01B9010E94B51C5B
:1018600089819A8102969A83898389819A812091BC
:10187000390430913A04B9010E94B51C0F900F90C1
:10188000CF91DF910895DF93CF9300D0CDB7DEB72E
:101890009A8389832091290430912A0489819A812D
:1018A0002817390709F443C089819A81813091054D
:1018B000F9F420912504309126048091210490911F
:1018C000220496958795A901481B590BCA0190934C
:1018D00026048093250484EB90E090932804809361
:1018E000270481E090E090932A04809329041DC08E
:1018F00089819A810097C9F48091210490912204F2
:101900009C01369527958091250490912604820F9D
:10191000931F90932604809325041092280410921C
:10192000270410922A04109229040E947A0B0F9027
:101930000F90CF91DF910895DF93CF9300D0CDB773
:10194000DEB78091290490912A041A8219820097A7
:1019500021F481E090E09A83898389819A810E94B1
:10196000430C0F900F90CF91DF910895DF93CF93A9
:1019700000D0CDB7DEB79A838983209139043091A6
:101980003A0489819A812817390709F443C089816B
:101990009A8181309105F9F4209135043091360413
:1019A000809131049091320496958795A901481B46
:1019B000590BCA01909336048093350484EB90E070
:1019C000909338048093370481E090E090933A0438
:1019D000809339041DC089819A810097C9F4809150
:1019E0003104909132049C013695279580913504FD
:1019F00090913604820F931F9093360480933504A0
:101A0000109238041092370410923A04109239045C
:101A10000E947A0B0F900F90CF91DF910895DF9382
:101A2000CF9300D0CDB7DEB78091390490913A04BE
:101A30001A821982009721F481E090E09A838983C9
:101A400089819A810E94B60C0F900F90CF91DF91FF
:101A50000895DF93CF9300D0CDB7DEB79A83898303
:101A600020914C0530914D0589819A8128173907BD
:101A700079F189819A818230910599F489819A81DD
:101A800090934D0580934C0583EB9DE09093A405C6
:101A90008093A3058DEB9DE0909328068093270605
:101AA00017C089819A818130910591F489819A8149
:101AB00090934D0580934C058DE99DE09093A4058E
:101AC0008093A30588EA9DE09093280680932706DB
:101AD0000F900F90CF91DF910895DF93CF9300D0B7
:101AE000CDB7DEB79A83898389819A819295829551
:101AF0008F7089279F7089279093200480931F04FB
:101B00000F900F90CF91DF910895DF93CF9300D086
:101B1000CDB7DEB79A83898389819A819295829520
:101B20008F7089279F7089279093300480932F04AA
:101B30000F900F90CF91DF910895DF93CF93CDB7A2
:101B4000DEB780911F0490912004CF91DF9108951A
:101B5000DF93CF93CDB7DEB780912F0490913004FF
:101B6000CF91DF910895DF93CF93CDB7DEB780E0BB
:101B70000E947702CF91DF910895DF93CF93CDB785
:101B8000DEB783E00E947702CF91DF910895EF9254
:101B9000FF920F931F93DF93CF93CDB7DEB7C65459
:101BA000D0400FB6F894DEBF0FBECDBF20915605D2
:101BB00030915705409158055091590580915A052B
:101BC00090915B05880F991FFC01E259F84F8081C5
:101BD0009181CC01A0E0B0E079018A01E81AF90A0C
:101BE0000A0B1B0BD801C70180935605909357052C
:101BF000A0935805B093590500915A0510915B05C3
:101C0000E091A305F091A40509959C01C801880FF6
:101C1000991FFC01E259F84F3183208380915A05C6
:101C200090915B05880F991FFC01E259F84F808164
:101C300091819C0140E050E08091560590915705BC
:101C4000A0915805B0915905820F931FA41FB51F8D
:101C50008093560590935705A0935805B093590566
:101C600080915A0590915B0501968F7190709093C9
:101C70005B0580935A058EE697E09E012D5F3F4FEE
:101C8000B90140E250E00E9472128BA19CA19A839C
:101C9000898320912B0430912C0489819A81281703
:101CA000390738F489819A8190932C0480932B040E
:101CB00025C020912D0430912E0489819A818217AC
:101CC000930738F489819A8190932E0480932D0490
:101CD00015C08091560590915705A0915805B09177
:101CE0005905689414F8B695A79597958795169415
:101CF000D1F727969FAF8EAF27973BC02091210445
:101D0000309122048091230490912404280F391FDC
:101D100080912B0490912C042817390758F02091BA
:101D20002D0430912E0480912304909124042817CF
:101D3000390758F480912D0490912E0420912B04A2
:101D400030912C04B9010E94AB10809156059091FE
:101D50005705A0915805B0915905689414F8B695A7
:101D6000A795979587951694D1F727969FAF8EAF35
:101D7000279727968EAD9FAD2797CA5BDF4F0FB68B
:101D8000F894DEBF0FBECDBFCF91DF911F910F91B1
:101D9000FF90EF900895EF92FF920F931F93DF93C0
:101DA000CF93CDB7DEB7C654D0400FB6F894DEBFA0
:101DB0000FBECDBF20915C0530915D0540915E0561
:101DC00050915F058091600590916105880F991F82
:101DD000FC01E255F84F80819181CC01A0E0B0E098
:101DE00079018A01E81AF90A0A0B1B0BD801C7010D
:101DF00080935C0590935D05A0935E05B0935F05AD
:101E00000091600510916105E0912706F091280688
:101E100009959C01C801880F991FFC01E255F84FF4
:101E2000318320838091600590916105880F991F0F
:101E3000FC01E255F84F808191819C0140E050E027
:101E400080915C0590915D05A0915E05B0915F0564
:101E5000820F931FA41FB51F80935C0590935D05AF
:101E6000A0935E05B0935F05809160059091610538
:101E700001968F71907090936105809360058EEA52
:101E800097E09E012D5F3F4FB90140E250E00E9474
:101E900072128BA19CA19A83898320913B0430917B
:101EA0003C0489819A812817390738F489819A81FD
:101EB00090933C0480933B0425C020913D043091D5
:101EC0003E0489819A818217930738F489819A8127
:101ED00090933E0480933D0415C080915C059091E1
:101EE0005D05A0915E05B0915F05689414F8B69504
:101EF000A795979587951694D1F727969FAF8EAFA4
:101F000027973BC0209131043091320480913304F3
:101F100090913404280F391F80913B0490913C0428
:101F20002817390758F020913D0430913E048091E4
:101F30003304909134042817390758F480913D04F4
:101F400090913E0420913B0430913C04B9010E94E1
:101F50000B1180915C0590915D05A0915E05B0919B
:101F60005F05689414F8B695A7959795879516948C
:101F7000D1F727969FAF8EAF279727968EAD9FAD4F
:101F80002797CA5BDF4F0FB6F894DEBF0FBECDBFF9
:101F9000CF91DF911F910F91FF90EF900895DF9304
:101FA000CF93CDB7DEB70E94C70D9C018091250469
:101FB00090912604281B390B8091210490912204D2
:101FC000820F931F2091210430912204B9010E94B5
:101FD000951ACC01A0E0B0E0BC01CD010E94F9143B
:101FE000DC01CB0120914E0530914F054091500509
:101FF00050915105BC01CD010E94FF12DC01CB01C3
:10200000BC01CD010E94A514DC01CB019C01809193
:10201000270490912804A901481B590BCA01CF91AC
:10202000DF910895DF93CF93CDB7DEB70E94CB0E3B
:102030009C018091350490913604281B390B8091C6
:10204000310490913204820F931F2091310430911A
:102050003204B9010E94951ACC01A0E0B0E0BC01A5
:10206000CD010E94F914DC01CB0120915205309181
:1020700053054091540550915505BC01CD010E9476
:10208000FF12DC01CB01BC01CD010E94A514DC01D3
:10209000CB019C018091370490913804A901481B21
:1020A000590BCA01CF91DF910895DF93CF9300D0F0
:1020B000CDB7DEB79A8389838091290490912A0451
:1020C0008130910581F480912104909122049C013A
:1020D0003695279589819A81820F931F90932604C4
:1020E0008093250406C089819A8190932604809369
:1020F00025040E947A0B0F900F90CF91DF910895E5
:10210000DF93CF9300D0CDB7DEB79A8389838091D8
:10211000390490913A048130910581F48091310421
:10212000909132049C013695279589819A81820F7E
:10213000931F909336048093350406C089819A8159
:1021400090933604809335040E947A0B0F900F9081
:10215000CF91DF910895DF93CF9300D000D0CDB71A
:10216000DEB79A8389837C836B8320912504309129
:1021700026048091230490912404281B390B898123
:102180009A81820F931F909326048093250489815E
:102190009A8190932404809323042B813C8189812C
:1021A0009A81A901481B590BCA019093220480937C
:1021B00021048091210490912204CC01A0E0B0E0A0
:1021C000BC01CD010E94F9149B01AC0160E070E0FC
:1021D00084EB93E40E94F913DC01CB0180934E055C
:1021E00090934F05A0935005B09351050E947A0B30
:1021F00089819A8190932E0480932D048B819C81F8
:1022000090932C0480932B040F900F900F900F90BD
:10221000CF91DF910895DF93CF9300D000D0CDB759
:10222000DEB79A8389837C836B8320913504309158
:1022300036048091330490913404A901481B590B52
:10224000CA0190933604809335042B813C818981A7
:102250009A81A901481B590BCA01CC01A0E0B0E04A
:10226000BC01CD010E94F914DC01CB01BC01CD0100
:1022700020E030E044EB53E40E94FF12DC01CB018C
:10228000BC01CD0120E030E044E753E40E94F913A3
:10229000DC01CB01BC01CD010E94A514DC01CB0106
:1022A000909332048093310429813A818B819C81FF
:1022B000281B390B8091310490913204820F931FB7
:1022C0009C013695279589819A81821B930B909367
:1022D0003404809333042091350430913604809186
:1022E000330490913404820F931F909336048093AB
:1022F00035042B813C8189819A81A901481B590BA6
:10230000CA01CC01A0E0B0E0BC01CD010E94F914EB
:102310009B01AC0160E070E084E793E40E94F91354
:10232000DC01CB018093520590935305A093540593
:10233000B09355050E947A0B89819A8190933E044F
:1023400080933D048B819C8190933C0480933B045B
:102350000F900F900F900F90CF91DF910895DF9322
:10236000CF9300D000D000D0CDB7DEB780914C0520
:1023700090914D0582309105B9F580E00E94770279
:102380009E838D838D819E819C838B831CC080E086
:102390000E9477029A83898329813A818B819C816B
:1023A0008217930728F489819A819C838B830BC0C1
:1023B00029813A818D819E812817390720F48981EE
:1023C0009A819E838D838B819C812D813E81821B8E
:1023D000930B22E088359207D0F28D819E812B816C
:1023E0003C81B9010E94AB1026960FB6F894DEBF6F
:1023F0000FBECDBFCF91DF910895DF93CF9300D073
:1024000000D0CDB7DEB780914C0590914D0582305C
:10241000910509F04CC00E94CB0E9C838B832091C8
:102420003504309136048B819C81821B930B9A83F7
:10243000898389819A81CC01A0E0B0E0BC01CD0103
:102440000E94F914DC01CB01BC01CD0128ED32E87A
:102450004DE25FE30E94F913DC01CB01BC01CD0129
:102460000E94A514DC01CB019093320480933104C7
:102470008091310490913204CC01A0E0B0E0BC0125
:10248000CD010E94F9149B01AC0160E070E084EB87
:1024900093E40E94F913DC01CB01809352059093E1
:1024A0005305A0935405B09355050E947A0B0F90E5
:1024B0000F900F900F90CF91DF910895DF93CF93FE
:1024C000CDB7DEB780914C0590914D0582309105D6
:1024D00031F40E94CB0E9093360480933504CF9153
:1024E000DF910895DF93CF93CDB7DEB72C970FB66A
:1024F000F894DEBF0FBECDBF98878F837A87698738
:102500005C874B871E821D8269C08D819E819C01E4
:10251000220F331F8F819885FC01E20FF31F80810A
:1025200091819A8389838D819E819C838B8325C031
:102530008B819C819C01220F331F89859A85DC0148
:10254000A20FB31F2B813C8181E090E0821B930B93
:10255000880F991F22273327281B390B89859A85D5
:10256000FC01E20FF31F8081918111969C938E9361
:102570008B819C8101979C838B838B819C81181616
:102580001906CCF42B813C8181E090E0821B930BF7
:10259000880F991F22273327281B390B89859A8595
:1025A000FC01E20FF31F2081318189819A8182171A
:1025B000930708F4BDCF8B819C819C01220F331FB0
:1025C00089859A85FC01E20FF31F89819A819183A5
:1025D00080838D819E8101969E838D832D813E8196
:1025E0008B859C852817390708F48FCF2C960FB65A
:1025F000F894DEBF0FBECDBFCF91DF910895A0E26A
:10260000B0E0E5E0F3E10C94A91A69837A838B8347
:102610009C832D833E834F835887CE010196BE0154
:10262000675F7F4F0E949616CE010596BE016F5ED2
:102630007F4F0E9496169985923088F08989823062
:10264000C8F0943019F4823051F404C0843029F475
:10265000923081F48FE394E0C6C0923049F420E0D8
:102660009A858A89981321E02A87CE010996BBC0F2
:10267000823049F420E09A858A89981321E02A8BD8
:10268000CE014196B0C02D843E844F8458886D8819
:102690007E888F88988CEE24FF248701AA24BB248F
:1026A000650140E050E060E070E0E0E0F0E0C10192
:1026B00081709070892BE9F0E60CF71C081D191D3C
:1026C0009A01AB012A0D3B1D4C1D5D1D80E090E081
:1026D000A0E0B0E0E614F7040805190520F481E055
:1026E00090E0A0E0B0E0BA01A901480F591F6A1FAD
:1026F0007B1FAA0CBB1CCC1CDD1C97FE08C081E014
:1027000090E0A0E0B0E0A82AB92ACA2ADB2A3196D4
:10271000E032F10549F0660C771C881C991C569430
:10272000479437942794C3CFFA85EA892B893C894B
:102730008B859C85280F391F2E5F3F4F17C0CA011C
:1027400081709070892B61F016950795F794E79446
:1027500080E090E0A0E0B0E8E82AF92A0A2B1B2BE1
:1027600076956795579547952F5F3F4F77FDE7CF54
:102770000CC0440F551F661F771F17FD4160EE0CFC
:10278000FF1C001F111F21503040403090E05907BE
:1027900090E0690790E4790760F32B8F3C8FDB01B1
:1027A000CA018F779070A070B07080349105A10538
:1027B000B10561F447FD0AC0E114F10401051105FA
:1027C00029F0405C5F4F6F4F7F4F40781A8EFE17A5
:1027D00011F081E08A8F4D8F5E8F6F8F78A383E039
:1027E000898FCE0149960E94C115A096E2E10C9412
:1027F000C51AA8E1B0E0EFEFF3E10C94B11A6983D8
:102800007A838B839C832D833E834F835887B9E0E3
:10281000EB2EF12CEC0EFD1ECE010196B7010E94AD
:1028200096168E010F5E1F4FCE010596B8010E94CD
:1028300096162985223008F47EC03989323010F48A
:10284000B8017CC08A859A8989278A87243011F04B
:10285000223031F4231709F06EC06FE374E06EC0CC
:10286000343039F41D861E861F86188A1C861B8606
:1028700004C0323021F484E08987B7015FC02B8522
:102880003C858B899C89281B390B3C872B87ED84E1
:10289000FE840F851889AD88BE88CF88D88CEA144D
:1028A000FB040C051D0540F4EE0CFF1C001F111F5E
:1028B000215030403C872B8720E030E040E050E062
:1028C00080E090E0A0E0B0E460E070E0EA14FB0497
:1028D0000C051D0540F0282B392B4A2B5B2BEA18E1
:1028E000FB080C091D09B695A79597958795EE0CE1
:1028F000FF1C001F111F6F5F7F4F6F31710531F794
:10290000DA01C9018F779070A070B07080349105A2
:10291000A105B10561F427FD0AC0E114F104010528
:10292000110529F0205C3F4F4F4F5F4F20782D87D6
:102930003E874F87588BBE01675F7F4FCB010E9458
:10294000C1156896EAE00C94CD1AACE0B0E0EBEA71
:10295000F4E10C94B91A69837A838B839C83CE014A
:102960000196BE016B5F7F4F0E9496168D8182306B
:1029700061F1823050F1843021F48E81882351F14D
:102980002EC02F81388537FD20C06E812F31310553
:102990001CF06623F9F023C08EE190E0821B930BBC
:1029A00029853A854B855C8504C0569547953795B2
:1029B00027958A95D2F76623B1F0509540953095CA
:1029C00021953F4F4F4F5F4F0EC020E030E040E079
:1029D00050E009C02FEF3FEF4FEF5FE704C020E06A
:1029E00030E040E050E8B901CA012C96E2E00C94D6
:1029F000D51AA8E0B0E0EFEFF4E10C94B11A7B0136
:102A00008C01611571058105910519F482E08983B6
:102A100060C083E089838EE1C82ED12CDC82CB821A
:102A2000ED82FE820F831887C801B7010E947215DC
:102A3000FC013197F7FF3BC0222733272E1B3F0BAA
:102A400057016801022E04C0D694C794B794A79486
:102A50000A94D2F740E050E060E070E081E090E05E
:102A6000A0E0B0E004C0880F991FAA1FBB1F2A95E1
:102A7000D2F70197A109B1098E219F21A023B1238B
:102A80000097A105B10521F041E050E060E070E061
:102A90004A295B296C297D294D835E836F83788762
:102AA0008EE190E08E1B9F0B9C838B8312C030972E
:102AB00081F00E2E04C0EE0CFF1C001F111F0A94A3
:102AC000D2F7ED82FE820F831887CE1ADF0ADC82EE
:102AD000CB821A82CE0101960E94C1152896EAE0A7
:102AE0000C94CD1AEF92FF920F931F937B018C01F0
:102AF00080E0E81680E0F80681E0080780E018072B
:102B000088F48FEFE816F1040105110531F028F083
:102B100088E090E0A0E0B0E017C080E090E0A0E0A6
:102B2000B0E012C080E0E81680E0F80680E0080718
:102B300081E0180728F088E190E0A0E0B0E004C050
:102B400080E190E0A0E0B0E020E230E040E050E042
:102B5000281B390B4A0B5B0B04C016950795F7949D
:102B6000E7948A95D2F7F701E95BFB4F8081281B38
:102B7000310941095109C9011F910F91FF90EF904F
:102B80000895DF92EF92FF920F931F93FC01E48070
:102B9000F58006811781D1808081823048F480E001
:102BA00090E0A0E1B0E0E82AF92A0A2B1B2BA5C08F
:102BB000843009F49FC0823021F4EE24FF24870181
:102BC00005C0E114F1040105110519F4E0E0F0E09D
:102BD00096C0628173819FEF623879070CF05BC009
:102BE00022E83FEF261B370B2A3131052CF020E07D
:102BF00030E040E050E02AC0B801A701022E04C036
:102C000076956795579547950A94D2F781E090E0BD
:102C1000A0E0B0E004C0880F991FAA1FBB1F2A952F
:102C2000D2F70197A109B1098E219F21A023B123D9
:102C30000097A105B10521F081E090E0A0E0B0E0AF
:102C40009A01AB01282B392B4A2B5B2BDA01C901E6
:102C50008F779070A070B07080349105A105B10598
:102C600039F427FF09C0205C3F4F4F4F5F4F04C02E
:102C7000215C3F4F4F4F5F4FE0E0F0E02030A0E09D
:102C80003A07A0E04A07A0E45A0710F0E1E0F0E0BC
:102C900079018A0127C06038710564F5FB01E158AC
:102CA000FF4FD801C7018F779070A070B07080344B
:102CB0009105A105B10539F4E7FE0DC080E490E06F
:102CC000A0E0B0E004C08FE390E0A0E0B0E0E80E48
:102CD000F91E0A1F1B1F17FF05C016950795F794CD
:102CE000E794319687E016950795F794E7948A95CF
:102CF000D1F705C0EE24FF248701EFEFF0E06E2F3F
:102D0000679566276795902F9F77D794DD24D79492
:102D10008E2F8695492F462B582F5D29B701CA0162
:102D20001F910F91FF90EF90DF900895FC01DB0160
:102D3000408151812281622F6F7770E0221F22270C
:102D4000221F9381892F880F822B282F30E0991F13
:102D50009927991F11969C93119721153105A9F573
:102D6000411551056105710511F482E037C082E813
:102D70009FEF13969C938E9312979A01AB0167E095
:102D8000220F331F441F551F6A95D1F783E08C93A0
:102D90000DC0220F331F441F551F12968D919C9119
:102DA0001397019713969C938E931297203080E08F
:102DB000380780E0480780E4580758F314962D93AD
:102DC0003D934D935C93179708952F3F310579F408
:102DD000411551056105710519F484E08C9308953E
:102DE00064FF03C081E08C9312C01C9210C02F5767
:102DF000304013963C932E93129783E08C9387E098
:102E0000440F551F661F771F8A95D1F7706414967B
:102E10004D935D936D937C9317970895A1E1B0E076
:102E2000E4E1F7E10C94A91A3C017F876E876A01FF
:102E3000FC0117821682838181FD03C06FEF7FEF53
:102E40006FC39E012F5F3F4F398B288BF301238186
:102E5000EE85FF8523FD859123FF8191FF87EE8716
:102E6000882309F45AC3853251F4EE85FF8523FD8A
:102E7000859123FF8191FF87EE87853229F490E0C9
:102E8000B3010E94D51BE2CF982F10E0882499242B
:102E90001032B0F49B3269F09C3228F4903251F039
:102EA000933271F40BC09D3239F0903349F41160C4
:102EB00028C01260146025C0186023C0106121C0B2
:102EC00017FD2AC0892F80538A3078F416FF06C078
:102ED000FAE09F9E902C1124980E13C03AE0839E36
:102EE000802C1124880E10620CC09E3221F416FD35
:102EF00014C3106406C09C3611F4106802C09836E2
:102F000059F4EE85FF8523FD959123FF9191FF876D
:102F1000EE87992309F0BCCF892F8554833020F4A4
:102F2000812F8061905E07C0892F8556833008F01D
:102F30009FC1812F8F7E86FD02C076E0972E6FE3C2
:102F4000F62EF822953619F4F0E4FF2A07C09636DB
:102F500019F420E8F22A02C091109A94F7FE0AC0F0
:102F60003BE3391518F45CE3B52E02C0B92CB394D9
:102F700027E009C047E0491520F4BB2447E0942E20
:102F8000F7CF292DBB24C60104969D878C87F601B7
:102F90006081718182819381AE014F5F5F4F0B2D04
:102FA0000E94E01A6C010981202E332400FF04C026
:102FB00003FD02C01DE209C0F1FE02C01BE205C014
:102FC000F2FC02C010E001C010E2C1018C709070F0
:102FD000892BB9F1112311F483E001C084E0881535
:102FE00010F088240AC0881AF3FC07C080E290E041
:102FF000B3010E94D51B8A94C9F7112329F0812FB0
:1030000090E0B3010E94D51B23FE03C004EE10E044
:103010000EC008EE10E00BC0E114F10409F080527C
:1030200090E0B3010E94D51B0F5F1F4F05C0EF2C2E
:10303000FF24F0E1EF22FF24F8018491882361F757
:1030400014C1F7FE12C0BC0C24FE04C08A81813377
:1030500009F4BA941B141CF0BB24B3942DC0F8E0FF
:10306000FB1550F538E0B32E27C0F6FC25C0892D9E
:1030700090E08C159D054CF02CEFC2162FEFD20678
:1030800024F030E8F32A01C09A94992049F0E2E054
:10309000F0E0EC0FFD1FE90DF11D80818033A1F3FD
:1030A000F7FE0AC0B92CB394892D90E0C816D90652
:1030B00014F0992401C09C18F7FC03C025E030E00F
:1030C00009C01C141D041CF021E030E003C096016F
:1030D0002F5F3F4F112311F02F5F3F4F992029F0B1
:1030E000892D90E00196280F391F882D90E0281730
:1030F000390714F0882401C0821A4F2C5524C201CC
:1031000089709070892B39F008C080E290E0B3019B
:103110000E94D51B8A948820C1F7112329F0812FA2
:1031200090E0B3010E94D51B43FE07C008C080E3B6
:1031300090E0B3010E94D51B8A948820C1F7F7FE66
:1031400046C08601D7FE02C000E010E07601089478
:10315000E11CF11CE01AF10A41E050E04C0F5D1F48
:10316000E40EF51E26014B185108892D90E0AA2483
:10317000BB24A81AB90A5FEF0F3F150729F48EE2A6
:1031800090E0B3010E94D51BC016D10634F0401662
:1031900051061CF4F701808101C080E3015010400A
:1031A0000894E11CF11C0A151B052CF090E0B301FA
:1031B0000E94D51BE0CF0C151D0539F49A8196337A
:1031C00018F4953311F424FE81E390E04BC08A811A
:1031D000813309F00F7E90E0B3010E94D51B992046
:1031E000A1F08EE290E0B3010E94D51B12E0E1E075
:1031F000F0E0EC0FFD1FE10FF11D1F5F808190E0FB
:10320000B3010E94D51B9A9491F744FC03C085E654
:1032100090E002C085E490E0B3010E94D51BD7FC8A
:1032200005C0C114D10441F404FF06C0D094C19478
:10323000D108D3948DE201C08BE290E0B3010E94EB
:10324000D51B80E305C08F5F26EF3FEFC20ED31E74
:103250003AE0C316D104BCF790E0B3010E94D51B3D
:10326000C601C096B3010E94D51BCC84DD8452C137
:10327000933631F0933799F0933509F059C023C054
:10328000F601808189835E010894A11CB11C22E0B3
:1032900030E0C20ED31E21E0E22EF12C12C0F60166
:1032A000A080B18016FD03C06FEF7FEF02C0692DD3
:1032B00070E022E030E0C20ED31EC5010E94CA1B9E
:1032C0007C011F7713C0F601A080B18016FD03C0FA
:1032D0006FEF7FEF02C0692D70E022E030E0C20E98
:1032E000D31EC5010E94B81B7C01106813FF07C0E4
:1032F0001BC080E290E0B3010E94D51B8A94882D08
:1033000090E0E816F906A8F30FC0F50117FD8591C6
:1033100017FF81915F0190E0B3010E94D51B8110DE
:103320008A940894E108F108E114F10471F7F2C0FD
:10333000943611F0993689F517FF08C0F6012081FF
:1033400031814281538184E090E00AC0F60180819E
:1033500091819C01442737FD4095542F82E090E0F5
:10336000C80ED91E9FE6F92EF12257FF09C05095CD
:103370004095309521953F4F4F4F5F4F90E8F92A88
:10338000CA01B901AE014F5F5F4F2AE030E00E94F1
:10339000251CE82EE889EE1A41C0953721F41F7EDE
:1033A0002AE030E01CC0197F9F3661F0903720F48E
:1033B000983509F0B2C00FC0903739F0983709F04E
:1033C000ACC004C028E030E00AC0106114FD1460F5
:1033D00020E130E004C014FD166020E132E017FF68
:1033E00008C0F601608171818281938144E050E0E0
:1033F00008C0F60180819181BC0180E090E042E04C
:1034000050E0C40ED51EAE014F5F5F4F0E94251CD9
:10341000E82E5889E51A8FE7F82EF122F6FE0BC048
:103420008EEFF822E91438F4F4FE07C0F2FC05C070
:103430009FEEF92202C01E2D01C0192DF4FE0DC011
:10344000FE01EE0DF11D8081803319F4E9EEFE22BC
:1034500008C01F5FF2FE05C003C08F2D867809F0FB
:103460001F5F0F2DF3FC14C0F0FE0FC0181510F0F5
:103470009E2C0BC09E2C980C911A182D06C080E231
:1034800090E0B3010E94D51B1F5F1815C0F304C064
:10349000181510F4811A01C0882404FF0FC080E3BE
:1034A00090E0B3010E94D51B02FF1DC001FD03C0C7
:1034B00088E790E00EC088E590E00BC0802F86780A
:1034C00091F001FF02C08BE201C080E2F7FC8DE2C7
:1034D00090E0B3010E94D51B06C080E390E0B301E9
:1034E0000E94D51B9A94E914C0F3EA94E1E0F0E05D
:1034F000EC0FFD1FEE0DF11D808190E0B3010E94E5
:10350000D51BEE2091F706C080E290E0B3010E9447
:10351000D51B8A948820C1F799CCF3016681778105
:10352000CB016196E2E10C94C51AAA1BBB1B51E1C9
:1035300007C0AA1FBB1FA617B70710F0A61BB70B23
:10354000881F991F5A95A9F780959095BC01CD01C8
:1035500008952F923F924F925F926F927F928F9237
:103560009F92AF92BF92CF92DF92EF92FF920F9312
:103570001F93CF93DF93CDB7DEB7CA1BDB0B0FB61C
:10358000F894DEBF0FBECDBF09942A8839884888D9
:103590005F846E847D848C849B84AA84B984C8846F
:1035A000DF80EE80FD800C811B81AA81B981CE0F66
:1035B000D11D0FB6F894DEBF0FBECDBFED0108954B
:1035C000283008F027E03327DA01990F311D87FDF5
:1035D000916000966105710539F432602E5F3D936C
:1035E00030E32A95E1F708959F3F30F08038710568
:1035F000610509F03C5F3C5F3D93913008F08068C5
:10360000911DDF93CF931F930F93FF92EF92192F8A
:10361000987F9695E92F96959695E90FFF27EA5B97
:10362000FE4F99273327EE24FF24A701E7010590D9
:103630000894079428F4360FE71EF81E491F511D01
:10364000660F771F881F991F0694A1F705900794AE
:1036500028F4E70EF81E491F561FC11D770F881F5B
:10366000991F661F0694A1F70590079428F4F80E99
:10367000491F561FC71FD11D880F991F661F771F2F
:103680000694A1F70590079420F4490F561FC71F11
:10369000D81F990F661F771F881F0694A9F784917A
:1036A0001095177041F0D695C79557954795F794A3
:1036B000E7941A95C1F7ECEEF0E068941590159137
:1036C00035916591959105907FE27395E118F10A26
:1036D000430B560BC90BD009C0F7E10CF11E431F79
:1036E000561FC91FD01D7EF4703311F48A95E6CFA2
:1036F000E894015030F0080F0AF40027021708F48C
:10370000202F2395022F7A3328F079E37D932A9591
:10371000E9F710C07D932A9589F6069497956795E9
:10372000379517951794E118F10A430B560BC90BFF
:10373000D00998F023957E9173957A3308F070E361
:103740007C932013B8F77E9170617D9330F0839560
:1037500071E37D9370E32A95E1F71124EF90FF90D8
:103760000F911F91CF91DF91992787FD9095089533
:10377000FC010590615070400110D8F7809590953C
:103780008E0F9F1F0895DC0101C06D934150504082
:10379000E0F70895FC016150704001900110D8F7E6
:1037A000809590958E0F9F1F08950F931F93CF9331
:1037B000DF938C01EB018B8181FF1BC082FF0DC069
:1037C0002E813F818C819D812817390764F4E8811F
:1037D000F9810193F983E88306C0E885F985802F94
:1037E0000995892B31F48E819F8101969F838E8369
:1037F00002C00FEF1FEFC801DF91CF911F910F9112
:103800000895AEE0B0E0E7E0FCE10C94B71A0D8952
:103810001E8986E08C831A8309838FEF9FE79E833E
:103820008D839E01275E3F4FCE0101966F89788D73
:10383000A9010E940E172F813885020F131FF8016E
:1038400010822E96E4E00C94D31AFA01AA272830AD
:1038500051F1203181F1E8946F936E7F6E5F7F4F5D
:103860008F4F9F4FAF4FB1E03ED0B4E03CD0670FD9
:10387000781F891F9A1FA11D680F791F8A1F911D2C
:10388000A11D6A0F711D811D911DA11D20D009F47C
:1038900068943F912AE0269F11243019305D3193BE
:1038A000DEF6CF010895462F4770405D4193B3E0A7
:1038B0000FD0C9F7F6CF462F4F70405D4A3318F04E
:1038C000495D31FD4052419302D0A9F7EACFB4E0FF
:1038D000A6959795879577956795BA95C9F70097B7
:1038E0006105710508959B01AC010A2E0694579558
:1038F000479537952795BA95C9F7620F731F841FAF
:10390000951FA01D0895F999FECF92BD81BDF89A2B
:10391000992780B50895A6E1B0E044E050E00C940A
:10392000BD1CA8E1B0E042E050E00C94BD1C262F85
:10393000F999FECF92BD81BDF89A019700B40216A5
:1039400039F01FBA20BD0FB6F894FA9AF99A0FBE53
:1039500008950396272F0E94981C0E94971C252FDC
:103960000E94981C242F0C94981C0196272F0E94CB
:10397000981C0C94971CDC01CB01FC01F999FECF3B
:1039800006C0F2BDE1BDF89A319600B40D924150E7
:0A3990005040B8F70895F894FFCFF7
:10399A001B5B333231307C0042554420746F204225
:1039AA004F422D3420416E676C65204F7665726CEC
:1039BA006179206170706C69636174696F6E0A0D58
:1039CA0072656164790A0D001B5B31346D1B5B36CD
:1039DA00366D1B5B324A001B5B31346D1B5B36361E
:1039EA006D001B5B303B3048002050414E3A253475
:1039FA0064205241573A2535642053414D503A25A7
:103A0A00356420001B5B313B30480020544C543A4B
:103A1A00253464205241573A2535642053414D508C
:103A2A003A25356420002050414E3A25346420005E
:103A3A0020544C543A2534642000405A435241548D
:103A4A0050475153564470640201020202000000BA
:103A5A0008000009000D000A0D50414E205820535D
:103A6A00484946543A2020253575202050414E2099
:103A7A00592053484946543A2020252D336420645E
:103A8A006567090909090909200A0D50414E2052A2
:103A9A00414E47453A2020202025357520205041A7
:103AAA004E20534C4F50453A2020202025662009AD
:103ABA000909090909200A0D50414E204D494E496C
:103ACA004D554D3A20202535752009090909092047
:103ADA000A0D0A0D54494C5420582053484946545B
:103AEA003A20253575202054494C542059205348F2
:103AFA004946543A20252D3364206465670909092B
:103B0A00090909200A0D54494C542052414E47458F
:103B1A003A202020253575202054494C5420534CF6
:103B2A004F50453A20202025662020090909090915
:103B3A0009200A0D54494C54204D494E494D554DC2
:103B4A003A20253575200A0D000A0D435552524573
:103B5A004E54205241572050414E3A202535752067
:103B6A002043555252454E54205241572054494CF5
:103B7A00543A2025750A0D000A0D43555252454EF6
:103B8A00542053414D504C45442050414E3A202533
:103B9A003575202043555252454E542053414D50BD
:103BAA004C45442054494C543A2025750A0D00E8E6
:103BBA0003E803F401F401B4000100E803E803E8B0
:103BCA0003E803F401F401B4000100E803E8030088
:103BDA0000000000000000000102020303030304C6
:103BEA000404040404040405050505050505050582
:103BFA000505050505050506060606060606060662
:103C0A00060606060606060606060606060606064A
:103C1A000606060606060607070707070707070731
:103C2A00070707070707070707070707070707071A
:103C3A00070707070707070707070707070707070A
:103C4A0007070707070707070707070707070707FA
:103C5A0007070707070707080808080808080808E1
:103C6A0008080808080808080808080808080808CA
:103C7A0008080808080808080808080808080808BA
:103C8A0008080808080808080808080808080808AA
:103C9A00080808080808080808080808080808089A
:103CAA00080808080808080808080808080808088A
:103CBA00080808080808080808080808080808087A
:103CCA00080808080808080808080808080808086A
:083CDA000808080808080800AA
:00000001FF
