:100000000C9472000C948F000C948F000C948F0051
:100010000C948F000C948F000C948F000C948F0024
:100020000C948F000C948F000C948F000C948F0014
:100030000C948F000C948F000C948F000C948F0004
:100040000C948F000C948F000C948F000C948F00F4
:100050000C948F000C948F000C948F000C948F00E4
:100060000C948F000C941C020C948F000C948F0045
:100070000C948F000C948F000C948F000C948F00C4
:100080000C948F000C948F000C948F000C948F00B4
:100090000C944C020C948F000C948F000C948F00E5
:1000A0000C948F000C948F000C948F000C948F0094
:1000B0000C948F000C948F000C948F000C948F0084
:1000C0000C948F000C948F000C948F000C947C0285
:1000D0000C948F000C948F000C94AC020C948F0045
:1000E0000C948F0011241FBECFEFD1E2DEBFCDBF35
:1000F00014E0A0E0B2E0EAE2FBE202C005900D925B
:10010000A43CB107D9F717E0A4ECB4E001C01D92FC
:10011000A036B107E1F70E9491000C9493150C945E
:100120000000AF92BF92CF92DF92EF92FF920F93B7
:100130001F93DF93CF93CDB7DEB7E2970FB6F89456
:10014000DEBF0FBECDBF0E9497010E943D010E94FD
:10015000B80880E00E944B0178947E010894E11C6D
:10016000F11CD701E0E0F2E088E001900D928150AF
:10017000E1F7C7010E94DD03D701E8E0F2E080E388
:1001800001900D928150E1F7C7010E940A04D70146
:10019000E8E3F2E085E001900D928150E1F7C701BC
:1001A0000E94DD0394E4C92E92E0D92E8AE5A82EA0
:1001B00082E0B82E00E911E0D701EDE3F2E087E03C
:1001C00001900D928150E1F7C7010E94DD030E946A
:1001D0003F0C00D000D000D0EDB7FEB73196ADB7E0
:1001E000BEB71296FC92EE921197D382C28295838B
:1001F00084830E94CE128DB79EB706960FB6F894F0
:100200009EBF0FBE8DBFC7010E94DD03D701E3E58E
:10021000F2E087E001900D928150E1F7C7010E9462
:10022000DD030E94860C00D000D000D0EDB7FEB7F1
:100230003196ADB7BEB71296FC92EE921197B3828B
:10024000A282958384830E94CE128DB79EB70696B4
:100250000FB6F8949EBF0FBE8DBFC7010E94DD038D
:100260000E94BB0520E030E0C8010197F1F72F5F45
:100270003F4F2A3F3105C1F79FCFDF93CF93CDB7D3
:10028000DEB7AAE7B0E0EAE7F0E0808180688C930F
:10029000CF91DF910895DF93CF930F92CDB7DEB763
:1002A00089838981809369020F90CF91DF910895AE
:1002B000DF93CF9300D00F92CDB7DEB78B83ECE7FF
:1002C000F0E08B81982F977080916902892B808351
:1002D000ABE7B0E0EBE7F0E08081877F8C93AAE7A3
:1002E000B0E0EAE7F0E0808180648C93EAE7F0E038
:1002F0008081882F90E0807490700097B9F7E8E7CC
:10030000F0E080818A83E9E7F0E080818983898158
:10031000882F90E0382F22278A81882F90E0822B27
:10032000932B0F900F900F90CF91DF910895DF9353
:10033000CF930F92CDB7DEB71092170580911705B6
:1003400080935805809158058093DF0510929B0596
:1003500080919B0580931405809114058093DD05A1
:1003600088E195E060E070E040E450E00E94C71250
:1003700084ED94E060E070E040E450E00E94C71239
:1003800089E595E060E070E040E450E00E94C7122B
:100390008CE995E060E070E040E450E00E94C71214
:1003A000E4ECF0E08FE590E091838083ECECF0E00A
:1003B00087E090E091838083E4EDF0E087E090E0D7
:1003C00091838083E4E3F1E08FE590E09183808383
:1003D000E1ECF0E088E98083E9ECF0E088E98083F3
:1003E000E1EDF0E088E98083E1E3F1E088E98083F2
:1003F000E2ECF0E086E08083EAECF0E086E08083E7
:10040000E2EDF0E086E08083E2E3F1E086E08083E5
:10041000E6ECF0E080818983EEECF0E08081898376
:10042000E6EDF0E080818983E6E3F1E08081898375
:100430000F90CF91DF9108951F920F920FB60F92F8
:1004400011242F938F939F93EF93FF93DF93CF9379
:10045000CDB7DEB78091DD05882F90E0E6ECF0E0C7
:100460002081FC01E85EFA4F20838091DD058F5FDB
:100470008093DD058091DD05803411F41092DD0557
:10048000CF91DF91FF91EF919F918F912F910F90DD
:100490000FBE0F901F9018951F920F920FB60F92DC
:1004A00011242F938F939F93EF93FF93DF93CF9319
:1004B000CDB7DEB780911405882F90E0EEECF0E028
:1004C0002081FC01EC52FB4F2083809114058F5F4B
:1004D0008093140580911405803411F41092140552
:1004E000CF91DF91FF91EF919F918F912F910F907D
:1004F0000FBE0F901F9018951F920F920FB60F927C
:1005000011242F938F939F93EF93FF93DF93CF93B8
:10051000CDB7DEB780919B05882F90E0E6EDF0E047
:100520002081FC01E75AFA4F208380919B058F5F61
:1005300080939B0580919B05803411F410929B055C
:10054000CF91DF91FF91EF919F918F912F910F901C
:100550000FBE0F901F9018951F920F920FB60F921B
:1005600011242F938F939F93EF93FF93DF93CF9358
:10057000CDB7DEB78091DC05882F90E0E6E3F1E0AF
:100580002081FC01E456FA4F20838091DC058F5FC7
:100590008093DC058091DC05803411F41092DC0539
:1005A000CF91DF91FF91EF919F918F912F910F90BC
:1005B0000FBE0F901F901895DF93CF930F92CDB77A
:1005C000DEB78091DF05882F90E0FC01E85EFA4FEE
:1005D000808189838091DF058F5F8093DF05809123
:1005E000DF05803411F41092DF0589810F90CF91DF
:1005F000DF910895DF93CF930F92CDB7DEB780914F
:100600005805882F90E0FC01EC52FB4F80818983D4
:10061000809158058F5F80935805809158058034EC
:1006200011F41092580589810F90CF91DF910895B0
:10063000DF93CF930F92CDB7DEB780911705882F48
:1006400090E0FC01E75AFA4F808189838091170579
:100650008F5F8093170580911705803411F41092F5
:10066000170589810F90CF91DF910895DF93CF9384
:100670000F92CDB7DEB78091DE05882F90E0FC01A8
:10068000E456FA4F808189838091DE058F5F8093E5
:10069000DE058091DE05803411F41092DE0589813B
:1006A0000F90CF91DF910895DF93CF930F92CDB745
:1006B000DEB78983E0ECF0E08081882F90E08072E3
:1006C00090700097B9F3E6ECF0E0898180830F9099
:1006D000CF91DF910895DF93CF930F92CDB7DEB71F
:1006E0008983E8ECF0E08081882F90E08072907040
:1006F0000097B9F3EEECF0E0898180830F90CF9101
:10070000DF910895DF93CF930F92CDB7DEB7898342
:10071000E0EDF0E08081882F90E08072907000978B
:10072000B9F3E6EDF0E0898180830F90CF91DF91FE
:100730000895DF93CF930F92CDB7DEB78983E0E3BF
:10074000F1E08081882F90E0807290700097B9F37B
:10075000E6E3F1E0898180830F90CF91DF910895E6
:10076000DF93CF9300D000D0CDB7DEB79C838B83CF
:100770001A82198211C02B813C8189819A81F901E9
:10078000E80FF91F8081282F89819A8101969A8329
:100790008983822F0E9454032B813C8189819A8115
:1007A000F901E80FF91F8081882329F70F900F9036
:1007B0000F900F90CF91DF910895DF93CF9300D0EA
:1007C00000D0CDB7DEB79C838B831A82198211C00B
:1007D0002B813C8189819A81F901E80FF91F808181
:1007E000282F89819A8101969A838983822F0E947A
:1007F0006B032B813C8189819A81F901E80FF91FF4
:100800008081882329F70F900F900F900F90CF9140
:10081000DF910895DF93CF9300D000D0CDB7DEB73E
:100820009C838B831A82198211C02B813C81898120
:100830009A81F901E80FF91F8081282F89819A8117
:1008400001969A838983822F0E9482032B813C81A7
:1008500089819A81F901E80FF91F8081882329F79E
:100860000F900F900F900F90CF91DF910895DF932D
:10087000CF9300D000D0CDB7DEB79C838B831A8294
:10088000198211C02B813C8189819A81F901E80F7D
:10089000F91F8081282F89819A8101969A83898303
:1008A000822F0E9499032B813C8189819A81F901D1
:1008B000E80FF91F8081882329F70F900F900F9080
:1008C0000F90CF91DF910895DF93CF9300D000D0A8
:1008D0000F92CDB7DEB79B838A837D836C831982A9
:1008E0000FC08981282F30E08A819B81FC01E20FB3
:1008F000F31F908189818F5F8983892F0E94540320
:100900008981282F30E08C819D812817390748F391
:100910000F900F900F900F900F90CF91DF9108954F
:10092000DF93CF9300D000D000D0CDB7DEB79C834B
:100930008B837E836D831A82198210C02B813C8148
:1009400089819A81F901E80FF91F208189819A81B3
:1009500001969A838983822F0E946B0329813A81B1
:100960008D819E812817390748F326960FB6F89493
:10097000DEBF0FBECDBFCF91DF910895DF93CF9340
:1009800000D000D000D0CDB7DEB79C838B837E83B0
:100990006D831A82198210C02B813C8189819A81D2
:1009A000F901E80FF91F208189819A8101969A83C4
:1009B0008983822F0E94820329813A818D819E81C1
:1009C0002817390748F326960FB6F894DEBF0FBEF6
:1009D000CDBFCF91DF910895DF93CF9300D000D0AA
:1009E00000D0CDB7DEB79C838B837E836D831A8264
:1009F000198210C02B813C8189819A81F901E80F0D
:100A0000F91F208189819A8101969A838983822F97
:100A10000E94990329813A818D819E812817390787
:100A200048F326960FB6F894DEBF0FBECDBFCF9128
:100A3000DF910895DF93CF93CDB7DEB72E970FB632
:100A4000F894DEBF0FBECDBF8B836C834D832E83A6
:100A50008B818A336CF48B81992787FD9095C097A1
:100A60009C01322F22273295307F3E872D870CC084
:100A70008B81992787FD9095C7979C01322F22275C
:100A80003295307F3E872D872D853E8589819A81DD
:100A9000822B932B9A8389838C818A3354F48C81A3
:100AA000992787FD9095C097382F22273C872B8761
:100AB00009C08C81992787FD9095C797382F2227E9
:100AC0003C872B872B853C8589819A81822B932BB0
:100AD0009A8389838D818A337CF48D81992787FD60
:100AE0009095C0979C0122953295307F3227207FC8
:100AF00032273A8729870EC08D81992787FD9095E7
:100B0000C7979C0122953295307F3227207F32276C
:100B10003A87298729853A8589819A81822B932B67
:100B20009A8389838E818A3354F48E81992787FD35
:100B300090959C012053304038872F8309C08E81C7
:100B4000992787FD90959C012753304038872F8344
:100B50002F81388589819A81822B932B9A8389836F
:100B600089819A812E960FB6F894DEBF0FBECDBF55
:100B7000CF91DF9108956F927F928F929F92AF9263
:100B8000BF92CF92DF92EF92FF920F931F93DF936A
:100B9000CF93CDB7DEB7C051D2400FB6F894DEBFC9
:100BA0000FBECDBF10C00E94180389832091C404DA
:100BB000822F90E0FC01E052FA4F89818083822FDE
:100BC0008F5F8093C4049091170580919B059817BF
:100BD00051F79091C4048091C504292F281B822FBE
:100BE000882F90E09C838B838B819C81833091053F
:100BF0000CF4A8C28091C504882F90E0FC01E0525B
:100C0000FA4F8081833C31F08091C5048F5F8093DF
:100C1000C50498C28091C5048F5F882F90E0FC01C5
:100C2000E052FA4F80818A8318861F820EC08F811E
:100C30009885FC01E659FD4F90818A81981771F0E3
:100C40008F819885019698878F83209180023091BB
:100C500081028F819885821793074CF3209180023F
:100C6000309181028F8198858217930729F48091B2
:100C7000C5048E5F8093C5048F819885FC01EB5875
:100C8000FD4F8081882F90E09E838D8318861F8280
:100C900023C09F818091C504890F8E5F882F90E0CB
:100CA000FC01E052FA4F80818A838A818D3529F4D4
:100CB0008F8198859E838D831DC02F813885CE01BD
:100CC000875F9D4FFC01E20FF31F8A8180838F8134
:100CD0009885019698878F832F8138858B819C8199
:100CE000281739073CF42F8138858D819E81821722
:100CF00093077CF62F8138858B819C8128173907D3
:100D000009F420C22F8138858D819E818217930737
:100D100044F49F818091C504890F8E5F8093C50440
:100D200011C29D818091C504890F8D5F8093C50498
:100D30008A818A3579F518861F8224C02F813885EB
:100D4000CE01875F9D4FFC01E20FF31F808180354C
:100D500029F40E94ED0A0E94CD0C0FC02F81388526
:100D6000CE01875F9D4FFC01E20FF31F8081843528
:100D700021F40E94960B0E94F80C8F8198850196B1
:100D800098878F832F8138858D819E812817390719
:100D9000ACF2D8C18A818334C9F518861F822EC06F
:100DA0002F813885CE01875F9D4FFC01E20FF31F35
:100DB0008081803519F40E94230D1BC02F81388556
:100DC000CE01875F9D4FFC01E20FF31F80818535C7
:100DD00019F40E94EE0D0DC02F813885CE01875F7A
:100DE0009D4FFC01E20FF31F80818C3411F40E94AF
:100DF000940D8F819885019698878F832F813885F0
:100E00008D819E81281739075CF29CC18A818235C9
:100E100079F518861F8224C02F813885CE01875F1F
:100E20009D4FFC01E20FF31F8081803529F481E0A2
:100E300090E00E9475090FC02F813885CE01875F31
:100E40009D4FFC01E20FF31F8081843521F481E086
:100E500090E00E94E8098F819885019698878F839A
:100E60002F8138858D819E8128173907ACF26AC1A0
:100E70008A81813479F518861F8224C02F813885B4
:100E8000CE01875F9D4FFC01E20FF31F808180350B
:100E900029F480E090E00E9475090FC02F81388509
:100EA000CE01875F9D4FFC01E20FF31F80818435E7
:100EB00021F480E090E00E94E8098F8198850196F6
:100EC00098878F832F8138858D819E8128173907D8
:100ED000ACF238C18A81843559F518861F8220C04A
:100EE0002F813885CE01875F9D4FFC01E20FF31FF4
:100EF0008081803519F40E94CE090DC02F8138857C
:100F0000CE01875F9D4FFC01E20FF31F8081843586
:100F100011F40E94410A8F819885019698878F83EA
:100F20002F8138858D819E8128173907CCF20AC11F
:100F30008A81803509F05EC06091A9037091AA038F
:100F4000A091AB03B091AC03C090A703D090A803CD
:100F50002091A3033091A4034091A5035091A603CF
:100F6000A090B503B090B6038090B7039090B803FB
:100F70006090B3037090B403E090AF03F090B003BF
:100F80000091B1031091B2038DB79EB748970FB689
:100F9000F8949EBF0FBE8DBFEDB7FEB73196CE0160
:100FA00009969183808382E892E09383828375839C
:100FB0006483B783A683D186C0862287338744871C
:100FC0005587B786A686918A808A738A628AE48A60
:100FD000F58A068B178B0E94CE128DB79EB7489666
:100FE0000FB6F8949EBF0FBE8DBFCE0109960E942A
:100FF0000A04A8C08A81873491F5E0911505F09123
:10100000160509958C01E0919905F0919A050995CD
:101010009C018DB79EB708970FB6F8949EBF0FBE80
:101020008DBFEDB7FEB73196CE01099691838083CF
:101030008DE393E093838283158304833783268330
:101040000E94CE128DB79EB708960FB6F8949EBF39
:101050000FBE8DBFCE0109960E940A0473C08A811B
:10106000813561F50E94ED0A8C010E94960B9C016E
:101070008DB79EB708970FB6F8949EBF0FBE8DBF71
:10108000EDB7FEB73196CE010996918380838CE649
:1010900093E09383828315830483378326830E949E
:1010A000CE128DB79EB708960FB6F8949EBF0FBEAE
:1010B0008DBFCE0109960E940A0444C08A818335FF
:1010C00091F58D819E8188309105E1F5FE01E75F04
:1010D000FD4F8081FE01E75FFD4F3181FE01E75F3B
:1010E000FD4F9281FE01E75FFD4F2381632F492F62
:1010F0000E941A050E949F0AFE01E75FFD4F84814E
:10110000FE01E75FFD4F3581FE01E75FFD4F9681F0
:10111000FE01E75FFD4F2781632F492F0E941A05CB
:101120000E94B10A0FC08A81863529F482E090E0DE
:101130000E945B0A07C08A81843421F481E090E038
:101140000E945B0AC05FDD4F0FB6F894DEBF0FBE92
:10115000CDBFCF91DF911F910F91FF90EF90DF9066
:10116000CF90BF90AF909F908F907F906F90089599
:10117000DF93CF9300D00F92CDB7DEB781E090E040
:101180000E945B0A0F900F900F90CF91DF9108950E
:10119000DF93CF9300D0CDB7DEB780E094E09A83A1
:1011A000898389819A8161E00E94CF1489819A8123
:1011B00002969A83898389819A812091A303309131
:1011C000A4034091A5035091A603BA01A9010E946E
:1011D000E11489819A8104969A83898389819A810D
:1011E0002091A9033091AA03B9010E94ED148981CD
:1011F0009A8102969A83898389819A812091A70393
:101200003091A803B9010E94ED1489819A81029658
:101210009A83898349815A818091AB039091AC0371
:101220009C01CA01B9010E94ED1489819A8102963C
:101230009A83898389819A812091AD033091AE038D
:10124000B9010E94ED1489819A8102969A8389835B
:1012500089819A812091AF033091B0034091B1030D
:101260005091B203BA01A9010E94E11489819A81C7
:1012700004969A83898389819A812091B50330915C
:10128000B603B9010E94ED1489819A8102969A836E
:10129000898389819A812091B3033091B403B90184
:1012A0000E94ED1489819A8102969A8389834981EB
:1012B0005A818091B7039091B8039C01CA01B9018A
:1012C0000E94ED1489819A8102969A83898389818B
:1012D0009A812091B9033091BA03B9010E94ED14AB
:1012E0000F900F90CF91DF910895DF93CF9300D0AF
:1012F000CDB7DEB79A8389832091AD033091AE03D9
:1013000089819A812817390709F443C089819A8114
:1013100081309105F9F42091A9033091AA038091BD
:10132000A7039091A80396958795A901481B590B8F
:10133000CA019093AA038093A90384EB90E0909351
:10134000AC038093AB0381E090E09093AE03809375
:10135000AD031DC089819A810097C9F48091A703CC
:101360009091A8039C01369527958091A9039091AF
:10137000AA03820F931F9093AA038093A90310924C
:10138000AC031092AB031092AE031092AD030E9417
:10139000C8080F900F90CF91DF910895DF93CF93FE
:1013A00000D0CDB7DEB78091AD039091AE031A8225
:1013B0001982009721F481E090E09A8389838981E2
:1013C0009A810E9475090F900F90CF91DF91089537
:1013D000DF93CF9300D0CDB7DEB79A838983209176
:1013E000B9033091BA0389819A812817390709F422
:1013F00043C089819A8181309105F9F42091B50328
:101400003091B6038091B3039091B403969587957C
:10141000A901481B590BCA019093B6038093B503E9
:1014200084EB90E09093B8038093B70381E090E061
:101430009093BA038093B9031DC089819A81009764
:10144000C9F48091B3039091B4039C01369527951C
:101450008091B5039091B603820F931F9093B603CA
:101460008093B5031092B8031092B7031092BA0399
:101470001092B9030E94C8080F900F90CF91DF918E
:101480000895DF93CF9300D0CDB7DEB78091B90335
:101490009091BA031A821982009721F481E090E0BA
:1014A0009A83898389819A810E94E8090F900F901D
:1014B000CF91DF910895DF93CF9300D0CDB7DEB702
:1014C0009A8389832091C6043091C70489819A81C7
:1014D0002817390779F189819A818230910599F429
:1014E00089819A819093C7048093C60489ED9AE01C
:1014F000909316058093150583EE9AE090939A05D4
:101500008093990517C089819A818130910591F462
:1015100089819A819093C7048093C60483EC9AE0F2
:1015200090931605809315058EEC9AE090939A059A
:10153000809399050F900F90CF91DF910895DF93DD
:10154000CF9300D0CDB7DEB79A83898389819A8102
:101550009093C9048093C8040F900F90CF91DF91AE
:101560000895DF93CF9300D0CDB7DEB79A838983F8
:1015700089819A819093CB048093CA040F900F9035
:10158000CF91DF910895DF93CF93CDB7DEB78091F0
:10159000C8049091C904CF91DF910895DF93CF9350
:1015A000CDB7DEB78091CA049091CB04CF91DF9183
:1015B0000895DF93CF93CDB7DEB780E00E94580146
:1015C000CF91DF910895DF93CF93CDB7DEB783E05E
:1015D0000E945801CF91DF9108950F931F93DF93DD
:1015E000CF93CDB7DEB72091CC043091CD0480915C
:1015F000CE049091CF04880F991FFC01E052F94F5F
:1016000080819181A901481B590BCA019093CD0497
:101610008093CC040091CE041091CF04E091150585
:10162000F091160509959C01C801880F991FFC01CE
:10163000E052F94F318320838091CE049091CF0402
:10164000880F991FFC01E052F94F20813181809170
:10165000CC049091CD04820F931F9093CD0480937E
:10166000CC048091CE049091CF0401968F7190703C
:101670009093CF048093CE042091CC043091CD047C
:101680008091CE049091CF04880F991FFC01E05205
:10169000F94F80819181A901481B590BCA01909390
:1016A000CD048093CC040091CE041091CF04E0913E
:1016B0001505F091160509959C01C801880F991F21
:1016C000FC01E052F94F318320838091CE04909148
:1016D000CF04880F991FFC01E052F94F208131811E
:1016E0008091CC049091CD04820F931F9093CD04F0
:1016F0008093CC048091CE049091CF0401968F7199
:1017000090709093CF048093CE048091CC049091FC
:10171000CD0496958795929582958F7089279F70B5
:101720008927CF91DF911F910F9108950F931F93F8
:10173000DF93CF93CDB7DEB72091D0043091D104A1
:101740008091D2049091D304880F991FFC01E05E30
:10175000F84F80819181A901481B590BCA019093D0
:10176000D1048093D0040091D2041091D304E0916D
:101770009905F0919A0509959C01C801880F991F58
:10178000FC01E05EF84F318320838091D204909178
:10179000D304880F991FFC01E05EF84F208131814E
:1017A0008091D0049091D104820F931F9093D10423
:1017B0008093D0048091D2049091D30401968F71CC
:1017C00090709093D3048093D2042091D0043091F0
:1017D000D1048091D2049091D304880F991FFC0109
:1017E000E05EF84F80819181A901481B590BCA0125
:1017F0009093D1048093D0040091D2041091D3042B
:10180000E0919905F0919A0509959C01C801880F0E
:10181000991FFC01E05EF84F318320838091D20450
:101820009091D304880F991FFC01E05EF84F20814E
:1018300031818091D0049091D104820F931F9093B5
:10184000D1048093D0048091D2049091D304019666
:101850008F7190709093D3048093D2048091D004C0
:101860009091D10496958795929582958F7089274E
:101870009F708927CF91DF911F910F910895DF937A
:10188000CF93CDB7DEB70E94ED0A9C018091A903EA
:101890009091AA03281B390B8091A7039091A8036C
:1018A000A901480F591F8091A7039091A8039C019B
:1018B000CA01B9010E946912AA2797FDA095BA2F03
:1018C000BC01CD010E94A20FDC01CB012091A3033A
:1018D0003091A4034091A5035091A603BC01CD0112
:1018E0000E94FC0DDC01CB01BC01CD010E94001067
:1018F000DC01CB019C018091AB039091AC03A90169
:10190000481B590BCA01CF91DF910895DF93CF9304
:10191000CDB7DEB70E94960B9C018091B5039091E4
:10192000B603281B390B8091B3039091B403A9012E
:10193000480F591F8091B3039091B4039C01CA01D1
:10194000B9010E946912AA2797FDA095BA2FBC0180
:10195000CD010E94A20FDC01CB012091AF03309199
:10196000B0034091B1035091B203BC01CD010E947C
:10197000FC0DDC01CB01BC01CD010E940010DC019B
:10198000CB019C018091B7039091B803A901481B3A
:10199000590BCA01CF91DF910895DF93CF9300D007
:1019A000CDB7DEB79A8389838091AD039091AE0362
:1019B0008130910581F48091A7039091A8039C0147
:1019C0003695279589819A81820F931F9093AA0358
:1019D0008093A90306C089819A819093AA0380937A
:1019E000A9030E94C8080F900F90CF91DF9108952E
:1019F000DF93CF9300D0CDB7DEB79A8389838091F0
:101A0000B9039091BA038130910581F48091B303B9
:101A10009091B4039C013695279589819A81820F14
:101A2000931F9093B6038093B50306C089819A8172
:101A30009093B6038093B5030E94C8080F900F904F
:101A4000CF91DF910895DF93CF9300D000D000D0E5
:101A5000CDB7DEB780E00E9458019E838D838D81D3
:101A60009E819C838B831CC080E00E9458019A83D6
:101A7000898329813A818B819C818217930728F47D
:101A800089819A819C838B830BC029813A818D81C6
:101A90009E812817390720F489819A819E838D833E
:101AA0008B819C812D813E81821B930B22E08835A6
:101AB0009207D0F28D819E819093AA038093A9030F
:101AC0002B813C818D819E81A901481B590BCA0144
:101AD0009093A8038093A7038091A7039091A803F4
:101AE000CC01A0E0B0E0BC01CD010E9454109B01EC
:101AF000AC0160E070E084EB93E40E94F60EDC0140
:101B0000CB018093A3039093A403A093A503B09368
:101B1000A6030E94C80826960FB6F894DEBF0FBE33
:101B2000CDBFCF91DF910895DF93CF9300D000D048
:101B3000CDB7DEB783E00E9458019C838B83209150
:101B4000B5033091B6038B819C81821B930B9A83E2
:101B5000898389819A81CC01A0E0B0E0BC01CD01EC
:101B60000E945410DC01CB01BC01CD0128ED32E80C
:101B70004DE25FE30E94F60EDC01CB01BC01CD011A
:101B80000E940010DC01CB019093B4038093B30357
:101B90008091B3039091B403CC01A0E0B0E0BC010C
:101BA000CD010E9454109B01AC0160E070E084EB19
:101BB00093E40E94F60EDC01CB018093AF03909377
:101BC000B003A093B103B093B2030E94C8080F9072
:101BD0000F900F900F90CF91DF910895DF93CF93E7
:101BE000CDB7DEB783E00E9458019093B60380938F
:101BF000B503CF91DF910895A0E2B0E0E2E0FEE00E
:101C00000C94901269837A838B839C832D833E830B
:101C10004F835887CE010196BE01675F7F4F0E94B8
:101C2000F111CE010596BE016F5E7F4F0E94F1114A
:101C30009985923088F089898230C8F0943019F4FF
:101C4000823051F404C0843029F4923081F48BEB5B
:101C500093E0C6C0923049F420E09A858A899813AF
:101C600021E02A87CE010996BBC0823049F420E0EA
:101C70009A858A89981321E02A8BCE014196B0C0BB
:101C80002D843E844F8458886D887E888F88988CF8
:101C9000EE24FF248701AA24BB24650140E050E024
:101CA00060E070E0E0E0F0E0C10181709070892BAD
:101CB000E9F0E60CF71C081D191D9A01AB012A0D6D
:101CC0003B1D4C1D5D1D80E090E0A0E0B0E0E614FF
:101CD000F7040805190520F481E090E0A0E0B0E0E9
:101CE000BA01A901480F591F6A1F7B1FAA0CBB1C10
:101CF000CC1CDD1C97FE08C081E090E0A0E0B0E0C5
:101D0000A82AB92ACA2ADB2A3196E032F10549F01D
:101D1000660C771C881C991C56944794379427941A
:101D2000C3CFFA85EA892B893C898B859C85280F4E
:101D3000391F2E5F3F4F17C0CA0181709070892BE9
:101D400061F016950795F794E79480E090E0A0E0A5
:101D5000B0E8E82AF92A0A2B1B2B76956795579548
:101D600047952F5F3F4F77FDE7CF0CC0440F551FBE
:101D7000661F771F17FD4160EE0CFF1C001F111F2F
:101D800021503040403090E0590790E0690790E4DE
:101D9000790760F32B8F3C8FDB01CA018F7790703E
:101DA000A070B07080349105A105B10561F447FDC4
:101DB0000AC0E114F1040105110529F0405C5F4FF0
:101DC0006F4F7F4F40781A8EFE1711F081E08A8F97
:101DD0004D8F5E8F6F8F78A383E0898FCE014996F8
:101DE0000E941C11A096E2E10C94AC12A8E1B0E0B4
:101DF000ECEFFEE00C94981269837A838B839C83CA
:101E00002D833E834F835887B9E0EB2EF12CEC0EE7
:101E1000FD1ECE010196B7010E94F1118E010F5EE9
:101E20001F4FCE010596B8010E94F111298522307D
:101E300008F47EC03989323010F4B8017CC08A853C
:101E40009A8989278A87243011F0223031F42317A8
:101E500009F06EC06BEB73E06EC0343039F41D8650
:101E60001E861F86188A1C861B8604C0323021F409
:101E700084E08987B7015FC02B853C858B899C896D
:101E8000281B390B3C872B87ED84FE840F8518892E
:101E9000AD88BE88CF88D88CEA14FB040C051D05DC
:101EA00040F4EE0CFF1C001F111F215030403C87F6
:101EB0002B8720E030E040E050E080E090E0A0E0C0
:101EC000B0E460E070E0EA14FB040C051D0540F08E
:101ED000282B392B4A2B5B2BEA18FB080C091D0910
:101EE000B695A79597958795EE0CFF1C001F111FBF
:101EF0006F5F7F4F6F31710531F7DA01C9018F775D
:101F00009070A070B07080349105A105B10561F4A6
:101F100027FD0AC0E114F1040105110529F0205C38
:101F20003F4F4F4F5F4F20782D873E874F87588B0D
:101F3000BE01675F7F4FCB010E941C116896EAE0EB
:101F40000C94B412A8E0B0E0E8EAFFE00C94991217
:101F50009B01AC0183E08983DA01C9018827B7FDC1
:101F600083959927AA27BB27B82E2115310541054E
:101F7000510519F482E089833AC08823A9F0203002
:101F800080E0380780E0480780E8580729F460E0DF
:101F900070E080E09FEC30C0EE24FF248701E21A5D
:101FA000F30A040B150B02C079018A018EE1C82ED9
:101FB000D12CDC82CB82ED82FE820F831887C80190
:101FC000B7010E94CD1001971816190684F4082E47
:101FD00004C0EE0CFF1C001F111F0A94D2F7ED8203
:101FE000FE820F831887C81AD90ADC82CB82BA8294
:101FF000CE0101960E941C112896E9E00C94B512BE
:10200000ACE0B0E0E6E0F0E10C94A01269837A83E2
:102010008B839C83CE010196BE016B5F7F4F0E9434
:10202000F1118D81823061F1823050F1843021F4E0
:102030008E81882351F12EC02F81388537FD20C035
:102040006E812F3131051CF06623F9F023C08EE13B
:1020500090E0821B930B29853A854B855C8504C0F3
:1020600056954795379527958A95D2F76623B1F00F
:1020700050954095309521953F4F4F4F5F4F0EC083
:1020800020E030E040E050E009C02FEF3FEF4FEF9D
:102090005FE704C020E030E040E050E8B901CA0149
:1020A0002C96E2E00C94BC12A8E0B0E0EAE5F0E186
:1020B0000C9498127B018C016115710581059105C5
:1020C00019F482E0898360C083E089838EE1C82EA1
:1020D000D12CDC82CB82ED82FE820F831887C8016F
:1020E000B7010E94CD10FC013197F7FF3BC02227BA
:1020F00033272E1B3F0B57016801022E04C0D694D4
:10210000C794B794A7940A94D2F740E050E060E0F7
:1021100070E081E090E0A0E0B0E004C0880F991F7B
:10212000AA1FBB1F2A95D2F70197A109B1098E21D9
:102130009F21A023B1230097A105B10521F041E023
:1021400050E060E070E04A295B296C297D294D83CD
:102150005E836F8378878EE190E08E1B9F0B9C835C
:102160008B8312C0309781F00E2E04C0EE0CFF1C42
:10217000001F111F0A94D2F7ED82FE820F83188789
:10218000CE1ADF0ADC82CB821A82CE0101960E942F
:102190001C112896EAE00C94B412EF92FF920F9370
:1021A0001F937B018C0180E0E81680E0F80681E057
:1021B000080780E0180788F48FEFE816F10401059E
:1021C000110531F028F088E090E0A0E0B0E017C001
:1021D00080E090E0A0E0B0E012C080E0E81680E08F
:1021E000F80680E0080781E0180728F088E190E011
:1021F000A0E0B0E004C080E190E0A0E0B0E020E228
:1022000030E040E050E0281B390B4A0B5B0B04C068
:1022100016950795F794E7948A95D2F7F701ED5351
:10222000FC4F8081281B310941095109C9011F91C7
:102230000F91FF90EF900895DF92EF92FF920F932E
:102240001F93FC01E480F58006811781D180808195
:10225000823048F480E090E0A0E1B0E0E82AF92A7A
:102260000A2B1B2BA5C0843009F49FC0823021F4B7
:10227000EE24FF24870105C0E114F10401051105D6
:1022800019F4E0E0F0E096C0628173819FEF62385C
:1022900079070CF05BC022E83FEF261B370B2A3191
:1022A00031052CF020E030E040E050E02AC0B801D9
:1022B000A701022E04C076956795579547950A9415
:1022C000D2F781E090E0A0E0B0E004C0880F991F51
:1022D000AA1FBB1F2A95D2F70197A109B1098E2128
:1022E0009F21A023B1230097A105B10521F081E032
:1022F00090E0A0E0B0E09A01AB01282B392B4A2BEB
:102300005B2BDA01C9018F779070A070B0708034B8
:102310009105A105B10539F427FF09C0205C3F4FA5
:102320004F4F5F4F04C0215C3F4F4F4F5F4FE0E086
:10233000F0E02030A0E03A07A0E04A07A0E45A0706
:1023400010F0E1E0F0E079018A0127C06038710502
:1023500064F5FB01E158FF4FD801C7018F779070FA
:10236000A070B07080349105A105B10539F4E7FE85
:102370000DC080E490E0A0E0B0E004C08FE390E006
:10238000A0E0B0E0E80EF91E0A1F1B1F17FF05C0F2
:1023900016950795F794E794319687E0169507957B
:1023A000F794E7948A95D1F705C0EE24FF248701BE
:1023B000EFEFF0E06E2F679566276795902F9F7778
:1023C000D794DD24D7948E2F8695492F462B582FEE
:1023D0005D29B701CA011F910F91FF90EF90DF9027
:1023E0000895FC01DB01408151812281622F6F77CA
:1023F00070E0221F2227221F9381892F880F822BB2
:10240000282F30E0991F9927991F11969C931197B7
:1024100021153105A9F5411551056105710511F425
:1024200082E037C082E89FEF13969C938E931297B9
:102430009A01AB0167E0220F331F441F551F6A95B5
:10244000D1F783E08C930DC0220F331F441F551F1B
:1024500012968D919C911397019713969C938E934E
:102460001297203080E0380780E0480780E4580762
:1024700058F314962D933D934D935C9317970895BD
:102480002F3F310579F4411551056105710519F4A6
:1024900084E08C93089564FF03C081E08C9312C0A4
:1024A0001C9210C02F57304013963C932E931297D6
:1024B00083E08C9387E0440F551F661F771F8A9532
:1024C000D1F7706414964D935D936D937C93179739
:1024D000089597FB092E07260AD077FD04D00CD06B
:1024E00006D000201AF4709561957F4F0895F6F795
:1024F000909581959F4F0895AA1BBB1B51E107C082
:10250000AA1FBB1FA617B70710F0A61BB70B881F83
:10251000991F5A95A9F780959095BC01CD01089512
:102520002F923F924F925F926F927F928F929F92E3
:10253000AF92BF92CF92DF92EF92FF920F931F93D1
:10254000CF93DF93CDB7DEB7CA1BDB0B0FB6F89482
:10255000DEBF0FBECDBF09942A88398848885F84C2
:102560006E847D848C849B84AA84B984C884DF8033
:10257000EE80FD800C811B81AA81B981CE0FD11D17
:102580000FB6F894DEBF0FBECDBFED010895DC019C
:1025900001C06D9341505040E0F70895AEE0B0E0C7
:1025A000E4EDF2E10C949E120D891E8986E08C8385
:1025B0001A8309838FEF9FE79E838D839E01275E99
:1025C0003F4FCE0101966F89788DA9010E94F212CA
:1025D0002F813885020F131FF80110822E96E4E038
:1025E0000C94BA12ABE0B0E0E8EFF2E10C94901278
:1025F0003C012B015A01FC0117821682838181FD67
:1026000003C06FEF7FEFC6C19AE0892E1E010894C8
:10261000211C311CF3012381F20123FD859123FF4D
:1026200081912F01882309F4B2C1853239F423FD49
:10263000859123FF81912F01853229F490E0B30128
:102640000E940915E7CF982FFF24EE249924FFE17B
:10265000FF15D0F09B3269F09C3228F4903259F08B
:10266000933291F40EC09D3249F0903369F441E009
:1026700024C052E0F52A84E0F82A28C098E0F92A1C
:1026800025C0E0E1FE2A22C0F7FC29C0892F805333
:102690008A3070F4F6FE05C0989C902C1124980E98
:1026A00015C0E89CE02C1124E80EF0E2FF2A0EC0D1
:1026B0009E3229F4F6FC6BC140E4F42A07C09C3634
:1026C00019F450E8F52A02C0983649F4F20123FDC6
:1026D000959123FF91912F01992309F0B8CF892F6C
:1026E0008554833018F08052833038F444E050E051
:1026F000A40EB51E5FE359830FC0933631F09337B4
:1027000079F0933509F056C020C0F50180818983A6
:1027100042E050E0A40EB51E610101E010E012C0DD
:10272000F501C080D180F6FC03C06FEF7FEF02C0DF
:10273000692D70E042E050E0A40EB51EC6010E9473
:10274000FE148C015FE7F52214C0F501C080D18032
:10275000F6FC03C06FEF7FEF02C0692D70E042E02E
:1027600050E0A40EB51EC6010E94F3148C0150E87F
:10277000F52AF3FE07C01AC080E290E0B3010E9480
:102780000915EA948E2D90E008171907A8F30EC0DA
:10279000F601F7FC8591F7FE81916F0190E0B3019E
:1027A0000E940915E110EA9401501040011511052D
:1027B00079F7EAC0943611F0993669F5F7FE08C04A
:1027C000F501208131814281538184E090E00AC08B
:1027D000F501808191819C01442737FD4095542F5C
:1027E00082E090E0A80EB91E9FE6F92257FF09C0CB
:1027F00050954095309521953F4F4F4F5F4FE0E802
:10280000FE2ACA01B901A1012AE030E00E94351573
:10281000D82ED21840C0953729F41F2D1F7E2AE0EC
:1028200030E01DC01F2D197F9F3661F0903720F4D6
:10283000983509F0ACC00FC0903739F0983709F0DF
:10284000A6C004C028E030E00AC0106114FD146086
:1028500020E130E004C014FD166020E132E017FFF3
:1028600008C0F501608171818281938144E050E06C
:1028700008C0F50180819181BC0180E090E042E0D8
:1028800050E0A40EB51EA1010E943515D82ED21815
:102890008FE7F82EF122F6FE0BC05EEFF522D91479
:1028A00038F4F4FE07C0F2FC05C08FEEF82202C037
:1028B0001D2D01C0192DF4FE0DC0FE01ED0DF11D01
:1028C0008081803319F499EEF92208C01F5FF2FE6F
:1028D00005C003C08F2D867809F01F5F0F2DF3FC14
:1028E00014C0F0FE0FC01E1510F09D2C0BC09D2CC7
:1028F0009E0C911A1E2D06C080E290E0B3010E944A
:1029000009151F5F1E15C0F304C01E1510F4E11A4F
:1029100001C0EE2404FF0FC080E390E0B3010E94E9
:10292000091502FF1DC001FD03C088E790E00EC03D
:1029300088E590E00BC0802F867891F001FF02C0FF
:102940008BE201C080E2F7FC8DE290E0B3010E94CF
:10295000091506C080E390E0B3010E9409159A941E
:10296000D914C0F3DA94F101ED0DF11D808190E0EE
:10297000B3010E940915DD20A9F706C080E290E0AE
:10298000B3010E940915EA94EE20C1F743CEF3018A
:1029900066817781CB012B96E2E10C94AC12262F55
:1029A000F999FECF92BD81BDF89A019700B4021645
:1029B00039F01FBA20BD0FB6F894FA9AF99A0FBEF3
:1029C00008950396272F0E94D0140E94CF14252F1C
:1029D0000E94D014242F0C94D0140196272F0E940B
:1029E000D0140C94CF14FC0105906150704001107C
:1029F000D8F7809590958E0F9F1F0895FC01615028
:102A0000704001900110D8F7809590958E0F9F1F10
:102A100008950F931F93CF93DF938C01EB018B816C
:102A200081FF1BC082FF0DC02E813F818C819D8163
:102A30002817390764F4E881F9810193F983E88361
:102A400006C0E885F985802F0995892B31F48E81A0
:102A50009F8101969F838E8302C00FEF1FEFC801F5
:102A6000DF91CF911F910F910895FA01AA27283085
:102A700051F1203181F1E8946F936E7F6E5F7F4F4B
:102A80008F4F9F4FAF4FB1E03ED0B4E03CD0670FC7
:102A9000781F891F9A1FA11D680F791F8A1F911D1A
:102AA000A11D6A0F711D811D911DA11D20D009F46A
:102AB00068943F912AE0269F11243019305D3193AC
:102AC000DEF6CF010895462F4770405D4193B3E095
:102AD0000FD0C9F7F6CF462F4F70405D4A3318F03C
:102AE000495D31FD4052419302D0A9F7EACFB4E0ED
:102AF000A6959795879577956795BA95C9F70097A5
:102B00006105710508959B01AC010A2E0694579545
:102B1000479537952795BA95C9F7620F731F841F9C
:0A2B2000951FA01D0895F894FFCF43
:102B2A001B5B333231307C0042554420746F2042A3
:102B3A004F422D3420416E676C65204F7665726C6A
:102B4A006179206170706C69636174696F6E0A0DD6
:102B5A0072656164790A0D001B5B347A001B5B3075
:102B6A003B30480050414E3A2020252D3464202025
:102B7A002020001B5B313B30480054494C543A201A
:102B8A00252D34642020202000405A4352415450BD
:102B9A004751535644020102020200000008000095
:102BAA000B000A0D50414E20582053484946543ACA
:102BBA002020253464202050414E20592053484972
:102BCA0046543A2020252D33642064656709090993
:102BDA00090909200A0D50414E2052414E47453AF3
:102BEA0020202020253464202050414E20534C4F71
:102BFA0050453A2020202025662009090909092084
:102C0A000A0D0A0D54494C54205820534849465439
:102C1A003A20253464202054494C542059205348E2
:102C2A004946543A20252D33642064656709090909
:102C3A00090909200A0D54494C542052414E47456E
:102C4A003A202020253464202054494C5420534CE7
:102C5A004F50453A2020202566200A0D000A0D43D0
:102C6A00555252454E54205241572050414E3A2017
:102C7A00253464202043555252454E542052415720
:102C8A002054494C543A2025640A0D000A0D435534
:102C9A005252454E542053414D504C4544205041C8
:102CAA004E3A20253464202043555252454E542032
:102CBA0053414D504C45442054494C543A202564C4
:102CCA000A0D00110EE13E33036600B40001001143
:102CDA000EE13E6502CD00B40001000000000000D4
:102CEA0000000000010202030303030404040404B5
:102CFA00040404050505050505050505050505057D
:102D0A00050505060606060606060606060606065C
:102D1A000606060606060606060606060606060649
:102D2A00060606070707070707070707070707072C
:102D3A000707070707070707070707070707070719
:102D4A000707070707070707070707070707070709
:102D5A0007070707070707070707070707070707F9
:102D6A0007070708080808080808080808080808DC
:102D7A0008080808080808080808080808080808C9
:102D8A0008080808080808080808080808080808B9
:102D9A0008080808080808080808080808080808A9
:102DAA000808080808080808080808080808080899
:102DBA000808080808080808080808080808080889
:102DCA000808080808080808080808080808080879
:102DDA000808080808080808080808080808080869
:042DEA0008080800CD
:00000001FF
